:020000040000FA
:100000000C9443010C94810C0C94560C0C942B0C06
:100010000C94000C0C94D50B0C94AA0B0C947F0B35
:100020000C94540B0C9474010C9474010C94740192
:100030000C9474010C9474010C9474010C9474016C
:100040000C9474010C9474010C9474010C9474015C
:100050000C9474010C9474010C9474010C940A0BAC
:100060000C9474010C94D60C0C94AC0C0C9474018C
:100070000C9474010C9474010C9474010C9474012C
:100080000C9474010C9474010C9474010C9474011C
:100090000C9474010C9474010C9474010C9474010C
:1000A0000C9474010C9474010C9474010C947401FC
:1000B0000C9474010C9474010C9474010C947401EC
:1000C0000C9474010C9474010C9474010C947401DC
:1000D0000C9474010C9474010C9474010C947401CC
:1000E0000C9474010C949E010C94BD010C940C0DA5
:1000F0000C94C7010C949A030C94A2010C94540321
:100100000C9400030C94B9010C9462030C94CB0181
:100110000C949A010C9403030C94CF010C94E70304
:100120000C94A6010C94B3010C9494010C9431032B
:100130000C94D4010C9438040C944B090C94400397
:100140000C9439040C940D070C94FD020C94A90135
:100150000C94AF010C94D9010C9404030C94C101CC
:100160000C94D50100002100240027002A002D0056
:100170003000330001010000040107010A01000002
:100180002200250028002B002E003100340002013F
:100190000000050108010B010000200023002600DB
:1001A00029002C002F00320000010000030106018D
:1001B00009010505050507050808080802020202ED
:1001C0000A0A0808040404040101010101010101F3
:1001D0000303030303030303040707070C0C0C0CBE
:1001E0000C0C0C0C020202020606060606060606A7
:1001F0000B0B0B0B0B0B0B0B010210202008081034
:100200002040102040800201020108040201010286
:10021000040810204080804020100804020180045F
:1002200002018040201008040201080402010102BA
:1002300004081020408001020408102040800000C3
:100240000A0B02090C0D0E08070304010000000050
:10025000000000000000000000000000000000009E
:10026000000000000000000000001211100000005B
:10027000000000000000000000000000000000007E
:10028000000000000C0D11241FBECFEFD1E2DEBF35
:10029000CDBF00E00CBF27E0AAEAB6E001C01D9286
:1002A000AE3CB207E1F716E0A0E0B2E0E2EBFCE220
:1002B00000E00BBF02C007900D92AA3AB107D9F730
:1002C00011E0C3E4D1E000E006C021970109802FCE
:1002D000FE010E943914C234D10780E00807A9F753
:1002E0000E94A20D0C9457160C940000815082318C
:1002F00008F05AC0E82FF0E08827EE57FE4F8F4FE6
:100300000C943914A201A60194019A019E01D40112
:10031000A901AF01B301B901BD01C101C701CB0101
:10032000D401CF01D501D901809180008F778093CE
:1003300080000895809180008F7DF9CF80918000AA
:10034000877FF5CF84B58F7784BD089584B58F7D81
:10035000FBCF8091B0008F778093B000089580919B
:10036000B0008F7DF9CF809190008F7780939000BF
:100370000895809190008F7DF9CF80919000877FC4
:10038000F5CF8091A0008F778093A0000895809191
:10039000A0008F7DF9CF8091A000877FF5CF80915D
:1003A00020018F77809320010895809120018F7D17
:1003B000F9CF80912001877FF5CFCF93DF93282F4E
:1003C00030E0F901E25CFD4F8491F901E850FE4F05
:1003D000D491F901EE54FE4FC491CC23A1F08111C8
:1003E0000E947601EC2FF0E0EE0FFF1FE856FE4F63
:1003F000A591B491EC91ED2381E090E009F480E0C7
:10040000DF91CF91089580E090E0FACF1F93CF93D2
:10041000DF93282F30E0F901E25CFD4F8491F90170
:10042000E850FE4FD491F901EE54FE4FC491CC2315
:10043000A9F0162F81110E947601EC2FF0E0EE0F4B
:10044000FF1FE258FE4FA591B4918FB7F894EC913D
:10045000111108C0D095DE23DC938FBFDF91CF91BF
:100460001F910895DE2BF8CFEF92FF920F931F9309
:10047000CF93DF93EC0107E414E07C0180E1E80E08
:10048000F11C68812296F80180810E5F1F4F0E9447
:100490000602CE15DF05A9F7DF91CF911F910F91CD
:1004A000FF90EF900895CF93DF9390E0FC01E85028
:1004B000FE4F24918E549E4FFC0184918823C9F0F5
:1004C00090E0880F991FFC01EC59FE4FA591B49163
:1004D000FC01E258FE4FC591D49161110DC09FB748
:1004E000F8948C91209582238C93888128232883EB
:1004F0009FBFDF91CF910895623051F49FB7F89478
:100500003C91822F809583238C93E8812E2BEFCF13
:100510008FB7F894EC912E2B2C938FBFEACF90914C
:100520007B00977F90937B008653806480937C0050
:1005300080917A00806480937A0080917A0086FDB1
:10054000FCCF809178009091790008953FB7F8949E
:100550008091B2069091B306A091B406B091B50611
:1005600026B5A89B05C02F3F19F00196A11DB11D0E
:100570003FBFBA2FA92F982F8827BC01CD01620F4A
:10058000711D811D911D42E0660F771F881F991F05
:100590004A95D1F708958F929F92AF92BF92CF92D2
:1005A000DF92EF92FF924B015C010E94A6026B0169
:1005B0007C010E94A6026C197D098E099F09683E84
:1005C000734081059105A8F321E0821A9108A108E2
:1005D000B10888EEC80E83E0D81EE11CF11C81141E
:1005E0009104A104B10429F7FF90EF90DF90CF9020
:1005F000BF90AF909F908F90089588E30C948F02E6
:1006000086E30C948F020895AF92BF92CF92DF924F
:10061000EF92FF920F931F93CF93DF936C017B01B7
:100620008B01040F151FEB015E01AE18BF08C01748
:10063000D10759F06991D601ED91FC910190F081BB
:10064000E02DC6011995892B79F7C501DF91CF916E
:100650001F910F91FF90EF90DF90CF90BF90AF90E0
:100660000895FC01538D448D252F30E0842F90E0B8
:10067000821B930B541710F0CF960895019708959D
:10068000FC01918D828D981761F0A28DAE0FBF2F66
:10069000B11D5D968C91928D9F5F9F73928F90E0BC
:1006A00008958FEF9FEF0895FC01918D828D98172B
:1006B00031F0828DE80FF11D858D90E008958FEF68
:1006C0009FEF0895FC01918D228D892F90E0805C31
:1006D0009F4F821B91098F73992708958CEB96E0A9
:1006E0000E94620321E0892B09F420E0822F089503
:1006F000FC01A48DA80FB92FB11DA35ABF4F2C9197
:10070000848D90E001968F739927848FA689B7898D
:100710002C93A089B1898C91837080648C93938D84
:10072000848D981306C00288F389E02D80818F7D27
:1007300080830895EF92FF920F931F93CF93DF93DF
:10074000EC0181E0888F9B8D8C8D98131AC0E8890D
:10075000F989808185FF15C09FB7F894EE89FF89DC
:100760006083E889F98980818370806480839FBF7A
:1007700081E090E0DF91CF911F910F91FF90EF907A
:100780000895F62E0B8D10E00F5F1F4F0F7311278A
:10079000E02E8C8D8E110CC00FB607FCFACFE889C5
:1007A000F989808185FFF5CFCE010E947803F1CFD2
:1007B000EB8DEC0FFD2FF11DE35AFF4FF0829FB739
:1007C000F8940B8FEA89FB8980818062CFCFCF9329
:1007D000DF93EC01888D8823B9F0AA89BB89E88969
:1007E000F9898C9185FD03C0808186FD0DC00FB60F
:1007F00007FCF7CF8C9185FFF2CF808185FFEDCF8D
:10080000CE010E947803E9CFDF91CF91089580E077
:1008100090E0892B29F00E946E0381110E94000054
:1008200080E090E0892B49F080E090E0892B29F06E
:100830000E94000081110E94000080E090E0892B5E
:1008400049F080E090E0892B29F00E94000081119E
:100850000E94000080E090E0892B49F080E090E069
:10086000892B29F00E94000081110C94000008954A
:10087000089590E080E008958F929F92AF92BF928A
:10088000CF92DF92EF92FF92CF93DF93FC01199505
:1008900020916107222309F4ECC0F0906307FF2048
:1008A00009F41EC120915F0730916007BC01621BF3
:1008B000730B70935A0760935907072E000C880B2F
:1008C000990B0E946A119B01AC0160917F077091A6
:1008D000800780918107909182070E949E12609309
:1008E0007F077093800780938107909382076091C0
:1008F000590770915A07072E000C880B990B0E941C
:100900006A119B01AC010E94C911209183073091AB
:10091000840740918507509186070E949E1260933C
:100920008307709384078093850790938607C0910F
:100930006D07D0916E072091650730916607C21749
:10094000D30709F08DC06093870770938807809361
:10095000890790938A07FF2009F476C0C090670743
:10096000D0906807E0906907F0906A07A7019601A8
:1009700060E070E080E89FE30E949D1220917B0779
:1009800030917C0740917D0750917E070E94C911EC
:100990004B015C0120917F073091800740918107D6
:1009A00050918207C701B6010E94C9119B01AC0199
:1009B000C501B4010E949E126B017C01C0927B07AD
:1009C000D0927C07E0927D07F0927E07BE01DD0F9A
:1009D000880B990B0E946A119B01AC01C701B601FB
:1009E0000E940A136B017C0120E030E0A9010E9403
:1009F000B21320E030E040E05FE387FD76C0C7013E
:100A0000B6010E949E120E947C1370936C07609343
:100A10006B0780915F0790916007680F791F709353
:100A2000600760935F0710927F0710928007109213
:100A300081071092820780916407882329F0109221
:100A4000610781E080936207109283071092840708
:100A5000109285071092860710926E0710926D070C
:100A600080916D0790916E07019690936E07809329
:100A70006D070E94A602C090B606D090B706E0901F
:100A8000B806F090B9066C157D058E059F0588F3B4
:100A9000D701C60188519C4FAF4FBF4F8093B60618
:100AA0009093B706A093B806B093B9062091BA0602
:100AB0003091BB062F5F3F4F3093BB062093BA06A1
:100AC00081E0283E33400CF080E0DF91CF91FF9031
:100AD000EF90DF90CF90BF90AF909F908F90089550
:100AE00090935A078093590702CFC701B6010E941D
:100AF0009D1289CFCF93C2E060E08C2F0E94060246
:100B0000CF5FC730C9F7C8E060E08C2F0E940602B3
:100B1000CF5FCD30C9F760E08EE00E94060260E052
:100B20008FE0CF910C940602CF93DF93EC0160E04D
:100B30008E810E94060261E08E810E94060260E0C2
:100B40008E810E9406028BE891E00197F1F7DF9118
:100B5000CF910895CF92DF92EF92FF920F931F9360
:100B6000CF93DF936C017C0187E0E80EF11CD0E0AD
:100B7000C0E0062F10E0B8010C2E02C075956795F5
:100B80000A94E2F76170F70181917F010E940602E9
:100B90002196C430D10579F7C601DF91CF911F911D
:100BA0000F91FF90EF90DF90CF900C949405CF922F
:100BB000DF92EF92FF920F931F93CF93DF93EC019D
:100BC000F62E642F8C810E9406028D818F3F19F0D2
:100BD00060E00E9406020F2D10E08F8584FF25C083
:100BE0006E0187E0C80ED11CF12CE12CB8010E2C4F
:100BF00002C0759567950A94E2F76170F6018191DC
:100C00006F010E940602FFEFEF1AFF0A88E0E81664
:100C1000F10461F7CE01DF91CF911F910F91FF9009
:100C2000EF90DF90CF900C949405B80184E0759517
:100C300067958A95E1F7CE010E94AA056F2DCE0136
:100C4000DF91CF911F910F91FF90EF90DF90CF90A8
:100C50000C94AA0540E0682F82EB97E00C94D7052E
:100C600081E00E942A068BE39FE10197F1F7089546
:100C7000CF93DF93823029F49091C10798609093CD
:100C8000C1078093C5071092C60780E48093C70709
:100C900080E18093C80780E58093C90761E0809177
:100CA000B6070E9453028091B7078F3F19F061E0A9
:100CB0000E94530261E08091B8070E945302C2EB88
:100CC000D7E09E01225B37408091C10784FD0BC0B5
:100CD00084E090E021962817390744F461E08E8182
:100CE0000E945302EECF88E090E0F4CF8BE39DE0CA
:100CF0000197F1F760E08091B6070E94060260E07C
:100D00008091B8070E9406028091B7078F3F19F0C3
:100D100060E00E9406028091C10784FD34C063E058
:100D200082EB97E00E94AA05CBE4D6E4CE010197BE
:100D3000F1F763E082EB97E00E94AA052197F1F7B3
:100D400063E082EB97E00E94AA0583E592E00197B9
:100D5000F1F762E082EB97E00E94AA058091C1075B
:100D600080620E942A0684E08093C2078CE00E9481
:100D70002A060E94300682E08093C30786E0DF9156
:100D8000CF910C942A0680620E942A068BE496E496
:100D90000197F1F78091C10780620E942A0683E5DE
:100DA00092E00197F1F78091C10780620E942A06C4
:100DB000D5CF9091C507691710F06FEF690FE62F37
:100DC000F0E0EE54F84F9489890F80680C942A065D
:100DD0000F931F93CF93DF938C01EB010E9430069A
:100DE00060E080E00E94D906F8014481558160816D
:100DF000718182EB97E00E94040361E080E00E9431
:100E0000D9064C815D816881798182EB97E0DF9121
:100E1000CF911F910F910C94040341E00E94D705DC
:100E200081E090E008951F93CF93DF93C9E5D7E069
:100E30001B8622E330E03D872C8711E01A8720E0F3
:100E400032E03F832E839B01AC010E94C91120E058
:100E500030E048E45CE40E940A136A8F7B8F8C8F39
:100E60009D8F1AA61BA61CA61DA61D8A1C8A188764
:100E700019861092BB061092BA060E94A60268510B
:100E80007C4F8F4F9F4F6093B6067093B706809349
:100E9000B8069093B906DF91CF911F910895FC0198
:100EA00080819181009711F00C94DD140895FB016D
:100EB00001900020E9F73197AF01461B570BDC0189
:100EC000ED91FC910280F381E02D19948F929F9215
:100ED000AF92BF92EF92FF920F931F93CF93DF9346
:100EE000CDB7DEB7A1970FB6F894DEBF0FBECDBF6A
:100EF0007C01FA01CB0119A2223008F42AE08E010C
:100F00000F5D1F4F822E912CB12CA12CBF01A5018A
:100F100094010E941714F901CA016A300CF5605D52
:100F2000D8016E938D01232B242B252B79F790E08C
:100F300080E0109721F0BD01C7010E945707A196DC
:100F40000FB6F894DEBF0FBECDBFDF91CF911F91DA
:100F50000F91FF90EF90BF90AF909F908F9008956A
:100F6000695CDECFCF93DF93BC018CEB96E00E94EF
:100F70005707EC0165E774E08CEB96E00E94570799
:100F80008C0F9D1FDF91CF910895CF92DF92EF924A
:100F9000FF92CF93DF936C01990FEE08FF08F7FEE5
:100FA00023C06DE28CEB96E00E949A03EC0144278B
:100FB0005527BA014C195D096E097F092AE08CEBAF
:100FC00096E00E946607C80FD91F65E774E08CEBB6
:100FD00096E00E9457078C0F9D1FDF91CF91FF90E5
:100FE000EF90DF90CF9008952AE0B701A6018CEB37
:100FF00096E00E946607EC01E8CF2F923F924F9255
:101000005F926F927F928F929F92AF92BF92CF9298
:10101000DF92EF92FF921F93CF93DF93EC016A016F
:101020007B01722EAB019601CB01B6010E94FD132C
:1010300068E774E0811126C046015701E894B7F8CB
:101040002FEF3FEF4FE75FE7C501B4010E94FD13AB
:1010500081110CC02FEF3FEF4FE75FE7C501B401EF
:101060000E9463116CE774E0181664F02FEF3FEFF5
:101070004FE75FE4C701B6010E94B2131816B4F43B
:1010800060E874E0CE01DF91CF911F91FF90EF9067
:10109000DF90CF90BF90AF909F908F907F906F9098
:1010A0005F904F903F902F900C9457072FEF3FEF9A
:1010B0004FE75FECC701B6010E94631187FDE0CFE7
:1010C00020E030E0A901C701B6010E946311312C74
:1010D000212C87FF0DC0E881F9810190F081E02D7E
:1010E0006DE2CE0119951C01F7FAF094F7F8F0942F
:1010F00010E060E070E080E09FE3711641F020E0D6
:1011000030E040E251E40E940A131F5FF6CFA701CE
:1011100096010E949E122B013C010E9483134B01F9
:101120005C012AE0BC01A401CE010E9466077C019B
:10113000E20CF31C1123E1F1C501B4010E94681116
:101140009B01AC01C301B2010E949D124B015C01E5
:10115000E881F9810190F081E02D6EE2CE011995D0
:10116000E80EF91E115020F120E030E040E251E499
:10117000C501B4010E94C9112B013C010E948313D7
:101180004B01B12CA12C2AE0B501A401CE010E9493
:101190006607E80EF91EC501B4010E9468119B01A3
:1011A000AC01C301B2010E949D124B015C01DACF78
:1011B000C701DF91CF911F91FF90EF90DF90CF900B
:1011C000BF90AF909F908F907F906F905F904F9067
:1011D0003F902F900895CF93DF93AB01BC0122E0A5
:1011E0008CEB96E00E94FD07EC0165E774E08CEB68
:1011F00096E00E9457078C0F9D1FDF91CF910895B5
:101200000C945707EF92FF920F931F93CF93DF93A6
:10121000EC017B01198218821B821A821D821C82BA
:10122000FB0101900020E9F731978F01061B170B96
:10123000B8016F5F7F4F90E080E00E9466150097D5
:10124000B9F0998388831B830A832C813D81232BEA
:1012500011F4FC0110821D830C83B70188819981F0
:10126000DF91CF911F910F91FF90EF900C9450164A
:1012700088819981009711F00E94DD1419821882EB
:101280001D821C821B821A82DF91CF911F910F91C8
:10129000FF90EF9008951F93CF93DF93CDB7DEB704
:1012A0002C970FB6F894DEBF0FBECDBF82E10E942F
:1012B000DD0164E874E0019709F040C0CE010796B3
:1012C0000E94020964E974E0CE0101960E940209BD
:1012D000BE01695F7F4FCE0101960E94E806CE01F4
:1012E00001960E944F07CE0107960E944F0784EA9D
:1012F00094E00E94B20711E01093AA0681E090E00A
:101300000E94C50760ED77E080E090E00E94CB028C
:101310000E947A05109360021092AC061092AB0600
:1013200084EB94E00E94B2072C960FB6F894DEBFCF
:101330000FBECDBFDF91CF911F910895CE010796CB
:101340000E94020965EC74E0CE0101960E94020938
:10135000BE01695F7F4FCE0101960E94E806CE0173
:1013600001960E944F07CE0107960E944F0785EC19
:1013700094E00E94B2071092AA060E947A0581E0CA
:10138000809360021092AC061092AB06CDCFCF9244
:10139000DF92EF92FF920F931F93CF93DF93EB01B6
:1013A0007B0124E0E20EF11C8B016C01C61AD70A06
:1013B000C601800F911F0E948712F80181938F014F
:1013C000EE15FF05A9F7CE01DF91CF911F910F9187
:1013D000FF90EF90DF90CF9008959F92AF92BF92D1
:1013E000CF92DF92EF92FF920F931F93CF93DF93F1
:1013F0005C017B018B01D0E0C0E0F80191908F018E
:101400006501CC0EDD1EC6010E948712981621F0E0
:10141000692DC6010E948F122196C430D10569F74B
:10142000C701DF91CF911F910F91FF90EF90DF9057
:10143000CF90BF90AF909F900895CF93DF93EC0132
:10144000BC0188E090E00E94ED0968ED74E08CEB4F
:1014500096E00E940009688179818A819B81DF91F1
:10146000CF910C94EB08CF92DF92EF92FF920F9303
:101470001F93CF93DF936B017C018A01E90182EF17
:1014800094E00E94B20720E030E0A901C701B60154
:101490000E94B21387FD18C020E030E048E452E417
:1014A000C701B6010E946311181674F0C8010E94AA
:1014B0003402CE01DF91CF911F910F91FF90EF90F9
:1014C000DF90CF900C941D0A20E030E048E452E415
:1014D000C701B6010E94B2131816ACF420E030E048
:1014E00048EC52E4C701B6010E94631118165CF083
:1014F00061E083E00E940602C80148960E9434021F
:10150000CE010496D7CF20E030E048EC52E4C7018A
:10151000B6010E94B2131816ACF420E030E046E1A8
:1015200053E4C701B6010E94631118165CF061E034
:1015300084E00E940602C801C0960E943402CE01D7
:101540000896B8CF20E030E046E153E4C701B60189
:101550000E94B213181694F420E030E04EE353E4F6
:10156000C701B6010E946311181644F0C801885BD8
:101570009F4F0E943402CE010C969CCF20E030E0B9
:101580004EE353E4C701B6010E94B213181644F4A7
:10159000C801805A9F4F0E943402CE0140968ACFE4
:1015A000DF91CF911F910F91FF90EF90DF90CF903F
:1015B0000895CF93DF93C9E5D7E02A8D3B8D4C8DFD
:1015C0005D8D6EA57FA588A999A90E94C9116E8F0E
:1015D0007F8F88A399A30E94BD13AB01BC014A83EE
:1015E0005B836C837D83198622E08CEB96E00E94FE
:1015F000FD0763E075E08CEB96E00E9400098E81A8
:101600009F810E94C5076A817B818C819D81DF91CA
:10161000CF9108951F920F920FB60F9211242F931E
:101620003F938F939F93AF93BF938091AE0690911A
:10163000AF06A091B006B091B1063091AD0623E09F
:10164000230F2D3758F50196A11DB11D2093AD062E
:101650008093AE069093AF06A093B006B093B10608
:101660008091B2069091B306A091B406B091B506F0
:101670000196A11DB11D8093B2069093B306A0936D
:10168000B406B093B506BF91AF919F918F913F91F2
:101690002F910F900FBE0F901F90189526E8230FE3
:1016A0000296A11DB11DD2CF1F920F920FB60F92BD
:1016B00011240BB60F922F933F934F935F936F9329
:1016C0007F938F939F93AF93BF93EF93FF93E0919B
:1016D0000E02F0910F021995FF91EF91BF91AF911A
:1016E0009F918F917F916F915F914F913F912F913A
:1016F0000F900BBE0F900FBE0F901F9018951F926A
:101700000F920FB60F9211240BB60F922F933F93A7
:101710004F935F936F937F938F939F93AF93BF93F9
:10172000EF93FF93E0910C02F0910D021995FF9158
:10173000EF91BF91AF919F918F917F916F915F9149
:101740004F913F912F910F900BBE0F900FBE0F90B6
:101750001F9018951F920F920FB60F9211240BB67F
:101760000F922F933F934F935F936F937F938F933A
:101770009F93AF93BF93EF93FF93E0910202F09199
:1017800003021995FF91EF91BF91AF919F918F91B6
:101790007F916F915F914F913F912F910F900BBE71
:1017A0000F900FBE0F901F9018951F920F920FB6BB
:1017B0000F9211240BB60F922F933F934F935F9389
:1017C0006F937F938F939F93AF93BF93EF93FF9309
:1017D000E0910002F09101021995FF91EF91BF9104
:1017E000AF919F918F917F916F915F914F913F91B9
:1017F0002F910F900BBE0F900FBE0F901F9018955A
:101800001F920F920FB60F9211240BB60F922F93C7
:101810003F934F935F936F937F938F939F93AF9378
:10182000BF93EF93FF93E0910A02F0910B02199599
:10183000FF91EF91BF91AF919F918F917F916F91A8
:101840005F914F913F912F910F900BBE0F900FBE64
:101850000F901F9018951F920F920FB60F921124A0
:101860000BB60F922F933F934F935F936F937F939A
:101870008F939F93AF93BF93EF93FF93E0910802F1
:10188000F09109021995FF91EF91BF91AF919F914E
:101890008F917F916F915F914F913F912F910F9019
:1018A0000BBE0F900FBE0F901F9018951F920F92B6
:1018B0000FB60F9211240BB60F922F933F934F93B5
:1018C0005F936F937F938F939F93AF93BF93EF93A8
:1018D000FF93E0910602F09107021995FF91EF91B5
:1018E000BF91AF919F918F917F916F915F914F9138
:1018F0003F912F910F900BBE0F900FBE0F901F9036
:1019000018951F920F920FB60F9211240BB60F92DB
:101910002F933F934F935F936F937F938F939F93F7
:10192000AF93BF93EF93FF93E0910402F091050210
:101930001995FF91EF91BF91AF919F918F917F91F9
:101940006F915F914F913F912F910F900BBE0F9030
:101950000FBE0F901F9018951F920F920FB60F9207
:1019600011240BB60F922F933F934F935F936F9376
:101970007F938F939F93AF93BF93EF93FF938CEBE2
:1019800096E00E947803FF91EF91BF91AF919F91F4
:101990008F917F916F915F914F913F912F910F9018
:1019A0000BBE0F900FBE0F901F9018951F920F92B5
:1019B0000FB60F9211240BB60F922F938F939F9314
:1019C000EF93FF93E091CC06F091CD068081E091FA
:1019D000D206F091D30682FD1DC090818091D5067C
:1019E0008F5F8F732091D606821741F0E091D50664
:1019F000F0E0E454F94F958F8093D506FF91EF9175
:101A00009F918F912F910F900BBE0F900FBE0F9053
:101A10001F9018958081F2CFCF93DF93ECEBF6E027
:101A20001382128288EE93E0A0E0B0E08483958375
:101A3000A683B7838BE594E09183808385EC90E067
:101A40009587848784EC90E09787868780EC90E088
:101A5000918B808B81EC90E0938B828B82EC90E079
:101A6000958B848B86EC90E0978B868B118E128EF3
:101A7000138E148EE2EBF7E0138212828DE694E06F
:101A80009183808381E184838FEF85838AE28683DB
:101A900082E2878384E2808786E2818788E2828788
:101AA0001386148615861686178681E00E943806EE
:101AB000E5EAF7E08AE180831182128213821482C0
:101AC00015821682C2E3D0E0D087C78311861286C2
:101AD0001386148662E00E945302E8E9F7E088E189
:101AE0008083118212821382148215821682D0871B
:101AF000C783118612861386148662E00E94530201
:101B0000EBE8F7E086E1808311821282138214826F
:101B100015821682D087C783118612861386148693
:101B200062E00E94530283E393E3A3E3BFE3809365
:101B3000670790936807A0936907B0936A07DF91DE
:101B4000CF910895CF93DF93CDB7DEB768970FB6E7
:101B5000F894DEBF0FBECDBF789484B5826084BD9B
:101B600084B5816084BD85B5826085BD85B58160A1
:101B700085BD80916E00816080936E00109281001F
:101B800080918100826080938100809181008160DA
:101B9000809381008091800081608093800080919B
:101BA000B10084608093B1008091B0008160809327
:101BB000B0008091910082608093910080919100AB
:101BC000816080939100809190008160809390006B
:101BD0008091A10082608093A1008091A10081602A
:101BE0008093A1008091A00081608093A0008091EB
:101BF0002101826080932101809121018160809385
:101C000021018091200181608093200180917A00E0
:101C1000846080937A0080917A00826080937A0059
:101C200080917A00816080937A0080917A00806848
:101C300080937A001092C100E091CC06F091CD061D
:101C400082E08083E091C806F091C9061082E0919D
:101C5000CA06F091CB068FEC80831092D406E091F7
:101C6000D006F091D10686E08083E091CE06F09117
:101C7000CF06808180618083E091CE06F091CF060F
:101C8000808188608083E091CE06F091CF068081CC
:101C900080688083E091CE06F091CF0680818F7DB1
:101CA000808382E00E94380660E08AE10E9453024D
:101CB00060E088E10E94530260E086E10E945302E6
:101CC00060E088E30E94530212E061E0812F0E94ED
:101CD00053021F5F1730C9F761E088E00E9453028A
:101CE00061E089E00E94530261E08AE00E945302B1
:101CF0008BE499E090930B0280930A028091690033
:101D00008F73806480936900EB9A03E010E082E0B7
:101D1000C82ED12C8091AB069091AC0681309105F4
:101D200009F48EC050F08230910509F43CC103974C
:101D300009F4E8C10E940704EDCF80916002882376
:101D400009F186E095E00E94B20760E275E0CE01FD
:101D500001960E9402096DE275E0CE0107960E948D
:101D60000209BE016F5F7F4FCE0107960E94E80611
:101D7000CE0107960E944F07CE0101960E944F07A1
:101D8000109260028AE10E94DD017C0181E0E81688
:101D9000F10451F58FE395E00E94B20767E774E024
:101DA000CE0101960E9402096EE475E0CE0107960D
:101DB0000E940209BE016F5F7F4FCE0107960E940D
:101DC000E806CE0107960E944F07CE0101960E94B9
:101DD0004F0768EE73E080E090E00E94CB02F09243
:101DE000AC06E092AB06A6CF88E10E94DD01019728
:101DF00009F0A0CF67E774E0CE0101960E940209C6
:101E000063E675E0CE0107960E940209BE016F5F8E
:101E10007F4FCE0107960E94E806CE0107960E94EA
:101E20004F07CE0101960E944F0768EE73E080E0F5
:101E300090E00E94CB02D092AC06C092AB067ACF63
:101E400087E795E00E94B2076CE875E0CE01019645
:101E50000E94020962EA75E0CE0107960E9402091B
:101E6000BE016F5F7F4FCE0107960E94E806CE014C
:101E700007960E944F07CE0101960E944F0760E02F
:101E800070EC80E394E40E9413078DEF92E00E94CF
:101E90003C048111FACF0E94D90A6F837887898721
:101EA0009A87BE01695F7F4F90E080E00E94ED0954
:101EB0000E94300663EB75E082EB97E00E94000918
:101EC00061E080E00E94D9064F81588569857A8556
:101ED00022E082EB97E00E94FD078091AA0688230A
:101EE00069F18BEB95E00E94B2076F817885898557
:101EF0009A8524E232E04FED52E00E94330A60E01E
:101F000070E08AE793E40E9413070E94D90A69836C
:101F10007A838B839C83BE016F5F7F4F84E090E068
:101F20000E94ED091093AC060093AB0681E080930C
:101F300060028093AA068DEC95E032C06F817885AF
:101F400089859A8520E132E047E652E00E94330A13
:101F500060E070E88DE094E40E94130780E093E075
:101F60000E943C048111FACF0E94D90A69837A83C6
:101F70008B839C83BE016F5F7F4F84E090E00E9463
:101F8000ED0964EF71E080E090E00E94CB021093D5
:101F9000AC060093AB0681E08093600286EE95E08C
:101FA0000E94B207C7CE8CEF95E00E94B2076CE8A2
:101FB00075E0CE0101960E94020961E176E0CE0152
:101FC00007960E940209BE016F5F7F4FCE01079600
:101FD0000E94E806CE0107960E944F07CE010196A7
:101FE0000E944F0760E070EC80E394E40E941307C6
:101FF0008DEF92E00E943C048111FACF0E94D90A31
:102000006F83788789879A87BE01695F7F4F90E0E9
:1020100080E00E94ED090E94300662E276E082EBE9
:1020200097E00E94000961E080E00E94D9064F819C
:10203000588569857A8522E082EB97E00E94FD074A
:102040008091AA06882349F18BEB95E00E94B207A4
:102050006F81788589859A852CE432E04FEC53E0D6
:102060000E94330A60E070E08AE793E40E9413075D
:102070000E94D90A69837A838B839C83BE016F5F38
:102080007F4F84E090E00E94ED091093AC0600932E
:10209000AB0681E0809360024ECF6F8178858985A1
:1020A0009A8528E332E047E553E00E94330A8AE24A
:1020B00096E00E94B20760E070E88DE094E40E9430
:1020C000130780E093E00E943C048111FACF0E9444
:1020D000D90A69837A838B839C83BE016F5F7F4FAC
:1020E00084E090E00E94ED0964EF71E080E090E010
:1020F0000E94CB021093AC060093AB0681E0809364
:10210000600218CE809160028823E9F06CE376E0EB
:10211000CE0101960E9402096AE476E0CE0107969C
:102120000E940209BE016F5F7F4FCE0107960E9499
:10213000E806CE0107960E944F07CE0101960E9445
:102140004F071092600286E10E94DD01019709F0BD
:10215000A9C0BE016B5E7F4F90E080E00E94C7097E
:10216000BE016F5E7F4F84E090E00E94C709BE0110
:10217000635F7F4F88E090E00E94C7096AE576E0E0
:102180008CEB96E00E9400096D897E898F89988D7D
:102190000E94EB0864E676E08CEB96E00E94000972
:1021A00069897A898B899C890E94EB086EE676E0C2
:1021B0008CEB96E00E9400096D857E858F8598895D
:1021C0000E94EB080E94300660E080E00E94D90681
:1021D0006BE776E082EB97E00E94000949895A8913
:1021E0006B897C8923E082EB97E00E94FD0760E029
:1021F00088E00E94D9066EE776E082EB97E00E94C5
:10220000000961E080E00E94D90661E876E082EB97
:1022100097E00E9400094D895E896F89788D20E0E2
:1022200082EB97E00E94FD0761E089E00E94D906F9
:1022300067E876E082EB97E00E9400094D855E85B5
:102240006F85788922E082EB97E00E94FD0761E0CC
:102250008FE00E94D90663EC74E082EB97E00E9465
:10226000000960E777E180E090E00E94CB026AE835
:1022700076E0CE0101960E9402096BE976E0CE017C
:1022800007960E940209BE016F5F7F4FCE0107963D
:102290000E94E806CE0107960E944F07CE010196E4
:1022A0000E944F078AE10E94DD01019729F41092F4
:1022B000AC061092AB0622CF88E10E94DD010197A7
:1022C00009F038CDF4CF0E94A51108F481E00895FB
:1022D000E89409C097FB3EF49095809570956195C0
:1022E0007F4F8F4F9F4F9923A9F0F92F96E9BB2776
:1022F0009395F695879577956795B795F111F8CFF2
:10230000FAF4BB0F11F460FF1BC06F5F7F4F8F4F5C
:102310009F4F16C0882311F096E911C0772321F052
:102320009EE8872F762F05C0662371F096E8862FEA
:1023300070E060E02AF09A95660F771F881FDAF741
:10234000880F9695879597F90895990F0008550F6E
:10235000AA0BE0E8FEEF16161706E807F907C0F02B
:1023600012161306E407F50798F0621B730B840B33
:10237000950B39F40A2661F0232B242B252B21F40D
:1023800008950A2609F4A140A6958FEF811D811DAD
:1023900008950E94DC110C944D120E943F1238F0F7
:1023A0000E94461220F0952311F00C9436120C94E2
:1023B0003C1211240C9481120E945E1270F3959FBE
:1023C000C1F3950F50E0551F629FF001729FBB272C
:1023D000F00DB11D639FAA27F00DB11DAA1F649FC8
:1023E0006627B00DA11D661F829F2227B00DA11D7B
:1023F000621F739FB00DA11D621F839FA00D611D01
:10240000221F749F3327A00D611D231F849F600D21
:10241000211D822F762F6A2F11249F5750409AF04A
:10242000F1F088234AF0EE0FFF1FBB1F661F771FD6
:10243000881F91505040A9F79E3F510580F00C94A1
:1024400036120C9481125F3FE4F3983ED4F38695E4
:1024500077956795B795F795E7959F5FC1F7FE2B41
:10246000880F911D9695879597F9089597F99F671D
:1024700080E870E060E008959FEF80EC089500240C
:102480000A941616170618060906089500240A94D9
:1024900012161306140605060895092E0394000C5F
:1024A00011F4882352F0BB0F40F4BF2B11F460FFEE
:1024B00004C06F5F7F4F8F4F9F4F089557FD905817
:1024C000440F551F59F05F3F71F04795880F97FBF8
:1024D000991F61F09F3F79F08795089512161306B2
:1024E0001406551FF2CF4695F1DF08C016161706E1
:1024F0001806991FF1CF8695710561050894089516
:10250000E894BB2766277727CB0197F90895F999B7
:10251000FECF92BD81BDF89A992780B50895262FE8
:10252000F999FECF1FBA92BD81BD20BD0FB6F894B8
:10253000FA9AF99A0FBE019608955058BB27AA2718
:102540000E94B5120C944D120E943F1238F00E9466
:10255000461220F039F49F3F19F426F40C943C12F3
:102560000EF4E095E7FB0C943612E92F0E945E1200
:1025700058F3BA17620773078407950720F079F4B8
:10258000A6F50C9480120EF4E0950B2EBA2FA02D18
:102590000B01B90190010C01CA01A0011124FF2710
:1025A000591B99F0593F50F4503E68F11A16F0400B
:1025B000A22F232F342F4427585FF3CF469537950A
:1025C0002795A795F0405395C9F77EF41F16BA0BCF
:1025D000620B730B840BBAF09150A1F0FF0FBB1F7D
:1025E000661F771F881FC2F70EC0BA0F621F731FC6
:1025F000841F48F4879577956795B795F7959E3F23
:1026000008F0B0CF9395880F08F09927EE0F9795B3
:10261000879508950E941E130C944D120E94461235
:1026200058F00E943F1240F029F45F3F29F00C94CB
:10263000361251110C9481120C943C120E945E12BD
:1026400068F39923B1F3552391F3951B550BBB27E1
:10265000AA2762177307840738F09F5F5F4F220F26
:10266000331F441FAA1FA9F335D00E2E3AF0E0E81D
:1026700032D091505040E695001CCAF72BD0FE2F67
:1026800029D0660F771F881FBB1F261737074807FB
:10269000AB07B0E809F0BB0B802DBF01FF279358B3
:1026A0005F4F3AF09E3F510578F00C9436120C942F
:1026B00081125F3FE4F3983ED4F386957795679552
:1026C000B795F7959F5FC9F7880F911D96958795E8
:1026D00097F90895E1E0660F771F881FBB1F621707
:1026E00073078407BA0720F0621B730B840BBA0BC5
:1026F000EE1F88F7E09508950E9483136894B11146
:102700000C94811208950E94661288F09F5798F0E9
:10271000B92F9927B751B0F0E1F0660F771F881FE6
:10272000991F1AF0BA95C9F714C0B13091F00E9400
:102730008012B1E008950C948012672F782F8827BB
:10274000B85F39F0B93FCCF3869577956795B39527
:10275000D9F73EF490958095709561957F4F8F4F96
:102760009F4F08950E94A51108F48FEF089519F462
:1027700016F40C943C120C9402140E946612B8F3E6
:102780009923C9F3B6F39F57550B87FF0E94101486
:102790000024A0E640EA900180585695979528F4C9
:1027A000805C660F771F881F20F0261737074807C1
:1027B00030F4621B730B840B202931294A2BA69518
:1027C00017940794202531254A2758F7660F771F5D
:1027D000881F20F026173707480730F4620B730B69
:1027E000840B200D311D411DA09581F7B901842F67
:1027F0009158880F9695879508950E94A511880B8A
:10280000990B08959F3F31F0915020F4879577956B
:102810006795B795880F911D9695879597F90895B7
:1028200091505040660F771F881FD2F70895A1E29C
:102830001A2EAA1BBB1BFD010DC0AA1FBB1FEE1F3A
:10284000FF1FA217B307E407F50720F0A21BB30B85
:10285000E40BF50B661F771F881F991F1A9469F701
:1028600060957095809590959B01AC01BD01CF015D
:102870000895EE0FFF1F881F8BBF0790F691E02D84
:1028800019940F931F93CF93DF938230910510F427
:1028900082E090E0E091CC07F091CD0730E020E0BD
:1028A000B0E0A0E0309799F42115310509F44AC051
:1028B000281B390B24303105D8F58A819B8161159D
:1028C000710589F1FB0193838283FE0111C0408170
:1028D00051810281138148175907E0F048175907C1
:1028E00099F4109761F012960C93129713961C931B
:1028F0003296CF01DF91CF911F910F9108950093F0
:10290000CC071093CD07F4CF2115310551F04217B4
:10291000530738F0A901DB019A01BD01DF01F8017D
:10292000C1CFEF01F9CF9093CD078093CC07CDCFE6
:10293000FE01E20FF31F81939193225031093983F5
:102940002883D7CF2091CA073091CB07232B41F49E
:1029500020916302309164023093CB072093CA0721
:1029600020916102309162022115310541F42DB7A9
:102970003EB74091650250916602241B350BE091F1
:10298000CA07F091CB07E217F307A0F42E1B3F0B09
:102990002817390778F0AC014E5F5F4F24173507D1
:1029A00048F04E0F5F1F5093CB074093CA078193A7
:1029B00091939FCFF0E0E0E09CCFCF93DF9300971F
:1029C000E9F0FC01329713821282A091CC07B091FA
:1029D000CD07ED0130E020E01097A1F42081318196
:1029E000820F931F2091CA073091CB072817390710
:1029F00009F061C0F093CB07E093CA07DF91CF9154
:102A00000895EA01CE17DF07E8F54A815B819E0150
:102A100041155105B1F7E901FB83EA8349915991C9
:102A2000C40FD51FEC17FD0761F4808191810296D8
:102A3000840F951FE90199838883828193819B8309
:102A40008A83F0E0E0E012968D919C9113970097B5
:102A5000B9F52D913C911197CD010296820F931FEC
:102A60002091CA073091CB072817390739F63097DC
:102A700051F51092CD071092CC07B093CB07A093DD
:102A8000CA07BCCFD383C28340815181840F951F75
:102A9000C817D90761F44E5F5F4F88819981480F4D
:102AA000591F518340838A819B819383828321159F
:102AB000310509F0B0CFF093CD07E093CC079ECF5E
:102AC000FD01DC01C0CF13821282D7CF4F925F92FB
:102AD0006F927F928F929F92AF92BF92CF92DF922E
:102AE000EF92FF920F931F93CF93DF938C01009788
:102AF00099F4CB01DF91CF911F910F91FF90EF904F
:102B0000DF90CF90BF90AF909F908F907F906F900D
:102B10005F904F900C944114FC01E60FF71F9C014D
:102B200022503109E217F30708F4AEC0D901CD9164
:102B3000DC911197C617D70720F1C530D10578F081
:102B4000CE0104978617970750F0C61BD70B229724
:102B5000C193D1936D937C93CF010E94DD14C80182
:102B6000DF91CF911F910F91FF90EF90DF90CF9069
:102B7000BF90AF909F908F907F906F905F904F909D
:102B800008955B01AC1ABD0A4C018C0E9D1EA091EC
:102B9000CC07B091CD07512C412CF12CE12C109792
:102BA00031F58091CA079091CB078815990509F0F6
:102BB0005CC04616570608F058C08091610290919B
:102BC0006202009741F48DB79EB740916502509123
:102BD0006602841B950BE817F90708F055C0F093BF
:102BE000CB07E093CA07F90171836083B8CF8D9159
:102BF0009C91119712966C90129713967C90139754
:102C0000A815B90559F56C0142E0C40ED11CCA14CF
:102C1000DB0420F1AC014A195B09DA011296159721
:102C200080F06282738251834083D9016D937C93DB
:102C3000E114F10471F0D7011396FC93EE9312970F
:102C40008ECF22968C0F9D1FF90191838083F30113
:102C5000EFCFF093CD07E093CC0781CF481659060C
:102C600008F42C017D01D3019ACFCB010E944114BD
:102C70007C01009749F0AE01B8010E944716C801D7
:102C80000E94DD1487016BCF10E000E068CFFB01EC
:102C9000DC0102C001900D9241505040D8F70895D8
:102CA000FB01DC0101900D920020E1F70895F894FA
:102CB000FFCF03030303030303030303030303031C
:102CC000030300006040000020400000E03F295C5A
:102CD000AF3F295C8F3F0000C0400000A0400000D3
:102CE0000040000040400000803F000048430000DA
:102CF000A04200008C416666B640000040400000E3
:102D0000C8420000803F0000C03FCDCC2C400000F6
:102D1000B041010000CE078000000000000100006B
:102D200000000000000100010001000000000000A0
:102D30000000000000010000000100000000000091
:102D4000000100000000000000010001000100017E
:102D50000000000100010000000100000000000070
:102D60000000000100010000000100000000000060
:102D7000000100000000000000000001000100014F
:102D80000001000000000000000100000000000041
:102D90000001000000000000000000000000000131
:102DA0000000000000000001000100000000000021
:102DB0000000000000000001000000010000000011
:102DC0000000000000010000000100000000000001
:102DD00000000001000000010000000000010000F0
:102DE00000010000000000000000000000010000E1
:102DF00000000000000000010001000000000000D1
:102E000000010000000000000001000000000000C0
:102E100000000000000000010001000000000000B0
:102E200000010000000000000001000000000000A0
:102E3000000100000000000000010000000000018F
:102E40000000000000010000000100000000000080
:102E50000000000100000000000000010000000070
:102E60000001000000000000000000010000000060
:102E70000001000000000000000100000000000050
:102E80000001000000000000000000000000000140
:102E90000000000000000001000100000000000030
:102EA0000000000000000001000000010000000020
:102EB0000000000000010000000100000000000010
:102EC00000000001000000010000000000010000FF
:102ED00000010000000000000000000000010000F0
:102EE00000000000000000010001000000000000E0
:102EF00000010000000000000002000300040005C3
:102F0000000600080009000A00000000009A0304FF
:102F1000033103E703620340035403000000000D84
:102F2000070403390438040D0A006E616E00696EEF
:102F300066006F76660043616D6269616E646F2042
:102F4000726564205A0059414B4F42204445544514
:102F5000435441444F0059414B4F4220434F4E454B
:102F6000435441444F0059454E444F204D4F444F28
:102F700020413120594B0059414B4F422044455389
:102F8000434F4E45435441444F0052657369737437
:102F9000656E636961206571762067756172646131
:102FA00064612E005052454E4449454E444F2052D4
:102FB000454C4553002C2000456E7472616E646F61
:102FC0002061206D656E75207072696E6369706135
:102FD0006C00312E2041312C20322E204132004114
:102FE0007265617320646520636F6E746163746FD2
:102FF0000053652070726573696F6E6F20413100F8
:10300000436F6E6669672E20413D20383230302094
:103010006D6D5E3200436F6E6669672E20413D2004
:10302000313030206D6D5E3200456E7472616E64B9
:103030006F20612065737461646F204131005265B7
:10304000616C697A616E646F206D65646963696F34
:103050006E657300457374617320656E206D6F64D7
:103060006F20413100566F6C74616A650043414DB9
:103070004249414E444F205A2041205A594B005357
:10308000616C69656E646F2064652065737461644A
:103090006F20413120594B0053616C69656E646F3C
:1030A0002064652065737461646F20413100456E52
:1030B0007472616E646F20612065737461646F2047
:1030C000413200457374617320656E206D6F646FCB
:1030D00020413200766F6C74616A65004C657965D9
:1030E0006E646F20636F727269656E7465005072F2
:1030F0006573696F6E65207369672E005265766926
:1031000073616E646F206461746F7300566F6C74CA
:103110006167653A200043757272656E743A2000EB
:10312000526573697374616E63653A2000413A00B9
:103130006D410056726D733A005A3A00697220610F
:10314000206D656E753A2041312D41320052657017
:0C3150006574697220502E2053696700DE
:020000040003F7
:10E000000D9489F10D94B2F10D94B2F10D94B2F129
:10E010000D94B2F10D94B2F10D94B2F10D94B2F1F0
:10E020000D94B2F10D94B2F10D94B2F10D94B2F1E0
:10E030000D94B2F10D94B2F10D94B2F10D94B2F1D0
:10E040000D94B2F10D94B2F10D94B2F10D94B2F1C0
:10E050000D94B2F10D94B2F10D94B2F10D94B2F1B0
:10E060000D94B2F10D94B2F10D94B2F10D94B2F1A0
:10E070000D94B2F10D94B2F10D94B2F10D94B2F190
:10E080000D94B2F10D94B2F10D94B2F10D94B2F180
:10E090000D94B2F10D94B2F10D94B2F10D94B2F170
:10E0A0000D94B2F10D94B2F10D94B2F10D94B2F160
:10E0B0000D94B2F10D94B2F10D94B2F10D94B2F150
:10E0C0000D94B2F10D94B2F10D94B2F10D94B2F140
:10E0D0000D94B2F10D94B2F10D94B2F10D94B2F130
:10E0E0000D94B2F141546D656761323536300041AF
:10E0F000726475696E6F206578706C6F72657220DE
:10E1000073746B3530305632206279204D4C530099
:10E11000426F6F746C6F616465723E004875683F52
:10E1200000436F6D70696C6564206F6E203D200048
:10E130004350552054797065202020203D20005FF9
:10E140005F4156525F415243485F5F3D2000415658
:10E1500052204C696243205665723D20004743437C
:10E160002056657273696F6E203D20004350552024
:10E1700049442020202020203D20004C6F7720663D
:10E18000757365202020203D20004869676820665F
:10E190007573652020203D200045787420667573D6
:10E1A00065202020203D20004C6F636B2066757336
:10E1B000652020203D20004D617220203720323024
:10E1C000313300312E362E3800342E332E350056A2
:10E1D00023202020414444522020206F7020636F70
:10E1E00064652020202020696E73747275637469E1
:10E1F0006F6E2061646472202020496E74657272B3
:10E20000757074006E6F20766563746F7200726A49
:10E210006D702020006A6D70200057686174207056
:10E220006F72743A00506F7274206E6F7420737541
:10E2300070706F72746564004D7573742062652030
:10E2400061206C6574746572002000577269747483
:10E25000696E672045450052656164696E672045B7
:10E26000450045452065727220636E743D00504F35
:10E27000525400303D5A65726F2061646472003FF1
:10E280003D43505520737461747300403D454550C3
:10E29000524F4D207465737400423D426C696E6B41
:10E2A000204C454400453D44756D70204545505215
:10E2B0004F4D00463D44756D7020464C415348001B
:10E2C000483D48656C70004C3D4C69737420492F83
:10E2D0004F20506F72747300513D51756974005234
:10E2E0003D44756D702052414D00563D73686F7707
:10E2F00020696E7465727275707420566563746FF0
:10E30000727300593D506F727420626C696E6B00BD
:10E310002A0011241FBECFEFD1E2DEBFCDBF01E046
:10E320000CBF12E0A0E0B2E0EEE1FDEF03E00BBFB6
:10E3300002C007900D92A030B107D9F712E0A0E01B
:10E34000B2E001C01D92AE30B107E1F70F9460F367
:10E350000D948DFE01E20EBF0FEF0DBF11241FBE05
:10E360000D9460F30D9400F020E030E040ED57E0B4
:10E3700005C0FA013197F1F72F5F3F4F2817390792
:10E38000C0F308959C01260F311DC901A0E0B0E043
:10E390002F5F3F4FABBFFC018791882361F08093D3
:10E3A000C6008091C00086FFFCCF8091C0008064D1
:10E3B0008093C000EACF08958DE08093C6008091DD
:10E3C000C00086FFFCCF8091C00080648093C000B5
:10E3D0008AE08093C6008091C00086FFFCCF8091C8
:10E3E000C00080648093C00008950F94C2F10F9420
:10E3F000DCF10895FC019081992359F09093C600B7
:10E400008091C00086FFFCCF8091C0008064809323
:10E41000C0003196992379F70895282F982F929567
:10E420009F70892F805D8A3308F0895F8093C600D2
:10E430008091C00086FFFCCF8091C00080648093F3
:10E44000C000822F8F70982F905D9A3308F0995FEB
:10E450009093C6008091C00086FFFCCF8091C000E1
:10E4600080648093C00008959C01FB01853691056E
:10E470001CF46330710594F0C90164E670E00F94F8
:10E480002EFE605D7F4F6093C6008091C00086FFC6
:10E49000FCCF8091C00080648093C0002B30310598
:10E4A00014F43297B4F0C90164E670E00F942EFEC4
:10E4B0006AE070E00F942EFE605D7F4F6093C600AF
:10E4C0008091C00086FFFCCF8091C0008064809363
:10E4D000C000C9016AE070E00F942EFEC0968093E0
:10E4E000C6008091C00086FFFCCF8091C000806490
:10E4F0008093C00008951F93182F8EE692EE60E07F
:10E500000F94C2F11093C6008091C00086FFFCCF2B
:10E510008091C00080648093C0000F94DCF11F9153
:10E5200008952F923F924F925F926F927F928F92B7
:10E530009F92AF92BF92CF92DF92EF92FF920F9392
:10E540001F93DF93CF93CDB7DEB762970FB6F894E2
:10E55000DEBF0FBECDBF382E622ECA01DB015C01CB
:10E560006D01772420E2222E2E010894411C511CBB
:10E570008BC081E0A81680E0B80681E0C80680E084
:10E58000D80628F0C601AA27BB270F940DF2BB2797
:10E59000AD2D9C2D8B2D0F940DF28A2D0F940DF225
:10E5A0002092C6008091C00086FFFCCF8091C00001
:10E5B00080648093C0009DE29093C6008091C0006B
:10E5C00086FFFCCF8091C00080648093C0002092C1
:10E5D000C6008091C00086FFFCCF8091C00080649F
:10E5E0008093C00019828601750188249924A1E0D6
:10E5F0003A1651F03A1620F0B2E03B1661F409C029
:10E600000BBFF701779007C0C7010F9477FE782EF4
:10E6100002C0F7017080872D0F940DF22092C60082
:10E620008091C00086FFFCCF8091C0008064809301
:10E63000C000872D8052F401EF70F0708F3520F408
:10E64000E40DF51D708204C0E40DF51D8EE280839B
:10E650000894E11CF11C011D111D0894811C911CE2
:10E6600090E18916910409F0C2CF80E190E0A0E02A
:10E67000B0E0A80EB91ECA1EDB1E198AC2010F9493
:10E68000FAF10F94DCF16A94662009F072CF629679
:10E690000FB6F894DEBF0FBECDBFCF91DF911F91B3
:10E6A0000F91FF90EF90DF90CF90BF90AF909F9031
:10E6B0008F907F906F905F904F903F902F90089534
:10E6C0002F923F924F925F926F927F928F929F9282
:10E6D000AF92BF92CF92DF92EF92FF920F931F9370
:10E6E000DF93CF93CDB7DEB7CD53D1400FB6F894BB
:10E6F000DEBF0FBECDBF01E20EBF0FEF0DBF94B75F
:10E70000F894A89514BE80916000886180936000A1
:10E7100010926000789493FF05C0E0910002F091A0
:10E7200001021995279A2F9A8091C00082608093E8
:10E73000C00080E18093C40088E18093C1000000A4
:10E74000EE24FF24870144E0A42EB12CCC24DD2448
:10E7500024C0C5010197F1F70894E11CF11C011DCB
:10E76000111D21E2E2162EE4F20620E0020720E06D
:10E77000120718F031E0C32ED12CC801B70127ECE5
:10E780003BE140E050E00F9441FE611571058105C9
:10E79000910519F485B1805885B98091C00087FD35
:10E7A00003C0C114D104A9F2A6014F5F5F4FC25E3E
:10E7B000DE4F59834883CE51D140C25EDE4F8881FF
:10E7C0009981CE51D140019711F00D9410FEC05D9A
:10E7D000DE4F19821882C053D14060E0C15DDE4F28
:10E7E0001882CF52D14088249924C35DDE4F19820C
:10E7F0001882CD52D140C05EDE4F188219821A8233
:10E800001B82C052D140CE5CDE4F188219821A8220
:10E810001B82C253D140EE24FF2487010BBFF701B6
:10E8200007911691C45CDE4F19830883CC53D14005
:10E830000D940BFEC25EDE4F28813981CE51D1404E
:10E840002130310509F52091C600C25EDE4F1982E4
:10E850001882CE51D14022C02F5F3F4F4F4F5F4FA4
:10E86000213082E138078AE7480780E0580780F0C6
:10E87000C45CDE4FE881F981CC53D140EF5FFF4F9C
:10E8800019F0EE27FF27099420E030E040E050E047
:10E890008091C00087FFE0CF2091C600C35DDE4FAE
:10E8A00048815981CD52D1404F5F5F4FC35DDE4FEC
:10E8B00059834883CD52D140213209F063C64A3092
:10E8C000510508F05FC60894811C911C53E0851621
:10E8D000910409F059C600E010E018C081E280936D
:10E8E000C6008091C00086FFFCCF8091C00080648C
:10E8F0008093C0002F5F3F4F2931310579F70F9486
:10E90000DCF10F5F1F4F0530110519F020E030E0FA
:10E91000E5CF10920A0210920B0210920C02109294
:10E920000D02109206021092070210920802109235
:10E930000902109202021092030210920402109235
:10E9400005028FEE90EE60E00F94F5F180E191EE1C
:10E9500060E00F94C2F18091C00087FFFCCF9091DE
:10E96000C600903608F09F759032B8F09093C600BC
:10E970008091C00086FFFCCF8091C00080648093AE
:10E98000C000A0E2A093C6008091C00086FFFCCF2B
:10E990008091C00080648093C000983409F4D7C18E
:10E9A0009934B8F4923409F459C1933458F490333B
:10E9B00019F1903308F4E3C59F33A1F1903409F0C5
:10E9C000DEC5BDC0953409F470C1963409F0D7C5D1
:10E9D00098C1923509F42BC2933538F49C3409F46C
:10E9E000F5C1913509F0CBC518C2963509F445C279
:10E9F000993509F0C4C567C483E792EE62E00F94CD
:10EA0000F5F110920602109207021092080210927D
:10EA1000090210920A0210920B0210920C0210923C
:10EA20000D0213C18FE792EE62E00F94F5F18FEEC5
:10EA300090EE60E00F94F5F181E291EE60E00F94CA
:10EA4000C2F187EB91EE60E00F94F5F180E391EE77
:10EA500060E00F94C2F184EE90EE60E00F94F5F167
:10EA60008FE391EE60E00F94C2F186E090E061E008
:10EA700070E00F9434F20F94DCF18DE591EE60E0DC
:10EA80000F94C2F189EC91EE60E00F94F5F18EE401
:10EA900091EE60E00F94C2F183EC91EE60E00F9490
:10EAA000F5F18CE691EE60E00F94C2F18EE10F94E7
:10EAB0000DF288E90F940DF281E00F940DF20F949E
:10EAC000DCF18BE791EE60E00F94C2F119E0E0E039
:10EAD000F0E010935700E4918E2F0F940DF20F94F5
:10EAE000DCF18AE891EE60E00F94C2F1E3E0F0E03F
:10EAF00010935700E4918E2F0F940DF20F94DCF1D8
:10EB000089E991EE60E00F94C2F1E2E0F0E0109349
:10EB10005700E4918E2F0F940DF20F94DCF188EAE8
:10EB200091EE60E00F94C2F1E1E0F0E01093570045
:10EB30001491812F0F940DF20F94DCF107CF8BE825
:10EB400092EE62E00F94F5F18BE492EE60E00F94A8
:10EB5000F5F10F94DCF100E010E019C0C8016F2D51
:10EB60000F947FFEFF2031F489E492EE60E00F9471
:10EB7000C2F10BC0F092C6008091C00086FFFCCFAE
:10EB80008091C00080648093C0000F5F1F4FC80158
:10EB900081519F41A0E0B0E0ABBFFC01F790BAE229
:10EBA000FB1621F0E2E000301E07C1F60F94DCF105
:10EBB0000F94DCF187E592EE60E00F94F5F10F948D
:10EBC000DCF1CC24DD2400E010E01EC0C8010F946D
:10EBD00077FEF82E882331F489E492EE60E00F94FA
:10EBE000C2F10BC08093C6008091C00086FFFCCFAD
:10EBF0008091C00080648093C000FE1419F00894D6
:10EC0000C11CD11C0F5F1F4FC80181519F41A0E063
:10EC1000B0E0ABBFFC01E790FAE2EF1621F022E092
:10EC20000030120799F60F94DCF10F94DCF182E6C4
:10EC300092EE60E00F94C2F1C60161E070E00F94C3
:10EC400034F20F94DCF10F94DCF110920202109276
:10EC50000302109204021092050278CE89E992EE26
:10EC600062E00F94F5F1279A2F9A16C02F9880E052
:10EC700090E0E0EDF7E03197F1F7019684369105E9
:10EC8000C1F72F9A80E090E0E0EDF7E03197F1F7DF
:10EC9000019684369105C1F78091C00087FFE6CFC9
:10ECA0008091C00087FFFCCF64C485EA92EE62E0E9
:10ECB0000F94F5F140910202509103026091040219
:10ECC0007091050281E020E10F9491F2809102029F
:10ECD00090910302A0910402B091050280509F4FD1
:10ECE000AF4FBF4F8093020290930302A0930402A0
:10ECF000B093050280509041A040B04008F426CE69
:10ED0000A4CF83EB92EE62E00F94F5F140910602FE
:10ED100050910702609108027091090280E020E1A1
:10ED20000F9491F28091060290910702A09108023F
:10ED3000B091090280509F4FAF4FBF4F80930602A2
:10ED400090930702A0930802B0930902FFCD80ECD4
:10ED500092EE62E00F94F5F183E792EE60E00F949B
:10ED6000F5F18FE792EE60E00F94F5F18BE892EE0B
:10ED700060E00F94F5F189E992EE60E00F94F5F10F
:10ED800085EA92EE60E00F94F5F183EB92EE60E09D
:10ED90000F94F5F180EC92EE60E00F94F5F187ECC2
:10EDA00092EE60E00F94F5F188ED92EE60E00F9442
:10EDB000F5F18FED92EE60E00F94F5F18AEE92EEB0
:10EDC00060E00F94F5F183E093EEBDCD87EC92EE19
:10EDD00062E00F94F5F181E40F947BF282E40F94EA
:10EDE0007BF283E40F947BF284E40F947BF285E45E
:10EDF0000F947BF286E40F947BF287E40F947BF20E
:10EE000088E40F947BF28AE40F947BF28BE40F94F6
:10EE10007BF28CE40F947BF299CD88ED92EE62E068
:10EE20000F94F5F1772473948824992409C48FED05
:10EE300092EE62E00F94F5F140910A0250910B02BC
:10EE400060910C0270910D0282E020E10F9491F22A
:10EE500080910A0290910B02A0910C02B0910D02D8
:10EE600080509F4FAF4FBF4F80930A0290930B0289
:10EE7000A0930C02B0930D0269CD8AEE92EE62E08F
:10EE80000F94F5F184EE90EE60E00F94F5F18FECC5
:10EE900091EE60E00F94F5F1662477244301CC5D98
:10EEA000DE4F19821882C452D140D401C301B695F5
:10EEB000A79597958795CA5DDE4F88839983AA8326
:10EEC000BB83C652D140CC5DDE4FA881B981C4520C
:10EED000D1401196CC5DDE4FB983A883C452D14096
:10EEE000CD0162E070E00F9434F2B0E2B093C6005E
:10EEF0008091C00086FFFCCF8091C0008064809329
:10EF0000C000EDE2E093C6008091C00086FFFCCF18
:10EF10008091C00080648093C000F0E2F093C6004E
:10EF20008091C00086FFFCCF8091C00080648093F8
:10EF3000C000CA5DDE4FE880F9800A811B81C6529D
:10EF4000D140BB27A12F902F8F2D0F940DF2CA5DBA
:10EF5000DE4F8881C652D1400F940DF2B0E2FB2EF5
:10EF6000F092C6008091C00086FFFCCF8091C00067
:10EF700080648093C0000DE30093C6008091C000C0
:10EF800086FFFCCF8091C00080648093C00010E2B7
:10EF90001093C6008091C00086FFFCCF8091C00016
:10EFA00080648093C0008BBEF3012791C65DDE4F65
:10EFB0002883CA52D140A22EBB24CC24DD2408943D
:10EFC000611C711C811C911C8BBEF3018791282E42
:10EFD0003324442455240894611C711C811C911C09
:10EFE0008BBEF3013791C55DDE4F3883CB52D140E4
:10EFF0000894611C711C811C911C8BBEF30147910C
:10F00000C45DDE4F4883CC52D140ADEFEA2EAFEF66
:10F01000FA2EAFEF0A2FAFEF1A2F6E0C7F1C801E57
:10F02000911E142D032DF22CEE24EA0CFB1C0C1D5A
:10F030001D1D0F940DF220E22093C6008091C000A8
:10F0400086FFFCCF8091C00080648093C000C65DC5
:10F05000DE4F8881CA52D1400F940DF230E23093D6
:10F06000C6008091C00086FFFCCF8091C000806404
:10F070008093C000C45DDE4F8881CC52D1400F9494
:10F080000DF240E24093C6008091C00086FFFCCFA5
:10F090008091C00080648093C000C55DDE4F888190
:10F0A000CB52D1400F940DF250E25093C6008091A4
:10F0B000C00086FFFCCF8091C00080648093C000B8
:10F0C0008FEFE8168FEFF80680E0080780E018075A
:10F0D00031F484E092EE60E00F94C2F1DFC0D80119
:10F0E000C7018070907CA070B0708050904CA040A0
:10F0F000B040D1F52FEF3FE340E050E0E222F322B1
:10F1000004231523CA5DDE4FA880B980CA80DB8046
:10F11000C652D140AE0CBF1CC01ED11EAA0CBB1CD7
:10F12000CC1CDD1C8EE092EE60E00F94C2F1BB2798
:10F13000A12F902F8F2D0F940DF28E2D0F940DF285
:10F1400030E23093C6008091C00086FFFCCF8091F2
:10F15000C00080648093C0004EE34093C60080915D
:10F16000C00086FFFCCF87C08EE09EEFA0E0B0E03D
:10F17000E822F9220A231B239CE0E91694E9F90608
:10F1800090E0090790E0190709F088C0C45DDE4FE0
:10F19000A881CC52D140EA2EFF2400E010E0102FCD
:10F1A0000F2DFE2CEE24C55DDE4FB881CB52D14031
:10F1B000EB0EF11C011D111DD601C501817090706F
:10F1C000A070B070DC0199278827E80EF91E0A1F8D
:10F1D0001B1F20EF30E040E050E0A222B322C42207
:10F1E000D52241E1AA0CBB1CCC1CDD1C4A95D1F7F1
:10F1F000EA0CFB1C0C1D1D1D81E090E0A0E0B0E0BE
:10F20000282239224A225B2235E1220C331C441C7D
:10F21000551C3A95D1F7E20CF31C041D151D57013E
:10F220006801AA0CBB1CCC1CDD1C85E192EE60E0E1
:10F230000F94C2F1C801AA27BB270F940DF2BB2778
:10F24000A12F902F8F2D0F940DF28E2D0F940DF274
:10F2500090E29093C6008091C00086FFFCCF809121
:10F26000C00080648093C000AEE3A093C60080918C
:10F27000C00086FFFCCF8091C00080648093C000F6
:10F28000C601AA27BB270F940DF2BB27AD2D9C2DDD
:10F290008B2D0F940DF28A2D0F940DF20F94DCF14B
:10F2A000CC5DDE4FE881F981C452D140F99709F471
:10F2B0004DCBF4E0EF2EF12C012D112D6E0C7F1CA7
:10F2C000801E911EF2CD83E093EE62E00F94F5F183
:10F2D0008AE192EE60E00F94C2F18091C00087FF56
:10F2E000FCCF1091C6001F751093C6008091C0001E
:10F2F00086FFFCCF8091C00080648093C0000F9493
:10F30000DCF1812F81548A3108F036C1163409F4BA
:10F3100095C0173490F4133409F44EC0143430F40B
:10F320001134F1F0123409F01DC130C0143409F465
:10F3300059C0153409F016C16BC01A3409F4C4C0A1
:10F340001B3438F4173409F48FC0183409F00AC19B
:10F35000A1C01B3409F4D2C01C3409F003C1E8C0B9
:10F360008FEF81B90DC082B1809582B980E090E0C5
:10F37000E0EDF7E03197F1F70196883C9105C1F790
:10F380008091C00087FFEFCF12B8EFC08FEF84B934
:10F390000DC085B1809585B980E090E0E0EDF7E0A3
:10F3A0003197F1F70196883C9105C1F78091C00033
:10F3B00087FFEFCF15B8D9C08FEF87B90DC088B1DF
:10F3C000809588B980E090E0E0EDF7E03197F1F7C3
:10F3D0000196883C9105C1F78091C00087FFEFCF6F
:10F3E00018B8C3C08FEF8AB90DC08BB180958BB9A7
:10F3F00080E090E0E0EDF7E03197F1F70196883C8E
:10F400009105C1F78091C00087FFEFCF1BB8ADC059
:10F410008FEF8DB90DC08EB180958EB980E090E0F0
:10F42000E0EDF7E03197F1F70196883C9105C1F7DF
:10F430008091C00087FFEFCF1EB897C08FEF80BBD1
:10F440000DC081B3809581BB80E090E0E0EDF7E0F6
:10F450003197F1F70196883C9105C1F78091C00082
:10F4600087FFEFCF11BA81C08FEF83BB0DC084B38C
:10F47000809584BB80E090E0E0EDF7E03197F1F714
:10F480000196883C9105C1F78091C00087FFEFCFBE
:10F4900014BA6BC08FEF809301010FC080910201FD
:10F4A00080958093020180E090E0E0EDF7E03197F5
:10F4B000F1F70196883C9105C1F78091C00087FF64
:10F4C000EDCF1092020151C08FEF809304010FC065
:10F4D0008091050180958093050180E090E0E0ED4A
:10F4E000F7E03197F1F70196883C9105C1F78091DB
:10F4F000C00087FFEDCF1092050137C08FEF8093DA
:10F5000007010FC08091080180958093080180E079
:10F5100090E0E0EDF7E03197F1F70196883C910536
:10F52000C1F78091C00087FFEDCF109208011DC088
:10F530008FEF80930A010FC080910B01809580931B
:10F540000B0180E090E0E0EDF7E03197F1F70196F4
:10F55000883C9105C1F78091C00087FFEDCF1092E4
:10F560000B0103C085E292EEEEC98091C00087FFD7
:10F57000FCCF8091C600EAC988E392EEE4C98CE131
:10F5800091EEE1C988249924933011F1943028F444
:10F59000913089F09230B8F408C0953061F195301F
:10F5A000F0F0963009F048C043C02B3109F042C951
:10F5B00091E06BE13FC96227C15DDE4F2883CF52E6
:10F5C000D14092E037C9B22FA0E0622793E032C960
:10F5D000822F90E0A82BB92B622794E02BC92E3004
:10F5E00009F039C3622795E0C05DDE4F19821882A9
:10F5F000C053D1401FC9E1E0F0E0EC0FFD1FC05D3A
:10F60000DE4F08811981C053D140E00FF11F2083E4
:10F610000F5F1F4FC05DDE4F19830883C053D14079
:10F6200062270A171B0709F005C9D80196E002C92D
:10F63000261709F010C303C0973009F0FBC87724E0
:10F640009981933109F412C19431C8F4963009F4C8
:10F65000D8C0973050F4923009F406C1933009F4C1
:10F660006DC0913009F059C253C0913109F477C08F
:10F67000923108F0BBC0903109F04FC2F5C098310B
:10F6800009F487C0993150F4953109F4EFC09531F0
:10F6900008F4C6C1963109F040C2C2C19A3109F4DA
:10F6A0006CC09A3108F491C09B3109F45BC09D3164
:10F6B00009F033C29D81903359F48F81882311F46E
:10F6C0009EE11CC0813011F091E018C098E916C08D
:10F6D000892F807591F0903539F4E0E0F0E089E011
:10F6E0008093570094910AC0983539F4E3E0F0E034
:10F6F00089E080935700949101C090E01A821B82A8
:10F700008D818C831D829E831F8227E030E009C299
:10F710001A8288E08B8381E48C8386E58D8382E581
:10F720008E8389E48F8383E5888780E589878FE5E9
:10F730008A8782E38B872BE030E0F3C18A818139AD
:10F7400041F0823941F0803911F48FE005C080E04A
:10F7500003C082E001C08AE01A828B8344C0772410
:10F76000739482C08D81882311F48EE12CC0813086
:10F7700011F081E028C088E926C01A82E1E0F0E0BB
:10F7800089E08093570084918B831C8224E030E0D1
:10F79000C8C18B81803589F48C81883039F4E2E0EE
:10F7A000F0E089E08093570084910DC0E0E0F0E044
:10F7B00089E080935700849106C0E3E0F0E089E09F
:10F7C0008093570084911A82DFCF8D81836C99E0FA
:10F7D000E1E0F0E0082E90935700E89507B600FCB2
:10F7E000FDCF1A821B8223E030E09BC180EC8A832C
:10F7F000CE5CDE4F188219821A821B82C253D1401E
:10F800008EC18A8190E0A0E0B0E0582F44273327D2
:10F8100022278B8190E0A0E0B0E0DC0199278827C7
:10F82000282B392B4A2B5B2B8D8190E0A0E0B0E098
:10F83000282B392B4A2B5B2B8C8190E0A0E0B0E089
:10F84000BA2FA92F982F8827282B392B4A2B5B2BCF
:10F85000220F331F441F551FC05EDE4F288339839C
:10F860004A835B83C052D1401A8259C13A81C95C34
:10F87000DE4F3883C753D140CA5CDE4F1882C6536F
:10F88000D1408B81C82EDD24CA5CDE4F488159816E
:10F89000C653D140C42AD52A933109F082C0CE5C28
:10F8A000DE4F88819981AA81BB81C253D1408050AB
:10F8B000904CA340B04030F583E0CE5CDE4FE88052
:10F8C000F9800A811B81C253D140F70100935B008C
:10F8D00080935700E89507B600FCFDCFCE5CDE4F65
:10F8E000088119812A813B81C253D14000501F4FAA
:10F8F0002F4F3F4FCE5CDE4F088319832A833B8313
:10F90000C253D140C05EDE4F488159816A817B81FC
:10F91000C052D140DE011B9631E08C9111962C91A2
:10F9200011971296C75CDE4F2883C953D140C85C3B
:10F93000DE4F1882C853D14090E0C85CDE4FE881AA
:10F94000F981C853D1408E2B9F2B0C01FA01609393
:10F950005B0030935700E89511244E5F5F4F6F4F67
:10F960007F4F0EEFE02E0FEFF02ECE0CDF1CC114F8
:10F97000D10499F685E0C05EDE4F088119812A81A5
:10F980003B81C052D140F80120935B008093570027
:10F99000E89507B600FCFDCF81E180935700E8951C
:10F9A00035C0C05EDE4F88819981AA81BB81C0527B
:10F9B000D140B695A795979587957C018601ABE0D8
:10F9C000AA2EB12CAC0EBD1E0BC0D5016D915D01F0
:10F9D000C7010F947FFE0894E11CF11C01501040F8
:10F9E0000115110591F7A60160E070E0440F551F65
:10F9F000661F771FC05EDE4FE880F9800A811B8199
:10FA0000C052D1404E0D5F1D601F711F1A82C05E33
:10FA1000DE4F488359836A837B83C052D1407FC0C5
:10FA2000FA80C55CDE4FF882CB53D140C65CDE4F16
:10FA30001882CA53D1408B81C82EDD24C65CDE4FAC
:10FA400008811981CA53D140C02AD12A1A828981DA
:10FA5000BE016D5F7F4F843121F59601C05EDE4FA0
:10FA6000E880F9800A811B81C052D1400BBFF701A9
:10FA700087919691DB018C9311969C936E5F7F4FDB
:10FA8000D801C7010296A11DB11DC05EDE4F88835B
:10FA90009983AA83BB83C052D14022503040F1F6F3
:10FAA00036C0C05EDE4F288139814A815B81C052F9
:10FAB000D1400894C108D108760100E010E0089414
:10FAC000C11CD11C0894E11CF11C011D111DE20E8A
:10FAD000F31E041F151F21BDBB27A52F942F832FB5
:10FAE00082BD2F5F3F4F4F4F5F4FF89A80B5DB01CC
:10FAF0008D93BD012E153F054007510761F7C05E8C
:10FB0000DE4F288339834A835B83C052D1409601FC
:10FB10002D5F3F4FFB01108204C080EC8A8322E0FE
:10FB200030E08BE18093C6008091C00086FFFCCF5F
:10FB30008091C00080648093C000C15DDE4FF88179
:10FB4000CF52D140F093C6008091C00086FFFCCF19
:10FB50008091C00080648093C000432F3093C60022
:10FB60008091C00086FFFCCF8091C00080648093AC
:10FB7000C000922F2093C6008091C00086FFFCCF6A
:10FB80008091C00080648093C0008EE08093C600A6
:10FB90008091C00086FFFCCF8091C000806480937C
:10FBA000C00065E1C15DDE4FE880CF52D1406E25D7
:10FBB00069276427FE01319610C090819093C6009A
:10FBC0008091C00086FFFCCF31968091C000806498
:10FBD0008093C0006927215030402115310569F715
:10FBE0006093C6008091C00086FFFCCF8091C0006A
:10FBF00080648093C00085B1805885B9772081F4F6
:10FC0000C15DDE4F0881CF52D1400F5FC15DDE4F35
:10FC10000883CF52D14090E0A0E0B0E00D941AF4F8
:10FC200027982F9880E090E020ED37E0F901319798
:10FC3000F1F7019684369105C9F700008091C00064
:10FC40008D7F8093C00081E180935700E895EE2777
:10FC5000FF270994FFCF90E00D941AF497FB092E2B
:10FC600007260AD077FD04D02ED006D000201AF443
:10FC7000709561957F4F0895F6F7909581959F4F08
:10FC80000895A1E21A2EAA1BBB1BFD010DC0AA1FDD
:10FC9000BB1FEE1FFF1FA217B307E407F50720F0F5
:10FCA000A21BB30BE40BF50B661F771F881F991F70
:10FCB0001A9469F760957095809590959B01AC01B9
:10FCC000BD01CF010895AA1BBB1B51E107C0AA1FAC
:10FCD000BB1FA617B70710F0A61BB70B881F991FED
:10FCE0005A95A9F780959095BC01CD010895F99991
:10FCF000FECF92BD81BDF89A992780B50895262F31
:10FD0000F999FECF1FBA92BD81BD20BD0FB6F89400
:0EFD1000FA9AF99A0FBE01960895F894FFCF63
:00000001FF
