:100000000C9443010C94670C0C943C0C0C94110C54
:100010000C94E60B0C94BB0B0C94900B0C94650B9E
:100020000C943A0B0C9474010C9474010C947401AC
:100030000C9474010C9474010C9474010C9474016C
:100040000C9474010C9474010C9474010C9474015C
:100050000C9474010C9474010C9474010C94F00AC7
:100060000C9474010C94BC0C0C94920C0C947401C0
:100070000C9474010C9474010C9474010C9474012C
:100080000C9474010C9474010C9474010C9474011C
:100090000C9474010C9474010C9474010C9474010C
:1000A0000C9474010C9474010C9474010C947401FC
:1000B0000C9474010C9474010C9474010C947401EC
:1000C0000C9474010C9474010C9474010C947401DC
:1000D0000C9474010C9474010C9474010C947401CC
:1000E0000C9474010C942D040C94F8020C949E0151
:1000F0000C94C1010C94F3060C9449030C94F20C7B
:100100000C942E040C94DC030C94CB010C94AF01E2
:100110000C94A2010C94A9010C94D4010C94310903
:100120000C949A010C9426030C94C7010C94D901E9
:100130000C9457030C9494010C94A6010C94F502B2
:100140000C94F9020C94F2020C94B3010C94D501B6
:100150000C94B9010C9435030C94CF010C948F03CB
:100160000C94BD0100002100240027002A002D006E
:100170003000330001010000040107010A01000002
:100180002200250028002B002E003100340002013F
:100190000000050108010B010000200023002600DB
:1001A00029002C002F00320000010000030106018D
:1001B00009010505050507050808080802020202ED
:1001C0000A0A0808040404040101010101010101F3
:1001D0000303030303030303040707070C0C0C0CBE
:1001E0000C0C0C0C020202020606060606060606A7
:1001F0000B0B0B0B0B0B0B0B010210202008081034
:100200002040102040800201020108040201010286
:10021000040810204080804020100804020180045F
:1002200002018040201008040201080402010102BA
:1002300004081020408001020408102040800000C3
:100240000A0B02090C0D0E08070304010000000050
:10025000000000000000000000000000000000009E
:10026000000000000000000000001211100000005B
:10027000000000000000000000000000000000007E
:1002800000000000F20C11241FBECFEFD1E2DEBF50
:10029000CDBF00E00CBF28E0A2E1B7E001C01D9295
:1002A000AF30B207E1F717E0A0E0B2E0ECE0FCE22B
:1002B00000E00BBF02C007900D92A231B107D9F741
:1002C00011E0C3E4D1E000E006C021970109802FCE
:1002D000FE010E94E613C234D10780E00807A9F7A7
:1002E0000E94490D0C9404160C9400008150823138
:1002F00008F05AC0E82FF0E08827EE57FE4F8F4FE6
:100300000C94E613A201A60194019A019E01D40166
:10031000A901AF01B301B901BD01C101C701CB0101
:10032000D401CF01D501D901809180008F778093CE
:1003300080000895809180008F7DF9CF80918000AA
:10034000877FF5CF84B58F7784BD089584B58F7D81
:10035000FBCF8091B0008F778093B000089580919B
:10036000B0008F7DF9CF809190008F7780939000BF
:100370000895809190008F7DF9CF80919000877FC4
:10038000F5CF8091A0008F778093A0000895809191
:10039000A0008F7DF9CF8091A000877FF5CF80915D
:1003A00020018F77809320010895809120018F7D17
:1003B000F9CF80912001877FF5CFCF93DF93282F4E
:1003C00030E0F901E25CFD4F8491F901E850FE4F05
:1003D000D491F901EE54FE4FC491CC23A1F08111C8
:1003E0000E947601EC2FF0E0EE0FFF1FE856FE4F63
:1003F000A591B491EC91ED2381E090E009F480E0C7
:10040000DF91CF91089580E090E0FACF1F93CF93D2
:10041000DF93282F30E0F901E25CFD4F8491F90170
:10042000E850FE4FD491F901EE54FE4FC491CC2315
:10043000A9F0162F81110E947601EC2FF0E0EE0F4B
:10044000FF1FE258FE4FA591B4918FB7F894EC913D
:10045000111108C0D095DE23DC938FBFDF91CF91BF
:100460001F910895DE2BF8CFEF92FF920F931F9309
:10047000CF93DF93EC0107E414E07C0180E1E80E08
:10048000F11C68812296F80180810E5F1F4F0E9447
:100490000602CE15DF05A9F7DF91CF911F910F91CD
:1004A000FF90EF900895CF93DF9390E0FC01E85028
:1004B000FE4F24918E549E4FFC0184918823D1F0ED
:1004C00090E0880F991FFC01EC59FE4FA591B49163
:1004D000FC01E258FE4FC591D49161110EC09FB747
:1004E000F8948C91E22FE0958E238C932881E2235F
:1004F000E8839FBFDF91CF9108958FB7F894EC9177
:10050000E22BEC938FBFF6CF90917B00977F909377
:100510007B008653806480937C0080917A008064A5
:1005200080937A0080917A0086FDFCCF80917800DC
:100530009091790008953FB7F89480911A079091AF
:100540001B07A0911C07B0911D0726B5A89B05C0ED
:100550002F3F19F00196A11DB11D3FBFBA2FA92F42
:10056000982F8827BC01CD01620F711D811D911D3F
:1005700042E0660F771F881F991F4A95D1F70895AB
:100580008F929F92AF92BF92CF92DF92EF92FF92A3
:100590004B015C010E949B026B017C010E949B024B
:1005A0006C197D098E099F09683E7340810591058C
:1005B000A8F321E0821A9108A108B10888EEC80EBC
:1005C00083E0D81EE11CF11C81149104A104B10444
:1005D00029F7FF90EF90DF90CF90BF90AF909F9062
:1005E0008F90089588E30C94840286E30C9484022F
:1005F0000895AF92BF92CF92DF92EF92FF920F9346
:100600001F93CF93DF936C017B018B01040F151FA8
:10061000EB015E01AE18BF08C017D10759F0699110
:10062000D601ED91FC910190F081E02DC601199564
:10063000892B79F7C501DF91CF911F910F91FF9021
:10064000EF90DF90CF90BF90AF900895FC01538D55
:10065000448D252F30E0842F90E0821B930B54179C
:1006600010F0CF96089501970895FC01918D828D29
:10067000981761F0A28DAE0FBF2FB11D5D968C91C2
:10068000928D9F5F9F73928F90E008958FEF9FEF01
:100690000895FC01918D828D981731F0828DE80FBD
:1006A000F11D858D90E008958FEF9FEF0895FC0177
:1006B000918D228D892F90E0805C9F4F821B910944
:1006C0008F739927089584E297E00E94570321E0F1
:1006D000892B09F420E0822F0895FC01A48DA80F36
:1006E000B92FB11DA35ABF4F2C91848D90E0019674
:1006F0008F739927848FA689B7892C93A089B18994
:100700008C91837080648C93938D848D981306C034
:100710000288F389E02D80818F7D80830895EF9298
:10072000FF920F931F93CF93DF93EC0181E0888FAB
:100730009B8D8C8D98131AC0E889F989808185FF7B
:1007400015C09FB7F894EE89FF896083E889F9891D
:1007500080818370806480839FBF81E090E0DF911F
:10076000CF911F910F91FF90EF900895F62E0B8D72
:1007700010E00F5F1F4F0F731127E02E8C8D8E112D
:100780000CC00FB607FCFACFE889F989808185FF94
:10079000F5CFCE010E946D03F1CFEB8DEC0FFD2F55
:1007A000F11DE35AFF4FF0829FB7F8940B8FEA894F
:1007B000FB8980818062CFCFCF93DF93EC01888D5E
:1007C0008823B9F0AA89BB89E889F9898C9185FDCC
:1007D00003C0808186FD0DC00FB607FCF7CF8C915A
:1007E00085FFF2CF808185FFEDCFCE010E946D03A2
:1007F000E9CFDF91CF91089580E090E0892B29F037
:100800000E94630381110E94000080E090E0892B28
:1008100049F080E090E0892B29F00E9400008111CE
:100820000E94000080E090E0892B49F080E090E099
:10083000892B29F00E94000081110E94000080E0B5
:1008400090E0892B49F080E090E0892B29F00E940C
:10085000000081110C9400000895089590E080E05C
:1008600008958F929F92AF92BF92CF92DF92EF92B4
:10087000FF92CF93DF93FC0119952091C9072223A2
:1008800009F4ECC0F090CB07FF2009F41EC12091C1
:10089000C7073091C807BC01621B730B7093C20776
:1008A0006093C107072E000C880B990B0E9417114B
:1008B0009B01AC016091E7077091E8078091E9071F
:1008C0009091EA070E944B126093E7077093E80744
:1008D0008093E9079093EA076091C1077091C2077E
:1008E000072E000C880B990B0E9417119B01AC017D
:1008F0000E9476112091EB073091EC074091ED07B3
:100900005091EE070E944B126093EB077093EC0737
:100910008093ED079093EE07C091D507D091D6074D
:100920002091CD073091CE07C217D30709F08DC0B3
:100930006093EF077093F0078093F1079093F207AD
:10094000FF2009F476C0C090CF07D090D007E09088
:10095000D107F090D207A701960160E070E080E82F
:100960009FE30E944A122091E3073091E4074091EF
:10097000E5075091E6070E9476114B015C0120913A
:10098000E7073091E8074091E9075091EA07C7016E
:10099000B6010E9476119B01AC01C501B4010E9411
:1009A0004B126B017C01C092E307D092E407E09206
:1009B000E507F092E607BE01DD0F880B990B0E9458
:1009C00017119B01AC01C701B6010E94B7126B0160
:1009D0007C0120E030E0A9010E945F1320E030E0BC
:1009E00040E05FE387FD76C0C701B6010E944B126D
:1009F0000E9429137093D4076093D3078091C7078F
:100A00009091C807680F791F7093C8076093C70754
:100A10001092E7071092E8071092E9071092EA0790
:100A20008091CC07882329F01092C90781E0809338
:100A3000CA071092EB071092EC071092ED07109284
:100A4000EE071092D6071092D5078091D5079091A6
:100A5000D60701969093D6078093D5070E949B02F4
:100A6000C0901E07D0901F07E0902007F09021074C
:100A70006C157D058E059F0588F3D701C601885149
:100A80009C4FAF4FBF4F80931E0790931F07A093BB
:100A90002007B093210720912207309123072F5F71
:100AA0003F4F309323072093220781E0283E3340B5
:100AB0000CF080E0DF91CF91FF90EF90DF90CF902E
:100AC000BF90AF909F908F9008959093C2078093AE
:100AD000C10702CFC701B6010E944A1289CFCF9346
:100AE000CFE161E08C2F0E940602CE5FC733C9F7C9
:100AF000CF910895CF93DF93EC0160E08E810E9447
:100B0000060261E08E810E94060260E08E810E94F2
:100B100006028BE891E00197F1F7DF91CF910895FC
:100B2000CF92DF92EF92FF920F931F93CF93DF93B9
:100B30006C017C0187E0E80EF11CD0E0C0E0062FDC
:100B400010E0B8010C2E02C0759567950A94E2F783
:100B50006170F70181917F010E9406022196C430E5
:100B6000D10579F7C601DF91CF911F910F91FF90C9
:100B7000EF90DF90CF900C947A05CF92DF92EF92B6
:100B8000FF920F931F93CF93DF93EC01F62E642F08
:100B90008C810E9406028D818F3F19F060E00E94D7
:100BA00006020F2D10E08F8584FF25C06E0187E0BF
:100BB000C80ED11CF12CE12CB8010E2C02C0759589
:100BC00067950A94E2F76170F60181916F010E94C6
:100BD0000602FFEFEF1AFF0A88E0E816F10461F75A
:100BE000CE01DF91CF911F910F91FF90EF90DF9099
:100BF000CF900C947A05B80184E0759567958A9535
:100C0000E1F7CE010E9490056F2DCE01DF91CF91CB
:100C10001F910F91FF90EF90DF90CF900C94900573
:100C200040E0682F83EF97E00C94BD0581E00E94BF
:100C300010068BE39FE10197F1F70895CF93DF93BF
:100C4000823029F490910208986090930208809372
:100C500006081092070880E48093080880E18093DA
:100C6000090880E580930A0861E08091F7070E94F7
:100C700053028091F8078F3F19F061E00E94530200
:100C800061E08091F9070E945302C3EFD7E09E0113
:100C9000235F37408091020884FD0BC084E090E020
:100CA00021962817390744F461E08E810E9453028F
:100CB000EECF88E090E0F4CF8BE39DE00197F1F771
:100CC00060E08091F7070E94060260E08091F907DA
:100CD0000E9406028091F8078F3F19F060E00E94A1
:100CE00006028091020884FD34C063E083EF97E040
:100CF0000E949005CBE4D6E4CE010197F1F763E0C2
:100D000083EF97E00E9490052197F1F763E083EF6E
:100D100097E00E94900583E592E00197F1F762E089
:100D200083EF97E00E9490058091020880620E9404
:100D3000100684E0809303088CE00E9410060E9455
:100D4000160682E08093040886E0DF91CF910C9430
:100D5000100680620E9410068BE496E40197F1F77A
:100D60008091020880620E94100683E592E001975C
:100D7000F1F78091020880620E941006D5CF909111
:100D80000608691710F06FEF690FE62FF0E0ED50DD
:100D9000F84F9489890F80680C9410060F931F9365
:100DA000CF93DF938C01EB010E94160660E080E098
:100DB0000E94BF06F801448155816081718183EFF3
:100DC00097E00E94F90261E080E00E94BF064C813A
:100DD0005D816881798183EF97E0DF91CF911F91E9
:100DE0000F910C94F90241E00E94BD0581E090E072
:100DF00008951F93CF93DF93C1ECD7E01B8622E3C6
:100E000030E03D872C8711E01A8720E032E03F83F5
:100E10002E839B01AC010E94761120E030E048E473
:100E20005CE40E94B7126A8F7B8F8C8F9D8F1AA60D
:100E30001BA61CA61DA61D8A1C8A1887198610923F
:100E40002307109222070E949B0268517C4F8F4F0C
:100E50009F4F60931E0770931F0780932007909306
:100E60002107DF91CF911F910895FC01808191812D
:100E7000009711F00C948A140895FB010190002052
:100E8000E9F73197AF01461B570BDC01ED91FC915F
:100E90000280F381E02D19948F929F92AF92BF92BE
:100EA000EF92FF920F931F93CF93DF93CDB7DEB7EF
:100EB000A1970FB6F894DEBF0FBECDBF7C01FA013B
:100EC000CB0119A2223008F42AE08E010F5D1F4FDA
:100ED000822E912CB12CA12CBF01A50194010E945E
:100EE000C413F901CA016A300CF5605DD8016E9334
:100EF0008D01232B242B252B79F790E080E0109790
:100F000021F0BD01C7010E943D07A1960FB6F894DC
:100F1000DEBF0FBECDBFDF91CF911F910F91FF902C
:100F2000EF90BF90AF909F908F900895695CDECF57
:100F3000CF93DF93BC0184E297E00E943D07EC0170
:100F40006DE774E084E297E00E943D078C0F9D1FDF
:100F5000DF91CF910895CF92DF92EF92FF92CF93DE
:100F6000DF936C01990FEE08FF08F7FE23C06DE2D6
:100F700084E297E00E948F03EC0144275527BA01D1
:100F80004C195D096E097F092AE084E297E00E940E
:100F90004C07C80FD91F6DE774E084E297E00E9408
:100FA0003D078C0F9D1FDF91CF91FF90EF90DF9059
:100FB000CF9008952AE0B701A60184E297E00E944D
:100FC0004C07EC01E8CF2F923F924F925F926F92C5
:100FD0007F928F929F92AF92BF92CF92DF92EF92C9
:100FE000FF921F93CF93DF93EC016A017B01722E76
:100FF000AB019601CB01B6010E94AA1360E874E030
:10100000811126C046015701E894B7F82FEF3FEF52
:101010004FE75FE7C501B4010E94AA1381110CC01C
:101020002FEF3FEF4FE75FE7C501B4010E941011BA
:1010300064E874E0181664F02FEF3FEF4FE75FE4C9
:10104000C701B6010E945F131816B4F468E874E093
:10105000CE01DF91CF911F91FF90EF90DF90CF9065
:10106000BF90AF909F908F907F906F905F904F90C8
:101070003F902F900C943D072FEF3FEF4FE75FEC31
:10108000C701B6010E94101187FDE0CF20E030E0DB
:10109000A901C701B6010E941011312C212C87FF34
:1010A0000DC0E881F9810190F081E02D6DE2CE0163
:1010B00019951C01F7FAF094F7F8F09410E060E04D
:1010C00070E080E09FE3711641F020E030E040E204
:1010D00051E40E94B7121F5FF6CFA70196010E944C
:1010E0004B122B013C010E9430134B015C012AE0A2
:1010F000BC01A401CE010E944C077C01E20CF31C50
:101100001123E1F1C501B4010E9415119B01AC014D
:10111000C301B2010E944A124B015C01E881F981CE
:101120000190F081E02D6EE2CE011995E80EF91ED6
:10113000115020F120E030E040E251E4C501B4015B
:101140000E9476112B013C010E9430134B01B12CFF
:10115000A12C2AE0B501A401CE010E944C07E80EA3
:10116000F91EC501B4010E9415119B01AC01C30118
:10117000B2010E944A124B015C01DACFC701DF9134
:10118000CF911F91FF90EF90DF90CF90BF90AF90E5
:101190009F908F907F906F905F904F903F902F9097
:1011A0000895CF93DF93AB01BC0122E084E297E086
:1011B0000E94E307EC016DE774E084E297E00E948F
:1011C0003D078C0F9D1FDF91CF9108950C943D0733
:1011D000EF92FF920F931F93CF93DF93EC017B016C
:1011E000198218821B821A821D821C82FB010190C7
:1011F0000020E9F731978F01061B170BB8016F5FCD
:101200007F4F90E080E00E9413150097B9F099831A
:1012100088831B830A832C813D81232B11F4FC01DD
:1012200010821D830C83B70188819981DF91CF9152
:101230001F910F91FF90EF900C94FD15888199817B
:10124000009711F00E948A14198218821D821C8254
:101250001B821A82DF91CF911F910F91FF90EF9027
:1012600008951F93CF93DF93CDB7DEB72C970FB6BA
:10127000F894DEBF0FBECDBF82E10E94DD016CE8B5
:1012800074E0019709F040C0CE0107960E94E8087B
:101290006CE974E0CE0101960E94E808BE01695F26
:1012A0007F4FCE0101960E94CE06CE0101960E948C
:1012B0003507CE0107960E9435078CEA94E00E941C
:1012C000980711E01093120781E090E00E94AB07AD
:1012D00060ED77E080E090E00E94C0020E946F0520
:1012E0001093600210921407109213078CEB94E095
:1012F0000E9498072C960FB6F894DEBF0FBECDBFA4
:10130000DF91CF911F910895CE0107960E94E808C2
:101310006DEC74E0CE0101960E94E808BE01695FA1
:101320007F4FCE0101960E94CE06CE0101960E940B
:101330003507CE0107960E9435078DEC94E00E9498
:101340009807109212070E946F0581E08093600257
:101350001092140710921307CDCFCF92DF92EF9225
:10136000FF920F931F93CF93DF93EB017B0124E058
:10137000E20EF11C8B016C01C61AD70AC601800F60
:10138000911F0E943412F80181938F01EE15FF0521
:10139000A9F7CE01DF91CF911F910F91FF90EF90B0
:1013A000DF90CF9008959F92AF92BF92CF92DF923D
:1013B000EF92FF920F931F93CF93DF935C017B011A
:1013C0008B01D0E0C0E0F80191908F016501CC0E57
:1013D000DD1EC6010E943412981621F0692DC60147
:1013E0000E943C122196C430D10569F7C701DF91F4
:1013F000CF911F910F91FF90EF90DF90CF90BF9012
:10140000AF909F900895CF93DF93EC01BC0188E0EB
:1014100090E00E94D30960EE74E084E297E00E94BD
:10142000E608688179818A819B81DF91CF910C9454
:10143000D108CF92DF92EF92FF920F931F93CF9339
:10144000DF936B017C018A01E9018AEF94E00E943D
:10145000980720E030E0A901C701B6010E945F13A0
:1014600087FD18C020E030E048E452E4C701B6012F
:101470000E941011181674F0C8010E943402CE01A7
:10148000DF91CF911F910F91FF90EF90DF90CF9060
:101490000C94030A20E030E048E452E4C701B601AE
:1014A0000E945F131816ACF420E030E048EC52E4E0
:1014B000C701B6010E94101118165CF061E083E0CC
:1014C0000E940602C80148960E943402CE0104968A
:1014D000D7CF20E030E048EC52E4C701B6010E94CB
:1014E0005F131816ACF420E030E046E153E4C70186
:1014F000B6010E94101118165CF061E084E00E94B1
:101500000602C801C0960E943402CE010896B8CFE8
:1015100020E030E046E153E4C701B6010E945F13CA
:10152000181694F420E030E04EE353E4C701B6010E
:101530000E941011181644F0C801885B9F4F0E944A
:101540003402CE010C969CCF20E030E04EE353E411
:10155000C701B6010E945F13181644F4C801805AEF
:101560009F4F0E943402CE0140968ACFDF91CF91E7
:101570001F910F91FF90EF90DF90CF900895CF9340
:10158000DF93C1ECD7E02A8D3B8D4C8D5D8D6EA530
:101590007FA588A999A90E9476116E8F7F8F88A355
:1015A00099A30E946A13AB01BC014A835B836C83DD
:1015B0007D83198622E084E297E00E94E3076BE0D6
:1015C00075E084E297E00E94E6088E819F810E9488
:1015D000AB076A817B818C819D81DF91CF910895DA
:1015E0001F920F920FB60F9211242F933F938F9358
:1015F0009F93AF93BF938091160790911707A09187
:101600001807B09119073091150723E0230F2D37E4
:1016100058F50196A11DB11D20931507809316075B
:1016200090931707A0931807B093190780911A0792
:1016300090911B07A0911C07B0911D070196A11D59
:10164000B11D80931A0790931B07A0931C07B093BA
:101650001D07BF91AF919F918F913F912F910F9057
:101660000FBE0F901F90189526E8230F0296A11D1C
:10167000B11DD2CF1F920F920FB60F9211240BB64D
:101680000F922F933F934F935F936F937F938F931B
:101690009F93AF93BF93EF93FF93E0910E02F0916E
:1016A0000F021995FF91EF91BF91AF919F918F918B
:1016B0007F916F915F914F913F912F910F900BBE52
:1016C0000F900FBE0F901F9018951F920F920FB69C
:1016D0000F9211240BB60F922F933F934F935F936A
:1016E0006F937F938F939F93AF93BF93EF93FF93EA
:1016F000E0910C02F0910D021995FF91EF91BF91CD
:10170000AF919F918F917F916F915F914F913F9199
:101710002F910F900BBE0F900FBE0F901F9018953A
:101720001F920F920FB60F9211240BB60F922F93A8
:101730003F934F935F936F937F938F939F93AF9359
:10174000BF93EF93FF93E0910202F091030219958A
:10175000FF91EF91BF91AF919F918F917F916F9189
:101760005F914F913F912F910F900BBE0F900FBE45
:101770000F901F9018951F920F920FB60F92112481
:101780000BB60F922F933F934F935F936F937F937B
:101790008F939F93AF93BF93EF93FF93E0910002DA
:1017A000F09101021995FF91EF91BF91AF919F9137
:1017B0008F917F916F915F914F913F912F910F90FA
:1017C0000BBE0F900FBE0F901F9018951F920F9297
:1017D0000FB60F9211240BB60F922F933F934F9396
:1017E0005F936F937F938F939F93AF93BF93EF9389
:1017F000FF93E0910A02F0910B021995FF91EF918E
:10180000BF91AF919F918F917F916F915F914F9118
:101810003F912F910F900BBE0F900FBE0F901F9016
:1018200018951F920F920FB60F9211240BB60F92BC
:101830002F933F934F935F936F937F938F939F93D8
:10184000AF93BF93EF93FF93E0910802F0910902E9
:101850001995FF91EF91BF91AF919F918F917F91DA
:101860006F915F914F913F912F910F900BBE0F9011
:101870000FBE0F901F9018951F920F920FB60F92E8
:1018800011240BB60F922F933F934F935F936F9357
:101890007F938F939F93AF93BF93EF93FF93E091C9
:1018A0000602F09107021995FF91EF91BF91AF9158
:1018B0009F918F917F916F915F914F913F912F9168
:1018C0000F900BBE0F900FBE0F901F9018951F9298
:1018D0000F920FB60F9211240BB60F922F933F93D6
:1018E0004F935F936F937F938F939F93AF93BF9328
:1018F000EF93FF93E0910402F09105021995FF9197
:10190000EF91BF91AF919F918F917F916F915F9177
:101910004F913F912F910F900BBE0F900FBE0F90E4
:101920001F9018951F920F920FB60F9211240BB6AD
:101930000F922F933F934F935F936F937F938F9368
:101940009F93AF93BF93EF93FF9384E297E00E943E
:101950006D03FF91EF91BF91AF919F918F917F9117
:101960006F915F914F913F912F910F900BBE0F9010
:101970000FBE0F901F9018951F920F920FB60F92E7
:1019800011240BB60F922F938F939F93EF93FF9396
:10199000E0913407F09135078081E0913A07F091AA
:1019A0003B0782FD1DC0908180913D078F5F8F7343
:1019B00020913E07821741F0E0913D07F0E0EC5D99
:1019C000F84F958F80933D07FF91EF919F918F91F5
:1019D0002F910F900BBE0F900FBE0F901F90189578
:1019E0008081F2CFE4E2F7E01382128288EE93E086
:1019F000A0E0B0E084839583A683B78383E694E078
:101A00009183808385EC90E09587848784EC90E0D7
:101A10009787868780EC90E0918B808B81EC90E0BB
:101A2000938B828B82EC90E0958B848B86EC90E09C
:101A3000978B868B118E128E138E148EE3EFF7E048
:101A40001382128285E794E09183808385E084830A
:101A50008FEF858386E0868388E0878389E08087AF
:101A60008AE081878BE08287138614861586168626
:101A7000178681E00E941E0683E393E3A3E3BFE39E
:101A80008093CF079093D007A093D107B093D2074C
:101A90000895CF93DF93CDB7DEB768970FB6F8946C
:101AA000DEBF0FBECDBF789484B5826084BD84B59F
:101AB000816084BD85B5826085BD85B5816085BD49
:101AC00080916E00816080936E0010928100809101
:101AD0008100826080938100809181008160809389
:101AE0008100809180008160809380008091B100AE
:101AF00084608093B1008091B00081608093B000D9
:101B0000809191008260809391008091910081602A
:101B100080939100809190008160809390008091EB
:101B2000A10082608093A1008091A10081608093D8
:101B3000A1008091A00081608093A000809121018C
:101B40008260809321018091210181608093210135
:101B50008091200181608093200180917A008460CF
:101B600080937A0080917A00826080937A008091DD
:101B70007A00816080937A0080917A0080688093F7
:101B80007A001092C100E0913407F091350782E0AD
:101B90008083E0913007F09131071082E0913207A5
:101BA000F09133078FEC808310923C07E091380767
:101BB000F091390786E08083E0913607F09137078E
:101BC000808180618083E0913607F09137078081C2
:101BD00088608083E0913607F091370780818068C4
:101BE0008083E0913607F091370780818F7D808375
:101BF00082E00E941E0660E082E00E94530260E0E4
:101C000083E00E94530260E084E00E94530260E09F
:101C100088E30E9453021FE161E0812F0E9453027A
:101C20001E5F1733C9F781E399E090930B0280930D
:101C30000A02809169008F73806480936900EB9A37
:101C400003E010E082E0C82ED12C80911307909120
:101C500014078130910509F496C050F08230910547
:101C600009F444C1039709F4F2C10E94FC03EDCFCB
:101C700080916002882329F18EE095E00E94980708
:101C800088E295E00E94980760E475E0CE01019635
:101C90000E94E8086DE475E0CE0107960E94E8080E
:101CA000BE016F5F7F4FCE0107960E94CE06CE0128
:101CB00007960E943507CE0101960E9435071092C3
:101CC000600282E00E94DD017C0181E0E816F104FF
:101CD00051F58FE595E00E9498076FE774E0CE011B
:101CE00001960E94E8086EE675E0CE0107960E9414
:101CF000E808BE016F5F7F4FCE0107960E94CE06B7
:101D0000CE0107960E943507CE0101960E94350745
:101D100068EE73E080E090E00E94C002F092140749
:101D2000E0921307A2CF83E00E94DD01019709F042
:101D30009CCF83E895E00E9498076FE774E0CE019E
:101D400001960E94E80862E975E0CE0107960E94BC
:101D5000E808BE016F5F7F4FCE0107960E94CE0656
:101D6000CE0107960E943507CE0101960E943507E5
:101D700068EE73E080E090E00E94C002D092140709
:101D8000C092130772CF86EA95E00E9498076BEB2A
:101D900075E0CE0101960E94E80861ED75E0CE0184
:101DA00007960E94E808BE016F5F7F4FCE0107963D
:101DB0000E94CE06CE0107960E943507CE010196FD
:101DC0000E94350760E070EC80E394E40E94F9061D
:101DD00082EF92E00E9431048111FACF0E94BF0A83
:101DE0006F83788789879A87BE01695F7F4F90E00C
:101DF00080E00E94D3090E94160662EE75E083EF30
:101E000097E00E94E60861E080E00E94BF064F81F3
:101E1000588569857A8522E083EF97E00E94E30781
:101E200080911207882379F18AEE95E00E94980745
:101E30006F81788589859A8524E232E04FED52E002
:101E40000E94190A60E070E08AE793E40E94F906B4
:101E50000E94BF0A69837A838B839C83BE016F5F74
:101E60007F4F84E090E00E94D30910931407009301
:101E7000130781E080936002809312078CEF95E056
:101E80000E949807F2CE6F81788589859A8520E136
:101E900032E047E652E00E94190A60E070E88DE007
:101EA00094E40E94F90685EF92E00E9431048111CA
:101EB000FACF0E94BF0A69837A838B839C83BE0119
:101EC0006F5F7F4F84E090E00E94D30964EF71E080
:101ED00080E090E00E94C002109314070093130763
:101EE00081E08093600285E196E0CACF8BE296E0C4
:101EF0000E9498076BEB75E0CE0101960E94E808FE
:101F000060E476E0CE0107960E94E808BE016F5FAC
:101F10007F4FCE0107960E94CE06CE0107960E9403
:101F20003507CE0101960E94350760E070EC80E332
:101F300094E40E94F90682EF92E00E94310481113C
:101F4000FACF0E94BF0A6F83788789879A87BE017C
:101F5000695F7F4F90E080E00E94D3090E941606DF
:101F600061E576E083EF97E00E94E60861E080E0BB
:101F70000E94BF064F81588569857A8522E083EFEC
:101F800097E00E94E30780911207882359F18AEEB7
:101F900095E00E9498076F81788589859A852CE461
:101FA00032E04FEC53E00E94190A60E070E08AE7EB
:101FB00093E40E94F9060E94BF0A69837A838B83A7
:101FC0009C83BE016F5F7F4F84E090E00E94D30945
:101FD000109314070093130781E08093600289E552
:101FE00096E04ECF6F81788589859A8528E332E027
:101FF00047E553E00E94190A82E796E00E9498079D
:1020000060E070E88DE094E40E94F90685EF92E0CC
:102010000E9431048111FACF0E94BF0A69837A833A
:102020008B839C83BE016F5F7F4F84E090E00E94B2
:10203000D30964EF71E080E090E00E94C002109349
:1020400014070093130781E0809360020ECE809105
:102050006002882309F184E896E00E94980764E909
:1020600076E0CE0101960E94E80862EA76E0CE01B1
:1020700007960E94E808BE016F5F7F4FCE0107966A
:102080000E94CE06CE0107960E943507CE0101962A
:102090000E9435071092600284E00E94DD010197E2
:1020A00009F0ADC0BE016B5E7F4F90E080E00E9402
:1020B000AD09BE016F5E7F4F84E090E00E94AD09E4
:1020C000BE01635F7F4F88E090E00E94AD0962EB44
:1020D00076E084E297E00E94E6086D897E898F8928
:1020E000988D0E94D1086CEB76E084E297E00E9424
:1020F000E60869897A898B899C890E94D10866ECF7
:1021000076E084E297E00E94E6086D857E858F8503
:1021100098890E94D1080E94160660E080E00E9423
:10212000BF0663ED76E083EF97E00E94E6084989F9
:102130005A896B897C8923E083EF97E00E94E3074B
:1021400060E088E00E94BF0666ED76E083EF97E0EE
:102150000E94E60861E080E00E94BF0669ED76E03B
:1021600083EF97E00E94E6084D895E896F89788D3C
:1021700020E083EF97E00E94E30761E089E00E949E
:10218000BF066FED76E083EF97E00E94E6084D858D
:102190005E856F85788922E083EF97E00E94E307F0
:1021A00061E08FE00E94BF066BEC74E083EF97E084
:1021B0000E94E60860E777E180E090E00E94C002BC
:1021C00082EE96E00E94980761EF76E0CE010196DC
:1021D0000E94E80862E077E0CE0107960E94E808D6
:1021E000BE016F5F7F4FCE0107960E94CE06CE01E3
:1021F00007960E943507CE0101960E94350782E0BE
:102200000E94DD01019729F4109214071092130720
:102210001ACF83E00E94DD01019709F026CDF4CFAB
:102220000E94521108F481E00895E89409C097FBD8
:102230003EF490958095709561957F4F8F4F9F4F9D
:102240009923A9F0F92F96E9BB279395F6958795E1
:1022500077956795B795F111F8CFFAF4BB0F11F4A4
:1022600060FF1BC06F5F7F4F8F4F9F4F16C088234B
:1022700011F096E911C0772321F09EE8872F762F81
:1022800005C0662371F096E8862F70E060E02AF0C2
:102290009A95660F771F881FDAF7880F96958795AE
:1022A00097F90895990F0008550FAA0BE0E8FEEF83
:1022B00016161706E807F907C0F012161306E4070A
:1022C000F50798F0621B730B840B950B39F40A2603
:1022D00061F0232B242B252B21F408950A2609F4E1
:1022E000A140A6958FEF811D811D08950E9489113F
:1022F0000C94FA110E94EC1138F00E94F31120F0B6
:10230000952311F00C94E3110C94E91111240C9411
:102310002E120E940B1270F3959FC1F3950F50E09F
:10232000551F629FF001729FBB27F00DB11D639F87
:10233000AA27F00DB11DAA1F649F6627B00DA11D2D
:10234000661F829F2227B00DA11D621F739FB00DD3
:10235000A11D621F839FA00D611D221F749F332743
:10236000A00D611D231F849F600D211D822F762FDC
:102370006A2F11249F5750409AF0F1F088234AF0B9
:10238000EE0FFF1FBB1F661F771F881F9150504025
:10239000A9F79E3F510580F00C94E3110C942E1286
:1023A0005F3FE4F3983ED4F3869577956795B795AC
:1023B000F795E7959F5FC1F7FE2B880F911D9695C6
:1023C000879597F9089597F99F6780E870E060E036
:1023D00008959FEF80EC089500240A9416161706BE
:1023E00018060906089500240A9412161306140606
:1023F00005060895092E0394000C11F4882352F069
:10240000BB0F40F4BF2B11F460FF04C06F5F7F4F20
:102410008F4F9F4F089557FD9058440F551F59F007
:102420005F3F71F04795880F97FB991F61F09F3FC1
:1024300079F087950895121613061406551FF2CFEA
:102440004695F1DF08C0161617061806991FF1CF3A
:1024500086957105610508940895E894BB27662761
:102460007727CB0197F90895F999FECF92BD81BDE9
:10247000F89A992780B50895262FF999FECF1FBAAB
:1024800092BD81BD20BD0FB6F894FA9AF99A0FBE9D
:10249000019608955058BB27AA270E9462120C94F7
:1024A000FA110E94EC1138F00E94F31120F039F477
:1024B0009F3F19F426F40C94E9110EF4E095E7FB24
:1024C0000C94E311E92F0E940B1258F3BA1762071C
:1024D00073078407950720F079F4A6F50C942D1264
:1024E0000EF4E0950B2EBA2FA02D0B01B90190012F
:1024F0000C01CA01A0011124FF27591B99F0593F73
:1025000050F4503E68F11A16F040A22F232F342FBA
:102510004427585FF3CF469537952795A795F04008
:102520005395C9F77EF41F16BA0B620B730B840B1D
:10253000BAF09150A1F0FF0FBB1F661F771F881FD5
:10254000C2F70EC0BA0F621F731F841F48F487952D
:1025500077956795B795F7959E3F08F0B0CF93951F
:10256000880F08F09927EE0F9795879508950E9498
:10257000CB120C94FA110E94F31158F00E94EC1146
:1025800040F029F45F3F29F00C94E31151110C94B1
:102590002E120C94E9110E940B1268F39923B1F3E7
:1025A000552391F3951B550BBB27AA276217730779
:1025B000840738F09F5F5F4F220F331F441FAA1F0D
:1025C000A9F335D00E2E3AF0E0E832D091505040C9
:1025D000E695001CCAF72BD0FE2F29D0660F771F77
:1025E000881FBB1F261737074807AB07B0E809F05D
:1025F000BB0B802DBF01FF2793585F4F3AF09E3FE2
:10260000510578F00C94E3110C942E125F3FE4F323
:10261000983ED4F3869577956795B795F7959F5F24
:10262000C9F7880F911D9695879597F90895E1E070
:10263000660F771F881FBB1F621773078407BA07CF
:1026400020F0621B730B840BBA0BEE1F88F7E0952A
:1026500008950E9430136894B1110C942E120895BD
:102660000E94131288F09F5798F0B92F9927B751FD
:10267000B0F0E1F0660F771F881F991F1AF0BA9526
:10268000C9F714C0B13091F00E942D12B1E0089545
:102690000C942D12672F782F8827B85F39F0B93F37
:1026A000CCF3869577956795B395D9F73EF49095D9
:1026B0008095709561957F4F8F4F9F4F08950E9431
:1026C000521108F48FEF089519F416F40C94E911DF
:1026D0000C94AF130E941312B8F39923C9F3B6F305
:1026E0009F57550B87FF0E94BD130024A0E640EAC8
:1026F000900180585695979528F4805C660F771F57
:10270000881F20F026173707480730F4621B730B29
:10271000840B202931294A2BA6951794079420254C
:1027200031254A2758F7660F771F881F20F0261794
:102730003707480730F4620B730B840B200D311DF3
:10274000411DA09581F7B901842F9158880F969566
:10275000879508950E945211880B990B08959F3F09
:1027600031F0915020F4879577956795B795880F4C
:10277000911D9695879597F9089591505040660F51
:10278000771F881FD2F70895A1E21A2EAA1BBB1B40
:10279000FD010DC0AA1FBB1FEE1FFF1FA217B3072D
:1027A000E407F50720F0A21BB30BE40BF50B661F43
:1027B000771F881F991F1A9469F760957095809507
:1027C00090959B01AC01BD01CF010895EE0FFF1F55
:1027D000881F8BBF0790F691E02D19940F931F93DC
:1027E000CF93DF938230910510F482E090E0E09186
:1027F0000D08F0910E0830E020E0B0E0A0E0309746
:1028000099F42115310509F44AC0281B390B2430ED
:102810003105D8F58A819B816115710589F1FB012C
:1028200093838283FE0111C0408151810281138113
:1028300048175907E0F04817590799F4109761F0C5
:1028400012960C93129713961C933296CF01DF9138
:10285000CF911F910F91089500930D0810930E08CA
:10286000F4CF2115310551F04217530738F0A90173
:10287000DB019A01BD01DF01F801C1CFEF01F9CF02
:1028800090930E0880930D08CDCFFE01E20FF31F49
:10289000819391932250310939832883D7CF209196
:1028A0000B0830910C08232B41F4209163023091E6
:1028B000640230930C0820930B0820916102309140
:1028C00062022115310541F42DB73EB740916502F2
:1028D00050916602241B350BE0910B08F0910C0817
:1028E000E217F307A0F42E1B3F0B2817390778F0E7
:1028F000AC014E5F5F4F2417350748F04E0F5F1F46
:1029000050930C0840930B08819391939FCFF0E074
:10291000E0E09CCFCF93DF930097E9F0FC01329782
:1029200013821282A0910D08B0910E08ED0130E0E3
:1029300020E01097A1F420813181820F931F209114
:102940000B0830910C082817390709F061C0F09383
:102950000C08E0930B08DF91CF910895EA01CE17A0
:10296000DF07E8F54A815B819E0141155105B1F70A
:10297000E901FB83EA8349915991C40FD51FEC17F4
:10298000FD0761F4808191810296840F951FE90112
:1029900099838883828193819B838A83F0E0E0E03E
:1029A00012968D919C9113970097B9F52D913C91BA
:1029B0001197CD010296820F931F20910B08309141
:1029C0000C082817390739F6309751F510920E0880
:1029D00010920D08B0930C08A0930B08BCCFD383C2
:1029E000C28340815181840F951FC817D90761F4B4
:1029F0004E5F5F4F88819981480F591F51834083F3
:102A00008A819B81938382832115310509F0B0CFA0
:102A1000F0930E08E0930D089ECFFD01DC01C0CFBE
:102A200013821282D7CF4F925F926F927F928F92D2
:102A30009F92AF92BF92CF92DF92EF92FF920F934D
:102A40001F93CF93DF938C01009799F4CB01DF9113
:102A5000CF911F910F91FF90EF90DF90CF90BF909B
:102A6000AF909F908F907F906F905F904F900C945D
:102A7000EE13FC01E60FF71F9C0122503109E2170B
:102A8000F30708F4AEC0D901CD91DC911197C617B8
:102A9000D70720F1C530D10578F0CE01049786170D
:102AA000970750F0C61BD70B2297C193D1936D9314
:102AB0007C93CF010E948A14C801DF91CF911F91AE
:102AC0000F91FF90EF90DF90CF90BF90AF909F90CD
:102AD0008F907F906F905F904F9008955B01AC1A3C
:102AE000BD0A4C018C0E9D1EA0910D08B0910E08E0
:102AF000512C412CF12CE12C109731F580910B08D1
:102B000090910C088815990509F05CC04616570687
:102B100008F058C08091610290916202009741F4E0
:102B20008DB79EB74091650250916602841B950B4C
:102B3000E817F90708F055C0F0930C08E0930B086C
:102B4000F90171836083B8CF8D919C911197129692
:102B50006C90129713967C901397A815B90559F5A8
:102B60006C0142E0C40ED11CCA14DB0420F1AC019C
:102B70004A195B09DA011296159780F06282738216
:102B800051834083D9016D937C93E114F10471F07A
:102B9000D7011396FC93EE9312978ECF22968C0F4B
:102BA0009D1FF90191838083F301EFCFF0930E080D
:102BB000E0930D0881CF4816590608F42C017D01D9
:102BC000D3019ACFCB010E94EE137C01009749F00C
:102BD000AE01B8010E94F415C8010E948A14870151
:102BE0006BCF10E000E068CFFB01DC0102C0019078
:102BF0000D9241505040D8F70895FB01DC0101903F
:0C2C00000D920020E1F70895F894FFCF3A
:102C0C00F802F802F802F802F802F802F802F802E8
:102C1C0000006040000020400000E03F295CAF3F16
:102C2C00295C8F3F0000C0400000A0400000004025
:102C3C00000040400000803F000048430000A042DC
:102C4C0000008C416666B640000040400000C8425F
:102C5C000000803F0000C03FCDCC2C400000B041B4
:102C6C000100000F088000010001000000010001BC
:102C7C000001000000000000000100010001000143
:102C8C000001000000010000000100010001000033
:102C9C000001000100010000000000000000000124
:102CAC000000000000010000000100010001000113
:102CBC000000000000010000000100010001000004
:102CCC0000010001000100010000000000000000F4
:102CDC0000010001000100000001000100010000E2
:102CEC0000010001000100010001000100000001D1
:102CFC0000010001000000000001000100010001C2
:102D0C0000010001000000010000000100010001B1
:102D1C0000010000000100000001000100010001A1
:102D2C000000000100000001000100000001000093
:102D3C000001000100010001000100000001000180
:102D4C000001000100000000000100010001000072
:102D5C000001000100010000000100010001000160
:102D6C000001000100000000000100010001000052
:102D7C000001000100010000000100010001000041
:102D8C000001000100010000000100010000000131
:102D9C000001000000010000000100010001000121
:102DAC000000000100010001000000010001000111
:102DBC000000000100010001000000000000000004
:102DCC0000010001000100000001000100010001F0
:102DDC0000000000000000000000000000010000E6
:102DEC0000000000000100010000000000000000D5
:102DFC0000000000000100000001000000000000C5
:102E0C0000000001000000010000000000000000B4
:102E1C0000010000000100000000000100000001A2
:102E2C000000000000000000000000010000000095
:102E3C000000000000010001000000000000000183
:102E4C00000000000000001F0021002300250027C7
:102E5C000029002B002D002F00310033003500001D
:102E6C000000008F03F9022603DC035703350349E6
:102E7C000300000000F306F9022E042D040D0A00D5
:102E8C006E616E00696E66006F76660043616D62FE
:102E9C0069616E646F20726564205A0059414B4F12
:102EAC00422044455445435441444F0059414B4FF3
:102EBC004220434F4E45435441444F0059454E44E4
:102ECC004F204D4F444F20413120594B0059414B1D
:102EDC004F4220444553434F4E45435441444F00C9
:102EEC00526573697374656E6369612065717620D0
:102EFC0067756172646164612E005052454E44499D
:102F0C00454E444F2052454C4553002C2000456EF5
:102F1C007472616E646F2061206D656E75207072C5
:102F2C00696E636970616C004172656173206465E0
:102F3C0020636F6E746163746F20413120413200E5
:102F4C00312E2041312C20322E204132004172652D
:102F5C00617320646520636F6E746163746F0053DA
:102F6C00652070726573696F6E6F20413100436F1D
:102F7C006E6669672E20413D2038323030206D6DF1
:102F8C005E320053652070726573696F6E6F2041FD
:102F9C003200436F6E6669672E20413D2031303020
:102FAC00206D6D5E3200456E7472616E646F2061CF
:102FBC002065737461646F204131005265616C69E6
:102FCC007A616E646F206D65646963696F6E657399
:102FDC0000457374617320656E206D6F646F2041C2
:102FEC003100566F6C74616A650043414D42494132
:102FFC004E444F205A2041205A594B0053616C6962
:10300C00656E646F2064652065737461646F204124
:10301C003120594B0053616C69656E646F20646597
:10302C002065737461646F20413100456E74726168
:10303C006E646F20612065737461646F204132008F
:10304C00457374617320656E206D6F646F2041321F
:10305C0000766F6C74616A650053616C69656E64AF
:10306C006F2064652065737461646F204132205950
:10307C004B004C6579656E646F20636F7272696585
:10308C006E7465005265766973616E646F2064615D
:10309C00746F732050726573696F6E652073696706
:1030AC002E005265766973616E646F206461746F73
:1030BC007300566F6C746167653A200043757272C9
:1030CC00656E743A2000526573697374616E636542
:1030DC003A2000413A006D410056726D733A005A25
:1030EC003A005265706574697220502E20536967DE
:1030FC002069722061206D656E753A2041312D4139
:10310C0032005265706574697220502E20536967C5
:02311C000000B1
:00000001FF
