:020000040000FA
:100000000C943F010C94010B0C94D60A0C94AB0A8F
:100010000C94800A0C94550A0C942A0A0C94FF093B
:100020000C94D4090C9470010C9470010C94700120
:100030000C9470010C9470010C9470010C9470017C
:100040000C9470010C9470010C9470010C9470016C
:100050000C9470010C9470010C9470010C948A093A
:100060000C9470010C94560B0C942C0B0C94700196
:100070000C9470010C9470010C9470010C9470013C
:100080000C9470010C9470010C9470010C9470012C
:100090000C9470010C9470010C9470010C9470011C
:1000A0000C9470010C9470010C9470010C9470010C
:1000B0000C9470010C9470010C9470010C947001FC
:1000C0000C9470010C9470010C9470010C947001EC
:1000D0000C9470010C9470010C9470010C947001DC
:1000E0000C9470010C942B030C9424040C94AB011D
:1000F0000C94B5010C94B9010C941C030C94900160
:100100000C9485030C94D1010C946A070C94AF01F4
:100110000C94D2030C94C7010C9423040C94D501C5
:100120000C943F030C94CB010C948C0B0C94D001D9
:100130000C94C3010C94A0050C94BD010C94960181
:100140000C949A010C94A2010C94EF020C949E0161
:100150000C94A5010C944D030C94EE0200002100B8
:10016000240027002A002D00300033000101000088
:10017000040107010A0100002200250028002B00CD
:100180002E003100340002010000050108010B01BE
:10019000000020002300260029002C002F00320040
:1001A0000001000003010601090105050505070519
:1001B00008080808020202020A0A080804040404E3
:1001C000010101010101010103030303030303030F
:1001D000040707070C0C0C0C0C0C0C0C020202029E
:1001E00006060606060606060B0B0B0B0B0B0B0B87
:1001F0000102102020080810204010204080020139
:10020000020108040201010204081020408080401D
:10021000201008040201800402018040201008041C
:1002200002010804020101020408102040800102BA
:1002300004081020408000000A0B02090C0D0E0873
:10024000070304010000000000000000000000009F
:10025000000000000000000000000000000000009E
:10026000000012111000000000000000000000005B
:100270000000000000000000000000008C0B1124B2
:100280001FBECFEFD1E2DEBFCDBF00E00CBF14E058
:10029000A0E0B2E0E0E6FCE200E00BBF02C00790A5
:1002A0000D92AE3BB107D9F725E0AEEBB4E001C04B
:1002B0001D92AA3BB207E1F711E0CFE3D1E000E0E5
:1002C00006C021970109802FFE010E940914CE3338
:1002D000D10780E00807A9F70E94E30B0C942E16C3
:1002E0000C9400008150823108F05AC0E82FF0E0F1
:1002F0008827E258FE4F8F4F0C9409149E01A201EB
:10030000900196019A01D001A501AB01AF01B501A1
:10031000B901BD01C301C701D001CB01D101D50194
:10032000809180008F778093800008958091800075
:100330008F7DF9CF80918000877FF5CF84B58F774F
:1003400084BD089584B58F7DFBCF8091B0008F77F9
:100350008093B00008958091B0008F7DF9CF809197
:1003600090008F77809390000895809190008F7D0A
:10037000F9CF80919000877FF5CF8091A0008F7793
:100380008093A00008958091A0008F7DF9CF809187
:10039000A000877FF5CF809120018F778093200187
:1003A0000895809120018F7DF9CF80912001877F72
:1003B000F5CFCF93DF93282F30E0F901EA5CFD4FB2
:1003C0008491F901E051FE4FD491F901E655FE4FB9
:1003D000C491CC23A1F081110E947201EC2FF0E0B6
:1003E000EE0FFF1FE057FE4FA591B491EC91ED2366
:1003F00081E090E009F480E0DF91CF91089580E002
:1004000090E0FACF1F93CF93DF93282F30E0F901CC
:10041000EA5CFD4F8491F901E051FE4FD491F9015E
:10042000E655FE4FC491CC23A9F0162F81110E94EE
:100430007201EC2FF0E0EE0FFF1FEA58FE4FA5917E
:10044000B4918FB7F894EC91111108C0D095DE23C8
:10045000DC938FBFDF91CF911F910895DE2BF8CFF2
:10046000EF92FF920F931F93CF93DF93EC010FED69
:1004700012E07C0180E1E80EF11C68812296F8010F
:1004800080810E5F1F4F0E940202CE15DF05A9F783
:10049000DF91CF911F910F91FF90EF900895CF932F
:1004A000DF9390E0FC01E051FE4F249186559E4F72
:1004B000FC0184918823D1F090E0880F991FFC0102
:1004C000E45AFE4FA591B491FC01EA58FE4FC59144
:1004D000D49161110EC09FB7F8948C91E22FE095F2
:1004E0008E238C932881E223E8839FBFDF91CF91F5
:1004F00008958FB7F894EC91E22BEC938FBFF6CF71
:1005000090917B00977F90937B00865380648093CB
:100510007C0080917A00806480937A0080917A00D8
:1005200086FDFCCF809178009091790008953FB7C7
:10053000F8948091CB049091CC04A091CD04B0911B
:10054000CE0426B5A89B05C02F3F19F00196A11D2A
:10055000B11D3FBFBA2FA92F982F8827BC01CD010D
:10056000620F711D811D911D42E0660F771F881F6C
:10057000991F4A95D1F708958F929F92AF92BF929B
:10058000CF92DF92EF92FF924B015C010E949702A3
:100590006B017C010E9497026C197D098E099F09ED
:1005A000683E734081059105A8F321E0821A910805
:1005B000A108B10888EEC80E83E0D81EE11CF11C2A
:1005C00081149104A104B10429F7FF90EF90DF900A
:1005D000CF90BF90AF909F908F9008950895AF9265
:1005E000BF92CF92DF92EF92FF920F931F93CF9320
:1005F000DF936C017B018B01040F151FEB015E0182
:10060000AE18BF08C017D10759F06991D601ED9116
:10061000FC910190F081E02DC6011995892B79F7A5
:10062000C501DF91CF911F910F91FF90EF90DF9067
:10063000CF90BF90AF900895FC01538D448D252F2E
:1006400030E0842F90E0821B930B541710F0CF966C
:10065000089501970895FC01918D828D981761F09E
:10066000A28DAE0FBF2FB11D5D968C91928D9F5FB5
:100670009F73928F90E008958FEF9FEF0895FC0194
:10068000918D828D981731F0828DE80FF11D858D47
:1006900090E008958FEF9FEF0895FC01918D228DDA
:1006A000892F90E0805C9F4F821B91098F7399275F
:1006B00008958FEC94E00E944D0321E0892B09F40A
:1006C00020E0822F0895FC01A48DA80FB92FB11D41
:1006D000A35ABF4F2C91848D90E001968F73992778
:1006E000848FA689B7892C93A089B1898C91837056
:1006F00080648C93938D848D981306C00288F3894F
:10070000E02D80818F7D80830895EF92FF920F937B
:100710001F93CF93DF93EC0181E0888F9B8D8C8DAD
:1007200098131AC0E889F989808185FF15C09FB7A1
:10073000F894EE89FF896083E889F9898081837064
:10074000806480839FBF81E090E0DF91CF911F9113
:100750000F91FF90EF900895F62E0B8D10E00F5F34
:100760001F4F0F731127E02E8C8D8E110CC00FB60A
:1007700007FCFACFE889F989808185FFF5CFCE01A2
:100780000E946303F1CFEB8DEC0FFD2FF11DE35AB7
:10079000FF4FF0829FB7F8940B8FEA89FB89808125
:1007A0008062CFCFCF93DF93EC01888D8823B9F09F
:1007B000AA89BB89E889F9898C9185FD03C080816C
:1007C00086FD0DC00FB607FCF7CF8C9185FFF2CFE9
:1007D000808185FFEDCFCE010E946303E9CFDF91D9
:1007E000CF91089580E090E0892B29F00E94590371
:1007F00081110E94000080E090E0892B49F080E0A8
:1008000090E0892B29F00E94000081110E940000D5
:1008100080E090E0892B49F080E090E0892B29F07E
:100820000E94000081110E94000080E090E0892B6E
:1008300049F080E090E0892B29F00E9400008111AE
:100840000C9400000895089590E080E00895CF93FF
:10085000DF93EC0160E08E810E94020261E08E81F4
:100860000E94020260E08E810E9402028BE891E009
:100870000197F1F7DF91CF910895CF92DF92EF9238
:10088000FF920F931F93CF93DF936C017C0187E05E
:10089000E80EF11CD0E0C0E0062F10E0B8010C2EED
:1008A00002C0759567950A94E2F76170F70181912E
:1008B0007F010E9402022196C430D10579F7C6015A
:1008C000DF91CF911F910F91FF90EF90DF90CF902C
:1008D0000C942704CF92DF92EF92FF920F931F9315
:1008E000CF93DF93EC01F62E642F8C810E940202DD
:1008F0008D818F3F19F060E00E9402020F2D10E001
:100900008F8584FF25C06E0187E0C80ED11CF12CB5
:10091000E12CB8010E2C02C0759567950A94E2F798
:100920006170F60181916F010E940202FFEFEF1AE0
:10093000FF0A88E0E816F10461F7CE01DF91CF915C
:100940001F910F91FF90EF90DF90CF900C942704B0
:10095000B80184E0759567958A95E1F7CE010E940C
:100960003D046F2DCE01DF91CF911F910F91FF902C
:10097000EF90DF90CF900C943D0440E0682F8EE91B
:1009800095E00C946A0481E00E94BD048BE39FE132
:100990000197F1F70895CF93DF93823029F4909176
:1009A000AD0598609093AD058093B1051092B205A6
:1009B00080E48093B30580E18093B40580E5809363
:1009C000B50561E08091A2050E944F028091A305C8
:1009D0008F3F19F061E00E944F0261E08091A40511
:1009E0000E944F02CEE9D5E09E012E5935408091FC
:1009F000AD0584FD0BC084E090E0219628173907EF
:100A000044F461E08E810E944F02EECF88E090E0D6
:100A1000F4CF8BE39DE00197F1F760E08091A205B0
:100A20000E94020260E08091A4050E94020280916F
:100A3000A3058F3F19F060E00E9402028091AD058E
:100A400084FD34C063E08EE995E00E943D04CBE470
:100A5000D6E4CE010197F1F763E08EE995E00E94BC
:100A60003D042197F1F763E08EE995E00E943D0493
:100A700083E592E00197F1F762E08EE995E00E944C
:100A80003D048091AD0580620E94BD0484E08093A6
:100A9000AE058CE00E94BD040E94C30482E08093F6
:100AA000AF0586E0DF91CF910C94BD0480620E9477
:100AB000BD048BE496E40197F1F78091AD05806267
:100AC0000E94BD0483E592E00197F1F78091AD05A6
:100AD00080620E94BD04D5CF9091B105691710F0D6
:100AE0006FEF690FE62FF0E0E256FA4F9489890F15
:100AF00080680C94BD040F931F93CF93DF938C01F8
:100B0000EB010E94C30460E080E00E946C05F801E4
:100B100044815581608171818EE995E00E94EF02E8
:100B200061E080E00E946C054C815D816881798183
:100B30008EE995E0DF91CF911F910F910C94EF0218
:100B400041E00E946A0481E090E00895FC01808108
:100B50009181009711F00C94B4140895FB01019059
:100B60000020E9F73197AF01461B570BDC01ED91EF
:100B7000FC910280F381E02D19948F929F92AF92A5
:100B8000BF92EF92FF920F931F93CF93DF93CDB756
:100B9000DEB7A1970FB6F894DEBF0FBECDBF7C01C4
:100BA000FA01CB0119A2223008F42AE08E010F5D70
:100BB0001F4F822E912CB12CA12CBF01A5019401B5
:100BC0000E945E12F901CA016A300CF5605DD8011D
:100BD0006E938D01232B242B252B79F790E080E059
:100BE000109721F0BD01C7010E94AE05A1960FB676
:100BF000F894DEBF0FBECDBFDF91CF911F910F9153
:100C0000FF90EF90BF90AF909F908F900895695C98
:100C1000DECFCF93DF93BC018FEC94E00E94AE0552
:100C2000EC016DE073E08FEC94E00E94AE058C0F58
:100C30009D1FDF91CF9108952F923F924F925F9227
:100C40006F927F928F929F92AF92BF92CF92DF92DC
:100C5000EF92FF921F93CF93DF93EC016A017B0128
:100C6000722EAB019601CB01B6010E94EF1360E139
:100C700073E0811126C046015701E894B7F82FEFC1
:100C80003FEF4FE75FE7C501B4010E94EF13811109
:100C90000CC02FEF3FEF4FE75FE7C501B4010E94A3
:100CA000FA1064E173E0181664F02FEF3FEF4FE79E
:100CB0005FE4C701B6010E94A4131816B4F468E1FA
:100CC00073E0CE01DF91CF911F91FF90EF90DF9005
:100CD000CF90BF90AF909F908F907F906F905F90DC
:100CE0004F903F902F900C94AE052FEF3FEF4FE7C2
:100CF0005FECC701B6010E94FA1087FDE0CF20E04B
:100D000030E0A901C701B6010E94FA10312C212C54
:100D100087FF0DC0E881F9810190F081E02D6DE23F
:100D2000CE0119951C01F7FAF094F7F8F09410E051
:100D300060E070E080E09FE3711641F020E030E079
:100D400040E251E40E94FC121F5FF6CFA70196011A
:100D50000E9490122B013C010E9475134B015C0113
:100D60002AE0BC01A401CE010E94BD057C01E20C79
:100D7000F31C1123E1F1C501B4010E94FF109B0196
:100D8000AC01C301B2010E948F124B015C01E881EA
:100D9000F9810190F081E02D6EE2CE011995E80E07
:100DA000F91E115020F120E030E040E251E4C5018D
:100DB000B4010E9460112B013C010E9475134B018C
:100DC000B12CA12C2AE0B501A401CE010E94BD05E1
:100DD000E80EF91EC501B4010E94FF109B01AC0191
:100DE000C301B2010E948F124B015C01DACFC7012F
:100DF000DF91CF911F91FF90EF90DF90CF90BF9048
:100E0000AF909F908F907F906F905F904F903F90AA
:100E10002F900895CF93DF93AB01BC0122E08FECBC
:100E200094E00E941C06EC016DE073E08FEC94E00E
:100E30000E94AE058C0F9D1FDF91CF9108950C94F9
:100E4000AE05EF92FF920F931F93CF93DF93EC01C8
:100E50007B01198218821B821A821D821C82FB016F
:100E600001900020E9F731978F01061B170BB8019D
:100E70006F5F7F4F90E080E00E943D150097B9F0D2
:100E8000998388831B830A832C813D81232B11F452
:100E9000FC0110821D830C83B70188819981DF9149
:100EA000CF911F910F91FF90EF900C94271688819E
:100EB0009981009711F00E94B414198218821D8242
:100EC0001C821B821A82DF91CF911F910F91FF909C
:100ED000EF9008951F93CF93DF93CDB7DEB72C9794
:100EE0000FB6F894DEBF0FBECDBF6CE173E0CE014C
:100EF00007960E94210765E373E0CE0101960E94E8
:100F00002107BE01695F7F4FCE0101960E947B05DC
:100F1000CE0101960E94A605CE0107960E94A60565
:100F200068E873E180E090E00E94BC0212E060E0BB
:100F3000812F0E9402021F5F1730C9F760E088E02E
:100F40000E94020260E089E00E94020260E08AE002
:100F50000E94020281E0809338021092C504109230
:100F6000C4042C960FB6F894DEBF0FBECDBFDF9140
:100F7000CF911F910895CF92DF92EF92FF920F933E
:100F80001F93CF93DF93EB017B0124E0E20EF11C72
:100F90008B016C01C61AD70AC601800F911F0E94EF
:100FA0001E12F80181938F01EE15FF05A9F7CE01FE
:100FB000DF91CF911F910F91FF90EF90DF90CF9035
:100FC00008959F92AF92BF92CF92DF92EF92FF92DD
:100FD0000F931F93CF93DF935C017B018B01D0E0D4
:100FE000C0E0F80191908F016501CC0EDD1EC601B5
:100FF0000E941E12981621F0692DC6010E94261229
:101000002196C430D10569F7C701DF91CF911F91B7
:101010000F91FF90EF90DF90CF90BF90AF909F9097
:101020000895CF93DF93EC01BC0188E090E00E942B
:10103000E10765E473E08FEC94E00E941F0768818C
:1010400079818A819B81DF91CF910C940A07CF929D
:10105000DF92EF92FF920F931F93CF93DF936B0179
:101060007C018A01E9018FE593E00E94090620E0F6
:1010700030E0A901C701B6010E94A4131816C4F4F8
:1010800020E030E048E452E4C701B6010E94FA10C3
:10109000181674F0C8010E943002CE01DF91CF9182
:1010A0001F910F91FF90EF90DF90CF900C9411085B
:1010B00020E030E048E452E4C701B6010E94A413E6
:1010C0001816ACF420E030E048EC52E4C701B60159
:1010D0000E94FA1018165CF061E083E00E940202A0
:1010E000C80140960E943002CE010496D7CF20E07E
:1010F00030E048EC52E4C701B6010E94A413181670
:10110000ACF420E030E046E153E4C701B6010E94B0
:10111000FA1018165CF061E084E00E940202C80137
:1011200080960E943002CE010896B8CF20E030E0D1
:1011300046E153E4C701B6010E94A41318168CF4CB
:1011400020E030E04EE353E4C701B6010E94FA10FC
:1011500018163CF0C801C0960E943002CE010C96D1
:101160009DCF20E030E04EE353E4C701B6010E947A
:10117000A413181644F4C801805C9F4F0E943002EB
:10118000CE0140968BCFDF91CF911F910F91FF90B1
:10119000EF90DF90CF900895CF92DF92EF92FF9281
:1011A000CF93DF93CDB7DEB760970FB6F894DEBF6D
:1011B0000FBECDBF86E30E948002BC01990F880B51
:1011C000990B0E9401112AE038E240EA5BE30E9499
:1011D000601120E031EA42E458E40E94601120E00E
:1011E00030E040EA50E40E94FC1220E030E04FE2A0
:1011F00054E40E94901220E030E04AE754E40E9458
:1012000060116B017C0120E030E0A9010E94A41371
:1012100020E030E040E05FE387FD77C0C701B60122
:101220000E9490120E946E130E94011120E030E093
:101230004AE754E40E94FC1220E030E04AE754E41C
:101240000E94FC126D877E878F87988BBE01635F3B
:101250007F4F84E090E00E94E1076FE073E0CE01F1
:1012600007960E94210760E773E0CE0101960E9475
:101270002107BE01695F7F4FCE0101960E947B0569
:10128000CE0101960E94A605CE0107960E94A605F2
:1012900061E080E00E946C054D855E856F857889F0
:1012A00023E08EE995E00E941C0661E086E00E9442
:1012B0006C056DE773E08EE995E00E941F0760E71B
:1012C00073E08FEC94E00E941F074D855E856F856B
:1012D000788923E08FEC94E00E941C068CE793E071
:1012E0000E94090668EE73E080E090E00E94BC0274
:1012F00060960FB6F894DEBF0FBECDBFDF91CF91E1
:10130000FF90EF90DF90CF900895C701B6010E9443
:101310008F1288CF1F920F920FB60F9211242F9326
:101320003F938F939F93AF93BF938091C704909106
:10133000C804A091C904B091CA043091C60423E046
:10134000230F2D3758F50196A11DB11D2093C6041A
:101350008093C7049093C804A093C904B093CA04AF
:101360008091CB049091CC04A091CD04B091CE0497
:101370000196A11DB11D8093CB049093CC04A09342
:10138000CD04B093CE04BF91AF919F918F913F91C7
:101390002F910F900FBE0F901F90189526E8230FE6
:1013A0000296A11DB11DD2CF1F920F920FB60F92C0
:1013B00011240BB60F922F933F934F935F936F932C
:1013C0007F938F939F93AF93BF93EF93FF93E0919E
:1013D0000E02F0910F021995FF91EF91BF91AF911D
:1013E0009F918F917F916F915F914F913F912F913D
:1013F0000F900BBE0F900FBE0F901F9018951F926D
:101400000F920FB60F9211240BB60F922F933F93AA
:101410004F935F936F937F938F939F93AF93BF93FC
:10142000EF93FF93E0910C02F0910D021995FF915B
:10143000EF91BF91AF919F918F917F916F915F914C
:101440004F913F912F910F900BBE0F900FBE0F90B9
:101450001F9018951F920F920FB60F9211240BB682
:101460000F922F933F934F935F936F937F938F933D
:101470009F93AF93BF93EF93FF93E0910202F0919C
:1014800003021995FF91EF91BF91AF919F918F91B9
:101490007F916F915F914F913F912F910F900BBE74
:1014A0000F900FBE0F901F9018951F920F920FB6BE
:1014B0000F9211240BB60F922F933F934F935F938C
:1014C0006F937F938F939F93AF93BF93EF93FF930C
:1014D000E0910002F09101021995FF91EF91BF9107
:1014E000AF919F918F917F916F915F914F913F91BC
:1014F0002F910F900BBE0F900FBE0F901F9018955D
:101500001F920F920FB60F9211240BB60F922F93CA
:101510003F934F935F936F937F938F939F93AF937B
:10152000BF93EF93FF93E0910A02F0910B0219959C
:10153000FF91EF91BF91AF919F918F917F916F91AB
:101540005F914F913F912F910F900BBE0F900FBE67
:101550000F901F9018951F920F920FB60F921124A3
:101560000BB60F922F933F934F935F936F937F939D
:101570008F939F93AF93BF93EF93FF93E0910802F4
:10158000F09109021995FF91EF91BF91AF919F9151
:101590008F917F916F915F914F913F912F910F901C
:1015A0000BBE0F900FBE0F901F9018951F920F92B9
:1015B0000FB60F9211240BB60F922F933F934F93B8
:1015C0005F936F937F938F939F93AF93BF93EF93AB
:1015D000FF93E0910602F09107021995FF91EF91B8
:1015E000BF91AF919F918F917F916F915F914F913B
:1015F0003F912F910F900BBE0F900FBE0F901F9039
:1016000018951F920F920FB60F9211240BB60F92DE
:101610002F933F934F935F936F937F938F939F93FA
:10162000AF93BF93EF93FF93E0910402F091050213
:101630001995FF91EF91BF91AF919F918F917F91FC
:101640006F915F914F913F912F910F900BBE0F9033
:101650000FBE0F901F9018951F920F920FB60F920A
:1016600011240BB60F922F933F934F935F936F9379
:101670007F938F939F93AF93BF93EF93FF938FECE1
:1016800094E00E946303FF91EF91BF91AF919F910E
:101690008F917F916F915F914F913F912F910F901B
:1016A0000BBE0F900FBE0F901F9018951F920F92B8
:1016B0000FB60F9211240BB60F922F938F939F9317
:1016C000EF93FF93E091DF04F091E0048081E091DB
:1016D000E504F091E60482FD1DC090818091E8044C
:1016E0008F5F8F732091E904821741F0E091E80445
:1016F000F0E0E153FB4F958F8093E804FF91EF9169
:101700009F918F912F910F900BBE0F900FBE0F9056
:101710001F9018958081F2CFEFECF4E013821282D3
:1017200088EE93E0A0E0B0E084839583A683B7833E
:1017300083EF92E09183808385EC90E095878487A6
:1017400084EC90E09787868780EC90E0918B808B8B
:1017500081EC90E0938B828B82EC90E0958B848B74
:1017600086EC90E0978B868B118E128E138E148EE2
:10177000EEE9F5E01382128285E093E091838083A5
:1017800081E184838FEF85838AE2868382E2878387
:1017900084E2808786E2818788E2828713861486C6
:1017A00015861686178681E00E94CB0483E393E3B7
:1017B000A3E3BFE380937A0590937B05A0937C0518
:1017C000B0937D050895CF93DF93CDB7DEB76897CB
:1017D0000FB6F894DEBF0FBECDBF789484B582609B
:1017E00084BD84B5816084BD85B5826085BD85B5C5
:1017F000816085BD80916E00816080936E00109243
:1018000081008091810082608093810080918100BD
:10181000816080938100809180008160809380004E
:101820008091B10084608093B1008091B0008160AC
:101830008093B000809191008260809391008091AC
:1018400091008160809391008091900081608093ED
:1018500090008091A10082608093A1008091A100FE
:1018600081608093A1008091A00081608093A0009E
:10187000809121018260809321018091210181600A
:1018800080932101809120018160809320018091CB
:101890007A00846080937A0080917A0082608093DD
:1018A0007A0080917A00816080937A0080917A003A
:1018B000806880937A001092C100E091DF04F0917B
:1018C000E00482E08083E091DB04F091DC0410828C
:1018D000E091DD04F091DE048FEC80831092E70448
:1018E000E091E304F091E40486E08083E091E10478
:1018F000F091E204808180618083E091E104F091C5
:10190000E204808188608083E091E104F091E20448
:10191000808180688083E091E104F091E20480811D
:101920008F7D808382E00E94CB0460E08AE10E9488
:101930004F0260E088E10E944F0260E086E10E9471
:101940004F0260E088E30E944F0260E08AE10E945B
:10195000020260E088E10E94020260E086E10E94EB
:10196000020212E061E0812F0E944F021F5F1730D8
:10197000C9F761E088E00E944F0261E089E00E94BF
:101980004F0261E08AE00E944F028AE697E090935E
:101990000B0280930A0280916900806C8093690039
:1019A000EB9A11E085E0882E912CA12CB12C80912E
:1019B000C4049091C5048130910509F486C050F0AB
:1019C0008230910509F4A9C2039709F432C30E9439
:1019D000F203EDCF809138028823E9F060E873E0EC
:1019E000CE0101960E9421076DE873E0CE010796B3
:1019F0000E942107BE016F5F7F4FCE0107960E94B4
:101A00007B05CE0107960E94A605CE0101960E9495
:101A1000A605109238028AE10E94D9017C01019743
:101A200031F56FE073E0CE0101960E9421076FE966
:101A300073E0CE0107960E942107BE016F5F7F4FC2
:101A4000CE0107960E947B05CE0107960E94A6054F
:101A5000CE0101960E94A60560ED77E080E090E05F
:101A60000E94BC02F092C504E092C404B0CF88E1A9
:101A70000E94D901019709F0AACF6FE073E0CE016F
:101A800001960E94210764EB73E0CE0107960E9445
:101A90002107BE016F5F7F4FCE0107960E947B0535
:101AA000CE0107960E94A605CE0101960E94A605CA
:101AB00060ED77E080E090E00E94BC0282E090E080
:101AC0009093C5048093C40482CF88EC93E00E9475
:101AD00009066DED73E0CE0101960E94210763EFC8
:101AE00073E0CE0107960E942107BE016F5F7F4F12
:101AF000CE0107960E947B05CE0107960E94A6059F
:101B0000CE0101960E94A60510927705A2E3B0E0EF
:101B1000B0937905A09378051093760580E092E064
:101B2000909373058093720580E090E0A0E9BAE39A
:101B30008093860590938705A0938805B0938905C7
:101B4000109296051092970510929805109299059B
:101B500010928105109280051093740510927505FE
:101B60001092BF041092BE040E94970268517C4FED
:101B70008F4F9F4F6093C0047093C1048093C20441
:101B80009093C30488E30E9480022091740522236D
:101B900009F4EBC0F0907605FF2009F4B4C1209160
:101BA000720530917305BC01621B730B70936D0558
:101BB00060936C05072E000C880B990B0E94011195
:101BC0009B01AC0160919205709193058091940501
:101BD000909195050E9490126093920570939305E1
:101BE000809394059093950560916C0570916D05B7
:101BF000072E000C880B990B0E9401119B01AC0170
:101C00000E946011209196053091970540919805AA
:101C1000509199050E9490126093960570939705D4
:101C200080939805909399052090800530908105C8
:101C300020917805309179052216330609F08CC081
:101C400060939A0570939B0580939C0590939D05E6
:101C5000FF2009F475C0C0907A05D0907B05E09014
:101C60007C05F0907D05A701960160E070E080E8BA
:101C70009FE30E948F1220918E0530918F05409135
:101C80009005509191050E9460112B013C0120911B
:101C90009205309193054091940550919505C701A7
:101CA000B6010E9460119B01AC01C301B2010E9408
:101CB00090126B017C01C0928E05D0928F05E0924C
:101CC0009005F0929105B101330C880B990B0E949D
:101CD00001119B01AC01C701B6010E94FC126B010E
:101CE0007C0120E030E0A9010E94A41320E030E054
:101CF00040E05FE387FD0CC1C701B6010E9490126E
:101D00000E946E1370937F0560937E05809172052B
:101D100090917305680F791F709373056093720536
:101D200010929205109293051092940510929505C9
:101D300080917705882321F0109274051093750522
:101D40001092960510929705109298051092990599
:101D500010928105109280058091800590918105F7
:101D6000019690938105809380050E949702C09010
:101D7000C004D090C104E090C204F090C3046C157C
:101D80007D058E059F0588F3D701C60188519C4FBC
:101D9000AF4FBF4F8093C0049093C104A093C2047F
:101DA000B093C3048091BE049091BF0401969093B8
:101DB000BF048093BE04883E93400CF4E3CE209190
:101DC000860530918705409188055091890560917D
:101DD0009A0570919B0580919C0590919D050E94AC
:101DE000601160938A0570938B0580938C059093A6
:101DF0008D050E94AF13AB01BC0140936E0550935B
:101E00006F0560937005709371051092750522E05F
:101E10008FEC94E00E941C0664E074E08FEC94E088
:101E20000E941F07C0907205D09073050D2C000C06
:101E3000EE08FF082AE0B701A601F7FE0DC06DE22B
:101E40008FEC94E00E94850344275527BA014C1972
:101E50005D096E097F092AE08FEC94E00E94BD05C0
:101E60006DE073E08FEC94E00E94AE0580916E050A
:101E700090916F05A0917005B091710589839A8347
:101E8000AB83BC83BE016F5F7F4F90E080E00E9418
:101E9000E1070E94C30467E074E08EE995E00E94C8
:101EA0001F0761E080E00E946C0549815A816B81C7
:101EB0007C8122E08EE995E00E941C0668EE73E0CA
:101EC00080E090E00E94BC0269817A818B819C81D4
:101ED00020E132E04FE352E00E9427080E94CC0844
:101EE00064EF71E080E090E00E94BC0283E090E04B
:101EF0009093C5048093C404109338028FE094E05B
:101F00000E94090664CD90936D0580936C056CCE9C
:101F1000C701B6010E948F12F3CE85E294E00E94C1
:101F200009066DED73E0CE0101960E9421076AE378
:101F300074E0CE0107960E942107BE016F5F7F4FBC
:101F4000CE0107960E947B05CE0107960E94A6054A
:101F5000CE0101960E94A60588E30E94800225E03A
:101F600030E0DC010E9411142FEF33E040E050E03C
:101F70000E943412CA01B9010E9401110E946E131D
:101F80009B01AC01A1EEB0E00E945312A5019401A7
:101F90000E943412CA01B901675E7F4F8F4F9F4F75
:101FA0000E9401116B017C016BE474E08FEC94E002
:101FB0000E941F07C701B6010E940A07C982DA8280
:101FC000EB82FC82BE016F5F7F4F90E080E00E9459
:101FD000E1070E94C30467E074E08EE995E00E9487
:101FE0001F0761E080E00E946C0549815A816B8186
:101FF0007C8122E08EE995E00E941C0669817A814D
:102000008B819C8124E232E04FE852E00E94270855
:102010000E94CC0864EF71E080E090E00E94BC0276
:10202000A3E0B0E0B093C504A093C40410933802B9
:10203000CECC809138028823E9F060E574E0CE01CF
:1020400001960E9421076EE574E0CE0107960E947A
:102050002107BE016F5F7F4FCE0107960E947B056F
:10206000CE0107960E94A605CE0101960E94A60504
:102070001092380286E10E94D901019709F0A9C0A7
:10208000BE016B5E7F4F90E080E00E94BB07BE0107
:102090006F5E7F4F84E090E00E94BB07BE01635FEC
:1020A0007F4F88E090E00E94BB076EE674E08FEC03
:1020B00094E00E941F076D897E898F89988D0E9408
:1020C0000A0768E774E08FEC94E00E941F076989B3
:1020D0007A898B899C890E940A0762E874E08FECF8
:1020E00094E00E941F076D857E858F8598890E94E8
:1020F0000A070E94C30460E080E00E946C056FE85C
:1021000074E08EE995E00E941F0749895A896B891E
:102110007C8923E08EE995E00E941C0660E088E05F
:102120000E946C056DE773E08EE995E00E941F0741
:1021300061E080E00E946C0562E974E08EE995E060
:102140000E941F074D895E896F89788D20E08EE996
:1021500095E00E941C0661E089E00E946C0568E938
:1021600074E08EE995E00E941F074D855E856F85BE
:10217000788922E08EE995E00E941C0661E08FE0FC
:102180000E946C056BE974E08EE995E00E941F07E0
:1021900060E777E180E090E00E94BC026DE974E0C6
:1021A000CE0101960E9421076EEA74E0CE010796E7
:1021B0000E942107BE016F5F7F4FCE0107960E94EC
:1021C0007B05CE0107960E94A605CE0101960E94CE
:1021D000A6058AE10E94D901019729F41092C5044D
:1021E0001092C40423CF88E10E94D901019709F01D
:1021F000EECBF4CF0E943C1108F481E00895E894FE
:1022000009C097FB3EF490958095709561957F4F3E
:102210008F4F9F4F9923A9F0F92F96E9BB279395EC
:10222000F695879577956795B795F111F8CFFAF4FC
:10223000BB0F11F460FF1BC06F5F7F4F8F4F9F4F2D
:1022400016C0882311F096E911C0772321F09EE88B
:10225000872F762F05C0662371F096E8862F70E0F1
:1022600060E02AF09A95660F771F881FDAF7880FCB
:102270009695879597F90895990F0008550FAA0B21
:10228000E0E8FEEF16161706E807F907C0F0121689
:102290001306E407F50798F0621B730B840B950B8C
:1022A00039F40A2661F0232B242B252B21F40895E1
:1022B0000A2609F4A140A6958FEF811D811D08957E
:1022C0000E9473110C94E4110E94D61138F00E9400
:1022D000DD1120F0952311F00C94CD110C94D31145
:1022E00011240C9418120E94F51170F3959FC1F3FC
:1022F000950F50E0551F629FF001729FBB27F00DB4
:10230000B11D639FAA27F00DB11DAA1F649F662708
:10231000B00DA11D661F829F2227B00DA11D621F57
:10232000739FB00DA11D621F839FA00D611D221F11
:10233000749F3327A00D611D231F849F600D211DF5
:10234000822F762F6A2F11249F5750409AF0F1F078
:1023500088234AF0EE0FFF1FBB1F661F771F881FE1
:1023600091505040A9F79E3F510580F00C94CD113B
:102370000C9418125F3FE4F3983ED4F3869577955A
:102380006795B795F795E7959F5FC1F7FE2B880F87
:10239000911D9695879597F9089597F99F6780E81D
:1023A00070E060E008959FEF80EC089500240A94A7
:1023B0001616170618060906089500240A94121620
:1023C0001306140605060895092E0394000C11F453
:1023D000882352F0BB0F40F4BF2B11F460FF04C000
:1023E0006F5F7F4F8F4F9F4F089557FD9058440F59
:1023F000551F59F05F3F71F04795880F97FB991F64
:1024000061F09F3F79F08795089512161306140620
:10241000551FF2CF4695F1DF08C0161617061806AD
:10242000991FF1CF86957105610508940895E89488
:10243000BB2766277727CB0197F90895F999FECF37
:1024400092BD81BDF89A992780B50895262FF999F4
:10245000FECF1FBA92BD81BD20BD0FB6F894FA9A87
:10246000F99A0FBE01960895052E97FB1EF400946D
:102470000E944B1257FD07D00E945E1207FC03D04A
:102480004EF40C944B1250954095309521953F4F4A
:102490004F4F5F4F089590958095709561957F4F50
:1024A0008F4F9F4F08950E948012A59F900DB49F5B
:1024B000900DA49F800D911D11240895A1E21A2E64
:1024C000AA1BBB1BFD010DC0AA1FBB1FEE1FFF1FD8
:1024D000A217B307E407F50720F0A21BB30BE40B28
:1024E000F50B661F771F881F991F1A9469F760956F
:1024F0007095809590959B01AC01BD01CF01089529
:10250000A29FB001B39FC001A39F700D811D112434
:10251000911DB29F700D811D1124911D0895505879
:10252000BB27AA270E94A7120C94E4110E94D6117F
:1025300038F00E94DD1120F039F49F3F19F426F4A1
:102540000C94D3110EF4E095E7FB0C94CD11E92F18
:102550000E94F51158F3BA176207730784079507AD
:1025600020F079F4A6F50C9417120EF4E0950B2EDA
:10257000BA2FA02D0B01B90190010C01CA01A001D5
:102580001124FF27591B99F0593F50F4503E68F130
:102590001A16F040A22F232F342F4427585FF3CF71
:1025A000469537952795A795F0405395C9F77EF442
:1025B0001F16BA0B620B730B840BBAF09150A1F08B
:1025C000FF0FBB1F661F771F881FC2F70EC0BA0F11
:1025D000621F731F841F48F4879577956795B79599
:1025E000F7959E3F08F0B0CF9395880F08F0992794
:1025F000EE0F9795879508950E9410130C94E4119F
:102600000E94DD1158F00E94D61140F029F45F3F7E
:1026100029F00C94CD1151110C9418120C94D31173
:102620000E94F51168F39923B1F3552391F3951B9B
:10263000550BBB27AA2762177307840738F09F5FE3
:102640005F4F220F331F441FAA1FA9F335D00E2E50
:102650003AF0E0E832D091505040E695001CCAF7BD
:102660002BD0FE2F29D0660F771F881FBB1F261780
:1026700037074807AB07B0E809F0BB0B802DBF0157
:10268000FF2793585F4F3AF09E3F510578F00C9426
:10269000CD110C9418125F3FE4F3983ED4F3869565
:1026A00077956795B795F7959F5FC9F7880F911D47
:1026B0009695879597F90895E1E0660F771F881F33
:1026C000BB1F621773078407BA0720F0621B730BE6
:1026D000840BBA0BEE1F88F7E09508950E947513DE
:1026E0006894B1110C94181208950E94FD1188F09D
:1026F0009F5798F0B92F9927B751B0F0E1F0660FC6
:10270000771F881F991F1AF0BA95C9F714C0B13006
:1027100091F00E941712B1E008950C941712672FE0
:10272000782F8827B85F39F0B93FCCF38695779535
:102730006795B395D9F73EF490958095709561951E
:102740007F4F8F4F9F4F08950E943C1108F48FEFE9
:10275000089519F416F40C94D3110C94F4130E94F8
:10276000FD11B8F39923C9F3B6F39F57550B87FFB3
:102770000E9402140024A0E640EA90018058569579
:10278000979528F4805C660F771F881F20F0261726
:102790003707480730F4621B730B840B202931295B
:1027A0004A2BA69517940794202531254A2758F7D8
:1027B000660F771F881F20F026173707480730F469
:1027C000620B730B840B200D311D411DA09581F709
:1027D000B901842F9158880F9695879508950E9486
:1027E0003C11880B990B08959F3F31F0915020F4D4
:1027F000879577956795B795880F911D96958795DD
:1028000097F9089591505040660F771F881FD2F7AF
:102810000895EE0FFF1F881F8BBF0790F691E02DE4
:1028200019940E948012B7FF0895821B930B08959C
:102830000F931F93CF93DF938230910510F482E0C2
:1028400090E0E091B805F091B90530E020E0B0E00B
:10285000A0E0309799F42115310509F44AC0281BEE
:10286000390B24303105D8F58A819B8161157105BA
:1028700089F1FB0193838283FE0111C04081518164
:102880000281138148175907E0F04817590799F456
:10289000109761F012960C93129713961C93329630
:1028A000CF01DF91CF911F910F9108950093B8054B
:1028B0001093B905F4CF2115310551F04217530794
:1028C00038F0A901DB019A01BD01DF01F801C1CF98
:1028D000EF01F9CF9093B9058093B805CDCFFE01F4
:1028E000E20FF31F8193919322503109398328839A
:1028F000D7CF2091B6053091B705232B41F4209115
:102900003B0230913C023093B7052093B6052091ED
:10291000390230913A022115310541F42DB73EB705
:1029200040913D0250913E02241B350BE091B605CB
:10293000F091B705E217F307A0F42E1B3F0B281701
:10294000390778F0AC014E5F5F4F2417350748F028
:102950004E0F5F1F5093B7054093B6058193919337
:102960009FCFF0E0E0E09CCFCF93DF930097E9F0BA
:10297000FC01329713821282A091B805B091B9057B
:10298000ED0130E020E01097A1F420813181820F29
:10299000931F2091B6053091B7052817390709F024
:1029A00061C0F093B705E093B605DF91CF9108952C
:1029B000EA01CE17DF07E8F54A815B819E014115E8
:1029C0005105B1F7E901FB83EA8349915991C40F9D
:1029D000D51FEC17FD0761F4808191810296840F69
:1029E000951FE90199838883828193819B838A83E0
:1029F000F0E0E0E012968D919C9113970097B9F565
:102A00002D913C911197CD010296820F931F209139
:102A1000B6053091B7052817390739F6309751F5C3
:102A20001092B9051092B805B093B705A093B605FA
:102A3000BCCFD383C28340815181840F951FC817B7
:102A4000D90761F44E5F5F4F88819981480F591F04
:102A5000518340838A819B81938382832115310531
:102A600009F0B0CFF093B905E093B8059ECFFD0112
:102A7000DC01C0CF13821282D7CF4F925F926F9248
:102A80007F928F929F92AF92BF92CF92DF92EF92FE
:102A9000FF920F931F93CF93DF938C01009799F4CC
:102AA000CB01DF91CF911F910F91FF90EF90DF90BD
:102AB000CF90BF90AF909F908F907F906F905F90DE
:102AC0004F900C941814FC01E60FF71F9C01225044
:102AD0003109E217F30708F4AEC0D901CD91DC91BA
:102AE0001197C617D70720F1C530D10578F0CE0170
:102AF00004978617970750F0C61BD70B2297C193F0
:102B0000D1936D937C93CF010E94B414C801DF91DF
:102B1000CF911F910F91FF90EF90DF90CF90BF90DA
:102B2000AF909F908F907F906F905F904F9008959F
:102B30005B01AC1ABD0A4C018C0E9D1EA091B8051C
:102B4000B091B905512C412CF12CE12C109731F5A5
:102B50008091B6059091B7058815990509F05CC07C
:102B60004616570608F058C08091390290913A02F3
:102B7000009741F48DB79EB740913D0250913E02BF
:102B8000841B950BE817F90708F055C0F093B705BB
:102B9000E093B605F90171836083B8CF8D919C9164
:102BA000119712966C90129713967C901397A81514
:102BB000B90559F56C0142E0C40ED11CCA14DB04FE
:102BC00020F1AC014A195B09DA011296159780F0E1
:102BD0006282738251834083D9016D937C93E114A7
:102BE000F10471F0D7011396FC93EE9312978ECFF8
:102BF00022968C0F9D1FF90191838083F301EFCF03
:102C0000F093B905E093B80581CF4816590608F44A
:102C10002C017D01D3019ACFCB010E9418147C01B5
:102C2000009749F0AE01B8010E941E16C8010E942B
:102C3000B41487016BCF10E000E068CFFB01DC012A
:102C400002C001900D9241505040D8F70895FB0109
:102C5000DC0101900D920020E1F70895F894FFCF78
:102C6000EE02EE02EE02EE02EE02EE02EE02EE02E4
:102C700000006040000020400000E03F295CAF3FC2
:102C8000295C8F3F000048430000A04200008C41B7
:102C90006666B64000004040010000BA05800001B1
:102CA000000100010001000000000001000100001F
:102CB0000000000000010000000000000001000012
:102CC0000000000100010000000100000000000001
:102CD00000000001000100010000000000000001F0
:102CE00000010001000100010000000000000000E0
:102CF00000010000000000000000000000010000D2
:102D000000010000000000010000000000000001C0
:102D100000010000000000000000000100000000B1
:102D200000000001000000000000000100000001A0
:102D3000000100010000000000010001000000028D
:102D4000000300040005000600080009000A000056
:102D50000000008503EF021C03D2034D032B033F49
:102D60000300000000A005EF02240423040D0A0064
:102D70006E616E00696E66006F76660043616C631B
:102D8000756C616E646F206E7565766F2076616C10
:102D90006F7220490059414B4F42204445544543EE
:102DA0005441444F00526573697374656E63696181
:102DB000206571762067756172646164612E0050D0
:102DC00052454E4449454E444F2052454C455300D0
:102DD000436F727269656E74653A20002075410018
:102DE000312E2041312C20322E204132004172659B
:102DF000617320646520636F6E746163746F004358
:102E00006F6E6669672E20413D2038323030206D6C
:102E10006D5E3200436F6E6669672E20413D203142
:102E20003030206D6D5E3200456E7472616E646F7D
:102E300020612065737461646F20413100526561C7
:102E40006C697A616E646F206D65646963696F6E29
:102E5000657300457374617320656E206D6F646FD8
:102E6000204131002C2000766F6C74616A6500533C
:102E7000616C69656E646F2064652065737461645C
:102E80006F20413100456E7472616E646F20612065
:102E900065737461646F20413200457374617320FF
:102EA000656E206D6F646F2041320056763A2000C7
:102EB00050726573696F6E65207369672E00526585
:102EC000766973616E646F206461746F7300566F0E
:102ED0006C746167653A200043757272656E743A6E
:102EE0002000526573697374616E63653A20004116
:102EF0003A0056726D733A005A3A004B00697220DC
:102F000061206D656E753A2041312D413200526568
:0E2F1000706574697220502E205369670000AE
:020000040003F7
:10E000000D9489F10D94B2F10D94B2F10D94B2F129
:10E010000D94B2F10D94B2F10D94B2F10D94B2F1F0
:10E020000D94B2F10D94B2F10D94B2F10D94B2F1E0
:10E030000D94B2F10D94B2F10D94B2F10D94B2F1D0
:10E040000D94B2F10D94B2F10D94B2F10D94B2F1C0
:10E050000D94B2F10D94B2F10D94B2F10D94B2F1B0
:10E060000D94B2F10D94B2F10D94B2F10D94B2F1A0
:10E070000D94B2F10D94B2F10D94B2F10D94B2F190
:10E080000D94B2F10D94B2F10D94B2F10D94B2F180
:10E090000D94B2F10D94B2F10D94B2F10D94B2F170
:10E0A0000D94B2F10D94B2F10D94B2F10D94B2F160
:10E0B0000D94B2F10D94B2F10D94B2F10D94B2F150
:10E0C0000D94B2F10D94B2F10D94B2F10D94B2F140
:10E0D0000D94B2F10D94B2F10D94B2F10D94B2F130
:10E0E0000D94B2F141546D656761323536300041AF
:10E0F000726475696E6F206578706C6F72657220DE
:10E1000073746B3530305632206279204D4C530099
:10E11000426F6F746C6F616465723E004875683F52
:10E1200000436F6D70696C6564206F6E203D200048
:10E130004350552054797065202020203D20005FF9
:10E140005F4156525F415243485F5F3D2000415658
:10E1500052204C696243205665723D20004743437C
:10E160002056657273696F6E203D20004350552024
:10E1700049442020202020203D20004C6F7720663D
:10E18000757365202020203D20004869676820665F
:10E190007573652020203D200045787420667573D6
:10E1A00065202020203D20004C6F636B2066757336
:10E1B000652020203D20004D617220203720323024
:10E1C000313300312E362E3800342E332E350056A2
:10E1D00023202020414444522020206F7020636F70
:10E1E00064652020202020696E73747275637469E1
:10E1F0006F6E2061646472202020496E74657272B3
:10E20000757074006E6F20766563746F7200726A49
:10E210006D702020006A6D70200057686174207056
:10E220006F72743A00506F7274206E6F7420737541
:10E2300070706F72746564004D7573742062652030
:10E2400061206C6574746572002000577269747483
:10E25000696E672045450052656164696E672045B7
:10E26000450045452065727220636E743D00504F35
:10E27000525400303D5A65726F2061646472003FF1
:10E280003D43505520737461747300403D454550C3
:10E29000524F4D207465737400423D426C696E6B41
:10E2A000204C454400453D44756D70204545505215
:10E2B0004F4D00463D44756D7020464C415348001B
:10E2C000483D48656C70004C3D4C69737420492F83
:10E2D0004F20506F72747300513D51756974005234
:10E2E0003D44756D702052414D00563D73686F7707
:10E2F00020696E7465727275707420566563746FF0
:10E30000727300593D506F727420626C696E6B00BD
:10E310002A0011241FBECFEFD1E2DEBFCDBF01E046
:10E320000CBF12E0A0E0B2E0EEE1FDEF03E00BBFB6
:10E3300002C007900D92A030B107D9F712E0A0E01B
:10E34000B2E001C01D92AE30B107E1F70F9460F367
:10E350000D948DFE01E20EBF0FEF0DBF11241FBE05
:10E360000D9460F30D9400F020E030E040ED57E0B4
:10E3700005C0FA013197F1F72F5F3F4F2817390792
:10E38000C0F308959C01260F311DC901A0E0B0E043
:10E390002F5F3F4FABBFFC018791882361F08093D3
:10E3A000C6008091C00086FFFCCF8091C0008064D1
:10E3B0008093C000EACF08958DE08093C6008091DD
:10E3C000C00086FFFCCF8091C00080648093C000B5
:10E3D0008AE08093C6008091C00086FFFCCF8091C8
:10E3E000C00080648093C00008950F94C2F10F9420
:10E3F000DCF10895FC019081992359F09093C600B7
:10E400008091C00086FFFCCF8091C0008064809323
:10E41000C0003196992379F70895282F982F929567
:10E420009F70892F805D8A3308F0895F8093C600D2
:10E430008091C00086FFFCCF8091C00080648093F3
:10E44000C000822F8F70982F905D9A3308F0995FEB
:10E450009093C6008091C00086FFFCCF8091C000E1
:10E4600080648093C00008959C01FB01853691056E
:10E470001CF46330710594F0C90164E670E00F94F8
:10E480002EFE605D7F4F6093C6008091C00086FFC6
:10E49000FCCF8091C00080648093C0002B30310598
:10E4A00014F43297B4F0C90164E670E00F942EFEC4
:10E4B0006AE070E00F942EFE605D7F4F6093C600AF
:10E4C0008091C00086FFFCCF8091C0008064809363
:10E4D000C000C9016AE070E00F942EFEC0968093E0
:10E4E000C6008091C00086FFFCCF8091C000806490
:10E4F0008093C00008951F93182F8EE692EE60E07F
:10E500000F94C2F11093C6008091C00086FFFCCF2B
:10E510008091C00080648093C0000F94DCF11F9153
:10E5200008952F923F924F925F926F927F928F92B7
:10E530009F92AF92BF92CF92DF92EF92FF920F9392
:10E540001F93DF93CF93CDB7DEB762970FB6F894E2
:10E55000DEBF0FBECDBF382E622ECA01DB015C01CB
:10E560006D01772420E2222E2E010894411C511CBB
:10E570008BC081E0A81680E0B80681E0C80680E084
:10E58000D80628F0C601AA27BB270F940DF2BB2797
:10E59000AD2D9C2D8B2D0F940DF28A2D0F940DF225
:10E5A0002092C6008091C00086FFFCCF8091C00001
:10E5B00080648093C0009DE29093C6008091C0006B
:10E5C00086FFFCCF8091C00080648093C0002092C1
:10E5D000C6008091C00086FFFCCF8091C00080649F
:10E5E0008093C00019828601750188249924A1E0D6
:10E5F0003A1651F03A1620F0B2E03B1661F409C029
:10E600000BBFF701779007C0C7010F9477FE782EF4
:10E6100002C0F7017080872D0F940DF22092C60082
:10E620008091C00086FFFCCF8091C0008064809301
:10E63000C000872D8052F401EF70F0708F3520F408
:10E64000E40DF51D708204C0E40DF51D8EE280839B
:10E650000894E11CF11C011D111D0894811C911CE2
:10E6600090E18916910409F0C2CF80E190E0A0E02A
:10E67000B0E0A80EB91ECA1EDB1E198AC2010F9493
:10E68000FAF10F94DCF16A94662009F072CF629679
:10E690000FB6F894DEBF0FBECDBFCF91DF911F91B3
:10E6A0000F91FF90EF90DF90CF90BF90AF909F9031
:10E6B0008F907F906F905F904F903F902F90089534
:10E6C0002F923F924F925F926F927F928F929F9282
:10E6D000AF92BF92CF92DF92EF92FF920F931F9370
:10E6E000DF93CF93CDB7DEB7CD53D1400FB6F894BB
:10E6F000DEBF0FBECDBF01E20EBF0FEF0DBF94B75F
:10E70000F894A89514BE80916000886180936000A1
:10E7100010926000789493FF05C0E0910002F091A0
:10E7200001021995279A2F9A8091C00082608093E8
:10E73000C00080E18093C40088E18093C1000000A4
:10E74000EE24FF24870144E0A42EB12CCC24DD2448
:10E7500024C0C5010197F1F70894E11CF11C011DCB
:10E76000111D21E2E2162EE4F20620E0020720E06D
:10E77000120718F031E0C32ED12CC801B70127ECE5
:10E780003BE140E050E00F9441FE611571058105C9
:10E79000910519F485B1805885B98091C00087FD35
:10E7A00003C0C114D104A9F2A6014F5F5F4FC25E3E
:10E7B000DE4F59834883CE51D140C25EDE4F8881FF
:10E7C0009981CE51D140019711F00D9410FEC05D9A
:10E7D000DE4F19821882C053D14060E0C15DDE4F28
:10E7E0001882CF52D14088249924C35DDE4F19820C
:10E7F0001882CD52D140C05EDE4F188219821A8233
:10E800001B82C052D140CE5CDE4F188219821A8220
:10E810001B82C253D140EE24FF2487010BBFF701B6
:10E8200007911691C45CDE4F19830883CC53D14005
:10E830000D940BFEC25EDE4F28813981CE51D1404E
:10E840002130310509F52091C600C25EDE4F1982E4
:10E850001882CE51D14022C02F5F3F4F4F4F5F4FA4
:10E86000213082E138078AE7480780E0580780F0C6
:10E87000C45CDE4FE881F981CC53D140EF5FFF4F9C
:10E8800019F0EE27FF27099420E030E040E050E047
:10E890008091C00087FFE0CF2091C600C35DDE4FAE
:10E8A00048815981CD52D1404F5F5F4FC35DDE4FEC
:10E8B00059834883CD52D140213209F063C64A3092
:10E8C000510508F05FC60894811C911C53E0851621
:10E8D000910409F059C600E010E018C081E280936D
:10E8E000C6008091C00086FFFCCF8091C00080648C
:10E8F0008093C0002F5F3F4F2931310579F70F9486
:10E90000DCF10F5F1F4F0530110519F020E030E0FA
:10E91000E5CF10920A0210920B0210920C02109294
:10E920000D02109206021092070210920802109235
:10E930000902109202021092030210920402109235
:10E9400005028FEE90EE60E00F94F5F180E191EE1C
:10E9500060E00F94C2F18091C00087FFFCCF9091DE
:10E96000C600903608F09F759032B8F09093C600BC
:10E970008091C00086FFFCCF8091C00080648093AE
:10E98000C000A0E2A093C6008091C00086FFFCCF2B
:10E990008091C00080648093C000983409F4D7C18E
:10E9A0009934B8F4923409F459C1933458F490333B
:10E9B00019F1903308F4E3C59F33A1F1903409F0C5
:10E9C000DEC5BDC0953409F470C1963409F0D7C5D1
:10E9D00098C1923509F42BC2933538F49C3409F46C
:10E9E000F5C1913509F0CBC518C2963509F445C279
:10E9F000993509F0C4C567C483E792EE62E00F94CD
:10EA0000F5F110920602109207021092080210927D
:10EA1000090210920A0210920B0210920C0210923C
:10EA20000D0213C18FE792EE62E00F94F5F18FEEC5
:10EA300090EE60E00F94F5F181E291EE60E00F94CA
:10EA4000C2F187EB91EE60E00F94F5F180E391EE77
:10EA500060E00F94C2F184EE90EE60E00F94F5F167
:10EA60008FE391EE60E00F94C2F186E090E061E008
:10EA700070E00F9434F20F94DCF18DE591EE60E0DC
:10EA80000F94C2F189EC91EE60E00F94F5F18EE401
:10EA900091EE60E00F94C2F183EC91EE60E00F9490
:10EAA000F5F18CE691EE60E00F94C2F18EE10F94E7
:10EAB0000DF288E90F940DF281E00F940DF20F949E
:10EAC000DCF18BE791EE60E00F94C2F119E0E0E039
:10EAD000F0E010935700E4918E2F0F940DF20F94F5
:10EAE000DCF18AE891EE60E00F94C2F1E3E0F0E03F
:10EAF00010935700E4918E2F0F940DF20F94DCF1D8
:10EB000089E991EE60E00F94C2F1E2E0F0E0109349
:10EB10005700E4918E2F0F940DF20F94DCF188EAE8
:10EB200091EE60E00F94C2F1E1E0F0E01093570045
:10EB30001491812F0F940DF20F94DCF107CF8BE825
:10EB400092EE62E00F94F5F18BE492EE60E00F94A8
:10EB5000F5F10F94DCF100E010E019C0C8016F2D51
:10EB60000F947FFEFF2031F489E492EE60E00F9471
:10EB7000C2F10BC0F092C6008091C00086FFFCCFAE
:10EB80008091C00080648093C0000F5F1F4FC80158
:10EB900081519F41A0E0B0E0ABBFFC01F790BAE229
:10EBA000FB1621F0E2E000301E07C1F60F94DCF105
:10EBB0000F94DCF187E592EE60E00F94F5F10F948D
:10EBC000DCF1CC24DD2400E010E01EC0C8010F946D
:10EBD00077FEF82E882331F489E492EE60E00F94FA
:10EBE000C2F10BC08093C6008091C00086FFFCCFAD
:10EBF0008091C00080648093C000FE1419F00894D6
:10EC0000C11CD11C0F5F1F4FC80181519F41A0E063
:10EC1000B0E0ABBFFC01E790FAE2EF1621F022E092
:10EC20000030120799F60F94DCF10F94DCF182E6C4
:10EC300092EE60E00F94C2F1C60161E070E00F94C3
:10EC400034F20F94DCF10F94DCF110920202109276
:10EC50000302109204021092050278CE89E992EE26
:10EC600062E00F94F5F1279A2F9A16C02F9880E052
:10EC700090E0E0EDF7E03197F1F7019684369105E9
:10EC8000C1F72F9A80E090E0E0EDF7E03197F1F7DF
:10EC9000019684369105C1F78091C00087FFE6CFC9
:10ECA0008091C00087FFFCCF64C485EA92EE62E0E9
:10ECB0000F94F5F140910202509103026091040219
:10ECC0007091050281E020E10F9491F2809102029F
:10ECD00090910302A0910402B091050280509F4FD1
:10ECE000AF4FBF4F8093020290930302A0930402A0
:10ECF000B093050280509041A040B04008F426CE69
:10ED0000A4CF83EB92EE62E00F94F5F140910602FE
:10ED100050910702609108027091090280E020E1A1
:10ED20000F9491F28091060290910702A09108023F
:10ED3000B091090280509F4FAF4FBF4F80930602A2
:10ED400090930702A0930802B0930902FFCD80ECD4
:10ED500092EE62E00F94F5F183E792EE60E00F949B
:10ED6000F5F18FE792EE60E00F94F5F18BE892EE0B
:10ED700060E00F94F5F189E992EE60E00F94F5F10F
:10ED800085EA92EE60E00F94F5F183EB92EE60E09D
:10ED90000F94F5F180EC92EE60E00F94F5F187ECC2
:10EDA00092EE60E00F94F5F188ED92EE60E00F9442
:10EDB000F5F18FED92EE60E00F94F5F18AEE92EEB0
:10EDC00060E00F94F5F183E093EEBDCD87EC92EE19
:10EDD00062E00F94F5F181E40F947BF282E40F94EA
:10EDE0007BF283E40F947BF284E40F947BF285E45E
:10EDF0000F947BF286E40F947BF287E40F947BF20E
:10EE000088E40F947BF28AE40F947BF28BE40F94F6
:10EE10007BF28CE40F947BF299CD88ED92EE62E068
:10EE20000F94F5F1772473948824992409C48FED05
:10EE300092EE62E00F94F5F140910A0250910B02BC
:10EE400060910C0270910D0282E020E10F9491F22A
:10EE500080910A0290910B02A0910C02B0910D02D8
:10EE600080509F4FAF4FBF4F80930A0290930B0289
:10EE7000A0930C02B0930D0269CD8AEE92EE62E08F
:10EE80000F94F5F184EE90EE60E00F94F5F18FECC5
:10EE900091EE60E00F94F5F1662477244301CC5D98
:10EEA000DE4F19821882C452D140D401C301B695F5
:10EEB000A79597958795CA5DDE4F88839983AA8326
:10EEC000BB83C652D140CC5DDE4FA881B981C4520C
:10EED000D1401196CC5DDE4FB983A883C452D14096
:10EEE000CD0162E070E00F9434F2B0E2B093C6005E
:10EEF0008091C00086FFFCCF8091C0008064809329
:10EF0000C000EDE2E093C6008091C00086FFFCCF18
:10EF10008091C00080648093C000F0E2F093C6004E
:10EF20008091C00086FFFCCF8091C00080648093F8
:10EF3000C000CA5DDE4FE880F9800A811B81C6529D
:10EF4000D140BB27A12F902F8F2D0F940DF2CA5DBA
:10EF5000DE4F8881C652D1400F940DF2B0E2FB2EF5
:10EF6000F092C6008091C00086FFFCCF8091C00067
:10EF700080648093C0000DE30093C6008091C000C0
:10EF800086FFFCCF8091C00080648093C00010E2B7
:10EF90001093C6008091C00086FFFCCF8091C00016
:10EFA00080648093C0008BBEF3012791C65DDE4F65
:10EFB0002883CA52D140A22EBB24CC24DD2408943D
:10EFC000611C711C811C911C8BBEF3018791282E42
:10EFD0003324442455240894611C711C811C911C09
:10EFE0008BBEF3013791C55DDE4F3883CB52D140E4
:10EFF0000894611C711C811C911C8BBEF30147910C
:10F00000C45DDE4F4883CC52D140ADEFEA2EAFEF66
:10F01000FA2EAFEF0A2FAFEF1A2F6E0C7F1C801E57
:10F02000911E142D032DF22CEE24EA0CFB1C0C1D5A
:10F030001D1D0F940DF220E22093C6008091C000A8
:10F0400086FFFCCF8091C00080648093C000C65DC5
:10F05000DE4F8881CA52D1400F940DF230E23093D6
:10F06000C6008091C00086FFFCCF8091C000806404
:10F070008093C000C45DDE4F8881CC52D1400F9494
:10F080000DF240E24093C6008091C00086FFFCCFA5
:10F090008091C00080648093C000C55DDE4F888190
:10F0A000CB52D1400F940DF250E25093C6008091A4
:10F0B000C00086FFFCCF8091C00080648093C000B8
:10F0C0008FEFE8168FEFF80680E0080780E018075A
:10F0D00031F484E092EE60E00F94C2F1DFC0D80119
:10F0E000C7018070907CA070B0708050904CA040A0
:10F0F000B040D1F52FEF3FE340E050E0E222F322B1
:10F1000004231523CA5DDE4FA880B980CA80DB8046
:10F11000C652D140AE0CBF1CC01ED11EAA0CBB1CD7
:10F12000CC1CDD1C8EE092EE60E00F94C2F1BB2798
:10F13000A12F902F8F2D0F940DF28E2D0F940DF285
:10F1400030E23093C6008091C00086FFFCCF8091F2
:10F15000C00080648093C0004EE34093C60080915D
:10F16000C00086FFFCCF87C08EE09EEFA0E0B0E03D
:10F17000E822F9220A231B239CE0E91694E9F90608
:10F1800090E0090790E0190709F088C0C45DDE4FE0
:10F19000A881CC52D140EA2EFF2400E010E0102FCD
:10F1A0000F2DFE2CEE24C55DDE4FB881CB52D14031
:10F1B000EB0EF11C011D111DD601C501817090706F
:10F1C000A070B070DC0199278827E80EF91E0A1F8D
:10F1D0001B1F20EF30E040E050E0A222B322C42207
:10F1E000D52241E1AA0CBB1CCC1CDD1C4A95D1F7F1
:10F1F000EA0CFB1C0C1D1D1D81E090E0A0E0B0E0BE
:10F20000282239224A225B2235E1220C331C441C7D
:10F21000551C3A95D1F7E20CF31C041D151D57013E
:10F220006801AA0CBB1CCC1CDD1C85E192EE60E0E1
:10F230000F94C2F1C801AA27BB270F940DF2BB2778
:10F24000A12F902F8F2D0F940DF28E2D0F940DF274
:10F2500090E29093C6008091C00086FFFCCF809121
:10F26000C00080648093C000AEE3A093C60080918C
:10F27000C00086FFFCCF8091C00080648093C000F6
:10F28000C601AA27BB270F940DF2BB27AD2D9C2DDD
:10F290008B2D0F940DF28A2D0F940DF20F94DCF14B
:10F2A000CC5DDE4FE881F981C452D140F99709F471
:10F2B0004DCBF4E0EF2EF12C012D112D6E0C7F1CA7
:10F2C000801E911EF2CD83E093EE62E00F94F5F183
:10F2D0008AE192EE60E00F94C2F18091C00087FF56
:10F2E000FCCF1091C6001F751093C6008091C0001E
:10F2F00086FFFCCF8091C00080648093C0000F9493
:10F30000DCF1812F81548A3108F036C1163409F4BA
:10F3100095C0173490F4133409F44EC0143430F40B
:10F320001134F1F0123409F01DC130C0143409F465
:10F3300059C0153409F016C16BC01A3409F4C4C0A1
:10F340001B3438F4173409F48FC0183409F00AC19B
:10F35000A1C01B3409F4D2C01C3409F003C1E8C0B9
:10F360008FEF81B90DC082B1809582B980E090E0C5
:10F37000E0EDF7E03197F1F70196883C9105C1F790
:10F380008091C00087FFEFCF12B8EFC08FEF84B934
:10F390000DC085B1809585B980E090E0E0EDF7E0A3
:10F3A0003197F1F70196883C9105C1F78091C00033
:10F3B00087FFEFCF15B8D9C08FEF87B90DC088B1DF
:10F3C000809588B980E090E0E0EDF7E03197F1F7C3
:10F3D0000196883C9105C1F78091C00087FFEFCF6F
:10F3E00018B8C3C08FEF8AB90DC08BB180958BB9A7
:10F3F00080E090E0E0EDF7E03197F1F70196883C8E
:10F400009105C1F78091C00087FFEFCF1BB8ADC059
:10F410008FEF8DB90DC08EB180958EB980E090E0F0
:10F42000E0EDF7E03197F1F70196883C9105C1F7DF
:10F430008091C00087FFEFCF1EB897C08FEF80BBD1
:10F440000DC081B3809581BB80E090E0E0EDF7E0F6
:10F450003197F1F70196883C9105C1F78091C00082
:10F4600087FFEFCF11BA81C08FEF83BB0DC084B38C
:10F47000809584BB80E090E0E0EDF7E03197F1F714
:10F480000196883C9105C1F78091C00087FFEFCFBE
:10F4900014BA6BC08FEF809301010FC080910201FD
:10F4A00080958093020180E090E0E0EDF7E03197F5
:10F4B000F1F70196883C9105C1F78091C00087FF64
:10F4C000EDCF1092020151C08FEF809304010FC065
:10F4D0008091050180958093050180E090E0E0ED4A
:10F4E000F7E03197F1F70196883C9105C1F78091DB
:10F4F000C00087FFEDCF1092050137C08FEF8093DA
:10F5000007010FC08091080180958093080180E079
:10F5100090E0E0EDF7E03197F1F70196883C910536
:10F52000C1F78091C00087FFEDCF109208011DC088
:10F530008FEF80930A010FC080910B01809580931B
:10F540000B0180E090E0E0EDF7E03197F1F70196F4
:10F55000883C9105C1F78091C00087FFEDCF1092E4
:10F560000B0103C085E292EEEEC98091C00087FFD7
:10F57000FCCF8091C600EAC988E392EEE4C98CE131
:10F5800091EEE1C988249924933011F1943028F444
:10F59000913089F09230B8F408C0953061F195301F
:10F5A000F0F0963009F048C043C02B3109F042C951
:10F5B00091E06BE13FC96227C15DDE4F2883CF52E6
:10F5C000D14092E037C9B22FA0E0622793E032C960
:10F5D000822F90E0A82BB92B622794E02BC92E3004
:10F5E00009F039C3622795E0C05DDE4F19821882A9
:10F5F000C053D1401FC9E1E0F0E0EC0FFD1FC05D3A
:10F60000DE4F08811981C053D140E00FF11F2083E4
:10F610000F5F1F4FC05DDE4F19830883C053D14079
:10F6200062270A171B0709F005C9D80196E002C92D
:10F63000261709F010C303C0973009F0FBC87724E0
:10F640009981933109F412C19431C8F4963009F4C8
:10F65000D8C0973050F4923009F406C1933009F4C1
:10F660006DC0913009F059C253C0913109F477C08F
:10F67000923108F0BBC0903109F04FC2F5C098310B
:10F6800009F487C0993150F4953109F4EFC09531F0
:10F6900008F4C6C1963109F040C2C2C19A3109F4DA
:10F6A0006CC09A3108F491C09B3109F45BC09D3164
:10F6B00009F033C29D81903359F48F81882311F46E
:10F6C0009EE11CC0813011F091E018C098E916C08D
:10F6D000892F807591F0903539F4E0E0F0E089E011
:10F6E0008093570094910AC0983539F4E3E0F0E034
:10F6F00089E080935700949101C090E01A821B82A8
:10F700008D818C831D829E831F8227E030E009C299
:10F710001A8288E08B8381E48C8386E58D8382E581
:10F720008E8389E48F8383E5888780E589878FE5E9
:10F730008A8782E38B872BE030E0F3C18A818139AD
:10F7400041F0823941F0803911F48FE005C080E04A
:10F7500003C082E001C08AE01A828B8344C0772410
:10F76000739482C08D81882311F48EE12CC0813086
:10F7700011F081E028C088E926C01A82E1E0F0E0BB
:10F7800089E08093570084918B831C8224E030E0D1
:10F79000C8C18B81803589F48C81883039F4E2E0EE
:10F7A000F0E089E08093570084910DC0E0E0F0E044
:10F7B00089E080935700849106C0E3E0F0E089E09F
:10F7C0008093570084911A82DFCF8D81836C99E0FA
:10F7D000E1E0F0E0082E90935700E89507B600FCB2
:10F7E000FDCF1A821B8223E030E09BC180EC8A832C
:10F7F000CE5CDE4F188219821A821B82C253D1401E
:10F800008EC18A8190E0A0E0B0E0582F44273327D2
:10F8100022278B8190E0A0E0B0E0DC0199278827C7
:10F82000282B392B4A2B5B2B8D8190E0A0E0B0E098
:10F83000282B392B4A2B5B2B8C8190E0A0E0B0E089
:10F84000BA2FA92F982F8827282B392B4A2B5B2BCF
:10F85000220F331F441F551FC05EDE4F288339839C
:10F860004A835B83C052D1401A8259C13A81C95C34
:10F87000DE4F3883C753D140CA5CDE4F1882C6536F
:10F88000D1408B81C82EDD24CA5CDE4F488159816E
:10F89000C653D140C42AD52A933109F082C0CE5C28
:10F8A000DE4F88819981AA81BB81C253D1408050AB
:10F8B000904CA340B04030F583E0CE5CDE4FE88052
:10F8C000F9800A811B81C253D140F70100935B008C
:10F8D00080935700E89507B600FCFDCFCE5CDE4F65
:10F8E000088119812A813B81C253D14000501F4FAA
:10F8F0002F4F3F4FCE5CDE4F088319832A833B8313
:10F90000C253D140C05EDE4F488159816A817B81FC
:10F91000C052D140DE011B9631E08C9111962C91A2
:10F9200011971296C75CDE4F2883C953D140C85C3B
:10F93000DE4F1882C853D14090E0C85CDE4FE881AA
:10F94000F981C853D1408E2B9F2B0C01FA01609393
:10F950005B0030935700E89511244E5F5F4F6F4F67
:10F960007F4F0EEFE02E0FEFF02ECE0CDF1CC114F8
:10F97000D10499F685E0C05EDE4F088119812A81A5
:10F980003B81C052D140F80120935B008093570027
:10F99000E89507B600FCFDCF81E180935700E8951C
:10F9A00035C0C05EDE4F88819981AA81BB81C0527B
:10F9B000D140B695A795979587957C018601ABE0D8
:10F9C000AA2EB12CAC0EBD1E0BC0D5016D915D01F0
:10F9D000C7010F947FFE0894E11CF11C01501040F8
:10F9E0000115110591F7A60160E070E0440F551F65
:10F9F000661F771FC05EDE4FE880F9800A811B8199
:10FA0000C052D1404E0D5F1D601F711F1A82C05E33
:10FA1000DE4F488359836A837B83C052D1407FC0C5
:10FA2000FA80C55CDE4FF882CB53D140C65CDE4F16
:10FA30001882CA53D1408B81C82EDD24C65CDE4FAC
:10FA400008811981CA53D140C02AD12A1A828981DA
:10FA5000BE016D5F7F4F843121F59601C05EDE4FA0
:10FA6000E880F9800A811B81C052D1400BBFF701A9
:10FA700087919691DB018C9311969C936E5F7F4FDB
:10FA8000D801C7010296A11DB11DC05EDE4F88835B
:10FA90009983AA83BB83C052D14022503040F1F6F3
:10FAA00036C0C05EDE4F288139814A815B81C052F9
:10FAB000D1400894C108D108760100E010E0089414
:10FAC000C11CD11C0894E11CF11C011D111DE20E8A
:10FAD000F31E041F151F21BDBB27A52F942F832FB5
:10FAE00082BD2F5F3F4F4F4F5F4FF89A80B5DB01CC
:10FAF0008D93BD012E153F054007510761F7C05E8C
:10FB0000DE4F288339834A835B83C052D1409601FC
:10FB10002D5F3F4FFB01108204C080EC8A8322E0FE
:10FB200030E08BE18093C6008091C00086FFFCCF5F
:10FB30008091C00080648093C000C15DDE4FF88179
:10FB4000CF52D140F093C6008091C00086FFFCCF19
:10FB50008091C00080648093C000432F3093C60022
:10FB60008091C00086FFFCCF8091C00080648093AC
:10FB7000C000922F2093C6008091C00086FFFCCF6A
:10FB80008091C00080648093C0008EE08093C600A6
:10FB90008091C00086FFFCCF8091C000806480937C
:10FBA000C00065E1C15DDE4FE880CF52D1406E25D7
:10FBB00069276427FE01319610C090819093C6009A
:10FBC0008091C00086FFFCCF31968091C000806498
:10FBD0008093C0006927215030402115310569F715
:10FBE0006093C6008091C00086FFFCCF8091C0006A
:10FBF00080648093C00085B1805885B9772081F4F6
:10FC0000C15DDE4F0881CF52D1400F5FC15DDE4F35
:10FC10000883CF52D14090E0A0E0B0E00D941AF4F8
:10FC200027982F9880E090E020ED37E0F901319798
:10FC3000F1F7019684369105C9F700008091C00064
:10FC40008D7F8093C00081E180935700E895EE2777
:10FC5000FF270994FFCF90E00D941AF497FB092E2B
:10FC600007260AD077FD04D02ED006D000201AF443
:10FC7000709561957F4F0895F6F7909581959F4F08
:10FC80000895A1E21A2EAA1BBB1BFD010DC0AA1FDD
:10FC9000BB1FEE1FFF1FA217B307E407F50720F0F5
:10FCA000A21BB30BE40BF50B661F771F881F991F70
:10FCB0001A9469F760957095809590959B01AC01B9
:10FCC000BD01CF010895AA1BBB1B51E107C0AA1FAC
:10FCD000BB1FA617B70710F0A61BB70B881F991FED
:10FCE0005A95A9F780959095BC01CD010895F99991
:10FCF000FECF92BD81BDF89A992780B50895262F31
:10FD0000F999FECF1FBA92BD81BD20BD0FB6F89400
:0EFD1000FA9AF99A0FBE01960895F894FFCF63
:00000001FF
