:020000040000FA
:100000000C9443010C94770C0C944C0C0C94210C24
:100010000C94F60B0C94CB0B0C94A00B0C94750B5E
:100020000C944A0B0C9474010C9474010C9474019C
:100030000C9474010C9474010C9474010C9474016C
:100040000C9474010C9474010C9474010C9474015C
:100050000C9474010C9474010C9474010C94000BB6
:100060000C9474010C94CC0C0C94A20C0C947401A0
:100070000C9474010C9474010C9474010C9474012C
:100080000C9474010C9474010C9474010C9474011C
:100090000C9474010C9474010C9474010C9474010C
:1000A0000C9474010C9474010C9474010C947401FC
:1000B0000C9474010C9474010C9474010C947401EC
:1000C0000C9474010C9474010C9474010C947401DC
:1000D0000C9474010C9474010C9474010C947401CC
:1000E0000C9474010C94FE060C94020D0C94CB013C
:1000F0000C94F8020C94C1010C94D9010C94F202F6
:100100000C94C7010C9494010C94DC030C948F03A1
:100110000C9457030C94A9010C9426030C949A0197
:100120000C94D5010C94CF010C94D4010C94490388
:100130000C94BD010C9435030C942D040C94A20175
:100140000C94AF010C949E010C94A6010C94F50242
:100150000C942E040C94F9020C94B3010C943C09F9
:100160000C94B90100002100240027002A002D0072
:100170003000330001010000040107010A01000002
:100180002200250028002B002E003100340002013F
:100190000000050108010B010000200023002600DB
:1001A00029002C002F00320000010000030106018D
:1001B00009010505050507050808080802020202ED
:1001C0000A0A0808040404040101010101010101F3
:1001D0000303030303030303040707070C0C0C0CBE
:1001E0000C0C0C0C020202020606060606060606A7
:1001F0000B0B0B0B0B0B0B0B010210202008081034
:100200002040102040800201020108040201010286
:10021000040810204080804020100804020180045F
:1002200002018040201008040201080402010102BA
:1002300004081020408001020408102040800000C3
:100240000A0B02090C0D0E08070304010000000050
:10025000000000000000000000000000000000009E
:10026000000000000000000000001211100000005B
:10027000000000000000000000000000000000007E
:1002800000000000020D11241FBECFEFD1E2DEBF3F
:10029000CDBF00E00CBF26E0A2EEB5E001C01D928C
:1002A000AF3DB207E1F715E0A0E0B2E0E4E0FCE228
:1002B00000E00BBF02C007900D92A23EB107D9F734
:1002C00011E0C3E4D1E000E006C021970109802FCE
:1002D000FE010E94E213C234D10780E00807A9F7AB
:1002E0000E94590D0C9400160C940000815082312C
:1002F00008F05AC0E82FF0E08827EE57FE4F8F4FE6
:100300000C94E213A201A60194019A019E01D4016A
:10031000A901AF01B301B901BD01C101C701CB0101
:10032000D401CF01D501D901809180008F778093CE
:1003300080000895809180008F7DF9CF80918000AA
:10034000877FF5CF84B58F7784BD089584B58F7D81
:10035000FBCF8091B0008F778093B000089580919B
:10036000B0008F7DF9CF809190008F7780939000BF
:100370000895809190008F7DF9CF80919000877FC4
:10038000F5CF8091A0008F778093A0000895809191
:10039000A0008F7DF9CF8091A000877FF5CF80915D
:1003A00020018F77809320010895809120018F7D17
:1003B000F9CF80912001877FF5CFCF93DF93282F4E
:1003C00030E0F901E25CFD4F8491F901E850FE4F05
:1003D000D491F901EE54FE4FC491CC23A1F08111C8
:1003E0000E947601EC2FF0E0EE0FFF1FE856FE4F63
:1003F000A591B491EC91ED2381E090E009F480E0C7
:10040000DF91CF91089580E090E0FACF1F93CF93D2
:10041000DF93282F30E0F901E25CFD4F8491F90170
:10042000E850FE4FD491F901EE54FE4FC491CC2315
:10043000A9F0162F81110E947601EC2FF0E0EE0F4B
:10044000FF1FE258FE4FA591B4918FB7F894EC913D
:10045000111108C0D095DE23DC938FBFDF91CF91BF
:100460001F910895DE2BF8CFEF92FF920F931F9309
:10047000CF93DF93EC0107EA13E07C0180E1E80E03
:10048000F11C68812296F80180810E5F1F4F0E9447
:100490000602CE15DF05A9F7DF91CF911F910F91CD
:1004A000FF90EF900895CF93DF9390E0FC01E85028
:1004B000FE4F24918E549E4FFC0184918823D1F0ED
:1004C00090E0880F991FFC01EC59FE4FA591B49163
:1004D000FC01E258FE4FC591D49161110EC09FB747
:1004E000F8948C91E22FE0958E238C932881E2235F
:1004F000E8839FBFDF91CF9108958FB7F894EC9177
:10050000E22BEC938FBFF6CF90917B00977F909377
:100510007B008653806480937C0080917A008064A5
:1005200080937A0080917A0086FDFCCF80917800DC
:100530009091790008953FB7F8948091EA059091E1
:10054000EB05A091EC05B091ED0526B5A89B05C083
:100550002F3F19F00196A11DB11D3FBFBA2FA92F42
:10056000982F8827BC01CD01620F711D811D911D3F
:1005700042E0660F771F881F991F4A95D1F70895AB
:100580008F929F92AF92BF92CF92DF92EF92FF92A3
:100590004B015C010E949B026B017C010E949B024B
:1005A0006C197D098E099F09683E7340810591058C
:1005B000A8F321E0821A9108A108B10888EEC80EBC
:1005C00083E0D81EE11CF11C81149104A104B10444
:1005D00029F7FF90EF90DF90CF90BF90AF909F9062
:1005E0008F90089588E30C94840286E30C9484022F
:1005F0000895AF92BF92CF92DF92EF92FF920F9346
:100600001F93CF93DF936C017B018B01040F151FA8
:10061000EB015E01AE18BF08C017D10759F0699110
:10062000D601ED91FC910190F081E02DC601199564
:10063000892B79F7C501DF91CF911F910F91FF9021
:10064000EF90DF90CF90BF90AF900895FC01538D55
:10065000448D252F30E0842F90E0821B930B54179C
:1006600010F0CF96089501970895FC01918D828D29
:10067000981761F0A28DAE0FBF2FB11D5D968C91C2
:10068000928D9F5F9F73928F90E008958FEF9FEF01
:100690000895FC01918D828D981731F0828DE80FBD
:1006A000F11D858D90E008958FEF9FEF0895FC0177
:1006B000918D228D892F90E0805C9F4F821B910944
:1006C0008F739927089584EF95E00E94570321E0E6
:1006D000892B09F420E0822F0895FC01A48DA80F36
:1006E000B92FB11DA35ABF4F2C91848D90E0019674
:1006F0008F739927848FA689B7892C93A089B18994
:100700008C91837080648C93938D848D981306C034
:100710000288F389E02D80818F7D80830895EF9298
:10072000FF920F931F93CF93DF93EC0181E0888FAB
:100730009B8D8C8D98131AC0E889F989808185FF7B
:1007400015C09FB7F894EE89FF896083E889F9891D
:1007500080818370806480839FBF81E090E0DF911F
:10076000CF911F910F91FF90EF900895F62E0B8D72
:1007700010E00F5F1F4F0F731127E02E8C8D8E112D
:100780000CC00FB607FCFACFE889F989808185FF94
:10079000F5CFCE010E946D03F1CFEB8DEC0FFD2F55
:1007A000F11DE35AFF4FF0829FB7F8940B8FEA894F
:1007B000FB8980818062CFCFCF93DF93EC01888D5E
:1007C0008823B9F0AA89BB89E889F9898C9185FDCC
:1007D00003C0808186FD0DC00FB607FCF7CF8C915A
:1007E00085FFF2CF808185FFEDCFCE010E946D03A2
:1007F000E9CFDF91CF91089580E090E0892B29F037
:100800000E94630381110E94000080E090E0892B28
:1008100049F080E090E0892B29F00E9400008111CE
:100820000E94000080E090E0892B49F080E090E099
:10083000892B29F00E94000081110E94000080E0B5
:1008400090E0892B49F080E090E0892B29F00E940C
:10085000000081110C9400000895089590E080E05C
:1008600008958F929F92AF92BF92CF92DF92EF92B4
:10087000FF92CF93DF93FC011995209199062223D3
:1008800009F4ECC0F0909B06FF2009F41EC12091F2
:10089000970630919806BC01621B730B7093920609
:1008A00060939106072E000C880B990B0E94131180
:1008B0009B01AC016091B7067091B8068091B906B2
:1008C0009091BA060E9447126093B7067093B806DB
:1008D0008093B9069093BA06609191067091920642
:1008E000072E000C880B990B0E9413119B01AC0181
:1008F0000E9472112091BB063091BC064091BD064A
:100900005091BE060E9447126093BB067093BC06CE
:100910008093BD069093BE06C091A506D091A60611
:1009200020919D0630919E06C217D30709F08DC015
:100930006093BF067093C0068093C1069093C20671
:10094000FF2009F476C0C0909F06D090A006E090EA
:10095000A106F090A206A701960160E070E080E891
:100960009FE30E9446122091B3063091B406409155
:10097000B5065091B6060E9472114B015C012091A0
:10098000B7063091B8064091B9065091BA06C70132
:10099000B6010E9472119B01AC01C501B4010E9415
:1009A00047126B017C01C092B306D092B406E0926C
:1009B000B506F092B606BE01DD0F880B990B0E94BA
:1009C00013119B01AC01C701B6010E94B3126B0168
:1009D0007C0120E030E0A9010E945B1320E030E0C0
:1009E00040E05FE387FD76C0C701B6010E94471271
:1009F0000E9425137093A4066093A3068091970626
:100A000090919806680F791F7093980660939706E7
:100A10001092B7061092B8061092B9061092BA0654
:100A200080919C06882329F01092990681E080939A
:100A30009A061092BB061092BC061092BD06109248
:100A4000BE061092A6061092A5068091A50690916A
:100A5000A60601969093A6068093A5060E949B0287
:100A6000C090EE05D090EF05E090F005F090F10514
:100A70006C157D058E059F0588F3D701C601885149
:100A80009C4FAF4FBF4F8093EE059093EF05A0931F
:100A9000F005B093F1052091F2053091F3052F5F39
:100AA0003F4F3093F3052093F20581E0283E334019
:100AB0000CF080E0DF91CF91FF90EF90DF90CF902E
:100AC000BF90AF909F908F900895909392068093DF
:100AD000910602CFC701B6010E94461289CFCF937B
:100AE000C2E060E08C2F0E940602CF5FC730C9F7DA
:100AF00060E088E00E94060260E089E00E94060251
:100B000060E08AE0CF910C940602CF93DF93EC0172
:100B100060E08E810E94060261E08E810E940602E2
:100B200060E08E810E9406028BE891E00197F1F768
:100B3000DF91CF910895CF92DF92EF92FF920F93C2
:100B40001F93CF93DF936C017C0187E0E80EF11CCB
:100B5000D0E0C0E0062F10E0B8010C2E02C0759561
:100B600067950A94E2F76170F70181917F010E9415
:100B700006022196C430D10579F7C601DF91CF91E5
:100B80001F910F91FF90EF90DF90CF900C9485050F
:100B9000CF92DF92EF92FF920F931F93CF93DF9349
:100BA000EC01F62E642F8C810E9406028D818F3F0E
:100BB00019F060E00E9406020F2D10E08F8584FF7F
:100BC00025C06E0187E0C80ED11CF12CE12CB801C4
:100BD0000E2C02C0759567950A94E2F76170F601D4
:100BE00081916F010E940602FFEFEF1AFF0A88E071
:100BF000E816F10461F7CE01DF91CF911F910F91BB
:100C0000FF90EF90DF90CF900C948505B80184E0C1
:100C1000759567958A95E1F7CE010E949B056F2D2A
:100C2000CE01DF91CF911F910F91FF90EF90DF9058
:100C3000CF900C949B0540E0682F83EC96E00C94D9
:100C4000C80581E00E941B068BE39FE10197F1F745
:100C50000895CF93DF93823029F49091D206986063
:100C60009093D2068093D6061092D70680E48093A4
:100C7000D80680E18093D90680E58093DA0661E0AA
:100C80008091C7060E9453028091C8068F3F19F0D9
:100C900061E00E94530261E08091C9060E94530204
:100CA000C3ECD6E09E01235C36408091D20684FDE1
:100CB0000BC084E090E021962817390744F461E0E6
:100CC0008E810E945302EECF88E090E0F4CF8BE358
:100CD0009DE00197F1F760E08091C7060E9406024F
:100CE00060E08091C9060E9406028091C8068F3F8D
:100CF00019F060E00E9406028091D20684FD34C0A3
:100D000063E083EC96E00E949B05CBE4D6E4CE0141
:100D10000197F1F763E083EC96E00E949B05219731
:100D2000F1F763E083EC96E00E949B0583E592E097
:100D30000197F1F762E083EC96E00E949B058091B9
:100D4000D20680620E941B0684E08093D3068CE06A
:100D50000E941B060E94210682E08093D40686E052
:100D6000DF91CF910C941B0680620E941B068BE4DE
:100D700096E40197F1F78091D20680620E941B06EB
:100D800083E592E00197F1F78091D20680620E949C
:100D90001B06D5CF9091D606691710F06FEF690F3B
:100DA000E62FF0E0ED53F94F9489890F80680C9499
:100DB0001B060F931F93CF93DF938C01EB010E94CF
:100DC000210660E080E00E94CA06F8014481558156
:100DD0006081718183EC96E00E94F90261E080E01D
:100DE0000E94CA064C815D816881798183EC96E01E
:100DF000DF91CF911F910F910C94F90241E00E9475
:100E0000C80581E090E008951F93CF93DF93C1E977
:100E1000D6E01B8622E330E03D872C8711E01A875D
:100E200020E032E03F832E839B01AC010E947211CF
:100E300020E030E048E45CE40E94B3126A8F7B8FCC
:100E40008C8F9D8F1AA61BA61CA61DA61D8A1C8A08
:100E5000188719861092F3051092F2050E949B02E2
:100E600068517C4F8F4F9F4F6093EE057093EF0555
:100E70008093F0059093F105DF91CF911F91089534
:100E8000FC0180819181009711F00C9486140895E3
:100E9000FB0101900020E9F73197AF01461B570B8A
:100EA000DC01ED91FC910280F381E02D19948F9289
:100EB0009F92AF92BF92EF92FF920F931F93CF93A7
:100EC000DF93CDB7DEB7A1970FB6F894DEBF0FBEA4
:100ED000CDBF7C01FA01CB0119A2223008F42AE02F
:100EE0008E010F5D1F4F822E912CB12CA12CBF01C2
:100EF000A50194010E94C013F901CA016A300CF5E2
:100F0000605DD8016E938D01232B242B252B79F75F
:100F100090E080E0109721F0BD01C7010E944807D2
:100F2000A1960FB6F894DEBF0FBECDBFDF91CF9173
:100F30001F910F91FF90EF90BF90AF909F908F9077
:100F40000895695CDECFCF93DF93BC0184EF95E019
:100F50000E944807EC0165ED73E084EF95E00E9484
:100F600048078C0F9D1FDF91CF910895CF92DF929C
:100F7000EF92FF92CF93DF936C01990FEE08FF0879
:100F8000F7FE23C06DE284EF95E00E948F03EC0131
:100F900044275527BA014C195D096E097F092AE0DB
:100FA00084EF95E00E945707C80FD91F65ED73E0E5
:100FB00084EF95E00E9448078C0F9D1FDF91CF9131
:100FC000FF90EF90DF90CF9008952AE0B701A6013F
:100FD00084EF95E00E945707EC01E8CF2F923F92F3
:100FE0004F925F926F927F928F929F92AF92BF9239
:100FF000CF92DF92EF92FF921F93CF93DF93EC019A
:101000006A017B01722EAB019601CB01B6010E94F1
:10101000A61368ED73E0811126C046015701E894DC
:10102000B7F82FEF3FEF4FE75FE7C501B4010E942C
:10103000A61381110CC02FEF3FEF4FE75FE7C5010B
:10104000B4010E940C116CED73E0181664F02FEFE0
:101050003FEF4FE75FE4C701B6010E945B1318162C
:10106000B4F460EE73E0CE01DF91CF911F91FF9059
:10107000EF90DF90CF90BF90AF909F908F907F9038
:101080006F905F904F903F902F900C9448072FEFF8
:101090003FEF4FE75FECC701B6010E940C1187FDDF
:1010A000E0CF20E030E0A901C701B6010E940C1199
:1010B000312C212C87FF0DC0E881F9810190F0814E
:1010C000E02D6DE2CE0119951C01F7FAF094F7F8C6
:1010D000F09410E060E070E080E09FE3711641F072
:1010E00020E030E040E251E40E94B3121F5FF6CFEF
:1010F000A70196010E9447122B013C010E942C136C
:101100004B015C012AE0BC01A401CE010E945707FB
:101110007C01E20CF31C1123E1F1C501B4010E9432
:1011200011119B01AC01C301B2010E9446124B0197
:101130005C01E881F9810190F081E02D6EE2CE0141
:101140001995E80EF91E115020F120E030E040E240
:1011500051E4C501B4010E9472112B013C010E94AF
:101160002C134B01B12CA12C2AE0B501A401CE0116
:101170000E945707E80EF91EC501B4010E94111123
:101180009B01AC01C301B2010E9446124B015C01FC
:10119000DACFC701DF91CF911F91FF90EF90DF90E1
:1011A000CF90BF90AF909F908F907F906F905F9007
:1011B0004F903F902F900895CF93DF93AB01BC01E8
:1011C00022E084EF95E00E94EE07EC0165ED73E00C
:1011D00084EF95E00E9448078C0F9D1FDF91CF910F
:1011E00008950C944807EF92FF920F931F93CF93AB
:1011F000DF93EC017B01198218821B821A821D8207
:101200001C82FB0101900020E9F731978F01061B3A
:10121000170BB8016F5F7F4F90E080E00E940F15C1
:101220000097B9F0998388831B830A832C813D81C1
:10123000232B11F4FC0110821D830C83B7018881DC
:101240009981DF91CF911F910F91FF90EF900C94B6
:10125000F91588819981009711F00E9486141982EE
:1012600018821D821C821B821A82DF91CF911F91EE
:101270000F91FF90EF9008951F93CF93DF93CDB719
:10128000DEB72C970FB6F894DEBF0FBECDBF82E15C
:101290000E94DD0164EE73E0019709F040C0CE01C9
:1012A00007960E94F30864EF73E0CE0101960E9456
:1012B000F308BE01695F7F4FCE0101960E94D906F7
:1012C000CE0101960E944007CE0107960E9440077A
:1012D00084E094E00E94A30711E01093E20581E00E
:1012E00090E00E94B60768EE73E080E090E00E9414
:1012F000C0020E946F05109360021092E4051092E4
:10130000E30584E194E00E94A3072C960FB6F894BD
:10131000DEBF0FBECDBFDF91CF911F910895CE01EB
:1013200007960E94F30865E274E0CE0101960E94E0
:10133000F308BE01695F7F4FCE0101960E94D90676
:10134000CE0101960E944007CE0107960E944007F9
:1013500085E294E00E94A3071092E20568EE73E034
:1013600080E090E00E94C0020E946F0581E08093BF
:1013700060021092E4051092E305C7CFCF92DF928E
:10138000EF92FF920F931F93CF93DF93EB017B01BB
:1013900024E0E20EF11C8B016C01C61AD70AC601CB
:1013A000800F911F0E943012F80181938F01EE157A
:1013B000FF05A9F7CE01DF91CF911F910F91FF900B
:1013C000EF90DF90CF9008959F92AF92BF92CF920F
:1013D000DF92EF92FF920F931F93CF93DF935C0105
:1013E0007B018B01D0E0C0E0F80191908F01650195
:1013F000CC0EDD1EC6010E943012981621F0692D18
:10140000C6010E9438122196C430D10569F7C70180
:10141000DF91CF911F910F91FF90EF90DF90CF90D0
:10142000BF90AF909F900895CF93DF93EC01BC01E4
:1014300088E090E00E94E40968E374E084EF95E0BE
:101440000E94F108688179818A819B81DF91CF9127
:101450000C94DC08CF92DF92EF92FF920F931F93D0
:10146000CF93DF936B017C018A01E90182E594E06F
:101470000E94A30720E030E0A901C701B6010E9445
:101480005B1387FD18C020E030E048E452E4C70158
:10149000B6010E940C11181674F0C8010E943402A3
:1014A000CE01DF91CF911F910F91FF90EF90DF90D0
:1014B000CF900C94140A20E030E048E452E4C701D5
:1014C000B6010E945B131816ACF420E030E048EC43
:1014D00052E4C701B6010E940C1118165CF061E0DD
:1014E00083E00E940602C80140960E943402CE01A9
:1014F0000496D7CF20E030E048EC52E4C701B601B3
:101500000E945B131816ACF420E030E046E153E48F
:10151000C701B6010E940C1118165CF061E084E06E
:101520000E940602C80180960E943402CE010896ED
:10153000B8CF20E030E046E153E4C701B6010E9495
:101540005B1318168CF420E030E04EE353E4C7013F
:10155000B6010E940C1118163CF0C801C0960E94FA
:101560003402CE010C969DCF20E030E04EE353E4F0
:10157000C701B6010E945B13181644F4C801805CD1
:101580009F4F0E943402CE0140968BCFDF91CF91C6
:101590001F910F91FF90EF90DF90CF900895CF9320
:1015A000DF93C1E9D6E02A8D3B8D4C8D5D8D6EA514
:1015B0007FA588A999A90E9472116E8F7F8F88A339
:1015C00099A30E946613AB01BC014A835B836C83C1
:1015D0007D83198622E084EF95E00E94EE0763E6A2
:1015E00074E084EF95E00E94F1088E819F810E9453
:1015F000B6076A817B818C819D81DF91CF910895AF
:101600001F920F920FB60F9211242F933F938F9337
:101610009F93AF93BF938091E6059091E705A091CA
:10162000E805B091E9053091E50523E0230F2D375A
:1016300058F50196A11DB11D2093E5058093E6059F
:101640009093E705A093E805B093E9058091EA053A
:101650009091EB05A091EC05B091ED050196A11DCF
:10166000B11D8093EA059093EB05A093EC05B09330
:10167000ED05BF91AF919F918F913F912F910F9069
:101680000FBE0F901F90189526E8230F0296A11DFC
:10169000B11DD2CF1F920F920FB60F9211240BB62D
:1016A0000F922F933F934F935F936F937F938F93FB
:1016B0009F93AF93BF93EF93FF93E0910E02F0914E
:1016C0000F021995FF91EF91BF91AF919F918F916B
:1016D0007F916F915F914F913F912F910F900BBE32
:1016E0000F900FBE0F901F9018951F920F920FB67C
:1016F0000F9211240BB60F922F933F934F935F934A
:101700006F937F938F939F93AF93BF93EF93FF93C9
:10171000E0910C02F0910D021995FF91EF91BF91AC
:10172000AF919F918F917F916F915F914F913F9179
:101730002F910F900BBE0F900FBE0F901F9018951A
:101740001F920F920FB60F9211240BB60F922F9388
:101750003F934F935F936F937F938F939F93AF9339
:10176000BF93EF93FF93E0910202F091030219956A
:10177000FF91EF91BF91AF919F918F917F916F9169
:101780005F914F913F912F910F900BBE0F900FBE25
:101790000F901F9018951F920F920FB60F92112461
:1017A0000BB60F922F933F934F935F936F937F935B
:1017B0008F939F93AF93BF93EF93FF93E0910002BA
:1017C000F09101021995FF91EF91BF91AF919F9117
:1017D0008F917F916F915F914F913F912F910F90DA
:1017E0000BBE0F900FBE0F901F9018951F920F9277
:1017F0000FB60F9211240BB60F922F933F934F9376
:101800005F936F937F938F939F93AF93BF93EF9368
:10181000FF93E0910A02F0910B021995FF91EF916D
:10182000BF91AF919F918F917F916F915F914F91F8
:101830003F912F910F900BBE0F900FBE0F901F90F6
:1018400018951F920F920FB60F9211240BB60F929C
:101850002F933F934F935F936F937F938F939F93B8
:10186000AF93BF93EF93FF93E0910802F0910902C9
:101870001995FF91EF91BF91AF919F918F917F91BA
:101880006F915F914F913F912F910F900BBE0F90F1
:101890000FBE0F901F9018951F920F920FB60F92C8
:1018A00011240BB60F922F933F934F935F936F9337
:1018B0007F938F939F93AF93BF93EF93FF93E091A9
:1018C0000602F09107021995FF91EF91BF91AF9138
:1018D0009F918F917F916F915F914F913F912F9148
:1018E0000F900BBE0F900FBE0F901F9018951F9278
:1018F0000F920FB60F9211240BB60F922F933F93B6
:101900004F935F936F937F938F939F93AF93BF9307
:10191000EF93FF93E0910402F09105021995FF9176
:10192000EF91BF91AF919F918F917F916F915F9157
:101930004F913F912F910F900BBE0F900FBE0F90C4
:101940001F9018951F920F920FB60F9211240BB68D
:101950000F922F933F934F935F936F937F938F9348
:101960009F93AF93BF93EF93FF9384EF95E00E9413
:101970006D03FF91EF91BF91AF919F918F917F91F7
:101980006F915F914F913F912F910F900BBE0F90F0
:101990000FBE0F901F9018951F920F920FB60F92C7
:1019A00011240BB60F922F938F939F93EF93FF9376
:1019B000E0910406F09105068081E0910A06F0911D
:1019C0000B0682FD1DC0908180910D068F5F8F7385
:1019D00020910E06821741F0E0910D06F0E0EC50E8
:1019E000FA4F958F80930D06FF91EF919F918F9104
:1019F0002F910F900BBE0F900FBE0F901F90189558
:101A00008081F2CFE4EFF5E01382128288EE93E05A
:101A1000A0E0B0E084839583A683B7838BEB93E04B
:101A20009183808385EC90E09587848784EC90E0B7
:101A30009787868780EC90E0918B808B81EC90E09B
:101A4000938B828B82EC90E0958B848B86EC90E07C
:101A5000978B868B118E128E138E148EE3ECF6E02C
:101A6000138212828DEC93E09183808381E18483E1
:101A70008FEF85838AE2868382E2878384E2808790
:101A800086E2818788E28287138614861586168609
:101A9000178681E00E94290683E393E3A3E3BFE373
:101AA00080939F069093A006A093A106B093A206F0
:101AB0000895CF93DF93CDB7DEB768970FB6F8944C
:101AC000DEBF0FBECDBF789484B5826084BD84B57F
:101AD000816084BD85B5826085BD85B5816085BD29
:101AE00080916E00816080936E00109281008091E1
:101AF0008100826080938100809181008160809369
:101B00008100809180008160809380008091B1008D
:101B100084608093B1008091B00081608093B000B8
:101B2000809191008260809391008091910081600A
:101B300080939100809190008160809390008091CB
:101B4000A10082608093A1008091A10081608093B8
:101B5000A1008091A00081608093A000809121016C
:101B60008260809321018091210181608093210115
:101B70008091200181608093200180917A008460AF
:101B800080937A0080917A00826080937A008091BD
:101B90007A00816080937A0080917A0080688093D7
:101BA0007A001092C100E0910406F091050682E0EF
:101BB0008083E0910006F09101061082E091020618
:101BC000F09103068FEC808310920C06E0910806DA
:101BD000F091090686E08083E0910606F091070601
:101BE000808180618083E0910606F0910706808104
:101BF00088608083E0910606F09107068081806806
:101C00008083E0910606F091070680818F7D8083B6
:101C100082E00E94290660E08AE10E94530260E0AF
:101C200088E10E94530260E086E10E94530260E076
:101C300088E30E94530260E08AE10E94060260E0AD
:101C400088E10E94060260E086E10E94060212E03E
:101C500061E0812F0E9453021F5F1730C9F761E0D6
:101C600088E00E94530261E089E00E94530261E033
:101C70008AE00E9453028CE399E090930B028093D8
:101C80000A02809169008F73806480936900EB9AE7
:101C900003E010E082E0C82ED12C8091E305909102
:101CA000E4058130910509F47AC050F08230910545
:101CB00009F428C1039709F4D4C10E94FC03EDCFB5
:101CC000809160028823E9F066E674E0CE01019617
:101CD0000E94F30863E774E0CE0107960E94F308C0
:101CE000BE016F5F7F4FCE0107960E94D906CE01DD
:101CF00007960E944007CE0101960E94400710926D
:101D000060028AE10E94DD017C0181E0E816F104B5
:101D100001F567ED73E0CE0101960E94F30865E8D6
:101D200074E0CE0107960E94F308BE016F5F7F4FFB
:101D3000CE0107960E94D906CE0107960E94400761
:101D4000CE0101960E944007F092E405E092E3057F
:101D5000B4CF88E10E94DD01019709F0AECF67EDB5
:101D600073E0CE0107960E94F3086AE974E0CE01A1
:101D700001960E94F308BE01695F7F4FCE01019674
:101D80000E94D906CE0101960E944007CE01079617
:101D90000E944007D092E405C092E3058ECF8EEA00
:101DA00094E00E94A30763EC74E0CE0101960E94C8
:101DB000F30869ED74E0CE0107960E94F308BE01B6
:101DC0006F5F7F4FCE0107960E94D906CE0107961E
:101DD0000E944007CE0101960E94400760E070EC2F
:101DE00080E394E40E94040782EF92E00E943104B1
:101DF0008111FACF0E94CF0A6F83788789879A87EB
:101E0000BE01695F7F4F90E080E00E94E4090E947C
:101E100021066AEE74E083EC96E00E94F10861E02E
:101E200080E00E94CA064F81588569857A8522E044
:101E300083EC96E00E94EE078091E205882369F129
:101E400082EF94E00E94A3076F81788589859A8547
:101E500024E232E047EB52E00E942A0A60E070E0A0
:101E60008AE793E40E9404070E94CF0A69837A8379
:101E70008B839C83BE016F5F7F4F84E090E00E9464
:101E8000E4091093E4050093E30581E08093600288
:101E90008093E20584E095E032C06F817885898582
:101EA0009A8520E132E047E652E00E942A0A60E08B
:101EB00070E88DE094E40E94040785EF92E00E94B0
:101EC00031048111FACF0E94CF0A69837A838B8310
:101ED0009C83BE016F5F7F4F84E090E00E94E40925
:101EE00064EF71E080E090E00E94C0021093E4058E
:101EF0000093E30581E0809360028DE195E00E940C
:101F0000A307DBCE83E395E00E94A30763EC74E0B4
:101F1000CE0101960E94F30868E475E0CE010796B1
:101F20000E94F308BE016F5F7F4FCE0107960E94AB
:101F3000D906CE0107960E944007CE0101960E9465
:101F4000400760E070EC80E394E40E94040782EFB5
:101F500092E00E9431048111FACF0E94CF0A6F8370
:101F6000788789879A87BE01695F7F4F90E080E01C
:101F70000E94E4090E94210669E575E083EC96E081
:101F80000E94F10861E080E00E94CA064F815885F6
:101F900069857A8522E083EC96E00E94EE078091C5
:101FA000E205882349F182EF94E00E94A3076F8144
:101FB000788589859A852CE432E047E553E00E94D4
:101FC0002A0A60E070E08AE793E40E9404070E9416
:101FD000CF0A69837A838B839C83BE016F5F7F4FB7
:101FE00084E090E00E94E4091093E4050093E30587
:101FF00081E0809360024ECF6F81788589859A85D4
:1020000028E332E047E053E00E942A0A81E695E0A7
:102010000E94A30760E070E88DE094E40E9404074A
:1020200085EF92E00E9431048111FACF0E94CF0A1D
:1020300069837A838B839C83BE016F5F7F4F84E0CB
:1020400090E00E94E40964EF71E080E090E00E947B
:10205000C0021093E4050093E30581E080936002E1
:102060002CCE809160028823E9F063E775E0CE0111
:1020700001960E94F30861E875E0CE0107960E9480
:10208000F308BE016F5F7F4FCE0107960E94D9060D
:10209000CE0107960E944007CE0101960E9440079C
:1020A0001092600286E10E94DD01019709F0A3C051
:1020B000BE016B5E7F4F90E080E00E94BE09BE01D2
:1020C0006F5E7F4F84E090E00E94BE09BE01635FB7
:1020D0007F4F88E090E00E94BE0961E975E084EFDF
:1020E00095E00E94F1086D897E898F89988D0E9404
:1020F000DC086BE975E084EF95E00E94F1086989DE
:102100007A898B899C890E94DC0865EA75E084EFF6
:1021100095E00E94F1086D857E858F8598890E94E3
:10212000DC080E94210660E080E00E94CA0662EBA3
:1021300075E083EC96E00E94F10849895A896B8921
:102140007C8923E083EC96E00E94EE0760E088E063
:102150000E94CA0665EB75E083EC96E00E94F108E8
:1021600061E080E00E94CA0668EB75E083EC96E0CF
:102170000E94F1084D895E896F89788D20E083EC9B
:1021800096E00E94EE0761E089E00E94CA066EEBCD
:1021900075E083EC96E00E94F1084D855E856F85C1
:1021A000788922E083EC96E00E94EE0761E08FE000
:1021B0000E94CA0663E274E083EC96E00E94F10894
:1021C00061EC75E0CE0101960E94F30862ED75E0C6
:1021D000CE0107960E94F308BE016F5F7F4FCE01CC
:1021E00007960E94D906CE0107960E944007CE01AD
:1021F00001960E9440078AE10E94DD01019729F4BF
:102200001092E4051092E30528CF88E10E94DD01D9
:10221000019709F052CDF4CF0E944E1108F481E0ED
:102220000895E89409C097FB3EF4909580957095C9
:1022300061957F4F8F4F9F4F9923A9F0F92F96E912
:10224000BB279395F695879577956795B795F11187
:10225000F8CFFAF4BB0F11F460FF1BC06F5F7F4F24
:102260008F4F9F4F16C0882311F096E911C0772336
:1022700021F09EE8872F762F05C0662371F096E83F
:10228000862F70E060E02AF09A95660F771F881F0E
:10229000DAF7880F9695879597F90895990F0008B2
:1022A000550FAA0BE0E8FEEF16161706E807F90728
:1022B000C0F012161306E407F50798F0621B730BC3
:1022C000840B950B39F40A2661F0232B242B252B44
:1022D00021F408950A2609F4A140A6958FEF811DE7
:1022E000811D08950E9485110C94F6110E94E81139
:1022F00038F00E94EF1120F0952311F00C94DF11BB
:102300000C94E51111240C942A120E94071270F308
:10231000959FC1F3950F50E0551F629FF001729F8A
:10232000BB27F00DB11D639FAA27F00DB11DAA1F99
:10233000649F6627B00DA11D661F829F2227B00DE6
:10234000A11D621F739FB00DA11D621F839FA00D71
:10235000611D221F749F3327A00D611D231F849FC1
:10236000600D211D822F762F6A2F11249F57504018
:102370009AF0F1F088234AF0EE0FFF1FBB1F661F93
:10238000771F881F91505040A9F79E3F510580F05C
:102390000C94DF110C942A125F3FE4F3983ED4F3BF
:1023A000869577956795B795F795E7959F5FC1F700
:1023B000FE2B880F911D9695879597F9089597F9AB
:1023C0009F6780E870E060E008959FEF80EC0895DB
:1023D00000240A9416161706180609060895002404
:1023E0000A9412161306140605060895092E03947E
:1023F000000C11F4882352F0BB0F40F4BF2B11F4F2
:1024000060FF04C06F5F7F4F8F4F9F4F089557FD50
:102410009058440F551F59F05F3F71F04795880F52
:1024200097FB991F61F09F3F79F0879508951216E9
:1024300013061406551FF2CF4695F1DF08C0161695
:1024400017061806991FF1CF869571056105089446
:102450000895E894BB2766277727CB0197F908955D
:10246000F999FECF92BD81BDF89A992780B508955C
:10247000262FF999FECF1FBA92BD81BD20BD0FB6A0
:10248000F894FA9AF99A0FBE019608955058BB270E
:10249000AA270E945E120C94F6110E94E81138F0EF
:1024A0000E94EF1120F039F49F3F19F426F40C94A8
:1024B000E5110EF4E095E7FB0C94DF11E92F0E9483
:1024C000071258F3BA17620773078407950720F0BD
:1024D00079F4A6F50C9429120EF4E0950B2EBA2F80
:1024E000A02D0B01B90190010C01CA01A00111241A
:1024F000FF27591B99F0593F50F4503E68F11A16C6
:10250000F040A22F232F342F4427585FF3CF469556
:1025100037952795A795F0405395C9F77EF41F1678
:10252000BA0B620B730B840BBAF09150A1F0FF0F42
:10253000BB1F661F771F881FC2F70EC0BA0F621F2E
:10254000731F841F48F4879577956795B795F7951E
:102550009E3F08F0B0CF9395880F08F09927EE0FB3
:102560009795879508950E94C7120C94F6110E94C2
:10257000EF1158F00E94E81140F029F45F3F29F074
:102580000C94DF1151110C942A120C94E5110E9445
:10259000071268F39923B1F3552391F3951B550B5B
:1025A000BB27AA2762177307840738F09F5F5F4F26
:1025B000220F331F441FAA1FA9F335D00E2E3AF065
:1025C000E0E832D091505040E695001CCAF72BD07D
:1025D000FE2F29D0660F771F881FBB1F26173707CE
:1025E0004807AB07B0E809F0BB0B802DBF01FF2700
:1025F00093585F4F3AF09E3F510578F00C94DF11ED
:102600000C942A125F3FE4F3983ED4F386957795B5
:102610006795B795F7959F5FC9F7880F911D9695B8
:10262000879597F90895E1E0660F771F881FBB1F14
:10263000621773078407BA0720F0621B730B840BC1
:10264000BA0BEE1F88F7E09508950E942C1368944A
:10265000B1110C942A1208950E940F1288F09F570E
:1026600098F0B92F9927B751B0F0E1F0660F771FB6
:10267000881F991F1AF0BA95C9F714C0B13091F0AC
:102680000E942912B1E008950C942912672F782F27
:102690008827B85F39F0B93FCCF386957795679571
:1026A000B395D9F73EF490958095709561957F4FDD
:1026B0008F4F9F4F08950E944E1108F48FEF089599
:1026C00019F416F40C94E5110C94AB130E940F123C
:1026D000B8F39923C9F3B6F39F57550B87FF0E94B0
:1026E000B9130024A0E640EA9001805856959795CA
:1026F00028F4805C660F771F881F20F026173707A5
:10270000480730F4621B730B840B202931294A2BB4
:10271000A69517940794202531254A2758F7660F68
:10272000771F881F20F026173707480730F4620B01
:10273000730B840B200D311D411DA09581F7B9014C
:10274000842F9158880F9695879508950E944E1171
:10275000880B990B08959F3F31F0915020F4879595
:1027600077956795B795880F911D9695879597F9F9
:10277000089591505040660F771F881FD2F7089533
:10278000A1E21A2EAA1BBB1BFD010DC0AA1FBB1F75
:10279000EE1FFF1FA217B307E407F50720F0A21BE7
:1027A000B30BE40BF50B661F771F881F991F1A9454
:1027B00069F760957095809590959B01AC01BD017E
:1027C000CF010895EE0FFF1F881F8BBF0790F69172
:1027D000E02D19940F931F93CF93DF9382309105CF
:1027E00010F482E090E0E091DD06F091DE0630E04A
:1027F00020E0B0E0A0E0309799F42115310509F40C
:102800004AC0281B390B24303105D8F58A819B81B9
:102810006115710589F1FB0193838283FE0111C06B
:10282000408151810281138148175907E0F0481710
:10283000590799F4109761F012960C93129713961A
:102840001C933296CF01DF91CF911F910F91089584
:102850000093DD061093DE06F4CF2115310551F00B
:102860004217530738F0A901DB019A01BD01DF01CE
:10287000F801C1CFEF01F9CF9093DE068093DD061A
:10288000CDCFFE01E20FF31F8193919322503109C6
:1028900039832883D7CF2091DB063091DC06232BA8
:1028A00041F420916302309164023093DC0620935E
:1028B000DB0620916102309162022115310541F45D
:1028C0002DB73EB74091650250916602241B350B2F
:1028D000E091DB06F091DC06E217F307A0F42E1B73
:1028E0003F0B2817390778F0AC014E5F5F4F241774
:1028F000350748F04E0F5F1F5093DC064093DB0610
:10290000819391939FCFF0E0E0E09CCFCF93DF9352
:102910000097E9F0FC01329713821282A091DD0644
:10292000B091DE06ED0130E020E01097A1F42081A7
:102930003181820F931F2091DB063091DC0628172E
:10294000390709F061C0F093DC06E093DB06DF9104
:10295000CF910895EA01CE17DF07E8F54A815B8140
:102960009E0141155105B1F7E901FB83EA834991C5
:102970005991C40FD51FEC17FD0761F48081918137
:102980000296840F951FE901998388838281938140
:102990009B838A83F0E0E0E012968D919C911397DF
:1029A0000097B9F52D913C911197CD010296820FB8
:1029B000931F2091DB063091DC062817390739F682
:1029C000309751F51092DE061092DD06B093DC06CA
:1029D000A093DB06BCCFD383C28340815181840F97
:1029E000951FC817D90761F44E5F5F4F88819981A1
:1029F000480F591F518340838A819B81938382832F
:102A00002115310509F0B0CFF093DE06E093DD0625
:102A10009ECFFD01DC01C0CF13821282D7CF4F922F
:102A20005F926F927F928F929F92AF92BF92CF925E
:102A3000DF92EF92FF920F931F93CF93DF938C015E
:102A4000009799F4CB01DF91CF911F910F91FF90E7
:102A5000EF90DF90CF90BF90AF909F908F907F903E
:102A60006F905F904F900C94EA13FC01E60FF71FF4
:102A70009C0122503109E217F30708F4AEC0D901D6
:102A8000CD91DC911197C617D70720F1C530D1053C
:102A900078F0CE0104978617970750F0C61BD70B26
:102AA0002297C193D1936D937C93CF010E9486149A
:102AB000C801DF91CF911F910F91FF90EF90DF90B0
:102AC000CF90BF90AF909F908F907F906F905F90CE
:102AD0004F9008955B01AC1ABD0A4C018C0E9D1EEF
:102AE000A091DD06B091DE06512C412CF12CE12C99
:102AF000109731F58091DB069091DC0688159905D9
:102B000009F05CC04616570608F058C08091610273
:102B100090916202009741F48DB79EB74091650293
:102B200050916602841B950BE817F90708F055C011
:102B3000F093DC06E093DB06F90171836083B8CF84
:102B40008D919C91119712966C90129713967C9090
:102B50001397A815B90559F56C0142E0C40ED11CB4
:102B6000CA14DB0420F1AC014A195B09DA011296A0
:102B7000159780F06282738251834083D9016D93EF
:102B80007C93E114F10471F0D7011396FC93EE935A
:102B900012978ECF22968C0F9D1FF901918380830F
:102BA000F301EFCFF093DE06E093DD0681CF481608
:102BB000590608F42C017D01D3019ACFCB010E9464
:102BC000EA137C01009749F0AE01B8010E94F015AC
:102BD000C8010E94861487016BCF10E000E068CF27
:102BE000FB01DC0102C001900D9241505040D8F72A
:102BF0000895FB01DC0101900D920020E1F708959A
:102C0000F894FFCFF802F802F802F802F802F8028E
:102C1000F802F80200006040000020400000E03FA1
:102C2000295CAF3F295C8F3F0000C0400000A040FE
:102C300000000040000040400000803F000048438A
:102C40000000A04200008C416666B6400000404093
:102C50000000C8420000803F0000C03FCDCC2C40A7
:102C60000000B041010000DF06800000000100010B
:102C70000000000000000001000100000000000151
:102C80000000000100000000000000010001000140
:102C9000000100000001000100000000000100012F
:102CA0000000000100000000000000000001000121
:102CB0000001000100000000000000000000000012
:102CC0000000000000000000000000000000000103
:102CD00000000001000000000000000100010001F0
:102CE00000010000000100010000000000010001DF
:102CF00000000001000000000000000100010001D0
:102D000000010001000100010001000100000000BD
:102D100000000000000000000001000100000000B1
:102D200000000001000000000000000100000000A1
:102D30000001000000000001000000000001000090
:102D40000000000000010000000000000001000081
:102D5000000000010000000000000001000100016F
:102D6000000100010001000100010001000000005D
:102D70000000000100000000000000010000000051
:102D80000001000000000001000000000001000040
:102D90000000000000010000000000000000000032
:102DA000000000000000000000000002000300041A
:102DB0000005000600080009000A00000000008F5E
:102DC00003F9022603DC035703350349030000001F
:102DD00000FE06F9022E042D040D0A006E616E003D
:102DE000696E66006F76660043616D6269616E644C
:102DF0006F20726564205A0059414B4F4220444570
:102E00005445435441444F0059414B4F4220434F96
:102E10004E45435441444F0059454E444F204D4F79
:102E2000444F20413120594B0059414B4F422044DF
:102E30004553434F4E45435441444F0052657369D7
:102E40007374656E63696120657176206775617260
:102E5000646164612E005052454E4449454E444FD2
:102E60002052454C4553002C2000312E2041312C5E
:102E700020322E204132004172656173206465204A
:102E8000636F6E746163746F00436F6E6669672E63
:102E900020413D2038323030206D6D5E3200436F6E
:102EA0006E6669672E20413D20313030206D6D5EA9
:102EB0003200456E7472616E646F206120657374B8
:102EC00061646F204131005265616C697A616E64A2
:102ED0006F206D65646963696F6E65730045737417
:102EE000617320656E206D6F646F20413100566FF5
:102EF0006C74616A650043414D4249414E444F2024
:102F00005A2041205A594B0053616C69656E646FB9
:102F10002064652065737461646F20413120594BD2
:102F20000053616C69656E646F206465206573741D
:102F300061646F20413100456E7472616E646F2070
:102F4000612065737461646F204132004573746160
:102F50007320656E206D6F646F20413200766F6C58
:102F600074616A65004C6579656E646F20636F7289
:102F70007269656E74650050726573696F6E652065
:102F80007369672E005265766973616E646F2064A1
:102F900061746F7300566F6C746167653A2000430B
:102FA000757272656E743A2000526573697374614C
:102FB0006E63653A2000413A006D410056726D73B0
:102FC0003A005A3A0069722061206D656E753A20A8
:102FD00041312D4132005265706574697220502E66
:062FE000205369670000A8
:020000040003F7
:10E000000D9489F10D94B2F10D94B2F10D94B2F129
:10E010000D94B2F10D94B2F10D94B2F10D94B2F1F0
:10E020000D94B2F10D94B2F10D94B2F10D94B2F1E0
:10E030000D94B2F10D94B2F10D94B2F10D94B2F1D0
:10E040000D94B2F10D94B2F10D94B2F10D94B2F1C0
:10E050000D94B2F10D94B2F10D94B2F10D94B2F1B0
:10E060000D94B2F10D94B2F10D94B2F10D94B2F1A0
:10E070000D94B2F10D94B2F10D94B2F10D94B2F190
:10E080000D94B2F10D94B2F10D94B2F10D94B2F180
:10E090000D94B2F10D94B2F10D94B2F10D94B2F170
:10E0A0000D94B2F10D94B2F10D94B2F10D94B2F160
:10E0B0000D94B2F10D94B2F10D94B2F10D94B2F150
:10E0C0000D94B2F10D94B2F10D94B2F10D94B2F140
:10E0D0000D94B2F10D94B2F10D94B2F10D94B2F130
:10E0E0000D94B2F141546D656761323536300041AF
:10E0F000726475696E6F206578706C6F72657220DE
:10E1000073746B3530305632206279204D4C530099
:10E11000426F6F746C6F616465723E004875683F52
:10E1200000436F6D70696C6564206F6E203D200048
:10E130004350552054797065202020203D20005FF9
:10E140005F4156525F415243485F5F3D2000415658
:10E1500052204C696243205665723D20004743437C
:10E160002056657273696F6E203D20004350552024
:10E1700049442020202020203D20004C6F7720663D
:10E18000757365202020203D20004869676820665F
:10E190007573652020203D200045787420667573D6
:10E1A00065202020203D20004C6F636B2066757336
:10E1B000652020203D20004D617220203720323024
:10E1C000313300312E362E3800342E332E350056A2
:10E1D00023202020414444522020206F7020636F70
:10E1E00064652020202020696E73747275637469E1
:10E1F0006F6E2061646472202020496E74657272B3
:10E20000757074006E6F20766563746F7200726A49
:10E210006D702020006A6D70200057686174207056
:10E220006F72743A00506F7274206E6F7420737541
:10E2300070706F72746564004D7573742062652030
:10E2400061206C6574746572002000577269747483
:10E25000696E672045450052656164696E672045B7
:10E26000450045452065727220636E743D00504F35
:10E27000525400303D5A65726F2061646472003FF1
:10E280003D43505520737461747300403D454550C3
:10E29000524F4D207465737400423D426C696E6B41
:10E2A000204C454400453D44756D70204545505215
:10E2B0004F4D00463D44756D7020464C415348001B
:10E2C000483D48656C70004C3D4C69737420492F83
:10E2D0004F20506F72747300513D51756974005234
:10E2E0003D44756D702052414D00563D73686F7707
:10E2F00020696E7465727275707420566563746FF0
:10E30000727300593D506F727420626C696E6B00BD
:10E310002A0011241FBECFEFD1E2DEBFCDBF01E046
:10E320000CBF12E0A0E0B2E0EEE1FDEF03E00BBFB6
:10E3300002C007900D92A030B107D9F712E0A0E01B
:10E34000B2E001C01D92AE30B107E1F70F9460F367
:10E350000D948DFE01E20EBF0FEF0DBF11241FBE05
:10E360000D9460F30D9400F020E030E040ED57E0B4
:10E3700005C0FA013197F1F72F5F3F4F2817390792
:10E38000C0F308959C01260F311DC901A0E0B0E043
:10E390002F5F3F4FABBFFC018791882361F08093D3
:10E3A000C6008091C00086FFFCCF8091C0008064D1
:10E3B0008093C000EACF08958DE08093C6008091DD
:10E3C000C00086FFFCCF8091C00080648093C000B5
:10E3D0008AE08093C6008091C00086FFFCCF8091C8
:10E3E000C00080648093C00008950F94C2F10F9420
:10E3F000DCF10895FC019081992359F09093C600B7
:10E400008091C00086FFFCCF8091C0008064809323
:10E41000C0003196992379F70895282F982F929567
:10E420009F70892F805D8A3308F0895F8093C600D2
:10E430008091C00086FFFCCF8091C00080648093F3
:10E44000C000822F8F70982F905D9A3308F0995FEB
:10E450009093C6008091C00086FFFCCF8091C000E1
:10E4600080648093C00008959C01FB01853691056E
:10E470001CF46330710594F0C90164E670E00F94F8
:10E480002EFE605D7F4F6093C6008091C00086FFC6
:10E49000FCCF8091C00080648093C0002B30310598
:10E4A00014F43297B4F0C90164E670E00F942EFEC4
:10E4B0006AE070E00F942EFE605D7F4F6093C600AF
:10E4C0008091C00086FFFCCF8091C0008064809363
:10E4D000C000C9016AE070E00F942EFEC0968093E0
:10E4E000C6008091C00086FFFCCF8091C000806490
:10E4F0008093C00008951F93182F8EE692EE60E07F
:10E500000F94C2F11093C6008091C00086FFFCCF2B
:10E510008091C00080648093C0000F94DCF11F9153
:10E5200008952F923F924F925F926F927F928F92B7
:10E530009F92AF92BF92CF92DF92EF92FF920F9392
:10E540001F93DF93CF93CDB7DEB762970FB6F894E2
:10E55000DEBF0FBECDBF382E622ECA01DB015C01CB
:10E560006D01772420E2222E2E010894411C511CBB
:10E570008BC081E0A81680E0B80681E0C80680E084
:10E58000D80628F0C601AA27BB270F940DF2BB2797
:10E59000AD2D9C2D8B2D0F940DF28A2D0F940DF225
:10E5A0002092C6008091C00086FFFCCF8091C00001
:10E5B00080648093C0009DE29093C6008091C0006B
:10E5C00086FFFCCF8091C00080648093C0002092C1
:10E5D000C6008091C00086FFFCCF8091C00080649F
:10E5E0008093C00019828601750188249924A1E0D6
:10E5F0003A1651F03A1620F0B2E03B1661F409C029
:10E600000BBFF701779007C0C7010F9477FE782EF4
:10E6100002C0F7017080872D0F940DF22092C60082
:10E620008091C00086FFFCCF8091C0008064809301
:10E63000C000872D8052F401EF70F0708F3520F408
:10E64000E40DF51D708204C0E40DF51D8EE280839B
:10E650000894E11CF11C011D111D0894811C911CE2
:10E6600090E18916910409F0C2CF80E190E0A0E02A
:10E67000B0E0A80EB91ECA1EDB1E198AC2010F9493
:10E68000FAF10F94DCF16A94662009F072CF629679
:10E690000FB6F894DEBF0FBECDBFCF91DF911F91B3
:10E6A0000F91FF90EF90DF90CF90BF90AF909F9031
:10E6B0008F907F906F905F904F903F902F90089534
:10E6C0002F923F924F925F926F927F928F929F9282
:10E6D000AF92BF92CF92DF92EF92FF920F931F9370
:10E6E000DF93CF93CDB7DEB7CD53D1400FB6F894BB
:10E6F000DEBF0FBECDBF01E20EBF0FEF0DBF94B75F
:10E70000F894A89514BE80916000886180936000A1
:10E7100010926000789493FF05C0E0910002F091A0
:10E7200001021995279A2F9A8091C00082608093E8
:10E73000C00080E18093C40088E18093C1000000A4
:10E74000EE24FF24870144E0A42EB12CCC24DD2448
:10E7500024C0C5010197F1F70894E11CF11C011DCB
:10E76000111D21E2E2162EE4F20620E0020720E06D
:10E77000120718F031E0C32ED12CC801B70127ECE5
:10E780003BE140E050E00F9441FE611571058105C9
:10E79000910519F485B1805885B98091C00087FD35
:10E7A00003C0C114D104A9F2A6014F5F5F4FC25E3E
:10E7B000DE4F59834883CE51D140C25EDE4F8881FF
:10E7C0009981CE51D140019711F00D9410FEC05D9A
:10E7D000DE4F19821882C053D14060E0C15DDE4F28
:10E7E0001882CF52D14088249924C35DDE4F19820C
:10E7F0001882CD52D140C05EDE4F188219821A8233
:10E800001B82C052D140CE5CDE4F188219821A8220
:10E810001B82C253D140EE24FF2487010BBFF701B6
:10E8200007911691C45CDE4F19830883CC53D14005
:10E830000D940BFEC25EDE4F28813981CE51D1404E
:10E840002130310509F52091C600C25EDE4F1982E4
:10E850001882CE51D14022C02F5F3F4F4F4F5F4FA4
:10E86000213082E138078AE7480780E0580780F0C6
:10E87000C45CDE4FE881F981CC53D140EF5FFF4F9C
:10E8800019F0EE27FF27099420E030E040E050E047
:10E890008091C00087FFE0CF2091C600C35DDE4FAE
:10E8A00048815981CD52D1404F5F5F4FC35DDE4FEC
:10E8B00059834883CD52D140213209F063C64A3092
:10E8C000510508F05FC60894811C911C53E0851621
:10E8D000910409F059C600E010E018C081E280936D
:10E8E000C6008091C00086FFFCCF8091C00080648C
:10E8F0008093C0002F5F3F4F2931310579F70F9486
:10E90000DCF10F5F1F4F0530110519F020E030E0FA
:10E91000E5CF10920A0210920B0210920C02109294
:10E920000D02109206021092070210920802109235
:10E930000902109202021092030210920402109235
:10E9400005028FEE90EE60E00F94F5F180E191EE1C
:10E9500060E00F94C2F18091C00087FFFCCF9091DE
:10E96000C600903608F09F759032B8F09093C600BC
:10E970008091C00086FFFCCF8091C00080648093AE
:10E98000C000A0E2A093C6008091C00086FFFCCF2B
:10E990008091C00080648093C000983409F4D7C18E
:10E9A0009934B8F4923409F459C1933458F490333B
:10E9B00019F1903308F4E3C59F33A1F1903409F0C5
:10E9C000DEC5BDC0953409F470C1963409F0D7C5D1
:10E9D00098C1923509F42BC2933538F49C3409F46C
:10E9E000F5C1913509F0CBC518C2963509F445C279
:10E9F000993509F0C4C567C483E792EE62E00F94CD
:10EA0000F5F110920602109207021092080210927D
:10EA1000090210920A0210920B0210920C0210923C
:10EA20000D0213C18FE792EE62E00F94F5F18FEEC5
:10EA300090EE60E00F94F5F181E291EE60E00F94CA
:10EA4000C2F187EB91EE60E00F94F5F180E391EE77
:10EA500060E00F94C2F184EE90EE60E00F94F5F167
:10EA60008FE391EE60E00F94C2F186E090E061E008
:10EA700070E00F9434F20F94DCF18DE591EE60E0DC
:10EA80000F94C2F189EC91EE60E00F94F5F18EE401
:10EA900091EE60E00F94C2F183EC91EE60E00F9490
:10EAA000F5F18CE691EE60E00F94C2F18EE10F94E7
:10EAB0000DF288E90F940DF281E00F940DF20F949E
:10EAC000DCF18BE791EE60E00F94C2F119E0E0E039
:10EAD000F0E010935700E4918E2F0F940DF20F94F5
:10EAE000DCF18AE891EE60E00F94C2F1E3E0F0E03F
:10EAF00010935700E4918E2F0F940DF20F94DCF1D8
:10EB000089E991EE60E00F94C2F1E2E0F0E0109349
:10EB10005700E4918E2F0F940DF20F94DCF188EAE8
:10EB200091EE60E00F94C2F1E1E0F0E01093570045
:10EB30001491812F0F940DF20F94DCF107CF8BE825
:10EB400092EE62E00F94F5F18BE492EE60E00F94A8
:10EB5000F5F10F94DCF100E010E019C0C8016F2D51
:10EB60000F947FFEFF2031F489E492EE60E00F9471
:10EB7000C2F10BC0F092C6008091C00086FFFCCFAE
:10EB80008091C00080648093C0000F5F1F4FC80158
:10EB900081519F41A0E0B0E0ABBFFC01F790BAE229
:10EBA000FB1621F0E2E000301E07C1F60F94DCF105
:10EBB0000F94DCF187E592EE60E00F94F5F10F948D
:10EBC000DCF1CC24DD2400E010E01EC0C8010F946D
:10EBD00077FEF82E882331F489E492EE60E00F94FA
:10EBE000C2F10BC08093C6008091C00086FFFCCFAD
:10EBF0008091C00080648093C000FE1419F00894D6
:10EC0000C11CD11C0F5F1F4FC80181519F41A0E063
:10EC1000B0E0ABBFFC01E790FAE2EF1621F022E092
:10EC20000030120799F60F94DCF10F94DCF182E6C4
:10EC300092EE60E00F94C2F1C60161E070E00F94C3
:10EC400034F20F94DCF10F94DCF110920202109276
:10EC50000302109204021092050278CE89E992EE26
:10EC600062E00F94F5F1279A2F9A16C02F9880E052
:10EC700090E0E0EDF7E03197F1F7019684369105E9
:10EC8000C1F72F9A80E090E0E0EDF7E03197F1F7DF
:10EC9000019684369105C1F78091C00087FFE6CFC9
:10ECA0008091C00087FFFCCF64C485EA92EE62E0E9
:10ECB0000F94F5F140910202509103026091040219
:10ECC0007091050281E020E10F9491F2809102029F
:10ECD00090910302A0910402B091050280509F4FD1
:10ECE000AF4FBF4F8093020290930302A0930402A0
:10ECF000B093050280509041A040B04008F426CE69
:10ED0000A4CF83EB92EE62E00F94F5F140910602FE
:10ED100050910702609108027091090280E020E1A1
:10ED20000F9491F28091060290910702A09108023F
:10ED3000B091090280509F4FAF4FBF4F80930602A2
:10ED400090930702A0930802B0930902FFCD80ECD4
:10ED500092EE62E00F94F5F183E792EE60E00F949B
:10ED6000F5F18FE792EE60E00F94F5F18BE892EE0B
:10ED700060E00F94F5F189E992EE60E00F94F5F10F
:10ED800085EA92EE60E00F94F5F183EB92EE60E09D
:10ED90000F94F5F180EC92EE60E00F94F5F187ECC2
:10EDA00092EE60E00F94F5F188ED92EE60E00F9442
:10EDB000F5F18FED92EE60E00F94F5F18AEE92EEB0
:10EDC00060E00F94F5F183E093EEBDCD87EC92EE19
:10EDD00062E00F94F5F181E40F947BF282E40F94EA
:10EDE0007BF283E40F947BF284E40F947BF285E45E
:10EDF0000F947BF286E40F947BF287E40F947BF20E
:10EE000088E40F947BF28AE40F947BF28BE40F94F6
:10EE10007BF28CE40F947BF299CD88ED92EE62E068
:10EE20000F94F5F1772473948824992409C48FED05
:10EE300092EE62E00F94F5F140910A0250910B02BC
:10EE400060910C0270910D0282E020E10F9491F22A
:10EE500080910A0290910B02A0910C02B0910D02D8
:10EE600080509F4FAF4FBF4F80930A0290930B0289
:10EE7000A0930C02B0930D0269CD8AEE92EE62E08F
:10EE80000F94F5F184EE90EE60E00F94F5F18FECC5
:10EE900091EE60E00F94F5F1662477244301CC5D98
:10EEA000DE4F19821882C452D140D401C301B695F5
:10EEB000A79597958795CA5DDE4F88839983AA8326
:10EEC000BB83C652D140CC5DDE4FA881B981C4520C
:10EED000D1401196CC5DDE4FB983A883C452D14096
:10EEE000CD0162E070E00F9434F2B0E2B093C6005E
:10EEF0008091C00086FFFCCF8091C0008064809329
:10EF0000C000EDE2E093C6008091C00086FFFCCF18
:10EF10008091C00080648093C000F0E2F093C6004E
:10EF20008091C00086FFFCCF8091C00080648093F8
:10EF3000C000CA5DDE4FE880F9800A811B81C6529D
:10EF4000D140BB27A12F902F8F2D0F940DF2CA5DBA
:10EF5000DE4F8881C652D1400F940DF2B0E2FB2EF5
:10EF6000F092C6008091C00086FFFCCF8091C00067
:10EF700080648093C0000DE30093C6008091C000C0
:10EF800086FFFCCF8091C00080648093C00010E2B7
:10EF90001093C6008091C00086FFFCCF8091C00016
:10EFA00080648093C0008BBEF3012791C65DDE4F65
:10EFB0002883CA52D140A22EBB24CC24DD2408943D
:10EFC000611C711C811C911C8BBEF3018791282E42
:10EFD0003324442455240894611C711C811C911C09
:10EFE0008BBEF3013791C55DDE4F3883CB52D140E4
:10EFF0000894611C711C811C911C8BBEF30147910C
:10F00000C45DDE4F4883CC52D140ADEFEA2EAFEF66
:10F01000FA2EAFEF0A2FAFEF1A2F6E0C7F1C801E57
:10F02000911E142D032DF22CEE24EA0CFB1C0C1D5A
:10F030001D1D0F940DF220E22093C6008091C000A8
:10F0400086FFFCCF8091C00080648093C000C65DC5
:10F05000DE4F8881CA52D1400F940DF230E23093D6
:10F06000C6008091C00086FFFCCF8091C000806404
:10F070008093C000C45DDE4F8881CC52D1400F9494
:10F080000DF240E24093C6008091C00086FFFCCFA5
:10F090008091C00080648093C000C55DDE4F888190
:10F0A000CB52D1400F940DF250E25093C6008091A4
:10F0B000C00086FFFCCF8091C00080648093C000B8
:10F0C0008FEFE8168FEFF80680E0080780E018075A
:10F0D00031F484E092EE60E00F94C2F1DFC0D80119
:10F0E000C7018070907CA070B0708050904CA040A0
:10F0F000B040D1F52FEF3FE340E050E0E222F322B1
:10F1000004231523CA5DDE4FA880B980CA80DB8046
:10F11000C652D140AE0CBF1CC01ED11EAA0CBB1CD7
:10F12000CC1CDD1C8EE092EE60E00F94C2F1BB2798
:10F13000A12F902F8F2D0F940DF28E2D0F940DF285
:10F1400030E23093C6008091C00086FFFCCF8091F2
:10F15000C00080648093C0004EE34093C60080915D
:10F16000C00086FFFCCF87C08EE09EEFA0E0B0E03D
:10F17000E822F9220A231B239CE0E91694E9F90608
:10F1800090E0090790E0190709F088C0C45DDE4FE0
:10F19000A881CC52D140EA2EFF2400E010E0102FCD
:10F1A0000F2DFE2CEE24C55DDE4FB881CB52D14031
:10F1B000EB0EF11C011D111DD601C501817090706F
:10F1C000A070B070DC0199278827E80EF91E0A1F8D
:10F1D0001B1F20EF30E040E050E0A222B322C42207
:10F1E000D52241E1AA0CBB1CCC1CDD1C4A95D1F7F1
:10F1F000EA0CFB1C0C1D1D1D81E090E0A0E0B0E0BE
:10F20000282239224A225B2235E1220C331C441C7D
:10F21000551C3A95D1F7E20CF31C041D151D57013E
:10F220006801AA0CBB1CCC1CDD1C85E192EE60E0E1
:10F230000F94C2F1C801AA27BB270F940DF2BB2778
:10F24000A12F902F8F2D0F940DF28E2D0F940DF274
:10F2500090E29093C6008091C00086FFFCCF809121
:10F26000C00080648093C000AEE3A093C60080918C
:10F27000C00086FFFCCF8091C00080648093C000F6
:10F28000C601AA27BB270F940DF2BB27AD2D9C2DDD
:10F290008B2D0F940DF28A2D0F940DF20F94DCF14B
:10F2A000CC5DDE4FE881F981C452D140F99709F471
:10F2B0004DCBF4E0EF2EF12C012D112D6E0C7F1CA7
:10F2C000801E911EF2CD83E093EE62E00F94F5F183
:10F2D0008AE192EE60E00F94C2F18091C00087FF56
:10F2E000FCCF1091C6001F751093C6008091C0001E
:10F2F00086FFFCCF8091C00080648093C0000F9493
:10F30000DCF1812F81548A3108F036C1163409F4BA
:10F3100095C0173490F4133409F44EC0143430F40B
:10F320001134F1F0123409F01DC130C0143409F465
:10F3300059C0153409F016C16BC01A3409F4C4C0A1
:10F340001B3438F4173409F48FC0183409F00AC19B
:10F35000A1C01B3409F4D2C01C3409F003C1E8C0B9
:10F360008FEF81B90DC082B1809582B980E090E0C5
:10F37000E0EDF7E03197F1F70196883C9105C1F790
:10F380008091C00087FFEFCF12B8EFC08FEF84B934
:10F390000DC085B1809585B980E090E0E0EDF7E0A3
:10F3A0003197F1F70196883C9105C1F78091C00033
:10F3B00087FFEFCF15B8D9C08FEF87B90DC088B1DF
:10F3C000809588B980E090E0E0EDF7E03197F1F7C3
:10F3D0000196883C9105C1F78091C00087FFEFCF6F
:10F3E00018B8C3C08FEF8AB90DC08BB180958BB9A7
:10F3F00080E090E0E0EDF7E03197F1F70196883C8E
:10F400009105C1F78091C00087FFEFCF1BB8ADC059
:10F410008FEF8DB90DC08EB180958EB980E090E0F0
:10F42000E0EDF7E03197F1F70196883C9105C1F7DF
:10F430008091C00087FFEFCF1EB897C08FEF80BBD1
:10F440000DC081B3809581BB80E090E0E0EDF7E0F6
:10F450003197F1F70196883C9105C1F78091C00082
:10F4600087FFEFCF11BA81C08FEF83BB0DC084B38C
:10F47000809584BB80E090E0E0EDF7E03197F1F714
:10F480000196883C9105C1F78091C00087FFEFCFBE
:10F4900014BA6BC08FEF809301010FC080910201FD
:10F4A00080958093020180E090E0E0EDF7E03197F5
:10F4B000F1F70196883C9105C1F78091C00087FF64
:10F4C000EDCF1092020151C08FEF809304010FC065
:10F4D0008091050180958093050180E090E0E0ED4A
:10F4E000F7E03197F1F70196883C9105C1F78091DB
:10F4F000C00087FFEDCF1092050137C08FEF8093DA
:10F5000007010FC08091080180958093080180E079
:10F5100090E0E0EDF7E03197F1F70196883C910536
:10F52000C1F78091C00087FFEDCF109208011DC088
:10F530008FEF80930A010FC080910B01809580931B
:10F540000B0180E090E0E0EDF7E03197F1F70196F4
:10F55000883C9105C1F78091C00087FFEDCF1092E4
:10F560000B0103C085E292EEEEC98091C00087FFD7
:10F57000FCCF8091C600EAC988E392EEE4C98CE131
:10F5800091EEE1C988249924933011F1943028F444
:10F59000913089F09230B8F408C0953061F195301F
:10F5A000F0F0963009F048C043C02B3109F042C951
:10F5B00091E06BE13FC96227C15DDE4F2883CF52E6
:10F5C000D14092E037C9B22FA0E0622793E032C960
:10F5D000822F90E0A82BB92B622794E02BC92E3004
:10F5E00009F039C3622795E0C05DDE4F19821882A9
:10F5F000C053D1401FC9E1E0F0E0EC0FFD1FC05D3A
:10F60000DE4F08811981C053D140E00FF11F2083E4
:10F610000F5F1F4FC05DDE4F19830883C053D14079
:10F6200062270A171B0709F005C9D80196E002C92D
:10F63000261709F010C303C0973009F0FBC87724E0
:10F640009981933109F412C19431C8F4963009F4C8
:10F65000D8C0973050F4923009F406C1933009F4C1
:10F660006DC0913009F059C253C0913109F477C08F
:10F67000923108F0BBC0903109F04FC2F5C098310B
:10F6800009F487C0993150F4953109F4EFC09531F0
:10F6900008F4C6C1963109F040C2C2C19A3109F4DA
:10F6A0006CC09A3108F491C09B3109F45BC09D3164
:10F6B00009F033C29D81903359F48F81882311F46E
:10F6C0009EE11CC0813011F091E018C098E916C08D
:10F6D000892F807591F0903539F4E0E0F0E089E011
:10F6E0008093570094910AC0983539F4E3E0F0E034
:10F6F00089E080935700949101C090E01A821B82A8
:10F700008D818C831D829E831F8227E030E009C299
:10F710001A8288E08B8381E48C8386E58D8382E581
:10F720008E8389E48F8383E5888780E589878FE5E9
:10F730008A8782E38B872BE030E0F3C18A818139AD
:10F7400041F0823941F0803911F48FE005C080E04A
:10F7500003C082E001C08AE01A828B8344C0772410
:10F76000739482C08D81882311F48EE12CC0813086
:10F7700011F081E028C088E926C01A82E1E0F0E0BB
:10F7800089E08093570084918B831C8224E030E0D1
:10F79000C8C18B81803589F48C81883039F4E2E0EE
:10F7A000F0E089E08093570084910DC0E0E0F0E044
:10F7B00089E080935700849106C0E3E0F0E089E09F
:10F7C0008093570084911A82DFCF8D81836C99E0FA
:10F7D000E1E0F0E0082E90935700E89507B600FCB2
:10F7E000FDCF1A821B8223E030E09BC180EC8A832C
:10F7F000CE5CDE4F188219821A821B82C253D1401E
:10F800008EC18A8190E0A0E0B0E0582F44273327D2
:10F8100022278B8190E0A0E0B0E0DC0199278827C7
:10F82000282B392B4A2B5B2B8D8190E0A0E0B0E098
:10F83000282B392B4A2B5B2B8C8190E0A0E0B0E089
:10F84000BA2FA92F982F8827282B392B4A2B5B2BCF
:10F85000220F331F441F551FC05EDE4F288339839C
:10F860004A835B83C052D1401A8259C13A81C95C34
:10F87000DE4F3883C753D140CA5CDE4F1882C6536F
:10F88000D1408B81C82EDD24CA5CDE4F488159816E
:10F89000C653D140C42AD52A933109F082C0CE5C28
:10F8A000DE4F88819981AA81BB81C253D1408050AB
:10F8B000904CA340B04030F583E0CE5CDE4FE88052
:10F8C000F9800A811B81C253D140F70100935B008C
:10F8D00080935700E89507B600FCFDCFCE5CDE4F65
:10F8E000088119812A813B81C253D14000501F4FAA
:10F8F0002F4F3F4FCE5CDE4F088319832A833B8313
:10F90000C253D140C05EDE4F488159816A817B81FC
:10F91000C052D140DE011B9631E08C9111962C91A2
:10F9200011971296C75CDE4F2883C953D140C85C3B
:10F93000DE4F1882C853D14090E0C85CDE4FE881AA
:10F94000F981C853D1408E2B9F2B0C01FA01609393
:10F950005B0030935700E89511244E5F5F4F6F4F67
:10F960007F4F0EEFE02E0FEFF02ECE0CDF1CC114F8
:10F97000D10499F685E0C05EDE4F088119812A81A5
:10F980003B81C052D140F80120935B008093570027
:10F99000E89507B600FCFDCF81E180935700E8951C
:10F9A00035C0C05EDE4F88819981AA81BB81C0527B
:10F9B000D140B695A795979587957C018601ABE0D8
:10F9C000AA2EB12CAC0EBD1E0BC0D5016D915D01F0
:10F9D000C7010F947FFE0894E11CF11C01501040F8
:10F9E0000115110591F7A60160E070E0440F551F65
:10F9F000661F771FC05EDE4FE880F9800A811B8199
:10FA0000C052D1404E0D5F1D601F711F1A82C05E33
:10FA1000DE4F488359836A837B83C052D1407FC0C5
:10FA2000FA80C55CDE4FF882CB53D140C65CDE4F16
:10FA30001882CA53D1408B81C82EDD24C65CDE4FAC
:10FA400008811981CA53D140C02AD12A1A828981DA
:10FA5000BE016D5F7F4F843121F59601C05EDE4FA0
:10FA6000E880F9800A811B81C052D1400BBFF701A9
:10FA700087919691DB018C9311969C936E5F7F4FDB
:10FA8000D801C7010296A11DB11DC05EDE4F88835B
:10FA90009983AA83BB83C052D14022503040F1F6F3
:10FAA00036C0C05EDE4F288139814A815B81C052F9
:10FAB000D1400894C108D108760100E010E0089414
:10FAC000C11CD11C0894E11CF11C011D111DE20E8A
:10FAD000F31E041F151F21BDBB27A52F942F832FB5
:10FAE00082BD2F5F3F4F4F4F5F4FF89A80B5DB01CC
:10FAF0008D93BD012E153F054007510761F7C05E8C
:10FB0000DE4F288339834A835B83C052D1409601FC
:10FB10002D5F3F4FFB01108204C080EC8A8322E0FE
:10FB200030E08BE18093C6008091C00086FFFCCF5F
:10FB30008091C00080648093C000C15DDE4FF88179
:10FB4000CF52D140F093C6008091C00086FFFCCF19
:10FB50008091C00080648093C000432F3093C60022
:10FB60008091C00086FFFCCF8091C00080648093AC
:10FB7000C000922F2093C6008091C00086FFFCCF6A
:10FB80008091C00080648093C0008EE08093C600A6
:10FB90008091C00086FFFCCF8091C000806480937C
:10FBA000C00065E1C15DDE4FE880CF52D1406E25D7
:10FBB00069276427FE01319610C090819093C6009A
:10FBC0008091C00086FFFCCF31968091C000806498
:10FBD0008093C0006927215030402115310569F715
:10FBE0006093C6008091C00086FFFCCF8091C0006A
:10FBF00080648093C00085B1805885B9772081F4F6
:10FC0000C15DDE4F0881CF52D1400F5FC15DDE4F35
:10FC10000883CF52D14090E0A0E0B0E00D941AF4F8
:10FC200027982F9880E090E020ED37E0F901319798
:10FC3000F1F7019684369105C9F700008091C00064
:10FC40008D7F8093C00081E180935700E895EE2777
:10FC5000FF270994FFCF90E00D941AF497FB092E2B
:10FC600007260AD077FD04D02ED006D000201AF443
:10FC7000709561957F4F0895F6F7909581959F4F08
:10FC80000895A1E21A2EAA1BBB1BFD010DC0AA1FDD
:10FC9000BB1FEE1FFF1FA217B307E407F50720F0F5
:10FCA000A21BB30BE40BF50B661F771F881F991F70
:10FCB0001A9469F760957095809590959B01AC01B9
:10FCC000BD01CF010895AA1BBB1B51E107C0AA1FAC
:10FCD000BB1FA617B70710F0A61BB70B881F991FED
:10FCE0005A95A9F780959095BC01CD010895F99991
:10FCF000FECF92BD81BDF89A992780B50895262F31
:10FD0000F999FECF1FBA92BD81BD20BD0FB6F89400
:0EFD1000FA9AF99A0FBE01960895F894FFCF63
:00000001FF
