:100000000C94BC010C94ED010C94ED010C94ED01E9
:100010000C94ED010C94ED010C94ED010C94ED01A8
:100020000C94ED010C94ED010C94ED010C94ED0198
:100030000C94ED010C94ED010C94ED010C94ED0188
:100040000C94ED010C94ED010C94ED010C94ED0178
:100050000C94ED010C94ED010C94ED010C948808C6
:100060000C94ED010C945C090C9432090C94ED0194
:100070000C94ED010C94ED010C94ED010C94ED0148
:100080000C94ED010C94ED010C94ED010C94ED0138
:100090000C94FC080C94D2080C94ED010C94ED0126
:1000A0000C94ED010C94ED010C94ED010C94ED0118
:1000B0000C94ED010C94ED010C94ED010C94ED0108
:1000C0000C94ED010C94ED010C94ED010C94ED01F8
:1000D0000C94ED010C94ED010C94ED010C94ED01E8
:1000E0000C94ED010C9459020C946F020C9467026D
:1000F0000C94BE030C9446020C944B030C944902DE
:100100000C9453020C9459040C945D020C947F07D8
:100110000C9474020C941B030C944F020C949209DF
:100120000C9458040C946B020C9434020C947C03D1
:100130000C9418030C943A020C9442020C94610241
:100140000C945A030C941E030C940B040C9475022B
:100150000C943E020C9479020C946E0300407A10C9
:10016000F35A00A0724E18090010A5D4E80000E868
:100170007648170000E40B54020000CA9A3B0000C6
:1001800000E1F505000080969800000040420F0055
:100190000000A08601000000102700000000E80316
:1001A000000000006400000000000A0000000000E1
:1001B0000100000000002C76D888DC674F0823DFA0
:1001C000C1DFAE59E1B1B796E5E3E453C63AE65173
:1001D000997696E8E6C28426EB898C9B62ED407C9A
:1001E0006FFCEFBC9C9F40F2BAA56FA5F490055A36
:1001F0002AF75C936B6CF9676DC11BFCE0E40D475B
:10020000FEF520E6B500D0ED902E0300943577057D
:100210000080841E080000204E0A000000C80C3335
:100220003333330F986E12831141EF8D2114893BC4
:10023000E65516CFFEE6DB18D1844B381BF77C1D44
:10024000901DA4BBE424203284725E228100C9F197
:1002500024ECA1E53D270000200023002600290012
:100260002C002F00320000010000030106010901EB
:1002700000002100240027002A002D003000330058
:1002800001010000040107010A010000220025000D
:1002900028002B002E00310034000201000005016F
:1002A00008010B01050505050705080808080202F5
:1002B00002020A0A08080404040401010101010100
:1002C00001010303030303030303040707070C0CE3
:1002D0000C0C0C0C0C0C02020202060606060606AA
:1002E00006060B0B0B0B0B0B0B0B0102102020084F
:1002F0000810204010204080020102010804020181
:1003000001020408102040808040201008040201EF
:100310008004020180402010080402010804020148
:1003200001020408102040800102040810204080CF
:1003300000000A0B02090C0D0E080703040100005F
:1003400000000000000000000000000000000000AD
:10035000000000000000000000000000121110006A
:10036000000000000000000000000000000000008D
:10037000000000000000920911241FBECFEFD1E25F
:10038000DEBFCDBF00E00CBF24E0AEE9B2E001C0AB
:100390001D92AD3BB207E1F712E0A0E0B2E0ECE560
:1003A000FBE200E00BBF02C007900D92AE39B1072F
:1003B000D9F711E0CCEBD1E000E006C021970109AC
:1003C000802FFE010E948E13CB3BD10780E00807EF
:1003D000A9F70E940F0A0C94AC150C940000FC01C4
:1003E000A089B18982E08C93A485B5851C92A685ED
:1003F000B7858FEC8C93108EA489B58986E08C9399
:10040000A289B3898C9180618C93A289B3898C91E4
:1004100088608C93A289B3898C9180688C930288C0
:10042000F389E02D80818F7D808308958150823112
:1004300008F05AC0E82FF0E08827EE5DFD4F8F4F9F
:100440000C948E134202460234023A023E027402B7
:1004500049024F02530259025D02610267026B02B8
:1004600074026F0275027902809180008F77809309
:1004700080000895809180008F7DF9CF8091800069
:10048000877FF5CF84B58F7784BD089584B58F7D40
:10049000FBCF8091B0008F778093B000089580915A
:1004A000B0008F7DF9CF809190008F77809390007E
:1004B0000895809190008F7DF9CF80919000877F83
:1004C000F5CF8091A0008F778093A0000895809150
:1004D000A0008F7DF9CF8091A000877FF5CF80911C
:1004E00020018F77809320010895809120018F7DD6
:1004F000F9CF80912001877FF5CF1F93CF93DF93B2
:10050000282F30E0F901E05DFC4F8491F901E651BC
:10051000FD4FD491F901EC55FD4FC491CC23A9F0C6
:10052000162F81110E941602EC2FF0E0EE0FFF1F34
:10053000E657FD4FA591B4918FB7F894EC91111146
:1005400008C0D095DE23DC938FBFDF91CF911F9140
:100550000895DE2BF8CFCF93DF9390E0FC01E651B6
:10056000FD4F24918C559D4FFC0184918823D1F03F
:1005700090E0880F991FFC01E059FD4FA591B491BF
:10058000FC01E657FD4FC591D49161110EC09FB794
:10059000F8948C91E22FE0958E238C932881E223AE
:1005A000E8839FBFDF91CF9108958FB7F894EC91C6
:1005B000E22BEC938FBFF6CF90917B00977F9093C7
:1005C0007B008653806480937C0080917A008064F5
:1005D00080937A0080917A0086FDFCCF809178002C
:1005E0009091790008953FB7F89480912B039091F2
:1005F0002C03A0912D03B0912E0326B5A89B05C016
:100600002F3F19F00196A11DB11D3FBFBA2FA92F91
:10061000982F8827BC01CD01620F711D811D911D8E
:1006200042E0660F771F881F991F4A95D1F70895FA
:1006300086E30C94DC0287E30C94DC02AF92BF9259
:10064000CF92DF92EF92FF920F931F93CF93DF939E
:100650006C017B018B01040F151FEB015E01AE18CD
:10066000BF08C017D10759F06991D601ED91FC91EF
:100670000190F081E02DC6011995892B79F7C5010C
:10068000DF91CF911F910F91FF90EF90DF90CF906E
:10069000BF90AF900895FC01538D448D252F30E01D
:1006A000842F90E0821B930B541710F0CF9608957F
:1006B00001970895FC01918D828D981761F0A28DAC
:1006C000AE0FBF2FB11D5D968C91928D9F5F9F7372
:1006D000928F90E008958FEF9FEF0895FC01918D28
:1006E000828D981731F0828DE80FF11D858D90E095
:1006F00008958FEF9FEF0895FC01918D228D892F32
:1007000090E0805C9F4F821B91098F739927089519
:1007100085E393E00E947C0321E0892B09F420E02B
:10072000822F089582ED93E00E947C0321E0892BC3
:1007300009F420E0822F0895FC01A48DA80FB92FA1
:10074000B11DA35ABF4F2C91848D90E001968F73F9
:100750009927848FA689B7892C93A089B1898C9118
:10076000837080648C93938D848D981306C0028867
:10077000F389E02D80818F7D80830895EF92FF9231
:100780000F931F93CF93DF93EC0181E0888F9B8DB4
:100790008C8D98131AC0E889F989808185FF15C06E
:1007A0009FB7F894EE89FF896083E889F989808191
:1007B0008370806480839FBF81E090E0DF91CF9160
:1007C0001F910F91FF90EF900895F62E0B8D10E082
:1007D0000F5F1F4F0F731127E02E8C8D8E110CC0F1
:1007E0000FB607FCFACFE889F989808185FFF5CF3C
:1007F000CE010E949C03F1CFEB8DEC0FFD2FF11D7C
:10080000E35AFF4FF0829FB7F8940B8FEA89FB8978
:1008100080818062CFCFCF93DF93EC01888D8823D6
:10082000B9F0AA89BB89E889F9898C9185FD03C053
:10083000808186FD0DC00FB607FCF7CF8C9185FF38
:10084000F2CF808185FFEDCFCE010E949C03E9CFDE
:10085000DF91CF91089580E090E0892B29F00E94EC
:10086000920381110E94000080E090E0892B29F022
:100870000E94880381110E94000080E090E0892B93
:1008800049F080E090E0892B29F00E94000081115E
:100890000E94000080E090E0892B49F080E090E029
:1008A000892B29F00E94000081110C94000008950A
:1008B000089590E080E008958F929F92AF92BF924A
:1008C000CF92DF92EF92FF92CF93DF93FC011995C5
:1008D00020917704222309F4ECC0F0907904FF20E2
:1008E00009F41EC12091750430917604BC01621B8D
:1008F000730B7093700460936F04072E000C880BC9
:10090000990B0E94D5109B01AC01609195047091E8
:10091000960480919704909198040E94F31160933B
:100920009504709396048093970490939804609133
:100930006F0470917004072E000C880B990B0E94B5
:10094000D5109B01AC010E94341120919904309183
:100950009A0440919B0450919C040E94F31160936F
:10096000990470939A0480939B0490939C04C09183
:100970008304D091840420917B0430917C04C217BD
:10098000D30709F08DC060939D0470939E048093FB
:100990009F049093A004FF2009F476C0C0907D04CA
:1009A000D0907E04E0907F04F0908004A70196012F
:1009B00060E070E080E89FE30E94F21120919104D2
:1009C0003091920440919304509194040E94341108
:1009D0004B015C012091950430919604409197045D
:1009E00050919804C701B6010E9434119B01AC01DB
:1009F000C501B4010E94F3116B017C01C092910406
:100A0000D0929204E0929304F0929404BE01DD0F20
:100A1000880B990B0E94D5109B01AC01C701B60150
:100A20000E945F126B017C0120E030E0A9010E946E
:100A3000071320E030E040E05FE387FD76C0C701A8
:100A4000B6010E94F3110E94D11270938204609348
:100A500081048091750490917604680F791F7093DA
:100A60007604609375041092950410929604109287
:100A700097041092980480917A04882329F01092A8
:100A8000770481E0809378041092990410929A047C
:100A900010929B0410929C04109284041092830480
:100AA00080918304909184040196909384048093B0
:100AB00083040E94F302C0902F03D0903003E09093
:100AC0003103F09032036C157D058E059F0588F388
:100AD000D701C60188519C4FAF4FBF4F80932F0362
:100AE00090933003A0933103B093320320913303EA
:100AF000309134032F5F3F4F3093340320933303FF
:100B000081E0283E33400CF080E0DF91CF91FF90F0
:100B1000EF90DF90CF90BF90AF909F908F9008950F
:100B20009093700480936F0402CFC701B6010E94B6
:100B3000F21189CFFB0101900020E9F73197AF0155
:100B4000461B570B0C941E03CF93DF93FC0144818B
:100B500055816081718185E393E00E941E03EC0161
:100B600064E472E085E393E00E949A058C0F9D1F78
:100B7000DF91CF9108958F929F92AF92BF920F9382
:100B80001F93CF93DF93CDB7DEB7A1970FB6F8943D
:100B9000DEBF0FBECDBF19A2423008F44AE08E017D
:100BA0000F5D1F4F842E912CB12CA12CA501940117
:100BB0000E946C13E62FB901CA01EA3004F5E05D2A
:100BC000D801EE938D01232B242B252B79F790E070
:100BD00080E0109729F0BD0182ED93E00E949A0514
:100BE000A1960FB6F894DEBF0FBECDBFDF91CF91B7
:100BF0001F910F91BF90AF909F908F900895E95CE7
:100C0000DFCF1F93CF93DF93CFE6D4E01B8622E3A1
:100C100030E03D872C8711E01A8720E032E03F83E7
:100C20002E839B01AC010E94341120E030E048E4A7
:100C30005CE40E945F126A8F7B8F8C8F9D8F1AA657
:100C40001BA61CA61DA61D8A1C8A18871986109231
:100C50003403109233030E94F30268517C4F8F4F8C
:100C60009F4F60932F0370933003809331039093D1
:100C70003203DF91CF911F910895CF93DF93EC0161
:100C800060E08E810E947D0261E08E810E947D0283
:100C900060E08E810E947D028BE891E00197F1F780
:100CA000DF91CF910895CF92DF92EF92FF920F9351
:100CB0001F93CF93DF936C017C0187E0E80EF11C5A
:100CC000D0E0C0E0062F10E0B8010C2E02C07595F0
:100CD00067950A94E2F76170F70181917F010E94A4
:100CE0007D022196C430D10579F7C601DF91CF91FD
:100CF0001F910F91FF90EF90DF90CF900C943D06E5
:100D0000CF92DF92EF92FF920F931F93CF93DF93D7
:100D1000EC01F62E642F8C810E947D028D818F3F25
:100D200019F060E00E947D020F2D10E08F8584FF96
:100D300025C06E0187E0C80ED11CF12CE12CB80152
:100D40000E2C02C0759567950A94E2F76170F60162
:100D500081916F010E947D02FFEFEF1AFF0A88E088
:100D6000E816F10461F7CE01DF91CF911F910F9149
:100D7000FF90EF90DF90CF900C943D06B80184E097
:100D8000759567958A95E1F7CE010E9453066F2D00
:100D9000CE01DF91CF911F910F91FF90EF90DF90E7
:100DA000CF900C94530640E0682F81EA94E00C94B5
:100DB0008006CF93DF93823029F49091B00498603D
:100DC0009093B0048093B4041092B50480E48093AF
:100DD000B60480E18093B70480E58093B80461E0B5
:100DE0008091A5040E94AB028091A6048F3F19F068
:100DF00061E00E94AB0261E08091A7040E94AB0217
:100E0000C1EAD4E09E01215A34408091B00484FDAF
:100E10000BC084E090E021962817390744F461E084
:100E20008E810E94AB02EECF88E090E0F4CF8BE39E
:100E30009DE00197F1F760E08091A5040E947D029A
:100E400060E08091A7040E947D028091A6048F3FFC
:100E500019F060E00E947D028091B00484FD39C0E9
:100E600063E081EA94E00E945306CBE4D6E4CE012D
:100E70000197F1F763E081EA94E00E94530621971D
:100E8000F1F763E081EA94E00E94530683E592E083
:100E90000197F1F762E081EA94E00E9453068091A5
:100EA000B00480620E94D30684E08093B1048CE099
:100EB0000E94D30681E00E94D3068BE39FE1019755
:100EC000F1F782E08093B20486E0DF91CF910C9439
:100ED000D30680620E94D3068BE496E40197F1F773
:100EE0008091B00480620E94D30683E592E001976E
:100EF000F1F78091B00480620E94D306D0CF41E028
:100F00000E94800681E090E008950F931F93CF9395
:100F1000DF93EC0188819981009759F02A813B8108
:100F20002617370730F081E0DF91CF911F910F91A5
:100F300008958B016F5F7F4F0E94BB14009759F09B
:100F4000998388831B830A832C813D81232B59F746
:100F5000FC011082E8CF80E0E7CFEF92FF920F9381
:100F60001F93CF93DF936115710541F480E0DF910A
:100F7000CF911F910F91FF90EF900895411551056A
:100F8000B1F07B01EC010C811D81040F151FB8012C
:100F90000E948507882351F3288139818C819D81A6
:100FA000B701820F931F0E94A5151D830C8381E05A
:100FB000DECFCF93DF93EC0188819981009711F008
:100FC0000E943214198218821D821C821B821A828E
:100FD000DF91CF910895CF93DF93EC01FB01448122
:100FE0005581608171810E94AD07811103C0CE01DE
:100FF0000E94D907CE01DF91CF910895EF92FF9221
:101000000F931F93CF93DF93EC017B018A01BA0109
:101010000E94850781110BC0CE010E94D907CE0125
:10102000DF91CF911F910F91FF90EF9008951D8355
:101030000C83B701888199810E94A515F0CFFB012F
:1010400001900020E9F73197AF01461B570B0C9434
:10105000FE07EF92FF920F931F93CF93DF93CDB7CD
:10106000DEB7A1970FB6F894DEBF0FBECDBF7C01EF
:10107000CB01BA01F701118210821382128215820C
:1010800014828E010F5F1F4F22E044E00E94080E81
:10109000009789F0BC01C7010E941F08A1960FB6F6
:1010A000F894DEBF0FBECDBFDF91CF911F910F919E
:1010B000FF90EF900895C7010E94D907EFCFFB0181
:1010C00001900020E9F73197AF01461B570B0C94B4
:1010D000FE07CF93DF93EC01FB018617970749F0DA
:1010E000608171816115710541F0448155810E94D3
:1010F000FE07CE01DF91CF9108950E94D907F9CF65
:10110000FC0180819181009711F00C9432140895B4
:101110001F920F920FB60F9211242F933F938F932C
:101120009F93AF93BF938091270390912803A09141
:101130002903B0912A033091260323E0230F2D3792
:1011400058F50196A11DB11D209326038093270316
:1011500090932803A0932903B0932A0380912B0333
:1011600090912C03A0912D03B0912E030196A11D07
:10117000B11D80932B0390932C03A0932D03B09368
:101180002E03BF91AF919F918F913F912F910F901F
:101190000FBE0F901F90189526E8230F0296A11DF1
:1011A000B11DD2CF1F920F920FB60F9211240BB622
:1011B0000F922F933F934F935F936F937F938F93F0
:1011C0009F93AF93BF93EF93FF9385E393E00E94C8
:1011D0009C03FF91EF91BF91AF919F918F917F9170
:1011E0006F915F914F913F912F910F900BBE0F9098
:1011F0000FBE0F901F9018951F920F920FB60F926F
:1012000011240BB60F922F938F939F93EF93FF931D
:10121000E0914503F09146038081E0914B03F0910A
:101220004C0382FD1DC0908180914E038F5F8F73B0
:1012300020914F03821741F0E0914E03F0E0EB5C08
:10124000FC4F958F80934E03FF91EF919F918F916B
:101250002F910F900BBE0F900FBE0F901F901895FF
:101260008081F2CF1F920F920FB60F9211240BB60E
:101270000F922F933F934F935F936F937F938F932F
:101280009F93AF93BF93EF93FF9382ED93E00E9400
:101290009C03FF91EF91BF91AF919F918F917F91AF
:1012A0006F915F914F913F912F910F900BBE0F90D7
:1012B0000FBE0F901F9018951F920F920FB60F92AE
:1012C00011240BB60F922F938F939F93EF93FF935D
:1012D000E091E203F091E3038081E091E803F09173
:1012E000E90382FD1DC090818091EB038F5F8F73B6
:1012F0002091EC03821741F0E091EB03F0E0EE5215
:10130000FC4F958F8093EB03FF91EF919F918F910D
:101310002F910F900BBE0F900FBE0F901F9018953E
:101320008081F2CFE5E3F3E01382128248EE53E0CE
:1013300060E070E044835583668377838AE292E0BD
:10134000918380832DEC30E0358724872CEC30E0CE
:101350003787268728EC30E0318B208B29EC30E072
:10136000338B228B2AEC30E0358B248B2EEC30E053
:10137000378B268B118E128E138E148EE2EDF3E0D6
:10138000138212824483558366837783918380839B
:1013900085EC90E09587848784EC90E0978786873A
:1013A00080EC90E0918B808B81EC90E0938B828B32
:1013B00082EC90E0958B848B86EC90E0978B868B0B
:1013C000118E128E138E148EE1EAF4E013821282D3
:1013D0008CE392E09183808386E084838FEF858322
:1013E00087E0868388E0878389E080878AE0818739
:1013F0008BE082871386148615861686178681E011
:101400000E94D90683E393E3A3E3BFE380937D04C3
:1014100090937E04A0937F04B09380040895CF93AB
:10142000DF93CDB7DEB7E9970FB6F894DEBF0FBEF6
:10143000CDBF789484B5826084BD84B5816084BD5D
:1014400085B5826085BD85B5816085BD80916E0062
:10145000816080936E001092810080918100826093
:1014600080938100809181008160809381008091D0
:1014700080008160809380008091B10084608093BF
:10148000B1008091B00081608093B00080919100A4
:10149000826080939100809191008160809391009F
:1014A000809190008160809390008091A100826083
:1014B0008093A1008091A10081608093A100809120
:1014C000A00081608093A0008091210182608093C0
:1014D000210180912101816080932101809120016F
:1014E00081608093200180917A00846080937A00EB
:1014F00080917A00826080937A0080917A00816086
:1015000080937A0080917A00806880937A001092AC
:10151000C10082ED93E00E94EF0185E393E00E9419
:10152000EF0182E00E94D90660E08CE00E94AB02ED
:1015300061E082E00E94AB0261E083E00E94AB02C6
:1015400061E084E00E94AB0261E085E00E94AB02B2
:101550002FB7F8948091270390912803A091290335
:10156000B0912A032FBF4091220350912303609131
:10157000240370912503841B950BA60BB70B419791
:10158000A105B10508F464C01A8219821C821B826D
:101590001E821D8267E472E0CE0101960E945F0800
:1015A0001BA21AA21DA21CA21FA21EA26CE472E022
:1015B000CE0182960E945F0881E00E94D3068BE3F1
:1015C0009FE10197F1F7E1E08091B4048111E0E03F
:1015D000E195F0E0EF55FB4F848980680E94D306C7
:1015E0004EA15FA16AA17BA181EA94E00E941E0343
:1015F000E091B404E23008F092C2E150F0E0EF551F
:10160000FB4F848980680E94D3064D815E81698189
:101610007A8181EA94E00E941E03CE0182960E94A4
:101620008008CE0101960E9480082FB7F89480911F
:10163000270390912803A0912903B0912A032FBF7B
:101640008093220390932303A0932403B093250354
:10165000ECE3F3E08491E6EFF2E01491E0EBF2E0EA
:101660000491002309F458C281110E941602E02F50
:10167000F0E0EE0FFF1FEA5AFD4FA591B4918C9157
:10168000182309F449C2109221031092200306E1A5
:1016900012E010921F0310921E03E0912003F091BC
:1016A0002103EE5EFD4F80811BA21AA21DA21CA287
:1016B0001FA21EA289831A82BE016F5F7F4FCE01D7
:1016C00082960E941F0819A618A61BA61AA61DA678
:1016D0001CA666E572E0CE0188960E945F08BE01F6
:1016E0006E5D7F4FCE0188960E94EB071A821982A9
:1016F0001C821B821E821D82BC01CE0101960E94AB
:101700006908CE0101960E94A405CE0101960E94AF
:101710008008CE0188960E948008CE0182960E94A1
:101720008008F801608182E00E947D02F8016281F8
:1017300083E00E947D020E94F3024B015C0166E09F
:10174000E62E62E0F62EF701608184E00E947D02C1
:10175000F701628185E00E947D0260E070E88DE023
:1017600094E40E94010688E193E00E945C048111E8
:10177000FACF2091890430918A0440918B045091D2
:101780008C0460919D0470919E0480919F049091BF
:10179000A0040E94341160938D0470938E04809392
:1017A0008F04909390040E9412132B013C014092ED
:1017B00071045092720460927304709274041092D7
:1017C000780480911E0390911F03E0912003F09113
:1017D000210343E0EE0FFF1F4A95E1F7E80FF91FE1
:1017E000EE0FFF1FEE0FFF1FE256FD4F40825182AA
:1017F00062827382019690931F0380931E0360E0C0
:1018000070EC80E394E40E9401068BE193E00E9477
:101810005C048111FACF2091890430918A044091AF
:101820008B0450918C0460919D0470919E04809172
:101830009F049091A0040E94341160938D047093D2
:101840008E0480938F04909390040E941213AB0136
:10185000BC014093710450937204609373047093BD
:1018600074041092780480911E0390911F03E091FC
:101870002003F091210323E0EE0FFF1F2A95E1F7EB
:10188000E80FF91FEE0FFF1FEE0FFF1FE256FD4F8F
:101890004083518362837383019690931F038093E7
:1018A0001E03CE0182960E942908B301A201CE0137
:1018B00088960E94290880911E0390911F031FA6FD
:1018C0001EA619AA18AA1BAA1AAA4AE0BE016F5F8F
:1018D0007F4F0E94260EBE016F5F7F4FCE018E9616
:1018E0000E941F081DAA1CAA1FAA1EAA19AE18AE84
:1018F0006AE672E0CE01C4960E945F08BE01625D96
:101900007F4FCE01C4960E94EB076C0145E050E08A
:1019100061E772E00E94AD07811103C0C6010E9419
:10192000D907BE01685D7F4FC6010E94EB076C01BD
:1019300046E050E067E772E00E94AD07811103C006
:10194000C6010E94D907BE016E5D7F4FC6010E948D
:10195000EB071A8219821C821B821E821D82BC0127
:10196000CE0101960E946908CE0101960E94A4054D
:10197000CE0101960E948008CE01C4960E94800884
:10198000CE018E960E948008CE0188960E94800823
:10199000CE0182960E948008F4E0EF0EF11C82E1F5
:1019A000E81682E0F80609F0CECE0E94F3021BA2F0
:1019B0001AA21DA21CA21FA21EA2681979098A09D7
:1019C0009B092AE0AE014F5F5F4F0E94310EBE01BE
:1019D0006F5F7F4FCE0182960E941F0819A618A63E
:1019E0001BA61AA61DA61CA66EE772E0CE0188965D
:1019F0000E945F08BE016E5D7F4FCE0188960E94F7
:101A0000EB071A8219821C821B821E821D82BC0176
:101A1000CE0101960E946908CE0101960E94A4059C
:101A2000CE0101960E948008CE0188960E9480080F
:101A3000CE0182960E94800880912003909121031C
:101A4000019690932103809320030C5F1F4F92E037
:101A50000632190709F01DCE02E112E08EE9A82E28
:101A600082E0B82EF80161918F0182ED93E00E942F
:101A7000BE036EE872E082ED93E00E949A051501C4
:101A8000912C812CF101C190D190E190F1901F0136
:101A9000A7019601C701B6010E94521361E972E0E5
:101AA00081111AC026013701E89477F82FEF3FEF34
:101AB0004FE75FE7C301B2010E945213811131C0A9
:101AC0002FEF3FEF4FE75FE7C301B2010E94CE1057
:101AD00018163CF565E972E082ED93E00E949A05E4
:101AE0006EE872E082ED93E00E949A05FFEF8F1A94
:101AF0009F0A86E08816910429F664E472E082ED7C
:101B000093E00E949A0590E2A90EB11CE6E1F2E092
:101B1000E017F10709F0A6CF0E942B0419CDE1E0F0
:101B20006DCD2FEF3FEF4FE75FE4C701B6010E9495
:101B3000071318161CF469E972E0CECF2FEF3FEFC0
:101B40004FE75FECC701B6010E94CE1087FDF3CFCF
:101B500020E030E0A901C701B6010E94CE1087FF46
:101B600009C06DE282ED93E00E94BE03F7FAF094A3
:101B7000F7F8F0942AE037ED43EA5BE3C701B601DA
:101B80000E94F3112B013C010E94D8126B017C01D1
:101B90000E94D3109B01AC01C301B2010E94F2115B
:101BA0002B013C014AE0C701B6010E94BB056EE271
:101BB00082ED93E00E94BE0320E030E040E251E479
:101BC000C301B2010E9434112B013C010E94D812C2
:101BD0006B01F12CE12C4AE0C701B6010E94BB0564
:101BE000C701B6010E94D3109B01AC01C301B20131
:101BF0000E94F21120E030E040E251E40E943411F2
:101C00000E94D81290E080E04AE00E94BB0568CFB5
:101C1000EF920F931F93CF93DF93E80134E047FDDA
:101C200034E1042E000C550B57FF03C0519541952C
:101C30005109E32E022F242FAE010E946D0ECE011A
:101C4000DF91CF911F910F91EF900895BB274A30FC
:101C500031F4992322F4BDE2909581959F4F0C9425
:101C6000540EBB27FA01A62F621771058105910555
:101C7000330B30FB66F0AA27660F771F881F991F6A
:101C8000AA1FA21710F0A21B63953850A9F7A05DF8
:101C9000AA3308F0A95DA19336F7B111B193108270
:101CA000CA010C94BE10BB27FB015527AA27880F39
:101CB000991FAA1FA41710F0A41B83955051B9F7C0
:101CC000A05DAA3308F0A95DA193009779F7B1113F
:101CD000B1931192CB010C94BE108F929F92AF9250
:101CE000BF92CF92DF92EF92FF920F931F93CF9309
:101CF000DF9300D000D000D0CDB7DEB76A01F22E5E
:101D0000B02E102FFBE3AF2EA01608F41BE31F5FCD
:101D1000012F27E0AE014F5F5F4F0E94E60FBC012D
:101D20008981982F9970913009F44EC09BE2E1FCB3
:101D300004C09E2D9170E0FC49C05E2D5071E82FCB
:101D4000E87083FF55C084E0911101C083E0EF2D5E
:101D5000E81B8F1508F0E0E0D6018E2F20E2552316
:101D6000C9F1992329F0D6019C93C60101966C0113
:101D700096012D5F3F4FE2FE33C08EE4D6018C9377
:101D800091E411969C93119712968C93D9018E2F02
:101D900090E281112AC0E20FF32FF11D10828EEF25
:101DA0009FEF29960FB6F894DEBF0FBECDBFDF912F
:101DB000CF911F910F91FF90EF90DF90CF90BF9048
:101DC000AF909F908F9008959DE2B7CF90E2B5CFEE
:101DD0002D9381508111FCCFCE0ED11CE0E0C1CFFC
:101DE0008EE6D6018C9391E6CCCF9D938150D1CFD6
:101DF000482F447082FF3DC084E0911101C083E010
:101E00008F1510F4EF2DE81BD6018E2F20E25523FD
:101E100009F1992329F0D6019C93C60101966C0122
:101E200096012D5F3F4FE2FE1BC089E4D6018C93E3
:101E30008EE411968C93119786E412968C93D901B7
:101E40008E2F90E2882309F4A6CF9D938150FACF7C
:101E50002D9381508111FCCFCE0ED11CE0E0D9CF63
:101E600089E6D6018C938EE611968C93119786E6BF
:101E7000E4CF9B0177FF02C030E020E0A1E0B0E0BA
:101E8000911102C0B0E0A0E0F9013196AE0FBF1F82
:101E90008B2C912CBB2009F461C05401EFEFAE1ADA
:101EA000BE0AAA0DBB1DFA161B0619F014F04F2D21
:101EB0004A1B511188C0E3FC59C07601A42FB0E23F
:101EC000A1114FC0C40ED11C992309F45BC040E09E
:101ED000D6011196F60190836D01552309F448C08F
:101EE000012F060F9A81582F507184FF03C0913340
:101EF00009F4015010160CF047C0093008F008E052
:101F0000EEE2FE2E5B01A01AB10885019194819446
:101F100091082F3F320729F4D601FC92F601319641
:101F20006F016217730794F1021713077CF5DB0149
:101F3000A21BB30BAA24A394B12CAC0EBD1EAA0DF8
:101F4000BB1D11968C9121503109D601119628158F
:101F50003905F4F0F60180836D01DBCFB12CA12CA3
:101F6000A0CFF701B1937F01A150AACF9111B0CFBB
:101F7000D601942F50E302C05D9391509111FCCF94
:101F8000C40ED11C40E0ACCF01E0BACF80E3DBCF80
:101F90006217730731F4963388F4953311F455239F
:101FA00069F0F6018083FD01842F90E2811108C061
:101FB000A40FB11D1C9290E080E0F3CE81E3F1CF3D
:101FC00091938150F3CF911183CF8ACF283008F0BD
:101FD00027E03327DA01990F311D87FD91600096C4
:101FE0006105710539F432602E5F3D9330E32A9527
:101FF000E1F708959F3F30F080387105610509F0E1
:102000003C5F3C5F3D93913008F08068911DDF9309
:10201000CF931F930F93FF92EF92192F987F96956E
:10202000E92F96959695E90FFF27EA54FE4F9927D9
:102030003327EE24FF24A701E701059008940794B5
:1020400028F4360FE71EF81E491F511D660F771F33
:10205000881F991F0694A1F70590079428F4E70EAE
:10206000F81E491F561FC11D770F881F991F661F35
:102070000694A1F70590079428F4F80E491F561FFF
:10208000C71FD11D880F991F661F771F0694A1F7E0
:102090000590079420F4490F561FC71FD81F990FAA
:1020A000661F771F881F0694A9F7849110951770F3
:1020B00041F0D695C79557954795F794E7941A95AB
:1020C000C1F7ECE5F1E068941590159135916591B3
:1020D000959105907FE27395E118F10A430B560B39
:1020E000C90BD009C0F7E10CF11E431F561FC91FD1
:1020F000D01D7EF4703311F48A95E6CFE894015038
:1021000030F0080F0AF40027021708F4202F239557
:10211000022F7A3328F079E37D932A95E9F710C0EE
:102120007D932A9589F60694979567953795179527
:102130001794E118F10A430B560BC90BD00998F01C
:1021400023957E9173957A3308F070E37C93201386
:10215000B8F77E9170617D9330F0839571E37D9344
:1021600070E32A95E1F71124EF90FF900F911F91F2
:10217000CF91DF91992787FD90950895DC01FC01AF
:10218000672F71917723E1F7329704C07C916D93AB
:1021900070836291AE17BF07C8F308950E941011B3
:1021A00008F481E00895E89409C097FB3EF4909507
:1021B0008095709561957F4F8F4F9F4F9923A9F020
:1021C000F92F96E9BB279395F695879577956795AF
:1021D000B795F111F8CFFAF4BB0F11F460FF1BC0F3
:1021E0006F5F7F4F8F4F9F4F16C0882311F096E986
:1021F00011C0772321F09EE8872F762F05C0662334
:1022000071F096E8862F70E060E02AF09A95660FEC
:10221000771F881FDAF7880F9695879597F90895A5
:10222000990F0008550FAA0BE0E8FEEF16161706E7
:10223000E807F907C0F012161306E407F50798F04F
:10224000621B730B840B950B39F40A2661F0232B68
:10225000242B252B21F408950A2609F4A140A695E4
:102260008FEF811D811D08950E9447110C94B811B4
:102270000E94AA1138F00E94B11120F0952311F0AC
:102280000C94A1110C94A71111240C94EC110E9430
:10229000C91170F3959FC1F3950F50E0551F629FD0
:1022A000F001729FBB27F00DB11D639FAA27F00DAF
:1022B000B11DAA1F649F6627B00DA11D661F829FD6
:1022C0002227B00DA11D621F739FB00DA11D621FBB
:1022D000839FA00D611D221F749F3327A00D611DD8
:1022E000231F849F600D211D822F762F6A2F1124BA
:1022F0009F5750409AF0F1F088234AF0EE0FFF1FED
:10230000BB1F661F771F881F91505040A9F79E3F43
:10231000510580F00C94A1110C94EC115F3FE4F393
:10232000983ED4F3869577956795B795F795E79599
:102330009F5FC1F7FE2B880F911D9695879597F9A2
:10234000089597F99F6780E870E060E008959FEF37
:1023500080EC089500240A9416161706180609063C
:10236000089500240A94121613061406050608950B
:10237000092E0394000C11F4882352F0BB0F40F493
:10238000BF2B11F460FF04C06F5F7F4F8F4F9F4FD3
:10239000089557FD9058440F551F59F05F3F71F055
:1023A0004795880F97FB991F61F09F3F79F08795BC
:1023B0000895121613061406551FF2CF4695F1DF45
:1023C00008C0161617061806991FF1CF86957105D5
:1023D000610508940895E894BB2766277727CB0109
:1023E00097F908955058BB27AA270E940A120C9407
:1023F000B8110E94AA1138F00E94B11120F039F4EE
:102400009F3F19F426F40C94A7110EF4E095E7FB16
:102410000C94A111E92F0E94C91158F3BA17620751
:1024200073078407950720F079F4A6F50C94EB1157
:102430000EF4E0950B2EBA2FA02D0B01B9019001DF
:102440000C01CA01A0011124FF27591B99F0593F23
:1024500050F4503E68F11A16F040A22F232F342F6B
:102460004427585FF3CF469537952795A795F040B9
:102470005395C9F77EF41F16BA0B620B730B840BCE
:10248000BAF09150A1F0FF0FBB1F661F771F881F86
:10249000C2F70EC0BA0F621F731F841F48F48795DE
:1024A00077956795B795F7959E3F08F0B0CF9395D0
:1024B000880F08F09927EE0F9795879508950E9449
:1024C00073120C94B8110E94B11158F00E94AA1115
:1024D00040F029F45F3F29F00C94A11151110C94A4
:1024E000EC110C94A7110E94C91168F39923B1F360
:1024F000552391F3951B550BBB27AA27621773072A
:10250000840738F09F5F5F4F220F331F441FAA1FBD
:10251000A9F335D00E2E3AF0E0E832D09150504079
:10252000E695001CCAF72BD0FE2F29D0660F771F27
:10253000881FBB1F261737074807AB07B0E809F00D
:10254000BB0B802DBF01FF2793585F4F3AF09E3F92
:10255000510578F00C94A1110C94EC115F3FE4F359
:10256000983ED4F3869577956795B795F7959F5FD5
:10257000C9F7880F911D9695879597F90895E1E021
:10258000660F771F881FBB1F621773078407BA0780
:1025900020F0621B730B840BBA0BEE1F88F7E095DB
:1025A00008950E94D8126894B1110C94EC1108950A
:1025B0000E94D11188F09F5798F0B92F9927B751F1
:1025C000B0F0E1F0660F771F881F991F1AF0BA95D7
:1025D000C9F714C0B13091F00E94EB11B1E0089539
:1025E0000C94EB11672F782F8827B85F39F0B93F2B
:1025F000CCF3869577956795B395D9F73EF490958A
:102600008095709561957F4F8F4F9F4F08950E94E1
:10261000101108F48FEF089519F416F40C94A71113
:102620000C9457130E94D111B8F39923C9F3B6F350
:102630009F57550B87FF0E9465130024A0E640EAD0
:10264000900180585695979528F4805C660F771F07
:10265000881F20F026173707480730F4621B730BDA
:10266000840B202931294A2BA695179407942025FD
:1026700031254A2758F7660F771F881F20F0261745
:102680003707480730F4620B730B840B200D311DA4
:10269000411DA09581F7B901842F9158880F969517
:1026A000879508950E941011880B990B08959F3FFC
:1026B00031F0915020F4879577956795B795880FFD
:1026C000911D9695879597F9089591505040660F02
:1026D000771F881FD2F70895A1E21A2EAA1BBB1BF1
:1026E000FD010DC0AA1FBB1FEE1FFF1FA217B307DE
:1026F000E407F50720F0A21BB30BE40BF50B661FF4
:10270000771F881F991F1A9469F7609570958095B7
:1027100090959B01AC01BD01CF010895EE0FFF1F05
:10272000881F8BBF0790F691E02D19940F931F938C
:10273000CF93DF938230910510F482E090E0E09136
:10274000BB04F091BC0430E020E0B0E0A0E03097A2
:1027500099F42115310509F44AC0281B390B24309E
:102760003105D8F58A819B816115710589F1FB01DD
:1027700093838283FE0111C04081518102811381C4
:1027800048175907E0F04817590799F4109761F076
:1027900012960C93129713961C933296CF01DF91E9
:1027A000CF911F910F9108950093BB041093BC0427
:1027B000F4CF2115310551F04217530738F0A90124
:1027C000DB019A01BD01DF01F801C1CFEF01F9CFB3
:1027D0009093BC048093BB04CDCFFE01E20FF31FA6
:1027E000819391932250310939832883D7CF209147
:1027F000B9043091BA04232B41F4209102023091A4
:1028000003023093BA042093B9042091000230915E
:1028100001022115310541F42DB73EB74091040264
:1028200050910502241B350BE091B904F091BA04D4
:10283000E217F307A0F42E1B3F0B2817390778F097
:10284000AC014E5F5F4F2417350748F04E0F5F1FF6
:102850005093BA044093B904819391939FCFF0E0D1
:10286000E0E09CCFCF93DF930097E9F0FC01329733
:1028700013821282A091BB04B091BC04ED0130E040
:1028800020E01097A1F420813181820F931F2091C5
:10289000B9043091BA042817390709F061C0F093E0
:1028A000BA04E093B904DF91CF910895EA01CE17FD
:1028B000DF07E8F54A815B819E0141155105B1F7BB
:1028C000E901FB83EA8349915991C40FD51FEC17A5
:1028D000FD0761F4808191810296840F951FE901C3
:1028E00099838883828193819B838A83F0E0E0E0EF
:1028F00012968D919C9113970097B9F52D913C916B
:102900001197CD010296820F931F2091B904309147
:10291000BA042817390739F6309751F51092BC04DC
:102920001092BB04B093BA04A093B904BCCFD38374
:10293000C28340815181840F951FC817D90761F464
:102940004E5F5F4F88819981480F591F51834083A3
:102950008A819B81938382832115310509F0B0CF51
:10296000F093BC04E093BB049ECFFD01DC01C0CF1B
:1029700013821282D7CF4F925F926F927F928F9283
:102980009F92AF92BF92CF92DF92EF92FF920F93FE
:102990001F93CF93DF938C01009799F4CB01DF91C4
:1029A000CF911F910F91FF90EF90DF90CF90BF904C
:1029B000AF909F908F907F906F905F904F900C940E
:1029C0009613FC01E60FF71F9C0122503109E21714
:1029D000F30708F4AEC0D901CD91DC911197C61769
:1029E000D70720F1C530D10578F0CE0104978617BE
:1029F000970750F0C61BD70B2297C193D1936D93C5
:102A00007C93CF010E943214C801DF91CF911F91B6
:102A10000F91FF90EF90DF90CF90BF90AF909F907D
:102A20008F907F906F905F904F9008955B01AC1AEC
:102A3000BD0A4C018C0E9D1EA091BB04B091BC043C
:102A4000512C412CF12CE12C109731F58091B904D7
:102A50009091BA048815990509F05CC0461657068E
:102A600008F058C08091000290910102009741F453
:102A70008DB79EB74091040250910502841B950BBF
:102A8000E817F90708F055C0F093BA04E093B904C9
:102A9000F90171836083B8CF8D919C911197129643
:102AA0006C90129713967C901397A815B90559F559
:102AB0006C0142E0C40ED11CCA14DB0420F1AC014D
:102AC0004A195B09DA011296159780F062827382C7
:102AD00051834083D9016D937C93E114F10471F02B
:102AE000D7011396FC93EE9312978ECF22968C0FFC
:102AF0009D1FF90191838083F301EFCFF093BC0414
:102B0000E093BB0481CF4816590608F42C017D01DF
:102B1000D3019ACFCB010E9496137C01009749F014
:102B2000AE01B8010E949C15C8010E9432148701B1
:102B30006BCF10E000E068CFFB01DC0102C0019028
:102B40000D9241505040D8F70895FB01DC010190EF
:0C2B50000D920020E1F70895F894FFCFEB
:102B5C000000BD0480000000000000000100010026
:102B6C00010041424344000000000100000001004C
:102B7C0001000000010000000000BE031E034B0317
:102B8C000B047C035A036E03000000007F071E0336
:102B9C00590458040D0A002E2E2E2E00656E636506
:102BAC006E6469646F00496E6963696F20636F6E50
:102BBC006669676172696F6E2000546573743A20A0
:102BCC00002C2056313A002C2056323A20004C6111
:102BDC0020707275656261206475726F20002C2004
:0E2BEC00006E616E00696E66006F7666000016
:00000001FF
