:100000000C94BC010C94ED010C94ED010C94ED01E9
:100010000C94ED010C94ED010C94ED010C94ED01A8
:100020000C94ED010C94ED010C94ED010C94ED0198
:100030000C94ED010C94ED010C94ED010C94ED0188
:100040000C94ED010C94ED010C94ED010C94ED0178
:100050000C94ED010C94ED010C94ED010C94A808A6
:100060000C94ED010C947C090C9452090C94ED0154
:100070000C94ED010C94ED010C94ED010C94ED0148
:100080000C94ED010C94ED010C94ED010C94ED0138
:100090000C941C090C94F2080C94ED010C94ED01E5
:1000A0000C94ED010C94ED010C94ED010C94ED0118
:1000B0000C94ED010C94ED010C94ED010C94ED0108
:1000C0000C94ED010C94ED010C94ED010C94ED01F8
:1000D0000C94ED010C94ED010C94ED010C94ED01E8
:1000E0000C94ED010C94F4030C943A020C94B203BA
:1000F0000C9434020C943E020C9479020C94460247
:100100000C948F040C94B2090C9441040C94670273
:100110000C944E030C9453020C946B020C946F02DB
:100120000C9481030C9454030C949F070C94A40327
:100130000C9459020C9475020C9449020C9490038F
:100140000C945D020C9442020C9461020C947402B3
:100150000C9451030C944F020C948E0400407A10BE
:10016000F35A00A0724E18090010A5D4E80000E868
:100170007648170000E40B54020000CA9A3B0000C6
:1001800000E1F505000080969800000040420F0055
:100190000000A08601000000102700000000E80316
:1001A000000000006400000000000A0000000000E1
:1001B0000100000000002C76D888DC674F0823DFA0
:1001C000C1DFAE59E1B1B796E5E3E453C63AE65173
:1001D000997696E8E6C28426EB898C9B62ED407C9A
:1001E0006FFCEFBC9C9F40F2BAA56FA5F490055A36
:1001F0002AF75C936B6CF9676DC11BFCE0E40D475B
:10020000FEF520E6B500D0ED902E0300943577057D
:100210000080841E080000204E0A000000C80C3335
:100220003333330F986E12831141EF8D2114893BC4
:10023000E65516CFFEE6DB18D1844B381BF77C1D44
:10024000901DA4BBE424203284725E228100C9F197
:1002500024ECA1E53D270000200023002600290012
:100260002C002F00320000010000030106010901EB
:1002700000002100240027002A002D003000330058
:1002800001010000040107010A010000220025000D
:1002900028002B002E00310034000201000005016F
:1002A00008010B01050505050705080808080202F5
:1002B00002020A0A08080404040401010101010100
:1002C00001010303030303030303040707070C0CE3
:1002D0000C0C0C0C0C0C02020202060606060606AA
:1002E00006060B0B0B0B0B0B0B0B0102102020084F
:1002F0000810204010204080020102010804020181
:1003000001020408102040808040201008040201EF
:100310008004020180402010080402010804020148
:1003200001020408102040800102040810204080CF
:1003300000000A0B02090C0D0E080703040100005F
:1003400000000000000000000000000000000000AD
:10035000000000000000000000000000121110006A
:10036000000000000000000000000000000000008D
:10037000000000000000B20911241FBECFEFD1E23F
:10038000DEBFCDBF00E00CBF24E0AEE8B2E001C0AC
:100390001D92A93AB207E1F712E0A0E0B2E0E0E670
:1003A000FAE200E00BBF02C007900D92AE38B10731
:1003B000D9F711E0CCEBD1E000E006C021970109AC
:1003C000802FFE010E941013CB3BD10780E008076D
:1003D000A9F70E942F0A0C942E150C940000FC0122
:1003E000A089B18982E08C93A485B5851C92A685ED
:1003F000B7858FEC8C93108EA489B58986E08C9399
:10040000A289B3898C9180618C93A289B3898C91E4
:1004100088608C93A289B3898C9180688C930288C0
:10042000F389E02D80818F7D808308958150823112
:1004300008F05AC0E82FF0E08827EE5DFD4F8F4F9F
:100440000C9410134202460234023A023E02740235
:1004500049024F02530259025D02610267026B02B8
:1004600074026F0275027902809180008F77809309
:1004700080000895809180008F7DF9CF8091800069
:10048000877FF5CF84B58F7784BD089584B58F7D40
:10049000FBCF8091B0008F778093B000089580915A
:1004A000B0008F7DF9CF809190008F77809390007E
:1004B0000895809190008F7DF9CF80919000877F83
:1004C000F5CF8091A0008F778093A0000895809150
:1004D000A0008F7DF9CF8091A000877FF5CF80911C
:1004E00020018F77809320010895809120018F7DD6
:1004F000F9CF80912001877FF5CF1F93CF93DF93B2
:10050000282F30E0F901E05DFC4F8491F901E651BC
:10051000FD4FD491F901EC55FD4FC491CC23A9F0C6
:10052000162F81110E941602EC2FF0E0EE0FFF1F34
:10053000E657FD4FA591B4918FB7F894EC91111146
:1005400008C0D095DE23DC938FBFDF91CF911F9140
:100550000895DE2BF8CFCF93DF9390E0FC01E651B6
:10056000FD4F24918C559D4FFC0184918823D1F03F
:1005700090E0880F991FFC01E059FD4FA591B491BF
:10058000FC01E657FD4FC591D49161110EC09FB794
:10059000F8948C91E22FE0958E238C932881E223AE
:1005A000E8839FBFDF91CF9108958FB7F894EC91C6
:1005B000E22BEC938FBFF6CF90917B00977F9093C7
:1005C0007B008653806480937C0080917A008064F5
:1005D00080937A0080917A0086FDFCCF809178002C
:1005E0009091790008953FB7F89480911703909106
:1005F0001803A0911903B0911A0326B5A89B05C052
:100600002F3F19F00196A11DB11D3FBFBA2FA92F91
:10061000982F8827BC01CD01620F711D811D911D8E
:1006200042E0660F771F881F991F4A95D1F70895FA
:100630008F929F92AF92BF92CF92DF92EF92FF92F2
:100640000E94F3024B015C0188EEC82E83E0D82E95
:10065000E12CF12C0E94F302681979098A099B099F
:10066000683E734081059105A8F321E0C21AD108C4
:10067000E108F10888EE880E83E0981EA11CB11CE9
:10068000C114D104E104F10429F7FF90EF90DF9049
:10069000CF90BF90AF909F908F90089586E30C9479
:1006A000DC0287E30C94DC02AF92BF92CF92DF9220
:1006B000EF92FF920F931F93CF93DF936C017B0117
:1006C0008B01040F151FEB015E01AE18BF08C017A8
:1006D000D10759F06991D601ED91FC910190F0811B
:1006E000E02DC6011995892B79F7C501DF91CF91CE
:1006F0001F910F91FF90EF90DF90CF90BF90AF9040
:100700000895FC01538D448D252F30E0842F90E017
:10071000821B930B541710F0CF96089501970895FC
:10072000FC01918D828D981761F0A28DAE0FBF2FC5
:10073000B11D5D968C91928D9F5F9F73928F90E01B
:1007400008958FEF9FEF0895FC01918D828D98178A
:1007500031F0828DE80FF11D858D90E008958FEFC7
:100760009FEF0895FC01918D228D892F90E0805C90
:100770009F4F821B91098F739927089581E293E01F
:100780000E94B20321E0892B09F420E0822F089512
:100790008EEB93E00E94B20321E0892B09F420E064
:1007A000822F0895FC01A48DA80FB92FB11DA35A63
:1007B000BF4F2C91848D90E001968F739927848F81
:1007C000A689B7892C93A089B1898C9183708064A4
:1007D0008C93938D848D981306C00288F389E02D45
:1007E00080818F7D80830895EF92FF920F931F93F6
:1007F000CF93DF93EC0181E0888F9B8D8C8D9813D4
:100800001AC0E889F989808185FF15C09FB7F894DF
:10081000EE89FF896083E889F9898081837080642B
:1008200080839FBF81E090E0DF91CF911F910F9176
:10083000FF90EF900895F62E0B8D10E00F5F1F4F85
:100840000F731127E02E8C8D8E110CC00FB607FC94
:10085000FACFE889F989808185FFF5CFCE010E9422
:10086000D203F1CFEB8DEC0FFD2FF11DE35AFF4FBB
:10087000F0829FB7F8940B8FEA89FB8980818062B0
:10088000CFCFCF93DF93EC01888D8823B9F0AA896D
:10089000BB89E889F9898C9185FD03C0808186FD3B
:1008A0000DC00FB607FCF7CF8C9185FFF2CF80818A
:1008B00085FFEDCFCE010E94D203E9CFDF91CF912A
:1008C000089580E090E0892B29F00E94C8038111EF
:1008D0000E94000080E090E0892B29F00E94BE0376
:1008E00081110E94000080E090E0892B49F080E0B7
:1008F00090E0892B29F00E94000081110E940000E5
:1009000080E090E0892B49F080E090E0892B29F08D
:100910000E94000081110C9400000895089590E059
:1009200080E008958F929F92AF92BF92CF92DF9214
:10093000EF92FF92CF93DF93FC011995209163040E
:10094000222309F4ECC0F0906504FF2009F41EC1D5
:100950002091610430916204BC01621B730B70939F
:100960005C0460935B04072E000C880B990B0E94BB
:1009700057109B01AC0160918104709182048091B9
:100980008304909184040E94751160938104709394
:100990008204809383049093840460915B0470913B
:1009A0005C04072E000C880B990B0E9457109B01CA
:1009B000AC010E94B61020918504309186044091CC
:1009C0008704509188040E94751160938504709388
:1009D00086048093870490938804C0916F04D0911B
:1009E00070042091670430916804C217D30709F09E
:1009F0008DC06093890470938A0480938B049093D4
:100A00008C04FF2009F476C0C0906904D0906A0479
:100A1000E0906B04F0906C04A701960160E070E038
:100A200080E89FE30E94741120917D0430917E0440
:100A300040917F04509180040E94B6104B015C01EC
:100A40002091810430918204409183045091840468
:100A5000C701B6010E94B6109B01AC01C501B401EB
:100A60000E9475116B017C01C0927D04D0927E04BE
:100A7000E0927F04F0928004BE01DD0F880B990B99
:100A80000E9457109B01AC01C701B6010E94E11101
:100A90006B017C0120E030E0A9010E94891220E076
:100AA00030E040E05FE387FD76C0C701B6010E94F9
:100AB00075110E94531270936E0460936D048091BF
:100AC000610490916204680F791F709362046093CF
:100AD0006104109281041092820410928304109297
:100AE000840480916604882329F01092630481E0D5
:100AF00080936404109285041092860410928704F7
:100B0000109288041092700410926F0480916F0408
:100B10009091700401969093700480936F040E94EA
:100B2000F302C0901B03D0901C03E0901D03F090D3
:100B30001E036C157D058E059F0588F3D701C60140
:100B400088519C4FAF4FBF4F80931B0390931C0362
:100B5000A0931D03B0931E0320911F033091200327
:100B60002F5F3F4F3093200320931F0381E0283EE7
:100B700033400CF080E0DF91CF91FF90EF90DF9059
:100B8000CF90BF90AF909F908F90089590935C040A
:100B900080935B0402CFC701B6010E94741189CF14
:100BA000FC0101900020E9F73197AF01481B590B78
:100BB000BC0181E293E00C9454038F929F92AF9218
:100BC000BF920F931F93CF93DF93CDB7DEB7A1975B
:100BD0000FB6F894DEBF0FBECDBF19A2423008F4A5
:100BE0004AE08E010F5D1F4F842E912CB12CA12C59
:100BF000A50194010E94EE12E62FB901CA01EA3064
:100C0000F4F4E05DD801EE938D01232B242B252BEA
:100C100079F790E080E0109719F0CD010E94D0059F
:100C2000A1960FB6F894DEBF0FBECDBFDF91CF9176
:100C30001F910F91BF90AF909F908F900895E95CA6
:100C4000E1CF1F93CF93DF93CBE5D4E01B8622E364
:100C500030E03D872C8711E01A8720E032E03F83A7
:100C60002E839B01AC010E94B61020E030E048E4E6
:100C70005CE40E94E1116A8F7B8F8C8F9D8F1AA696
:100C80001BA61CA61DA61D8A1C8A188719861092F1
:100C9000200310921F030E94F30268517C4F8F4F74
:100CA0009F4F60931B0370931C0380931D039093CD
:100CB0001E03DF91CF911F910895CF93DF93EC0135
:100CC00060E08E810E947D0261E08E810E947D0243
:100CD00060E08E810E947D028BE891E00197F1F740
:100CE000DF91CF910895CF92DF92EF92FF920F9311
:100CF0001F93CF93DF936C017C0187E0E80EF11C1A
:100D0000D0E0C0E0062F10E0B8010C2E02C07595AF
:100D100067950A94E2F76170F70181917F010E9463
:100D20007D022196C430D10579F7C601DF91CF91BC
:100D30001F910F91FF90EF90DF90CF900C945D0684
:100D4000CF92DF92EF92FF920F931F93CF93DF9397
:100D5000EC01F62E642F8C810E947D028D818F3FE5
:100D600019F060E00E947D020F2D10E08F8584FF56
:100D700025C06E0187E0C80ED11CF12CE12CB80112
:100D80000E2C02C0759567950A94E2F76170F60122
:100D900081916F010E947D02FFEFEF1AFF0A88E048
:100DA000E816F10461F7CE01DF91CF911F910F9109
:100DB000FF90EF90DF90CF900C945D06B80184E037
:100DC000759567958A95E1F7CE010E9473066F2DA0
:100DD000CE01DF91CF911F910F91FF90EF90DF90A7
:100DE000CF900C94730640E0682F8DE894E00C944B
:100DF000A006CF93DF93823029F490919C049860F1
:100E000090939C048093A0041092A10480E48093AA
:100E1000A20480E18093A30480E58093A40461E0B0
:100E2000809191040E94AB02809192048F3F19F04F
:100E300061E00E94AB0261E0809193040E94AB02EA
:100E4000CDE8D4E09E012D58344080919C0484FD6F
:100E50000BC084E090E021962817390744F461E044
:100E60008E810E94AB02EECF88E090E0F4CF8BE35E
:100E70009DE00197F1F760E0809191040E947D026E
:100E800060E0809193040E947D02809192048F3FE4
:100E900019F060E00E947D0280919C0484FD39C0BD
:100EA00063E08DE894E00E947306CBE4D6E4CE01C3
:100EB0000197F1F763E08DE894E00E9473062197B3
:100EC000F1F763E08DE894E00E94730683E592E019
:100ED0000197F1F762E08DE894E00E94730680913B
:100EE0009C0480620E94F30684E080939D048CE061
:100EF0000E94F30681E00E94F3068BE39FE10197D5
:100F0000F1F782E080939E0486E0DF91CF910C940C
:100F1000F30680620E94F3068BE496E40197F1F7F2
:100F200080919C0480620E94F30683E592E0019721
:100F3000F1F780919C0480620E94F306D0CF41E0DB
:100F40000E94A00681E090E008950F931F93CF9335
:100F5000DF93EC0188819981009759F02A813B81C8
:100F60002617370730F081E0DF91CF911F910F9165
:100F700008958B016F5F7F4F0E943D14009759F0D9
:100F8000998388831B830A832C813D81232B59F706
:100F9000FC011082E8CF80E0E7CFEF92FF920F9341
:100FA0001F93CF93DF936115710541F480E0DF91CA
:100FB000CF911F910F91FF90EF900895411551052A
:100FC000B1F07B01EC010C811D81040F151FB801EC
:100FD0000E94A507882351F3288139818C819D8146
:100FE000B701820F931F0E9427151D830C8381E098
:100FF000DECFCF93DF93EC0188819981009711F0C8
:101000000E94B413198218821D821C821B821A82CC
:10101000DF91CF910895CF93DF93EC01FB014481E1
:101020005581608171810E94CD07811103C0CE017D
:101030000E94F907CE01DF91CF910895EF92FF92C0
:101040000F931F93CF93DF93EC017B018A01BA01C9
:101050000E94A50781110BC0CE010E94F907CE01A5
:10106000DF91CF911F910F91FF90EF9008951D8315
:101070000C83B701888199810E942715F0CFFB016D
:1010800001900020E9F73197AF01461B570B0C94F4
:101090001E08EF92FF920F931F93CF93DF93CDB76C
:1010A000DEB7A1970FB6F894DEBF0FBECDBF7C01AF
:1010B000CB01BA01F70111821082138212821582CC
:1010C00014828E010F5F1F4F22E044E00E94AC0D9E
:1010D000009789F0BC01C7010E943F08A1960FB696
:1010E000F894DEBF0FBECDBFDF91CF911F910F915E
:1010F000FF90EF900895C7010E94F907EFCFFB0121
:1011000001900020E9F73197AF01461B570B0C9473
:101110001E08CF93DF93EC01FB018617970749F078
:10112000608171816115710541F0448155810E9492
:101130001E08CE01DF91CF9108950E94F907F9CFE3
:10114000FC0180819181009711F00C94B4130895F3
:101150001F920F920FB60F9211242F933F938F93EC
:101160009F93AF93BF938091130390911403A09129
:101170001503B09116033091120323E0230F2D378E
:1011800058F50196A11DB11D2093120380931303FE
:1011900090931403A0931503B09316038091170343
:1011A00090911803A0911903B0911A030196A11D03
:1011B000B11D8093170390931803A0931903B09364
:1011C0001A03BF91AF919F918F913F912F910F90F3
:1011D0000FBE0F901F90189526E8230F0296A11DB1
:1011E000B11DD2CF1F920F920FB60F9211240BB6E2
:1011F0000F922F933F934F935F936F937F938F93B0
:101200009F93AF93BF93EF93FF9381E293E00E948C
:10121000D203FF91EF91BF91AF919F918F917F91F9
:101220006F915F914F913F912F910F900BBE0F9057
:101230000FBE0F901F9018951F920F920FB60F922E
:1012400011240BB60F922F938F939F93EF93FF93DD
:10125000E0913103F09132038081E0913703F09106
:10126000380382FD1DC0908180913A038F5F8F7398
:1012700020913B03821741F0E0913A03F0E0EF5DEB
:10128000FC4F958F80933A03FF91EF919F918F913F
:101290002F910F900BBE0F900FBE0F901F901895BF
:1012A0008081F2CF1F920F920FB60F9211240BB6CE
:1012B0000F922F933F934F935F936F937F938F93EF
:1012C0009F93AF93BF93EF93FF938EEB93E00E94B6
:1012D000D203FF91EF91BF91AF919F918F917F9139
:1012E0006F915F914F913F912F910F900BBE0F9097
:1012F0000FBE0F901F9018951F920F920FB60F926E
:1013000011240BB60F922F938F939F93EF93FF931C
:10131000E091CE03F091CF038081E091D403F0916E
:10132000D50382FD1DC090818091D7038F5F8F739D
:101330002091D803821741F0E091D703F0E0E25406
:10134000FC4F958F8093D703FF91EF919F918F91E1
:101350002F910F900BBE0F900FBE0F901F901895FE
:101360008081F2CFE1E2F3E01382128248EE53E093
:1013700060E070E044835583668377838AE292E07D
:10138000918380832DEC30E0358724872CEC30E08E
:101390003787268728EC30E0318B208B29EC30E032
:1013A000338B228B2AEC30E0358B248B2EEC30E013
:1013B000378B268B118E128E138E148EEEEBF3E08C
:1013C000138212824483558366837783918380835B
:1013D00085EC90E09587848784EC90E097878687FA
:1013E00080EC90E0918B808B81EC90E0938B828BF2
:1013F00082EC90E0958B848B86EC90E0978B868BCB
:10140000118E128E138E148EEDE8F4E01382128288
:101410008CE392E09183808386E084838FEF8583E1
:1014200087E0868388E0878389E080878AE08187F8
:101430008BE082871386148615861686178681E0D0
:101440000E94F90683E393E3A3E3BFE38093690477
:1014500090936A04A0936B04B0936C040895CF93A7
:10146000DF93CDB7DEB7AA970FB6F894DEBF0FBEF5
:10147000CDBF789484B5826084BD84B5816084BD1D
:1014800085B5826085BD85B5816085BD80916E0022
:10149000816080936E001092810080918100826053
:1014A0008093810080918100816080938100809190
:1014B00080008160809380008091B100846080937F
:1014C000B1008091B00081608093B0008091910064
:1014D000826080939100809191008160809391005F
:1014E000809190008160809390008091A100826043
:1014F0008093A1008091A10081608093A1008091E0
:10150000A00081608093A00080912101826080937F
:10151000210180912101816080932101809120012E
:1015200081608093200180917A00846080937A00AA
:1015300080917A00826080937A0080917A00816045
:1015400080937A0080917A00806880937A0010926C
:10155000C1008EEB93E00E94EF0181E293E00E94D4
:10156000EF0182E00E94F90660E08CE00E94AB028D
:1015700061E082E00E94AB0261E083E00E94AB0286
:1015800061E084E00E94AB0261E085E00E94AB0272
:10159000E0E12E2EE3E03E2E1A8219821C821B828D
:1015A0001E821D8264E472E0CE0101960E947F08D3
:1015B0001C8A1B8A1E8A1D8A188E1F8A69E472E0A3
:1015C000CE0143960E947F0881E00E94F3068BE3E0
:1015D0009FE10197F1F7E1E08091A0048111E0E043
:1015E000E195F0E0E357FB4F848980680E94F306A1
:1015F0004F89588D6B897C898DE894E00E94540353
:10160000E091A004E23008F013C2E150F0E0E357AB
:10161000FB4F848980680E94F3064D815E81698159
:101620007A818DE894E00E945403CE0143960E9493
:10163000A008CE0101960E94A008ECE3F3E084919B
:10164000E6EFF2E01491E0EBF2E00491002309F4FC
:10165000ECC181110E941602E02FF0E0EE0FFF1F97
:10166000EA5AFD4FA591B4918C91182309F4DDC17C
:10167000109211031092100306E112E010928F02F3
:1016800010928E02E0911003F0911103EE5EFD4F77
:1016900080811C8A1B8A1E8A1D8A188E1F8A898354
:1016A0001A82BE016F5F7F4FCE0143960E943F08B2
:1016B0001A8E198E1C8E1B8E1E8E1D8E63E572E097
:1016C000CE0149960E947F08BE016D5E7F4FCE011C
:1016D00049960E940B081A8219821C821B821E8264
:1016E0001D82BC01CE0101960E9489084D815E8158
:1016F00069817A8181E293E00E94540387E692E057
:101700000E94D005CE0101960E94A008CE01499604
:101710000E94A008CE0143960E94A008F8016081B3
:1017200082E00E947D02F801628183E00E947D02D6
:1017300066E0E62E62E0F62EF701608184E00E940A
:101740007D02F701628185E00E947D0260E070E821
:101750008DE094E40E9421068EE493E00E949204BE
:101760008111FACF2091750430917604409177046D
:10177000509178046091890470918A0480918B045F
:1017800090918C040E94B6106093790470937A044F
:1017900080937B0490937C040E9494124B015C0123
:1017A00080925D0490925E04A0925F04B092600407
:1017B0001092640480918E0290918F02E091100348
:1017C000F091110343E0EE0FFF1F4A95E1F7E80F98
:1017D000F91FEE0FFF1FEE0FFF1FE057FD4F808236
:1017E0009182A282B382019690938F0280938E029F
:1017F00060E070EC80E394E40E94210681E593E0D0
:101800000E9492048111FACF2091750430917604E0
:1018100040917704509178046091890470918A0412
:1018200080918B0490918C040E94B610609379048F
:1018300070937A0480937B0490937C040E949412AA
:10184000AB01BC0140935D0450935E0460935F0460
:10185000709360041092640480918E0290918F02C4
:10186000E0911003F091110323E0EE0FFF1F2A9582
:10187000E1F7E80FF91FEE0FFF1FEE0FFF1FE05714
:10188000FD4F80829182A282B382019690938F0253
:1018900080938E02CE0143960E944908B501A401AF
:1018A000CE0149960E94490880918E0290918F0244
:1018B00018A21F8E1AA219A21CA21BA24AE0BE01E6
:1018C0006F5F7F4F0E94CA0DBE016F5F7F4FCE01D9
:1018D0004F960E943F081EA21DA218A61FA21AA67C
:1018E00019A66AE672E0CE0185960E947F08BE01C5
:1018F000615E7F4FCE0185960E940B086C0145E02A
:1019000050E061E772E00E94CD07811103C0C6017B
:101910000E94F907BE01675E7F4FC6010E940B0857
:101920006C0146E050E067E772E00E94CD0781114C
:1019300003C0C6010E94F907BE016D5E7F4FC6015C
:101940000E940B081A8219821C821B821E821D8231
:10195000BC01CE0101960E9489084D815E8169819A
:101960007A8181E293E00E94540387E692E00E942C
:10197000D005CE0101960E94A008CE0185960E9456
:10198000A008CE014F960E94A008CE0149960E9461
:10199000A008CE0143960E94A008F4E0EF0EF11CCF
:1019A00082E1E81682E0F80609F0C6CE0E9418032C
:1019B00080911003909111030196909311038093ED
:1019C00010030E9418030C5F1F4FE2E006321E074F
:1019D00009F054CE00E912E04801B12CA12CF40129
:1019E000C190D190E190F1904F01A7019601C701FC
:1019F000B6010E94D4128823E9F08EE792E00E949B
:101A0000D0058AE892E00E94D005FFEFAF1ABF0A26
:101A100086E0A816B10419F787E692E00E94D00587
:101A2000005E1F4F20163106B9F60E946104B4CD46
:101A3000E1E0ECCD26013701E89477F82FEF3FEF96
:101A40004FE75FE7C301B2010E94D41281110DC0BC
:101A50002FEF3FEF4FE75FE7C301B2010E94501045
:101A600018161CF482E892E0CACF2FEF3FEF4FE741
:101A70005FE4C701B6010E94891218161CF486E8BB
:101A800092E0BDCF2FEF3FEF4FE75FECC701B6010C
:101A90000E94501087FDF3CF20E030E0A901C7017C
:101AA000B6010E94501087FF09C06DE281E293E009
:101AB0000E94F403F7FAF094F7F8F0942AE037ED77
:101AC00043EA5BE3C701B6010E9475112B013C019B
:101AD0000E945A126B017C010E9455109B01AC01BF
:101AE000C301B2010E9474112B013C014AE0C701FD
:101AF000B6010E94DD056EE281E293E00E94F403EC
:101B000020E030E040E251E4C301B2010E94B6108F
:101B10002B013C010E945A126B01F12CE12C4AE08E
:101B2000C701B6010E94DD05C701B6010E9455102C
:101B30009B01AC01C301B2010E94741120E030E0AE
:101B400040E251E40E94B6100E945A1290E080E0F8
:101B50004AE00E94DD0555CFEF920F931F93CF937C
:101B6000DF93E80134E047FD34E1042E000C550B0F
:101B700057FF03C0519541955109E32E022F242FA1
:101B8000AE010E94EF0DCE01DF91CF911F910F9119
:101B9000EF900895BB274A3031F4992322F4BDE237
:101BA000909581959F4F0C94D60DBB27FB0155272F
:101BB000AA27880F991FAA1FA41710F0A41B8395AA
:101BC0005051B9F7A05DAA3308F0A95DA193009721
:101BD00079F7B111B1931192CB010C9440108F920F
:101BE0009F92AF92BF92CF92DF92EF92FF920F93AC
:101BF0001F93CF93DF9300D000D000D0CDB7DEB7D6
:101C00006A01F22EB02E102FFBE3AF2EA01608F4BF
:101C10001BE31F5F012F27E0AE014F5F5F4F0E9464
:101C2000680FBC018981982F9970913009F44EC0DA
:101C30009BE2E1FC04C09E2D9170E0FC49C05E2D4A
:101C40005071E82FE87083FF55C084E0911101C006
:101C500083E0EF2DE81B8F1508F0E0E0D6018E2F12
:101C600020E25523C9F1992329F0D6019C93C6019E
:101C700001966C0196012D5F3F4FE2FE33C08EE46A
:101C8000D6018C9391E411969C93119712968C93A4
:101C9000D9018E2F90E281112AC0E20FF32FF11D9E
:101CA00010828EEF9FEF29960FB6F894DEBF0FBE1D
:101CB000CDBFDF91CF911F910F91FF90EF90DF90FB
:101CC000CF90BF90AF909F908F9008959DE2B7CF37
:101CD00090E2B5CF2D9381508111FCCFCE0ED11C57
:101CE000E0E0C1CF8EE6D6018C9391E6CCCF9D93F8
:101CF0008150D1CF482F447082FF3DC084E09111C4
:101D000001C083E08F1510F4EF2DE81BD6018E2F54
:101D100020E2552309F1992329F0D6019C93C601AD
:101D200001966C0196012D5F3F4FE2FE1BC089E4D6
:101D3000D6018C938EE411968C93119786E41296BB
:101D40008C93D9018E2F90E2882309F4A6CF9D931E
:101D50008150FACF2D9381508111FCCFCE0ED11C32
:101D6000E0E0D9CF89E6D6018C938EE611968C936C
:101D7000119786E6E4CF9B0177FF02C030E020E0B8
:101D8000A1E0B0E0911102C0B0E0A0E0F90131960D
:101D9000AE0FBF1F8B2C912CBB2009F461C05401E6
:101DA000EFEFAE1ABE0AAA0DBB1DFA161B0619F0FC
:101DB00014F04F2D4A1B511188C0E3FC59C0760125
:101DC000A42FB0E2A1114FC0C40ED11C992309F475
:101DD0005BC040E0D6011196F60190836D0155235A
:101DE00009F448C0012F060F9A81582F507184FFC3
:101DF00003C0913309F4015010160CF047C00930AC
:101E000008F008E0EEE2FE2E5B01A01AB1088501A1
:101E10009194819491082F3F320729F4D601FC92C6
:101E2000F60131966F016217730794F102171307D9
:101E30007CF5DB01A21BB30BAA24A394B12CAC0E3E
:101E4000BD1EAA0DBB1D11968C9121503109D601E2
:101E5000119628153905F4F0F60180836D01DBCF6A
:101E6000B12CA12CA0CFF701B1937F01A150AACF33
:101E70009111B0CFD601942F50E302C05D939150E1
:101E80009111FCCFC40ED11C40E0ACCF01E0BACF21
:101E900080E3DBCF6217730731F4963388F4953310
:101EA00011F4552369F0F6018083FD01842F90E23F
:101EB000811108C0A40FB11D1C9290E080E0F3CE08
:101EC00081E3F1CF91938150F3CF911183CF8ACFEA
:101ED000283008F027E03327DA01990F311D87FDFC
:101EE000916000966105710539F432602E5F3D9373
:101EF00030E32A95E1F708959F3F30F0803871056F
:101F0000610509F03C5F3C5F3D93913008F08068CB
:101F1000911DDF93CF931F930F93FF92EF92192F91
:101F2000987F9695E92F96959695E90FFF27EA54A5
:101F3000FE4F99273327EE24FF24A701E7010590E0
:101F40000894079428F4360FE71EF81E491F511D08
:101F5000660F771F881F991F0694A1F705900794B5
:101F600028F4E70EF81E491F561FC11D770F881F62
:101F7000991F661F0694A1F70590079428F4F80EA0
:101F8000491F561FC71FD11D880F991F661F771F36
:101F90000694A1F70590079420F4490F561FC71F18
:101FA000D81F990F661F771F881F0694A9F7849181
:101FB0001095177041F0D695C79557954795F794AA
:101FC000E7941A95C1F7ECE5F1E068941590159146
:101FD00035916591959105907FE27395E118F10A2D
:101FE000430B560BC90BD009C0F7E10CF11E431F80
:101FF000561FC91FD01D7EF4703311F48A95E6CFA9
:10200000E894015030F0080F0AF40027021708F492
:10201000202F2395022F7A3328F079E37D932A9598
:10202000E9F710C07D932A9589F6069497956795F0
:10203000379517951794E118F10A430B560BC90B06
:10204000D00998F023957E9173957A3308F070E368
:102050007C932013B8F77E9170617D9330F0839567
:1020600071E37D9370E32A95E1F71124EF90FF90DF
:102070000F911F91CF91DF91992787FD909508953A
:10208000DC01FC01672F71917723E1F7329704C0DF
:102090007C916D9370836291AE17BF07C8F308956A
:1020A0000E94921008F481E00895E89409C097FB1B
:1020B0003EF490958095709561957F4F8F4F9F4F1F
:1020C0009923A9F0F92F96E9BB279395F695879563
:1020D00077956795B795F111F8CFFAF4BB0F11F426
:1020E00060FF1BC06F5F7F4F8F4F9F4F16C08823CD
:1020F00011F096E911C0772321F09EE8872F762F03
:1021000005C0662371F096E8862F70E060E02AF043
:102110009A95660F771F881FDAF7880F969587952F
:1021200097F90895990F0008550FAA0BE0E8FEEF04
:1021300016161706E807F907C0F012161306E4078B
:10214000F50798F0621B730B840B950B39F40A2684
:1021500061F0232B242B252B21F408950A2609F462
:10216000A140A6958FEF811D811D08950E94C91081
:102170000C943A110E942C1138F00E94331120F077
:10218000952311F00C9423110C94291111240C9413
:102190006E110E944B1170F3959FC1F3950F50E0A3
:1021A000551F629FF001729FBB27F00DB11D639F09
:1021B000AA27F00DB11DAA1F649F6627B00DA11DAF
:1021C000661F829F2227B00DA11D621F739FB00D55
:1021D000A11D621F839FA00D611D221F749F3327C5
:1021E000A00D611D231F849F600D211D822F762F5E
:1021F0006A2F11249F5750409AF0F1F088234AF03B
:10220000EE0FFF1FBB1F661F771F881F91505040A6
:10221000A9F79E3F510580F00C9423110C946E1188
:102220005F3FE4F3983ED4F3869577956795B7952D
:10223000F795E7959F5FC1F7FE2B880F911D969547
:10224000879597F9089597F99F6780E870E060E0B7
:1022500008959FEF80EC089500240A94161617063F
:1022600018060906089500240A9412161306140687
:1022700005060895092E0394000C11F4882352F0EA
:10228000BB0F40F4BF2B11F460FF04C06F5F7F4FA2
:102290008F4F9F4F089557FD9058440F551F59F089
:1022A0005F3F71F04795880F97FB991F61F09F3F43
:1022B00079F087950895121613061406551FF2CF6C
:1022C0004695F1DF08C0161617061806991FF1CFBC
:1022D00086957105610508940895E894BB276627E3
:1022E0007727CB0197F908955058BB27AA270E945A
:1022F0008C110C943A110E942C1138F00E94331169
:1023000020F039F49F3F19F426F40C9429110EF4AF
:10231000E095E7FB0C942311E92F0E944B1158F331
:10232000BA17620773078407950720F079F4A6F5BA
:102330000C946D110EF4E0950B2EBA2FA02D0B010D
:10234000B90190010C01CA01A0011124FF27591BFA
:1023500099F0593F50F4503E68F11A16F040A22F00
:10236000232F342F4427585FF3CF46953795279571
:10237000A795F0405395C9F77EF41F16BA0B620B70
:10238000730B840BBAF09150A1F0FF0FBB1F661FB7
:10239000771F881FC2F70EC0BA0F621F731F841FFA
:1023A00048F4879577956795B795F7959E3F08F020
:1023B000B0CF9395880F08F09927EE0F97958795E2
:1023C00008950E94F5110C943A110E94331158F0AF
:1023D0000E942C1140F029F45F3F29F00C94231146
:1023E00051110C946E110C9429110E944B1168F339
:1023F0009923B1F3552391F3951B550BBB27AA27BE
:1024000062177307840738F09F5F5F4F220F331FF7
:10241000441FAA1FA9F335D00E2E3AF0E0E832D0BF
:1024200091505040E695001CCAF72BD0FE2F29D0C2
:10243000660F771F881FBB1F261737074807AB0794
:10244000B0E809F0BB0B802DBF01FF2793585F4F09
:102450003AF09E3F510578F00C9423110C946E11C4
:102460005F3FE4F3983ED4F3869577956795B795EB
:10247000F7959F5FC9F7880F911D9695879597F9F6
:102480000895E1E0660F771F881FBB1F621773076F
:102490008407BA0720F0621B730B840BBA0BEE1F84
:1024A00088F7E09508950E945A126894B1110C942F
:1024B0006E1108950E94531188F09F5798F0B92F1C
:1024C0009927B751B0F0E1F0660F771F881F991F69
:1024D0001AF0BA95C9F714C0B13091F00E946D118D
:1024E000B1E008950C946D11672F782F8827B85F9D
:1024F00039F0B93FCCF3869577956795B395D9F7C1
:102500003EF490958095709561957F4F8F4F9F4FCA
:1025100008950E94921008F48FEF089519F416F4AC
:102520000C9429110C94D9120E945311B8F39923D9
:10253000C9F3B6F39F57550B87FF0E94E71200249B
:10254000A0E640EA900180585695979528F4805C63
:10255000660F771F881F20F026173707480730F4CB
:10256000621B730B840B202931294A2BA6951794E3
:102570000794202531254A2758F7660F771F881FB3
:1025800020F026173707480730F4620B730B840BD3
:10259000200D311D411DA09581F7B901842F91585F
:1025A000880F9695879508950E949210880B990B35
:1025B00008959F3F31F0915020F487957795679566
:1025C000B795880F911D9695879597F90895915025
:1025D0005040660F771F881FD2F70895A1E21A2E88
:1025E000AA1BBB1BFD010DC0AA1FBB1FEE1FFF1FB7
:1025F000A217B307E407F50720F0A21BB30BE40B07
:10260000F50B661F771F881F991F1A9469F760954D
:102610007095809590959B01AC01BD01CF01089507
:10262000EE0FFF1F881F8BBF0790F691E02D1994C6
:102630000F931F93CF93DF938230910510F482E0C4
:1026400090E0E091A704F091A80430E020E0B0E031
:10265000A0E0309799F42115310509F44AC0281BF0
:10266000390B24303105D8F58A819B8161157105BC
:1026700089F1FB0193838283FE0111C04081518166
:102680000281138148175907E0F04817590799F458
:10269000109761F012960C93129713961C93329632
:1026A000CF01DF91CF911F910F9108950093A7045F
:1026B0001093A804F4CF2115310551F042175307A8
:1026C00038F0A901DB019A01BD01DF01F801C1CF9A
:1026D000EF01F9CF9093A8048093A704CDCFFE011A
:1026E000E20FF31F8193919322503109398328839C
:1026F000D7CF2091A5043091A604232B41F420913B
:102700000202309103023093A6042093A504209185
:102710000002309101022115310541F42DB73EB779
:102720004091040250910502241B350BE091A50451
:10273000F091A604E217F307A0F42E1B3F0B281715
:10274000390778F0AC014E5F5F4F2417350748F02A
:102750004E0F5F1F5093A6044093A504819391935D
:102760009FCFF0E0E0E09CCFCF93DF930097E9F0BC
:10277000FC01329713821282A091A704B091A804A1
:10278000ED0130E020E01097A1F420813181820F2B
:10279000931F2091A5043091A6042817390709F04A
:1027A00061C0F093A604E093A504DF91CF91089552
:1027B000EA01CE17DF07E8F54A815B819E014115EA
:1027C0005105B1F7E901FB83EA8349915991C40F9F
:1027D000D51FEC17FD0761F4808191810296840F6B
:1027E000951FE90199838883828193819B838A83E2
:1027F000F0E0E0E012968D919C9113970097B9F567
:102800002D913C911197CD010296820F931F20913B
:10281000A5043091A6042817390739F6309751F5E9
:102820001092A8041092A704B093A604A093A50444
:10283000BCCFD383C28340815181840F951FC817B9
:10284000D90761F44E5F5F4F88819981480F591F06
:10285000518340838A819B81938382832115310533
:1028600009F0B0CFF093A804E093A7049ECFFD0138
:10287000DC01C0CF13821282D7CF4F925F926F924A
:102880007F928F929F92AF92BF92CF92DF92EF9200
:10289000FF920F931F93CF93DF938C01009799F4CE
:1028A000CB01DF91CF911F910F91FF90EF90DF90BF
:1028B000CF90BF90AF909F908F907F906F905F90E0
:1028C0004F900C941813FC01E60FF71F9C01225047
:1028D0003109E217F30708F4AEC0D901CD91DC91BC
:1028E0001197C617D70720F1C530D10578F0CE0172
:1028F00004978617970750F0C61BD70B2297C193F2
:10290000D1936D937C93CF010E94B413C801DF91E2
:10291000CF911F910F91FF90EF90DF90CF90BF90DC
:10292000AF909F908F907F906F905F904F900895A1
:102930005B01AC1ABD0A4C018C0E9D1EA091A70430
:10294000B091A804512C412CF12CE12C109731F5B9
:102950008091A5049091A6048815990509F05CC0A2
:102960004616570608F058C0809100029091010267
:10297000009741F48DB79EB7409104025091050233
:10298000841B950BE817F90708F055C0F093A604CF
:10299000E093A504F90171836083B8CF8D919C9178
:1029A000119712966C90129713967C901397A81516
:1029B000B90559F56C0142E0C40ED11CCA14DB0400
:1029C00020F1AC014A195B09DA011296159780F0E3
:1029D0006282738251834083D9016D937C93E114A9
:1029E000F10471F0D7011396FC93EE9312978ECFFA
:1029F00022968C0F9D1FF90191838083F301EFCF05
:102A0000F093A804E093A70481CF4816590608F470
:102A10002C017D01D3019ACFCB010E9418137C01B8
:102A2000009749F0AE01B8010E941E15C8010E942E
:102A3000B41387016BCF10E000E068CFFB01DC012D
:102A400002C001900D9241505040D8F70895FB010B
:102A5000DC0101900D920020E1F70895F894FFCF7A
:102A60000000A90480000000000000000100010037
:102A70000100414243440000000001000000010049
:102A800001000000010000000000F4035403810372
:102A90004104B2039003A403000000009F07540305
:102AA0008F048E042E2E2E2E00656E63656E646973
:102AB000646F00496E6963696F20636F6E66696752
:102AC0006172696F6E20000D0A00546573743A20BC
:102AD000002C2056313A002C2056323A20006E61EC
:0E2AE0006E00696E66006F7666002C200000A6
:00000001FF
