:100000000C9442010C9473010C9473010C947301D1
:100010000C9473010C9473010C9473010C94730190
:100020000C9473010C9473010C9473010C94730180
:100030000C9473010C9473010C9473010C94730170
:100040000C9473010C9473010C9473010C94730160
:100050000C9473010C9473010C9473010C94AE070F
:100060000C9473010C9482080C9458080C9473013E
:100070000C9473010C9473010C9473010C94730130
:100080000C9473010C9473010C9473010C94730120
:100090000C9422080C94F8070C9473010C947301CF
:1000A0000C9473010C9473010C9473010C94730100
:1000B0000C9473010C9473010C9473010C947301F0
:1000C0000C9473010C9473010C9473010C947301E0
:1000D0000C9473010C9473010C9473010C947301D0
:1000E0000C9473010C9438030C94F5010C94E30107
:1000F0000C94CC010C94C0010C94DE050C943C0CC7
:100100000C94FF010C9469030C9445040C94F702C1
:100110000C94DF010C94C4010C94B8080C94BA013F
:100120000C9446040C94F8030C94D9010C94FA0234
:100130000C94D5010C94ED010C945B030C94FA0122
:100140000C94C8010C94CF010C94E7010C94470364
:100150000C94AB030C94F1010C94FB010C940B0375
:1001600000002100240027002A002D003000330069
:1001700001010000040107010A010000220025001E
:1001800028002B002E003100340002010000050180
:1001900008010B01000020002300260029002C008C
:1001A0002F003200000100000301060109010505CE
:1001B0000505070508080808020202020A0A0808DD
:1001C000040404040101010101010101030303030B
:1001D00003030303040707070C0C0C0C0C0C0C0C9A
:1001E0000202020206060606060606060B0B0B0BAB
:1001F0000B0B0B0B010210202008081020401020D0
:1002000040800201020108040201010204081020DA
:1002100040808040201008040201800402018040D8
:100220002010080402010804020101020408102041
:100230004080010204081020408000000A0B0209DF
:100240000C0D0E0807030401000000000000000070
:10025000000000000000000000000000000000009E
:10026000000000000000121110000000000000005B
:10027000000000000000000000000000000000007E
:10028000B8083C0C11241FBECFEFD1E2DEBFCDBFBA
:1002900000E00CBF2CE0AEE0B3E001C01D92A5323F
:1002A000B207E1F713E0A0E0B2E0EEE9FDE100E023
:1002B0000BBF02C007900D92AE30B107D9F711E025
:1002C000C1E4D1E000E006C021970109802FFE01C2
:1002D0000E949F0CC034D10780E00807A9F70E9454
:1002E00094090C94BD0E0C940000FC01A089B18906
:1002F00082E08C93A485B5851C92A685B7858FEC8A
:100300008C93108EA489B58986E08C93A289B389D9
:100310008C9180618C93A289B3898C9188608C9335
:10032000A289B3898C9180688C930288F389E02D2F
:1003300080818F7D808308958150823108F05AC07A
:10034000E82FF0E08827E855FE4F8F4F0C949F0C64
:10035000C801CC01BA01C001C401FA01CF01D50125
:10036000D901DF01E301E701ED01F101FA01F50136
:10037000FB01FF01809180008F77809380000895BA
:10038000809180008F7DF9CF80918000877FF5CFAD
:1003900084B58F7784BD089584B58F7DFBCF809120
:1003A000B0008F778093B00008958091B0008F7D6A
:1003B000F9CF809190008F7780939000089580917D
:1003C00090008F7DF9CF80919000877FF5CF80914D
:1003D000A0008F778093A00008958091A0008F7D6A
:1003E000F9CF8091A000877FF5CF809120018F7792
:1003F000809320010895809120018F7DF9CF809115
:100400002001877FF5CFCF93DF93E6E4F2E084917C
:10041000E0E0F2E0D491EAEBF1E0C491CC23A1F06A
:1004200081110E949C01EC2FF0E0EE0FFF1FEC56B3
:10043000FE4FA591B491EC91ED2381E090E009F499
:1004400080E0DF91CF91089580E090E0FACF1F9394
:10045000CF93DF93282F30E0F901E65CFD4F8491C4
:10046000F901EC50FE4FD491F901E255FE4FC491D1
:10047000CC23A9F0162F81110E949C01EC2FF0E0F3
:10048000EE0FFF1FE658FE4FA591B4918FB7F89479
:10049000EC91111108C0D095DE23DC938FBFDF9162
:1004A000CF911F910895DE2BF8CFCF93DF9390E08B
:1004B000FC01EC50FE4F249182559E4FFC0184912B
:1004C0008823D1F090E0880F991FFC01E05AFE4F7D
:1004D000A591B491FC01E658FE4FC591D4916111EC
:1004E0000EC09FB7F8948C91E22FE0958E238C93E9
:1004F0002881E223E8839FBFDF91CF9108958FB7D2
:10050000F894EC91E22BEC938FBFF6CF90917B00A7
:10051000977F90937B008653806480937C008091CA
:100520007A00806480937A0080917A0086FDFCCF07
:10053000809178009091790008953FB7F894809168
:100540005F0A9091600AA091610AB091620A26B593
:10055000A89B05C02F3F19F00196A11DB11D3FBFFB
:10056000BA2FA92F982F8827BC01CD01620F711DCA
:10057000811D911D42E0660F771F881F991F4A95C4
:10058000D1F708958F929F92AF92BF92CF92DF9250
:10059000EF92FF920E949D024B015C0188ECC82EF5
:1005A000D12CE12CF12C0E949D02681979098A094D
:1005B0009B09683E734081059105A8F321E0C21AAA
:1005C000D108E108F10888EE880E83E0981EA11C8E
:1005D000B11CC114D104E104F10429F7FF90EF909C
:1005E000DF90CF90BF90AF909F908F90089587E35A
:1005F0000C94860288E30C948602DB0114964D91DC
:100600005C9115976D917C91DC01ED91FC910280DC
:10061000F381E02D1994AF92BF92CF92DF92EF92C7
:10062000FF920F931F93CF93DF936C017B018B019C
:10063000040F151FEB015E01AE18BF08C017D107EC
:1006400059F06991D601ED91FC910190F081E02D76
:10065000C6011995892B79F7C501DF91CF911F91BB
:100660000F91FF90EF90DF90CF90BF90AF900895E3
:10067000FC01538D448D252F30E0842F90E0821BA8
:10068000930B541710F0CF96089501970895FC012D
:10069000918D828D981761F0A28DAE0FBF2FB11D85
:1006A0005D968C91928D9F5F9F73928F90E00895DD
:1006B0008FEF9FEF0895FC01918D828D981731F097
:1006C000828DE80FF11D858D90E008958FEF9FEFEB
:1006D0000895FC01918D228D892F90E0805C9F4FC1
:1006E000821B91098F739927089583E69AE00E94EF
:1006F000690321E0892B09F420E0822F089580E02E
:100700009BE00E94690321E0892B09F420E0822FFD
:100710000895FC01A48DA80FB92FB11DA35ABF4F96
:100720002C91848D90E001968F739927848FA689F0
:10073000B7892C93A089B1898C91837080648C9344
:10074000938D848D981306C00288F389E02D8081F3
:100750008F7D80830895EF92FF920F931F93CF9325
:10076000DF93EC0181E0888F9B8D8C8D98131AC0EC
:10077000E889F989808185FF15C09FB7F894EE89D3
:10078000FF896083E889F989808183708064808330
:100790009FBF81E090E0DF91CF911F910F91FF907B
:1007A000EF900895F62E0B8D10E00F5F1F4F0F7323
:1007B0001127E02E8C8D8E110CC00FB607FCFACFDE
:1007C000E889F989808185FFF5CFCE010E948903F0
:1007D000F1CFEB8DEC0FFD2FF11DE35AFF4FF082AF
:1007E0009FB7F8940B8FEA89FB8980818062CFCF15
:1007F000CF93DF93EC01888D8823B9F0AA89BB8958
:10080000E889F9898C9185FD03C0808186FD0DC042
:100810000FB607FCF7CF8C9185FFF2CF808185FF63
:10082000EDCFCE010E948903E9CFDF91CF910895EA
:1008300080E090E0892B29F00E947F0381110E94C3
:10084000000080E090E0892B29F00E94750381115F
:100850000E94000080E090E0892B49F080E090E069
:10086000892B29F00E94000081110E94000080E085
:1008700090E0892B49F080E090E0892B29F00E94DC
:10088000000081110C9400000895089590E080E02C
:100890000895FC0119959C0180910E0390910F031E
:1008A0008115F2E09F073CF481E0211542E0340716
:1008B00054F480E008C081159240D9F381E02130E2
:1008C000F2E03F07B4F730930F0320930E0308952F
:1008D000CF93DF93EC0160E08E810E94270261E0FC
:1008E0008E810E94270260E08E810E9427028BE8A1
:1008F00091E00197F1F7DF91CF910895CF92DF92C8
:10090000EF92FF920F931F93CF93DF936C017C01C3
:1009100087E0E80EF11CD0E0C0E0062F10E0B8013F
:100920000C2E02C0759567950A94E2F76170F70185
:1009300081917F010E9427022196C430D10579F769
:10094000C601DF91CF911F910F91FF90EF90DF9043
:10095000CF900C946804CF92DF92EF92FF920F93A6
:100960001F93CF93DF93EC01F62E642F8C810E94AE
:1009700027028D818F3F19F060E00E9427020F2D22
:1009800010E08F8584FF25C06E0187E0C80ED11C62
:10099000F12CE12CB8010E2C02C0759567950A94D4
:1009A000E2F76170F60181916F010E942702FFEF6B
:1009B000EF1AFF0A88E0E816F10461F7CE01DF9133
:1009C000CF911F910F91FF90EF90DF90CF900C94FB
:1009D0006804B80184E0759567958A95E1F7CE01C2
:1009E0000E947E046F2DCE01DF91CF911F910F9158
:1009F000FF90EF90DF90CF900C947E0440E0682F42
:100A000089E09CE00C94AB0481E00E94FE048BE33F
:100A10009FE10197F1F70895CF93DF93823029F496
:100A20009091180C98609093180C80931C0C109265
:100A30001D0C80E480931E0C80E180931F0C80E5E8
:100A40008093200C61E080910D0C0E9455028091F2
:100A50000E0C8F3F19F061E00E94550261E0809119
:100A60000F0C0E945502C9E0DCE09E0129503C4079
:100A70008091180C84FD0BC084E090E0219628172B
:100A8000390744F461E08E810E945502EECF88E080
:100A900090E0F4CF8BE39DE00197F1F760E0809167
:100AA0000D0C0E94270260E080910F0C0E9427022B
:100AB00080910E0C8F3F19F060E00E942702809118
:100AC000180C84FD34C063E089E09CE00E947E0441
:100AD000CBE4D6E4CE010197F1F763E089E09CE036
:100AE0000E947E042197F1F763E089E09CE00E9478
:100AF0007E0483E592E00197F1F762E089E09CE0F3
:100B00000E947E048091180C80620E94FE0484E0A2
:100B10008093190C8CE00E94FE040E94040582E080
:100B200080931A0C86E0DF91CF910C94FE048062D2
:100B30000E94FE048BE496E40197F1F78091180C73
:100B400080620E94FE0483E592E00197F1F78091B4
:100B5000180C80620E94FE04D5CF0F931F93CF9391
:100B6000DF938C01EB010E940405E1E080911C0CF5
:100B70008111E0E0E195F0E0E75FF34F8489806860
:100B80000E94FE04B80189E09CE00E94FD02E09111
:100B90001C0CE23088F4E150F0E0E75FF34F848909
:100BA00080680E94FE04BE0189E09CE0DF91CF9145
:100BB0001F910F910C94FD02E1E0EECF41E00E9405
:100BC000AB0481E090E00895FB0101900020E9F77B
:100BD0003197AF01461B570BDC01ED91FC91028070
:100BE000F381E02D19940F931F93CF93DF93EC01C2
:100BF0000E94FD028C016CE372E0CE010E94E405CC
:100C0000800F911FDF91CF911F910F9108950F9346
:100C10001F93CF93DF93EC0188819981009759F05E
:100C20002A813B812617370730F081E0DF91CF9191
:100C30001F910F9108958B016F5F7F4F0E94CC0D24
:100C4000009759F0998388831B830A832C813D8107
:100C5000232B59F7FC011082E8CF80E0E7CFCF9338
:100C6000DF93EC0188819981009711F00E94430D78
:100C7000198218821D821C821B821A82DF91CF91F9
:100C80000895EF92FF920F931F93CF93DF93EC01A0
:100C9000FB01E080F180E114F10411F10481158180
:100CA00001151105A9F08C819D81080F191FB8014C
:100CB000CE010E940706882399F0288139818C8112
:100CC0009D81B701820F931F0E94B60E1D830C8376
:100CD000CE01DF91CF911F910F91FF90EF9008957A
:100CE000CE010E942F06F4CFEF92FF920F931F9335
:100CF000CF93DF93EC017B018A01BA010E940706C2
:100D000081110BC0CE010E942F06CE01DF91CF9141
:100D10001F910F91FF90EF9008951D830C83B701F1
:100D2000888199810E94B60EF0CFCF93DF93EC01BA
:100D3000FB018617970749F0608171816115710584
:100D400041F0448155810E947406CE01DF91CF911C
:100D500008950E942F06F9CFFC01118210821382A0
:100D6000128215821482FB0101900020E9F731976D
:100D7000AF01461B570B0C947406FC0180819181D6
:100D8000009711F00C94430D08958F929F92AF92AB
:100D9000BF92DF92EF92FF920F931F93CF93DF9357
:100DA000CDB7DEB72C970FB6F894DEBF0FBECDBF20
:100DB0008C0110924B0310924A0310924703109239
:100DC00046030E949D0268517C4F8F4F9F4F609356
:100DD00010037093110380931203909313031092E6
:100DE000490310924803E4E1F3E082E3DF011D923E
:100DF0008A95E9F752E3D52E8091480390914903F3
:100E000004977CF4C8010E9449048823A9F38091C7
:100E100048039091490301969093490380934803B6
:100E2000EBCFF8011995E0904603F090470320912D
:100E30004A0330914B034091540A5091550AD49E75
:100E4000F001D59EF00D1124E20FF31FEE0FFF1FEE
:100E5000E45BFC4F918380832F5F3F4F30934B03C4
:100E600020934A03C8010E944904F701EC5EFC4F3D
:100E700080830E949D028090100390901103A090A7
:100E80001203B0901303681579058A059B0588F352
:100E90000E949D0268517C4F8F4F9F4F60931003BB
:100EA0007093110380931203909313038091460370
:100EB0009091470301969093470380934603C2970E
:100EC0000CF49ACF8091540A9091550A26E0289FFD
:100ED0008001299F100D11240356144F6FE372E017
:100EE000CE0101960E94AC06B801CE0101960E9487
:100EF000410618861F821A8619861C861B86BC012D
:100F0000CE0107960E949506BE01695F7F4F83E67A
:100F10009AE00E94F305CE0107960E94BD06CE011D
:100F200001960E94BD068091540A9091550A01963F
:100F30009093550A8093540A2C960FB6F894DEBF0E
:100F40000FBECDBFDF91CF911F910F91FF90EF901A
:100F5000DF90BF90AF909F908F9008951F920F9257
:100F60000FB60F9211242F933F938F939F93AF93BC
:100F7000BF9380915B0A90915C0AA0915D0AB09149
:100F80005E0A30915A0A23E0230F2D3758F5019657
:100F9000A11DB11D20935A0A80935B0A90935C0AAD
:100FA000A0935D0AB0935E0A80915F0A9091600AF7
:100FB000A091610AB091620A0196A11DB11D8093B2
:100FC0005F0A9093600AA093610AB093620ABF918E
:100FD000AF919F918F913F912F910F900FBE0F90E6
:100FE0001F90189526E8230F0296A11DB11DD2CFA0
:100FF0001F920F920FB60F9211240BB60F922F93E0
:101000003F934F935F936F937F938F939F93AF9390
:10101000BF93EF93FF9383E69AE00E948903FF91C9
:10102000EF91BF91AF919F918F917F916F915F9160
:101030004F913F912F910F900BBE0F900FBE0F90CD
:101040001F9018951F920F920FB60F9211240BB696
:101050000F922F938F939F93EF93FF93E091730AD7
:10106000F091740A8081E091790AF0917A0A82FD08
:101070001DC0908180917C0A8F5F8F7320917D0AC3
:10108000821741F0E0917C0AF0E0ED59F54F958F21
:1010900080937C0AFF91EF919F918F912F910F90F8
:1010A0000BBE0F900FBE0F901F9018958081F2CF4E
:1010B0001F920F920FB60F9211240BB60F922F931F
:1010C0003F934F935F936F937F938F939F93AF93D0
:1010D000BF93EF93FF9380E09BE00E948903FF9111
:1010E000EF91BF91AF919F918F917F916F915F91A0
:1010F0004F913F912F910F900BBE0F900FBE0F900D
:101100001F9018951F920F920FB60F9211240BB6D5
:101110000F922F938F939F93EF93FF93E091100B78
:10112000F091110B8081E091160BF091170B82FD6D
:101130001DC090818091190B8F5F8F7320911A0BC6
:10114000821741F0E091190BF0E0E050F54F958FD8
:101150008093190BFF91EF919F918F912F910F9099
:101160000BBE0F900FBE0F901F9018958081F2CF8D
:10117000E3E6FAE01382128248EE53E060E070E0AA
:10118000448355836683778382E292E091838083F0
:101190002DEC30E0358724872CEC30E0378726872C
:1011A00028EC30E0318B208B29EC30E0338B228B24
:1011B0002AEC30E0358B248B2EEC30E0378B268BFD
:1011C000118E128E138E148EE0E0FBE013821282D9
:1011D00044835583668377839183808385EC90E095
:1011E0009587848784EC90E09787868780EC90E0F1
:1011F000918B808B81EC90E0938B828B82EC90E0E2
:10120000958B848B86EC90E0978B868B118E128E5B
:10121000138E148EE9E0FCE01382128284E392E0E4
:101220009183808386E084838FEF858387E0868344
:1012300088E0878389E080878AE081878BE08287E6
:101240001386148615861686178681E00E940C0583
:1012500065E472E08DE99BE00E94AC066AE472E00E
:1012600083EA9BE00E94AC066FE472E089EA9BE0AF
:101270000E94AC0664E572E08FEA9BE00E94AC0637
:1012800069E572E085EB9BE00E94AC066EE572E0DA
:101290008BEB9BE00E94AC0663E672E081EC9BE086
:1012A0000E94AC0668E672E087EC9BE00E94AC0608
:1012B0006DE672E08DEC9BE00E94AC0662E772E0A6
:1012C00083ED9BE00E94AC0667E772E089ED9BE04E
:1012D0000E94AC066CE772E08FED9BE00E94AC06CA
:1012E00061E872E085EE9BE00E94AC0666E872E081
:1012F0008BEE9BE00E94AC066BE872E081EF9BE016
:101300000E94AC0660E972E087EF9BE00E94AC06A9
:1013100065E972E08DEF9BE00E94AC066AE972E03D
:1013200083E09CE00C94AC06CF93DF93CDB7DEB79F
:10133000AD970FB6F894DEBF0FBECDBF789484B5DD
:10134000826084BD84B5816084BD85B5826085BDC1
:1013500085B5816085BD80916E00816080936E004F
:101360001092810080918100826080938100809141
:1013700081008160809381008091800081608093F2
:1013800080008091B10084608093B1008091B000B2
:1013900081608093B0008091910082608093910081
:1013A0008091910081608093910080919000816094
:1013B000809390008091A10082608093A100809131
:1013C000A10081608093A1008091A0008160809342
:1013D000A0008091210182608093210180912101F0
:1013E00081608093210180912001816080932001A0
:1013F00080917A00846080937A0080917A00826084
:1014000080937A0080917A00816080937A00809145
:101410007A00806880937A001092C10080E09BE09F
:101420000E94750183E69AE00E94750182E00E94A5
:101430000C0560E08CE00E94550261E08FE10E94A3
:10144000550261E081E20E94550261E083E20E9460
:10145000550261E085E20E9455028E010F5F1F4F29
:1014600052E1852E52E0952E2FB7F89480915B0AB9
:1014700090915C0AA0915D0AB0915E0A2FBF4091E5
:10148000560A5091570A6091580A7091590A841B64
:10149000950BA60BB70B4197A105B10550F16FE96C
:1014A00072E0C8010E94AC0664EA72E0CE01829646
:1014B0000E94AC06B801CE0182960E94AD05CE0115
:1014C00082960E94BD06C8010E94BD062FB7F894FF
:1014D00080915B0A90915C0AA0915D0AB0915E0ACE
:1014E0002FBF8093560A9093570AA093580AB0933F
:1014F000590A0E940302019709F0A3C11092550AEC
:101500001092540A6EEA72E0CE0182960E94AC06F6
:1015100066EB72E0C8010E94AC06BE016E5D7F4FB3
:10152000C8010E94AD05C8010E94BD06CE01829689
:101530000E94BD060E94C20242E1E42E42E0F42E67
:101540000E9404052091540A3091550A46E0429FBA
:10155000C001439F900D1124FC01E356F44F6F012D
:101560006EEB72E0C8010E94AC06B601C8010E9491
:101570004106BC0189E09CE00E94F305C8010E947D
:10158000BD06F701608185E20E942702F7016281B2
:1015900083E20E9427020E949D022B013C0136E05B
:1015A000C32E32E0D32E2091540A3091550AF6E032
:1015B000F29FC001F39F900D11249C012356344FDC
:1015C000590169EC72E0CE0182960E94AC06B50129
:1015D000CE0182960E9441061A8219821C821B82C9
:1015E0001E821D82BC01C8010E949506B80183E6D7
:1015F0009AE00E94F305C8010E94BD06CE018296C2
:101600000E94BD06F601608181E20E942702F60178
:1016100062818FE10E94270287EF92E00E94C50657
:101620008AEF92E00E94C506F4E0CF0ED11C8C1424
:101630009D0409F0B8CF0E949D021BA21AA21DA210
:101640001CA21FA21EA264197509860997092AE027
:10165000A8010E944B0CF80101900020E9F7319796
:10166000AF01401B510BB801CE0182960E94740657
:101670006FED72E0CE0188960E94AC06BE016E5DF1
:101680007F4FCE0188960E9441061A8219821C82E1
:101690001B821E821D82BC01C8010E949506B801F2
:1016A00083E69AE00E94F305C8010E94BD06CE01C0
:1016B00088960E94BD06CE0182960E94BD0624E057
:1016C000E20EF11C3EE1E31632E0F30609F038CFFA
:1016D0000E940302892B09F047C02FB7F89480912C
:1016E0005B0A90915C0AA0915D0AB0915E0A2FBFDF
:1016F0004091560A5091570A6091580A7091590AC0
:10170000841B950BA60BB70B4197A105B10500F300
:101710006FEE72E0CE0182960E94AC066BEF72E033
:10172000C8010E94AC06BE016E5D7F4FC8010E94D9
:10173000AD05C8010E94BD06CE0182960E94BD067D
:101740002FB7F89480915B0A90915C0AA0915D0A92
:10175000B0915E0A2FBF8093560A9093570AA093C8
:10176000580AB093590AB4CF9DE9292E9BE0392E2F
:101770002CE4A22E23E0B22EB10180E09BE00E9477
:10178000FD0268E073E080E09BE00E94E405D12C5C
:10179000C12CF601EE0FFF1FEA0DFB1D40805180AA
:1017A000052C000C6608770877FE4EC06DE280E0DD
:1017B0009BE00E94AB0322273327A9012419350996
:1017C0004609570919A2CE0181967C01CA01B901C7
:1017D0002AE030E040E050E00E947D0C605DF701BF
:1017E00062937F01211531054105510579F7E11417
:1017F000F10429F0B70180E09BE00E94E4056BE072
:1018000073E080E09BE00E94E405FFEFCF1ADF0A5F
:1018100022E3C216D10409F0BCCF6CE372E080E091
:101820009BE00E94E40536E0230E311C44E6A40E42
:10183000B11C84E59AE08A159B0509F09DCF0E94B2
:10184000C2020E94180410CEA301920119A2CE0177
:1018500081967C01CA01B9012AE030E040E050E005
:101860000E947D0C605DF70162937F0121153105B7
:101870004105510579F7BBCFCF93DF93C9E0DCE099
:101880002697CE010E94BD068BE0CD39D807C1F75F
:10189000DF91CF910895BB27FA01A62F621771053A
:1018A00081059105330B30FB66F0AA27660F771F81
:1018B000881F991FAA1FA21710F0A21B639538500A
:1018C000A9F7A05DAA3308F0A95DA19336F7B1117D
:1018D000B1931082CA010C946D0CDC01FC01672FDE
:1018E00071917723E1F7329704C07C916D937083F7
:1018F0006291AE17BF07C8F30895A1E21A2EAA1B82
:10190000BB1BFD010DC0AA1FBB1FEE1FFF1FA217AF
:10191000B307E407F50720F0A21BB30BE40BF50BAC
:10192000661F771F881F991F1A9469F76095709535
:10193000809590959B01AC01BD01CF010895EE0FFC
:10194000FF1F881F8BBF0790F691E02D19940F930E
:101950001F93CF93DF938230910510F482E090E0E3
:10196000E091230CF091240C30E020E0B0E0A0E006
:10197000309799F42115310509F44AC0281B390B19
:1019800024303105D8F58A819B816115710589F173
:10199000FB0193838283FE0111C04081518102814A
:1019A000138148175907E0F04817590799F4109721
:1019B00061F012960C93129713961C933296CF01F6
:1019C000DF91CF911F910F9108950093230C1093F5
:1019D000240CF4CF2115310551F04217530738F08C
:1019E000A901DB019A01BD01DF01F801C1CFEF01BF
:1019F000F9CF9093240C8093230CCDCFFE01E20FFE
:101A0000F31F819391932250310939832883D7CFD3
:101A10002091210C3091220C232B41F420910202C1
:101A2000309103023093220C2093210C209100026C
:101A3000309101022115310541F42DB73EB7409197
:101A4000040250910502241B350BE091210CF0910A
:101A5000220CE217F307A0F42E1B3F0B28173907BF
:101A600078F0AC014E5F5F4F2417350748F04E0FFA
:101A70005F1F5093220C4093210C819391939FCF31
:101A8000F0E0E0E09CCFCF93DF930097E9F0FC011A
:101A9000329713821282A091230CB091240CED0195
:101AA00030E020E01097A1F420813181820F931F54
:101AB0002091210C3091220C2817390709F061C0C0
:101AC000F093220CE093210CDF91CF910895EA016D
:101AD000CE17DF07E8F54A815B819E01411551056C
:101AE000B1F7E901FB83EA8349915991C40FD51FEE
:101AF000EC17FD0761F4808191810296840F951F98
:101B0000E90199838883828193819B838A83F0E0B2
:101B1000E0E012968D919C9113970097B9F52D9165
:101B20003C911197CD010296820F931F2091210CB9
:101B30003091220C2817390739F6309751F5109259
:101B4000240C1092230CB093220CA093210CBCCF38
:101B5000D383C28340815181840F951FC817D90751
:101B600061F44E5F5F4F88819981480F591F5183FF
:101B700040838A819B81938382832115310509F0FB
:101B8000B0CFF093240CE093230C9ECFFD01DC0139
:101B9000C0CF13821282D7CF4F925F926F927F9203
:101BA0008F929F92AF92BF92CF92DF92EF92FF926D
:101BB0000F931F93CF93DF938C01009799F4CB0180
:101BC000DF91CF911F910F91FF90EF90DF90CF9019
:101BD000BF90AF909F908F907F906F905F904F904D
:101BE0000C94A70CFC01E60FF71F9C012250310951
:101BF000E217F30708F4AEC0D901CD91DC9111973B
:101C0000C617D70720F1C530D10578F0CE0104976B
:101C10008617970750F0C61BD70B2297C193D19315
:101C20006D937C93CF010E94430DC801DF91CF914A
:101C30001F910F91FF90EF90DF90CF90BF90AF90EA
:101C40009F908F907F906F905F904F9008955B0171
:101C5000AC1ABD0A4C018C0E9D1EA091230CB091B4
:101C6000240C512C412CF12CE12C109731F5809152
:101C7000210C9091220C8815990509F05CC046163C
:101C8000570608F058C08091000290910102009719
:101C900041F48DB79EB74091040250910502841B18
:101CA000950BE817F90708F055C0F093220CE09364
:101CB000210CF90171836083B8CF8D919C911197AC
:101CC00012966C90129713967C901397A815B905ED
:101CD00059F56C0142E0C40ED11CCA14DB0420F19A
:101CE000AC014A195B09DA011296159780F06282FD
:101CF000738251834083D9016D937C93E114F10485
:101D000071F0D7011396FC93EE9312978ECF229623
:101D10008C0F9D1FF90191838083F301EFCFF09326
:101D2000240CE093230C81CF4816590608F42C01AB
:101D30007D01D3019ACFCB010E94A70C7C010097B3
:101D400049F0AE01B8010E94AD0EC8010E94430DDA
:101D500087016BCF10E000E068CFFB01DC0102C01F
:101D600001900D9241505040D8F70895FB01DC01DD
:101D700001900D920020E1F7089511E0C1E4D1E057
:101D800000E006C0802FFE010E949F0C2196011DDD
:0E1D9000C234D10780E00807A9F7F894FFCF0E
:101D9E000000250C80000100010001000000000081
:101DAE000000010001000100000000000100000021
:101DBE000000AB030B033803F803690347035B030F
:101DCE0000000000DE050B03460445040D0A005416
:101DDE006573743A0041315631004131563200423A
:101DEE0031563100423156320043315631004331C3
:101DFE00563200413256310041325632004232568E
:101E0E00310042325632004332563100433256329E
:101E1E0000413356310041335632004233563100C1
:101E2E004233563200433356310043335632002E7E
:101E3E002E2E2E00656E63656E6469646F005052BF
:101E4E00554542415300494E4943494F2000536581
:101E5E006375656E6369612000496E6963696F2001
:101E6E00636F6E66696775726163696F6E20004C91
:101E7E006120707275656261206475726F20004317
:101E8E006172676172206461746100507265696F7E
:0E1E9E006E652070617261002C20002C000027
:00000001FF
