:100000000C943F010C9470010C9470010C947001DD
:100010000C9470010C9470010C9470010C9470019C
:100020000C9470010C9470010C9470010C9470018C
:100030000C9470010C9470010C9470010C9470017C
:100040000C9470010C9470010C9470010C9470016C
:100050000C9470010C9470010C9470010C94ED07D9
:100060000C9470010C9461080C9437080C94700186
:100070000C9470010C9470010C9470010C9470013C
:100080000C9470010C9470010C9470010C9470012C
:100090000C9470010C9470010C9470010C9470011C
:1000A0000C9470010C9470010C9470010C9470010C
:1000B0000C9470010C9470010C9470010C947001FC
:1000C0000C9470010C9470010C9470010C947001EC
:1000D0000C9470010C9470010C9470010C947001DC
:1000E0000C9470010C940E030C94E5030C94CB015A
:1000F0000C9493030C949A010C9446030C94000303
:100100000C94E4030C94D1010C9497080C94B9015D
:100110000C94AB010C9496010C94C7010C94AA02A8
:100120000C94D0010C949E010C94D5010C94900178
:100130000C94B0020C94B5010C94AF010C94A50181
:100140000C94AD020C94A2010C94BF070C94DD0238
:100150000C94BD010C94C3010C94EC02000020002F
:100160002300260029002C002F003200000100008F
:1001700003010601090100002100240027002A00D4
:100180002D003000330001010000040107010A01C5
:1001900000002200250028002B002E003100340032
:1001A00002010000050108010B0105050505070511
:1001B00008080808020202020A0A080804040404E3
:1001C000010101010101010103030303030303030F
:1001D000040707070C0C0C0C0C0C0C0C020202029E
:1001E00006060606060606060B0B0B0B0B0B0B0B87
:1001F0000102102020080810204010204080020139
:10020000020108040201010204081020408080401D
:10021000201008040201800402018040201008041C
:1002200002010804020101020408102040800102BA
:1002300004081020408000000A0B02090C0D0E0873
:10024000070304010000000000000000000000009F
:10025000000000000000000000000000000000009E
:10026000000012111000000000000000000000005B
:1002700000000000000000000000000097081124AA
:100280001FBECFEFD1E2DEBFCDBF00E00CBF23E049
:10029000A0E8B2E001C01D92A23CB207E1F712E073
:1002A000A0E0B2E0ECE7F0E200E00BBF02C0079094
:1002B0000D92A038B107D9F711E0CFE3D1E000E00B
:1002C00006C021970109802FFE010E941E0ECE3329
:1002D000D10780E00807A9F70E94EE080C943C10B3
:1002E0000C9400008150823108F05AC0E82FF0E0F1
:1002F0008827E258FE4F8F4F0C941E0E9E01A201DC
:10030000900196019A01D001A501AB01AF01B501A1
:10031000B901BD01C301C701D001CB01D101D50194
:10032000809180008F778093800008958091800075
:100330008F7DF9CF80918000877FF5CF84B58F774F
:1003400084BD089584B58F7DFBCF8091B0008F77F9
:100350008093B00008958091B0008F7DF9CF809197
:1003600090008F77809390000895809190008F7D0A
:10037000F9CF80919000877FF5CF8091A0008F7793
:100380008093A00008958091A0008F7DF9CF809187
:10039000A000877FF5CF809120018F778093200187
:1003A0000895809120018F7DF9CF80912001877F72
:1003B000F5CF1F93CF93DF93282F30E0F901EA5C4C
:1003C000FD4F8491F901E051FE4FD491F901E655BA
:1003D000FE4FC491CC23A9F0162F81110E94720107
:1003E000EC2FF0E0EE0FFF1FE057FE4FA591B49108
:1003F0008FB7F894EC91111108C0D095DE23DC93EF
:100400008FBFDF91CF911F910895DE2BF8CFCF934F
:10041000DF9390E0FC01E051FE4F249186559E4F02
:10042000FC0184918823D1F090E0880F991FFC0192
:10043000EA58FE4FA591B491FC01E057FE4FC591DB
:10044000D49161110EC09FB7F8948C91E22FE09582
:100450008E238C932881E223E8839FBFDF91CF9185
:1004600008958FB7F894EC91E22BEC938FBFF6CF01
:1004700090917B00977F90937B008653806480935C
:100480007C0080917A00806480937A0080917A0069
:1004900086FDFCCF809178009091790008953FB758
:1004A000F8948091CD029091CE02A091CF02B091AC
:1004B000D00226B5A89B05C02F3F19F00196A11DBB
:1004C000B11D3FBFBA2FA92F982F8827BC01CD019E
:1004D000620F711D811D911D42E0660F771F881FFD
:1004E000991F4A95D1F708958F929F92AF92BF922C
:1004F000CF92DF92EF92FF920E944F024B015C017C
:1005000088EEC82E83E0D82EE12CF12C0E944F02F9
:10051000681979098A099B09683E7340810591052C
:10052000A8F321E0C21AD108E108F10888EE880E8C
:1005300083E0981EA11CB11CC114D104E104F10494
:1005400029F7FF90EF90DF90CF90BF90AF909F90F2
:100550008F90089586E30C94380287E30C94380258
:10056000AF92BF92CF92DF92EF92FF920F931F93C1
:10057000CF93DF936C017B018B01040F151FEB01FF
:100580005E01AE18BF08C017D10759F06991D601B6
:10059000ED91FC910190F081E02DC6011995892B18
:1005A00079F7C501DF91CF911F910F91FF90EF90E7
:1005B000DF90CF90BF90AF900895FC01538D448D94
:1005C000252F30E0842F90E0821B930B541710F0FE
:1005D000CF96089501970895FC01918D828D98170B
:1005E00061F0A28DAE0FBF2FB11D5D968C91928DE3
:1005F0009F5F9F73928F90E008958FEF9FEF089514
:10060000FC01918D828D981731F0828DE80FF11DDC
:10061000858D90E008958FEF9FEF0895FC01918DF7
:10062000228D892F90E0805C9F4F821B91098F73F0
:100630009927089587ED92E00E940E0321E0892B0F
:1006400009F420E0822F0895FC01A48DA80FB92F92
:10065000B11DA35ABF4F2C91848D90E001968F73EA
:100660009927848FA689B7892C93A089B1898C9109
:10067000837080648C93938D848D981306C0028858
:10068000F389E02D80818F7D80830895EF92FF9222
:100690000F931F93CF93DF93EC0181E0888F9B8DA5
:1006A0008C8D98131AC0E889F989808185FF15C05F
:1006B0009FB7F894EE89FF896083E889F989808182
:1006C0008370806480839FBF81E090E0DF91CF9151
:1006D0001F910F91FF90EF900895F62E0B8D10E073
:1006E0000F5F1F4F0F731127E02E8C8D8E110CC0E2
:1006F0000FB607FCFACFE889F989808185FFF5CF2D
:10070000CE010E942403F1CFEB8DEC0FFD2FF11DE4
:10071000E35AFF4FF0829FB7F8940B8FEA89FB8969
:1007200080818062CFCFCF93DF93EC01888D8823C7
:10073000B9F0AA89BB89E889F9898C9185FD03C044
:10074000808186FD0DC00FB607FCF7CF8C9185FF29
:10075000F2CF808185FFEDCFCE010E942403E9CF47
:10076000DF91CF91089580E090E0892B29F00E94DD
:100770001A0381110E94000080E090E0892B49F06B
:1007800080E090E0892B29F00E94000081110E94F6
:10079000000080E090E0892B49F080E090E0892B18
:1007A00029F00E94000081110E94000080E090E08A
:1007B000892B49F080E090E0892B29F00E9400000D
:1007C00081110C9400000895089590E080E0089550
:1007D0008F929F92AF92BF92CF92DF92EF92FF9251
:1007E000CF93DF93FC01199520917C03222309F418
:1007F000ECC0F0907E03FF2009F41EC120917A0323
:1008000030917B03BC01621B730B70937503609383
:100810007403072E000C880B990B0E94650B9B013B
:10082000AC0160919A0370919B0380919C0390911D
:100830009D030E94830C60939A0370939B038093A3
:100840009C0390939D036091740370917503072E30
:10085000000C880B990B0E94650B9B01AC010E9458
:10086000C40B20919E0330919F034091A0035091AF
:10087000A1030E94830C60939E0370939F03809357
:10088000A0039093A103C0918803D0918903209184
:10089000800330918103C217D30709F08DC06093A4
:1008A000A2037093A3038093A4039093A503FF2056
:1008B00009F476C0C0908203D0908303E090840353
:1008C000F0908503A701960160E070E080E89FE367
:1008D0000E94820C209196033091970340919803D7
:1008E000509199030E94C40B4B015C0120919A0323
:1008F00030919B0340919C0350919D03C701B60129
:100900000E94C40B9B01AC01C501B4010E94830C81
:100910006B017C01C0929603D0929703E0929803FA
:10092000F0929903BE01DD0F880B990B0E94650BB5
:100930009B01AC01C701B6010E94EF0C6B017C0169
:1009400020E030E0A9010E94970D20E030E040E077
:100950005FE387FD76C0C701B6010E94830C0E9449
:10096000610D709387036093860380917A03909161
:100970007B03680F791F70937B0360937A03109257
:100980009A0310929B0310929C0310929D038091F6
:100990007F03882329F010927C0381E080937D03FC
:1009A00010929E0310929F031092A0031092A10335
:1009B0001092890310928803809188039091890393
:1009C000019690938903809388030E944F02C09000
:1009D000D102D090D202E090D302F090D4026C15F4
:1009E0007D058E059F0588F3D701C60188519C4F70
:1009F000AF4FBF4F8093D1029093D202A093D30206
:100A0000B093D4022091D5023091D6022F5F3F4F90
:100A10003093D6022093D50281E0283E33400CF07B
:100A200080E0DF91CF91FF90EF90DF90CF90BF906B
:100A3000AF909F908F900895909375038093740367
:100A400002CFC701B6010E94820C89CF1F93CF93BA
:100A5000DF93C4E7D3E01B8622E330E03D872C8799
:100A600011E01A8720E032E03F832E839B01AC0126
:100A70000E94C40B20E030E048E45CE40E94EF0CEC
:100A80006A8F7B8F8C8F9D8F1AA61BA61CA61DA616
:100A90001D8A1C8A188719861092D6021092D502D8
:100AA0000E944F0268517C4F8F4F9F4F6093D1023D
:100AB0007093D2028093D3029093D402DF91CF91AE
:100AC0001F910895FC0101900020E9F73197AF01D3
:100AD000481B590BBC0187ED92E00C94B0028F9239
:100AE0009F92AF92BF920F931F93CF93DF93CDB797
:100AF000DEB7A1970FB6F894DEBF0FBECDBF19A227
:100B0000423008F44AE08E010F5D1F4F842E912C75
:100B1000B12CA12CA50194010E94FC0DE62FB90176
:100B2000CA01EA30F4F4E05DD801EE938D01232B85
:100B3000242B252B79F790E080E0109719F0CD0158
:100B40000E946205A1960FB6F894DEBF0FBECDBF1E
:100B5000DF91CF911F910F91BF90AF909F908F9099
:100B60000895E95CE1CF4F925F926F927F928F92EE
:100B70009F92AF92BF92CF92DF92EF92FF926B0162
:100B80007C01AC019B010E94E20D8823C1F080E44E
:100B900092E00E9462057C018CE492E00E94620572
:100BA0008E0D9F1DFF90EF90DF90CF90BF90AF9084
:100BB0009F908F907F906F905F904F900895460127
:100BC0005701E894B7F82FEF3FEF4FE75FE7C50114
:100BD000B4010E94E20D81110DC02FEF3FEF4FE7EE
:100BE0005FE7C501B4010E945E0B18161CF484E493
:100BF00092E0CFCF2FEF3FEF4FE75FE4C701B601A1
:100C00000E94970D18161CF488E492E0C2CF2FEFD3
:100C10003FEF4FE75FECC701B6010E945E0B87FD17
:100C2000F3CF20E030E0A901C701B6010E945E0BBE
:100C3000B12CA12C87FF0AC06DE287ED92E00E94E3
:100C400046035C01F7FAF094F7F8F0942AE037EDE8
:100C500043EA5BE3C701B6010E94830C2B013C0110
:100C60000E94680D6B017C010E94630B9B01AC012B
:100C7000C301B2010E94820C2B013C014AE0C70172
:100C8000B6010E946F057C01EA0CFB1C6EE287ED49
:100C900092E00E944603E80EF91E20E030E040E2B8
:100CA00051E4C301B2010E94C40B2B013C010E941C
:100CB000680D4B01B12CA12C4AE0C501B4010E9482
:100CC0006F05E80EF91EC501B4010E94630B9B017C
:100CD000AC01C301B2010E94820C20E030E040E28E
:100CE00051E40E94C40B0E94680D90E080E04AE04D
:100CF0000E946F05E80EF91E4FCFCF93DF93EC01F2
:100D000060E08E810E94D90161E08E810E94D9014C
:100D100060E08E810E94D9018BE891E00197F1F7A4
:100D2000DF91CF910895CF92DF92EF92FF920F93D0
:100D30001F93CF93DF936C017C0187E0E80EF11CD9
:100D4000D0E0C0E0062F10E0B8010C2E02C075956F
:100D500067950A94E2F76170F70181917F010E9423
:100D6000D9012196C430D10579F7C601DF91CF9121
:100D70001F910F91FF90EF90DF90CF900C947D0624
:100D8000CF92DF92EF92FF920F931F93CF93DF9357
:100D9000EC01F62E642F8C810E94D9018D818F3F4A
:100DA00019F060E00E94D9010F2D10E08F8584FFBB
:100DB00025C06E0187E0C80ED11CF12CE12CB801D2
:100DC0000E2C02C0759567950A94E2F76170F601E2
:100DD00081916F010E94D901FFEFEF1AFF0A88E0AD
:100DE000E816F10461F7CE01DF91CF911F910F91C9
:100DF000FF90EF90DF90CF900C947D06B80184E0D7
:100E0000759567958A95E1F7CE010E9493066F2D3F
:100E1000CE01DF91CF911F910F91FF90EF90DF9066
:100E2000CF900C94930640E0682F86EA93E00C94F0
:100E3000C006CF93DF93823029F49091B503986078
:100E40009093B5038093B9031092BA0380E4809322
:100E5000BB0380E18093BC0380E58093BD0361E028
:100E60008091AA030E9407028091AB038F3F19F083
:100E700061E00E94070261E08091AC030E940702DA
:100E8000C6EAD3E09E01265A33408091B50384FD23
:100E90000BC084E090E021962817390744F461E004
:100EA0008E810E940702EECF88E090E0F4CF8BE3C2
:100EB0009DE00197F1F760E08091AA030E94D901BB
:100EC00060E08091AC030E94D9018091AB038F3F19
:100ED00019F060E00E94D9018091B50384FD39C00A
:100EE00063E086EA93E00E949306CBE4D6E4CE0169
:100EF0000197F1F763E086EA93E00E949306219759
:100F0000F1F763E086EA93E00E94930683E592E0BE
:100F10000197F1F762E086EA93E00E9493068091E0
:100F2000B50380620E94130784E08093B6038CE0CF
:100F30000E94130781E00E9413078BE39FE1019752
:100F4000F1F782E08093B70386E0DF91CF910C94B4
:100F5000130780620E9413078BE496E40197F1F770
:100F60008091B50380620E94130783E592E00197A8
:100F7000F1F78091B50380620E941307D0CF41E062
:100F80000E94C00681E090E008950F931F93CF93D5
:100F9000DF93EC0188819981009759F02A813B8188
:100FA0002617370730F081E0DF91CF911F910F9125
:100FB00008958B016F5F7F4F0E944B0F009759F090
:100FC000998388831B830A832C813D81232B59F7C6
:100FD000FC011082E8CF80E0E7CF1F920F920FB69E
:100FE0000F9211242F933F938F939F93AF93BF93AF
:100FF0008091C9029091CA02A091CB02B091CC021B
:101000003091C80223E0230F2D3758F50196A11D1A
:10101000B11D2093C8028093C9029093CA02A09385
:10102000CB02B093CC028091CD029091CE02A091E0
:10103000CF02B091D0020196A11DB11D8093CD02C7
:101040009093CE02A093CF02B093D002BF91AF9104
:101050009F918F913F912F910F900FBE0F901F90F6
:10106000189526E8230F0296A11DB11DD2CF1F921D
:101070000F920FB60F9211240BB60F922F933F933E
:101080004F935F936F937F938F939F93AF93BF9390
:10109000EF93FF9387ED92E00E942403FF91EF917D
:1010A000BF91AF919F918F917F916F915F914F9180
:1010B0003F912F910F900BBE0F900FBE0F901F907E
:1010C00018951F920F920FB60F9211240BB60F9224
:1010D0002F938F939F93EF93FF93E091E702F0910B
:1010E000E8028081E091ED02F091EE0282FD1DC0E8
:1010F00090818091F0028F5F8F732091F1028217AF
:1011000041F0E091F002F0E0E952FD4F958F8093BD
:10111000F002FF91EF919F918F912F910F900BBE55
:101120000F900FBE0F901F9018958081F2CFE7EDC2
:10113000F2E01382128288EE93E0A0E0B0E08483B4
:101140009583A683B78386E292E09183808385ECC2
:1011500090E09587848784EC90E09787868780EC81
:1011600090E0918B808B81EC90E0938B828B82EC72
:1011700090E0958B848B86EC90E0978B868B118E1C
:10118000128E138E148EE6EAF3E01382128288E345
:1011900092E09183808386E084838FEF858387E06C
:1011A000868388E0878389E080878AE081878BE077
:1011B00082871386148615861686178681E00E941C
:1011C000190783E393E3A3E3BFE380938203909340
:1011D0008303A0938403B09385030895CF93DF9393
:1011E000CDB7DEB72C970FB6F894DEBF0FBECDBFDC
:1011F000789484B5826084BD84B5816084BD85B5F2
:10120000826085BD85B5816085BD80916E008160FD
:1012100080936E00109281008091810082608093A3
:1012200081008091810081608093810080918000A5
:101230008160809380008091B10084608093B100D0
:101240008091B00081608093B000809191008260B5
:1012500080939100809191008160809391008091B2
:1012600090008160809390008091A10082608093C3
:10127000A1008091A10081608093A1008091A000D5
:1012800081608093A0008091210182608093210180
:1012900080912101816080932101809120018160F2
:1012A0008093200180917A00846080937A008091FD
:1012B0007A00826080937A0080917A0081608093C6
:1012C0007A0080917A00806880937A001092C10041
:1012D000E091E702F091E80282E08083E091E3028E
:1012E000F091E4021082E091E502F091E6028FECC9
:1012F00080831092EF02E091EB02F091EC0286E025
:101300008083E091E902F091EA028081806180832C
:10131000E091E902F091EA02808188608083E091A7
:10132000E902F091EA02808180688083E091E9021D
:10133000F091EA0280818F7D808382E00E9419070C
:1013400060E08CE00E94070261E082E00E940702F8
:1013500061E083E00E94070261E084E00E940702EE
:1013600061E085E00E9407024BE3242E4FE1342E1A
:1013700052E2452E52E0552E1A8219821C821B829F
:101380001E821D8264E070E0CE0101960E94C507B6
:1013900029813A8181117CC12115310519F0C901DA
:1013A0000E94C20E1A8219821E821D821C821B821A
:1013B00018861F821A8619861C861B8669E070E0D3
:1013C000CE0107960E94C5072F81388581116AC119
:1013D0002115310519F0C9010E94C20E18861F821D
:1013E0001C861B861A86198681E00E941307C1019C
:1013F0000197F1F7E1E08091B9038111E0E0E19517
:10140000F0E0EA55FC4F848980680E9413074B8501
:101410005C856F81788586EA93E00E94B002E09156
:10142000B903E23008F048C1E150F0E0EA55FC4F62
:10143000848980680E9413074D815E8169817A8169
:1014400086EA93E00E94B0028F819885009711F0A0
:101450000E94C20E89819A81009711F00E94C20EEB
:10146000E2E4F2E08491ECEFF1E01491E6EBF1E0DC
:101470000491002309F409C181110E947201E02F37
:10148000F0E0EE0FFF1FE45AFE4FA591B4918C914E
:10149000182309F4FAC002E112E08EE592E00E94FE
:1014A00062058CE492E00E946205F801608182E0AE
:1014B0000E94D901F801628183E00E94D90186E08F
:1014C000E82E82E0F82E90E8692E92E0792E24EA48
:1014D000822E22E0922E64015301F701608184E0A4
:1014E0000E94D901F701628185E00E94D90160E084
:1014F00070E88DE094E40E9426058AEA92E00E945A
:10150000E8038111FACF20918E0330918F0340912F
:101510009003509191036091A2037091A303809175
:10152000A4039091A5030E94C40B6093920370934F
:10153000930380939403909395030E94A20D60936C
:1015400076037093770380937803909379031092D6
:101550007D03F60160837183828393838CE692E03E
:101560000E946205F60160817181828193810E94EF
:10157000B30560E070EC80E394E40E9426058DEAF8
:1015800092E00E94E8038111FACF20918E033091FE
:101590008F0340919003509191036091A203709149
:1015A000A3038091A4039091A5030E94C40B6093B0
:1015B00092037093930380939403909395030E94F6
:1015C000A20D6093760370937703809378039093D2
:1015D000790310927D03F501608371838283938385
:1015E00081E792E00E946205F5016191719181911C
:1015F00091915F010E94B305F4E0EF0EF11C84E0CD
:10160000C80ED11CE2E1EE16E2E0FE0609F065CF5D
:10161000C12CD12C760186E792E00E9462054AE057
:10162000C701B6010E946F058CE492E00E9462053A
:101630008CE692E00E946205F401619171918191C2
:1016400091914F010E94B30581E792E00E946205EB
:10165000F30161917191819191913F010E94B305D4
:10166000FFEFCF1ADF0AEF0AFF0A8AE0C816D1049B
:10167000E104F10481F60E9474020E9474020C5F7E
:101680001F4F4016510609F008CF0E94B30374CED5
:1016900084E090E09E838D836FE472E0C9010E9434
:1016A000351086CE89E090E09C878B8764E572E0F8
:1016B000C9010E94351098CEE1E0B7CE0E94A00B80
:1016C00008F481E00895E89409C097FB3EF49095F2
:1016D0008095709561957F4F8F4F9F4F9923A9F00B
:1016E000F92F96E9BB279395F6958795779567959A
:1016F000B795F111F8CFFAF4BB0F11F460FF1BC0DE
:101700006F5F7F4F8F4F9F4F16C0882311F096E970
:1017100011C0772321F09EE8872F762F05C066231E
:1017200071F096E8862F70E060E02AF09A95660FD7
:10173000771F881FDAF7880F9695879597F9089590
:10174000990F0008550FAA0BE0E8FEEF16161706D2
:10175000E807F907C0F012161306E407F50798F03A
:10176000621B730B840B950B39F40A2661F0232B53
:10177000242B252B21F408950A2609F4A140A695CF
:101780008FEF811D811D08950E94D70B0C94480C8A
:101790000E943A0C38F00E94410C20F0952311F081
:1017A0000C94310C0C94370C11240C947C0C0E947A
:1017B000590C70F3959FC1F3950F50E0551F629F30
:1017C000F001729FBB27F00DB11D639FAA27F00D9A
:1017D000B11DAA1F649F6627B00DA11D661F829FC1
:1017E0002227B00DA11D621F739FB00DA11D621FA6
:1017F000839FA00D611D221F749F3327A00D611DC3
:10180000231F849F600D211D822F762F6A2F1124A4
:101810009F5750409AF0F1F088234AF0EE0FFF1FD7
:10182000BB1F661F771F881F91505040A9F79E3F2E
:10183000510580F00C94310C0C947C0C5F3FE4F368
:10184000983ED4F3869577956795B795F795E79584
:101850009F5FC1F7FE2B880F911D9695879597F98D
:10186000089597F99F6780E870E060E008959FEF22
:1018700080EC089500240A94161617061806090627
:10188000089500240A9412161306140605060895F6
:10189000092E0394000C11F4882352F0BB0F40F47E
:1018A000BF2B11F460FF04C06F5F7F4F8F4F9F4FBE
:1018B000089557FD9058440F551F59F05F3F71F040
:1018C0004795880F97FB991F61F09F3F79F08795A7
:1018D0000895121613061406551FF2CF4695F1DF30
:1018E00008C0161617061806991FF1CF86957105C0
:1018F000610508940895E894BB2766277727CB01F4
:1019000097F908955058BB27AA270E949A0C0C9467
:10191000480C0E943A0C38F00E94410C20F039F437
:101920009F3F19F426F40C94370C0EF4E095E7FB76
:101930000C94310CE92F0E94590C58F3BA17620726
:1019400073078407950720F079F4A6F50C947B0CB7
:101950000EF4E0950B2EBA2FA02D0B01B9019001CA
:101960000C01CA01A0011124FF27591B99F0593F0E
:1019700050F4503E68F11A16F040A22F232F342F56
:101980004427585FF3CF469537952795A795F040A4
:101990005395C9F77EF41F16BA0B620B730B840BB9
:1019A000BAF09150A1F0FF0FBB1F661F771F881F71
:1019B000C2F70EC0BA0F621F731F841F48F48795C9
:1019C00077956795B795F7959E3F08F0B0CF9395BB
:1019D000880F08F09927EE0F9795879508950E9434
:1019E000030D0C94480C0E94410C58F00E943A0CD4
:1019F00040F029F45F3F29F00C94310C51110C9404
:101A00007C0C0C94370C0E94590C68F39923B1F3A9
:101A1000552391F3951B550BBB27AA276217730714
:101A2000840738F09F5F5F4F220F331F441FAA1FA8
:101A3000A9F335D00E2E3AF0E0E832D09150504064
:101A4000E695001CCAF72BD0FE2F29D0660F771F12
:101A5000881FBB1F261737074807AB07B0E809F0F8
:101A6000BB0B802DBF01FF2793585F4F3AF09E3F7D
:101A7000510578F00C94310C0C947C0C5F3FE4F32E
:101A8000983ED4F3869577956795B795F7959F5FC0
:101A9000C9F7880F911D9695879597F90895E1E00C
:101AA000660F771F881FBB1F621773078407BA076B
:101AB00020F0621B730B840BBA0BEE1F88F7E095C6
:101AC00008950E94680D6894B1110C947C0C0895DF
:101AD0000E94610C88F09F5798F0B92F9927B75151
:101AE000B0F0E1F0660F771F881F991F1AF0BA95C2
:101AF000C9F714C0B13091F00E947B0CB1E0089599
:101B00000C947B0C672F782F8827B85F39F0B93F8A
:101B1000CCF3869577956795B395D9F73EF4909574
:101B20008095709561957F4F8F4F9F4F08950E94CC
:101B3000A00B08F48FEF089519F416F40C94370CE9
:101B40000C94E70D0E94610CB8F39923C9F3B6F326
:101B50009F57550B87FF0E94F50D0024A0E640EA31
:101B6000900180585695979528F4805C660F771FF2
:101B7000881F20F026173707480730F4621B730BC5
:101B8000840B202931294A2BA695179407942025E8
:101B900031254A2758F7660F771F881F20F0261730
:101BA0003707480730F4620B730B840B200D311D8F
:101BB000411DA09581F7B901842F9158880F969502
:101BC000879508950E94A00B880B990B08959F3F5D
:101BD00031F0915020F4879577956795B795880FE8
:101BE000911D9695879597F9089591505040660FED
:101BF000771F881FD2F70895A1E21A2EAA1BBB1BDC
:101C0000FD010DC0AA1FBB1FEE1FFF1FA217B307C8
:101C1000E407F50720F0A21BB30BE40BF50B661FDE
:101C2000771F881F991F1A9469F7609570958095A2
:101C300090959B01AC01BD01CF010895EE0FFF1FF0
:101C4000881F8BBF0790F691E02D19940F931F9377
:101C5000CF93DF938230910510F482E090E0E09121
:101C6000C003F091C10330E020E0B0E0A0E0309785
:101C700099F42115310509F44AC0281B390B243089
:101C80003105D8F58A819B816115710589F1FB01C8
:101C900093838283FE0111C04081518102811381AF
:101CA00048175907E0F04817590799F4109761F061
:101CB00012960C93129713961C933296CF01DF91D4
:101CC000CF911F910F9108950093C0031093C1030A
:101CD000F4CF2115310551F04217530738F0A9010F
:101CE000DB019A01BD01DF01F801C1CFEF01F9CF9E
:101CF0009093C1038093C003CDCFFE01E20FF31F89
:101D0000819391932250310939832883D7CF209131
:101D1000BE033091BF03232B41F420910202309186
:101D200003023093BF032093BE0320910002309141
:101D300001022115310541F42DB73EB7409104024F
:101D400050910502241B350BE091BE03F091BF03B7
:101D5000E217F307A0F42E1B3F0B2817390778F082
:101D6000AC014E5F5F4F2417350748F04E0F5F1FE1
:101D70005093BF034093BE03819391939FCFF0E0B4
:101D8000E0E09CCFCF93DF930097E9F0FC0132971E
:101D900013821282A091C003B091C103ED0130E023
:101DA00020E01097A1F420813181820F931F2091B0
:101DB000BE033091BF032817390709F061C0F093C3
:101DC000BF03E093BE03DF91CF910895EA01CE17E0
:101DD000DF07E8F54A815B819E0141155105B1F7A6
:101DE000E901FB83EA8349915991C40FD51FEC1790
:101DF000FD0761F4808191810296840F951FE901AE
:101E000099838883828193819B838A83F0E0E0E0D9
:101E100012968D919C9113970097B9F52D913C9155
:101E20001197CD010296820F931F2091BE0330912E
:101E3000BF032817390739F6309751F51092C103BF
:101E40001092C003B093BF03A093BE03BCCFD38353
:101E5000C28340815181840F951FC817D90761F44F
:101E60004E5F5F4F88819981480F591F518340838E
:101E70008A819B81938382832115310509F0B0CF3C
:101E8000F093C103E093C0039ECFFD01DC01C0CFFE
:101E900013821282D7CF4F925F926F927F928F926E
:101EA0009F92AF92BF92CF92DF92EF92FF920F93E9
:101EB0001F93CF93DF938C01009799F4CB01DF91AF
:101EC000CF911F910F91FF90EF90DF90CF90BF9037
:101ED000AF909F908F907F906F905F904F900C94F9
:101EE000260EFC01E60FF71F9C0122503109E21774
:101EF000F30708F4AEC0D901CD91DC911197C61754
:101F0000D70720F1C530D10578F0CE0104978617A8
:101F1000970750F0C61BD70B2297C193D1936D93AF
:101F20007C93CF010E94C20EC801DF91CF911F9117
:101F30000F91FF90EF90DF90CF90BF90AF909F9068
:101F40008F907F906F905F904F9008955B01AC1AD7
:101F5000BD0A4C018C0E9D1EA091C003B091C1031F
:101F6000512C412CF12CE12C109731F58091BE03BE
:101F70009091BF038815990509F05CC04616570675
:101F800008F058C08091000290910102009741F43E
:101F90008DB79EB74091040250910502841B950BAA
:101FA000E817F90708F055C0F093BF03E093BE03AC
:101FB000F90171836083B8CF8D919C91119712962E
:101FC0006C90129713967C901397A815B90559F544
:101FD0006C0142E0C40ED11CCA14DB0420F1AC0138
:101FE0004A195B09DA011296159780F062827382B2
:101FF00051834083D9016D937C93E114F10471F016
:10200000D7011396FC93EE9312978ECF22968C0FE6
:102010009D1FF90191838083F301EFCFF093C103FA
:10202000E093C00381CF4816590608F42C017D01C6
:10203000D3019ACFCB010E94260E7C01009749F074
:10204000AE01B8010E942C10C8010E94C20E870187
:102050006BCF10E000E068CFFB01DC0102C0019013
:102060000D9241505040D8F70895FB01DC010190DA
:0C2070000D920020E1F70895F894FFCFD6
:10207C000000C2038000000000000000010001000D
:10208C000100000000000100000001000100000040
:10209C000100000000004603B002DD0293030E03B2
:1020AC00EC02000300000000BF07B002E503E403EC
:1020BC006E616E00696E66006F7666000D0A002E0A
:1020CC002E2E2E00656E63656E6469646F00696EFA
:1020DC006963696F20636F6E6669670056313A20D9
:1020EC000056323A200050726F6365736F20000007
:00000001FF
