:100000000C94BC010C94ED010C94ED010C94ED01E9
:100010000C94ED010C94ED010C94ED010C94ED01A8
:100020000C94ED010C94ED010C94ED010C94ED0198
:100030000C94ED010C94ED010C94ED010C94ED0188
:100040000C94ED010C94ED010C94ED010C94ED0178
:100050000C94ED010C94ED010C94ED010C94460907
:100060000C94ED010C941A0A0C94F0090C94ED0117
:100070000C94ED010C94ED010C94ED010C94ED0148
:100080000C94ED010C94ED010C94ED010C94ED0138
:100090000C94BA090C9490090C94ED010C94ED01A8
:1000A0000C94ED010C94ED010C94ED010C94ED0118
:1000B0000C94ED010C94ED010C94ED010C94ED0108
:1000C0000C94ED010C94ED010C94ED010C94ED01F8
:1000D0000C94ED010C94ED010C94ED010C94ED01E8
:1000E0000C94ED010C9459020C946F020C9467026D
:1000F0000C948E030C9450030C9446020C94490209
:100100000C9453020C945D020C949B040C947402A6
:100110000C944F020C94B1030C94500A0C949C0460
:100120000C949D030C946B020C9434020C94BF034A
:100130000C944E040C943A020C9401040C94420268
:100140000C9461020C944D030C948B070C94750273
:100150000C9461030C943E020C94790200407A10D6
:10016000F35A00A0724E18090010A5D4E80000E868
:100170007648170000E40B54020000CA9A3B0000C6
:1001800000E1F505000080969800000040420F0055
:100190000000A08601000000102700000000E80316
:1001A000000000006400000000000A0000000000E1
:1001B0000100000000002C76D888DC674F0823DFA0
:1001C000C1DFAE59E1B1B796E5E3E453C63AE65173
:1001D000997696E8E6C28426EB898C9B62ED407C9A
:1001E0006FFCEFBC9C9F40F2BAA56FA5F490055A36
:1001F0002AF75C936B6CF9676DC11BFCE0E40D475B
:10020000FEF520E6B500D0ED902E0300943577057D
:100210000080841E080000204E0A000000C80C3335
:100220003333330F986E12831141EF8D2114893BC4
:10023000E65516CFFEE6DB18D1844B381BF77C1D44
:10024000901DA4BBE424203284725E228100C9F197
:1002500024ECA1E53D270000200023002600290012
:100260002C002F00320000010000030106010901EB
:1002700000002100240027002A002D003000330058
:1002800001010000040107010A010000220025000D
:1002900028002B002E00310034000201000005016F
:1002A00008010B01050505050705080808080202F5
:1002B00002020A0A08080404040401010101010100
:1002C00001010303030303030303040707070C0CE3
:1002D0000C0C0C0C0C0C02020202060606060606AA
:1002E00006060B0B0B0B0B0B0B0B0102102020084F
:1002F0000810204010204080020102010804020181
:1003000001020408102040808040201008040201EF
:100310008004020180402010080402010804020148
:1003200001020408102040800102040810204080CF
:1003300000000A0B02090C0D0E080703040100005F
:1003400000000000000000000000000000000000AD
:10035000000000000000000000000000121110006A
:10036000000000000000000000000000000000008D
:10037000000000000000500A11241FBECFEFD1E2A0
:10038000DEBFCDBF00E00CBF24E0ACECB2E001C0AA
:100390001D92AB3CB207E1F712E0A0E0B2E0E8EA60
:1003A000FDE200E00BBF02C007900D92AC3CB1072C
:1003B000D9F711E0CCEBD1E000E006C021970109AC
:1003C000802FFE010E94B414CB3BD10780E00807C8
:1003D000A9F70E94CD0A0C94D2160C940000FC01DF
:1003E000A089B18982E08C93A485B5851C92A685ED
:1003F000B7858FEC8C93108EA489B58986E08C9399
:10040000A289B3898C9180618C93A289B3898C91E4
:1004100088608C93A289B3898C9180688C930288C0
:10042000F389E02D80818F7D808308958150823112
:1004300008F05AC0E82FF0E08827EE5DFD4F8F4F9F
:100440000C94B4144202460234023A023E02740290
:1004500049024F02530259025D02610267026B02B8
:1004600074026F0275027902809180008F77809309
:1004700080000895809180008F7DF9CF8091800069
:10048000877FF5CF84B58F7784BD089584B58F7D40
:10049000FBCF8091B0008F778093B000089580915A
:1004A000B0008F7DF9CF809190008F77809390007E
:1004B0000895809190008F7DF9CF80919000877F83
:1004C000F5CF8091A0008F778093A0000895809150
:1004D000A0008F7DF9CF8091A000877FF5CF80911C
:1004E00020018F77809320010895809120018F7DD6
:1004F000F9CF80912001877FF5CF1F93CF93DF93B2
:10050000282F30E0F901E05DFC4F8491F901E651BC
:10051000FD4FD491F901EC55FD4FC491CC23A9F0C6
:10052000162F81110E941602EC2FF0E0EE0FFF1F34
:10053000E657FD4FA591B4918FB7F894EC91111146
:1005400008C0D095DE23DC938FBFDF91CF911F9140
:100550000895DE2BF8CFCF93DF9390E0FC01E651B6
:10056000FD4F24918C559D4FFC0184918823D1F03F
:1005700090E0880F991FFC01E059FD4FA591B491BF
:10058000FC01E657FD4FC591D49161110EC09FB794
:10059000F8948C91E22FE0958E238C932881E223AE
:1005A000E8839FBFDF91CF9108958FB7F894EC91C6
:1005B000E22BEC938FBFF6CF90917B00977F9093C7
:1005C0007B008653806480937C0080917A008064F5
:1005D00080937A0080917A0086FDFCCF809178002C
:1005E0009091790008953FB7F894809139039091E4
:1005F0003A03A0913B03B0913C0326B5A89B05C0EC
:100600002F3F19F00196A11DB11D3FBFBA2FA92F91
:10061000982F8827BC01CD01620F711D811D911D8E
:1006200042E0660F771F881F991F4A95D1F70895FA
:100630008F929F92AF92BF92CF92DF92EF92FF92F2
:100640000E94F3024B015C0188ECC82ED12CE12CF6
:10065000F12C0E94F302681979098A099B09683E06
:10066000734081059105A8F321E0C21AD108E10881
:10067000F10888EE880E83E0981EA11CB11CC114FD
:10068000D104E104F10429F7FF90EF90DF90CF90BF
:10069000BF90AF909F908F90089587E30C94DC02F9
:1006A00088E30C94DC02DB0114964D915C91159764
:1006B0006D917C91DC01ED91FC910280F381E02D44
:1006C0001994AF92BF92CF92DF92EF92FF920F9365
:1006D0001F93CF93DF936C017B018B01040F151FD8
:1006E000EB015E01AE18BF08C017D10759F0699140
:1006F000D601ED91FC910190F081E02DC601199594
:10070000892B79F7C501DF91CF911F910F91FF9050
:10071000EF90DF90CF90BF90AF900895FC01538D84
:10072000448D252F30E0842F90E0821B930B5417CB
:1007300010F0CF96089501970895FC01918D828D58
:10074000981761F0A28DAE0FBF2FB11D5D968C91F1
:10075000928D9F5F9F73928F90E008958FEF9FEF30
:100760000895FC01918D828D981731F0828DE80FEC
:10077000F11D858D90E008958FEF9FEF0895FC01A6
:10078000918D228D892F90E0805C9F4F821B910973
:100790008F739927089583E493E00E94BF0321E0BB
:1007A000892B09F420E0822F089580EE93E00E94C7
:1007B000BF0321E0892B09F420E0822F0895FC017A
:1007C000A48DA80FB92FB11DA35ABF4F2C91848DB2
:1007D00090E001968F739927848FA689B7892C930F
:1007E000A089B1898C91837080648C93938D848D62
:1007F000981306C00288F389E02D80818F7D808365
:100800000895EF92FF920F931F93CF93DF93EC0124
:1008100081E0888F9B8D8C8D98131AC0E889F989A7
:10082000808185FF15C09FB7F894EE89FF896083AA
:10083000E889F98980818370806480839FBF81E02B
:1008400090E0DF91CF911F910F91FF90EF9008956D
:10085000F62E0B8D10E00F5F1F4F0F731127E02E48
:100860008C8D8E110CC00FB607FCFACFE889F98980
:10087000808185FFF5CFCE010E94DF03F1CFEB8DA4
:10088000EC0FFD2FF11DE35AFF4FF0829FB7F89454
:100890000B8FEA89FB8980818062CFCFCF93DF9372
:1008A000EC01888D8823B9F0AA89BB89E889F98988
:1008B0008C9185FD03C0808186FD0DC00FB607FCBD
:1008C000F7CF8C9185FFF2CF808185FFEDCFCE01F0
:1008D0000E94DF03E9CFDF91CF91089580E090E09F
:1008E000892B29F00E94D50381110E94000080E02D
:1008F00090E0892B29F00E94CB0381110E94000017
:1009000080E090E0892B49F080E090E0892B29F08D
:100910000E94000081110E94000080E090E0892B7D
:1009200049F080E090E0892B29F00E9400008111BD
:100930000C9400000895089590E080E008958F924F
:100940009F92AF92BF92CF92DF92EF92FF92CF939E
:10095000DF93FC01199520918504222309F4ECC052
:10096000F0908704FF2009F41EC120918304309188
:100970008404BC01621B730B70937E0460937D043E
:10098000072E000C880B990B0E94FB119B01AC01F8
:100990006091A3047091A4048091A5049091A60491
:1009A0000E9419136093A3047093A4048093A50478
:1009B0009093A60460917D0470917E04072E000C34
:1009C000880B990B0E94FB119B01AC010E945A12EB
:1009D0002091A7043091A8044091A9045091AA0441
:1009E0000E9419136093A7047093A8048093A9042C
:1009F0009093AA04C0919104D0919204209189040B
:100A000030918A04C217D30709F08DC06093AB04FC
:100A10007093AC048093AD049093AE04FF2009F46E
:100A200076C0C0908B04D0908C04E0908D04F09040
:100A30008E04A701960160E070E080E89FE30E94C9
:100A4000181320919F043091A0044091A10450916B
:100A5000A2040E945A124B015C012091A304309120
:100A6000A4044091A5045091A604C701B6010E94B8
:100A70005A129B01AC01C501B4010E9419136B010C
:100A80007C01C0929F04D092A004E092A104F09255
:100A9000A204BE01DD0F880B990B0E94FB119B0184
:100AA000AC01C701B6010E9485136B017C0120E0F7
:100AB00030E0A9010E942D1420E030E040E05FE327
:100AC00087FD76C0C701B6010E9419130E94F71373
:100AD0007093900460938F048091830490918404B8
:100AE000680F791F70938404609383041092A304A9
:100AF0001092A4041092A5041092A6048091880478
:100B0000882329F01092850481E080938604109256
:100B1000A7041092A8041092A9041092AA0410929B
:100B20009204109291048091910490919204019604
:100B300090939204809391040E94F302C0903D032D
:100B4000D0903E03E0903F03F09040036C157D058C
:100B50008E059F0588F3D701C60188519C4FAF4F82
:100B6000BF4F80933D0390933E03A0933F03B09308
:100B7000400320914103309142032F5F3F4F309358
:100B800042032093410381E0283E33400CF080E093
:100B9000DF91CF91FF90EF90DF90CF90BF90AF901B
:100BA0009F908F90089590937E0480937D0402CF50
:100BB000C701B6010E94181389CF1F93CF93DF930B
:100BC000CDE7D4E01B8622E330E03D872C8711E09F
:100BD0001A8720E032E03F832E839B01AC010E9404
:100BE0005A1220E030E048E45CE40E9485136A8FEA
:100BF0007B8F8C8F9D8F1AA61BA61CA61DA61D8AF7
:100C00001C8A1887198610924203109241030E9491
:100C1000F30268517C4F8F4F9F4F60933D03709359
:100C20003E0380933F0390934003DF91CF911F9148
:100C30000895CF93DF93EC0160E08E810E947D02E6
:100C400061E08E810E947D0260E08E810E947D02C3
:100C50008BE891E00197F1F7DF91CF910895CF9262
:100C6000DF92EF92FF920F931F93CF93DF936C016C
:100C70007C0187E0E80EF11CD0E0C0E0062F10E018
:100C8000B8010C2E02C0759567950A94E2F7617061
:100C9000F70181917F010E947D022196C430D10528
:100CA00079F7C601DF91CF911F910F91FF90EF90DF
:100CB000DF90CF900C941906CF92DF92EF92FF92C3
:100CC0000F931F93CF93DF93EC01F62E642F8C814B
:100CD0000E947D028D818F3F19F060E00E947D02AD
:100CE0000F2D10E08F8584FF25C06E0187E0C80EB0
:100CF000D11CF12CE12CB8010E2C02C07595679522
:100D00000A94E2F76170F60181916F010E947D0201
:100D1000FFEFEF1AFF0A88E0E816F10461F7CE0151
:100D2000DF91CF911F910F91FF90EF90DF90CF90C7
:100D30000C941906B80184E0759567958A95E1F7DA
:100D4000CE010E942F066F2DCE01DF91CF911F9112
:100D50000F91FF90EF90DF90CF900C942F0640E022
:100D6000682F8FEA94E00C945C0681E00E94AF0645
:100D70008BE39FE10197F1F70895CF93DF938230E2
:100D800029F49091BE0498609093BE048093C204AD
:100D90001092C30480E48093C40480E18093C5046E
:100DA00080E58093C60461E08091B3040E94AB02A9
:100DB0008091B4048F3F19F061E00E94AB0261E0C2
:100DC0008091B5040E94AB02CFEAD4E09E012F5A75
:100DD00034408091BE0484FD0BC084E090E02196F5
:100DE0002817390744F461E08E810E94AB02EECFF0
:100DF00088E090E0F4CF8BE39DE00197F1F760E0AD
:100E00008091B3040E947D0260E08091B5040E944D
:100E10007D028091B4048F3F19F060E00E947D0252
:100E20008091BE0484FD34C063E08FEA94E00E94A8
:100E30002F06CBE4D6E4CE010197F1F763E08FEA09
:100E400094E00E942F062197F1F763E08FEA94E087
:100E50000E942F0683E592E00197F1F762E08FEAA6
:100E600094E00E942F068091BE0480620E94AF062B
:100E700084E08093BF048CE00E94AF060E94B50618
:100E800082E08093C00486E0DF91CF910C94AF069E
:100E900080620E94AF068BE496E40197F1F780919F
:100EA000BE0480620E94AF0683E592E00197F1F7ED
:100EB0008091BE0480620E94AF06D5CF9091C2049B
:100EC000691710F06FEF690FE62FF0E0E155FB4F67
:100ED0009489890F80680C94AF060F931F93CF936A
:100EE000DF938C01EB010E94B50660E080E00E9478
:100EF0005E07B8018FEA94E00E94530361E080E04E
:100F00000E945E07BE018FEA94E0DF91CF911F91AE
:100F10000F910C94530341E00E945C0681E090E045
:100F20000895FB0101900020E9F73197AF01461BBE
:100F3000570BDC01ED91FC910280F381E02D1994B7
:100F40008F929F92AF92BF920F931F93CF93DF9395
:100F5000CDB7DEB7A1970FB6F894DEBF0FBECDBFF9
:100F600019A2423008F44AE08E010F5D1F4F842E13
:100F7000912CB12CA12CA50194010E949214E62F72
:100F8000B901CA01EA3004F5E05DD801EE938D01A4
:100F9000232B242B252B79F790E080E0109729F064
:100FA000BD0180EE93E00E949107A1960FB6F894E0
:100FB000DEBF0FBECDBFDF91CF911F910F91BF90CC
:100FC000AF909F908F900895E95CDFCF0F931F93B0
:100FD000CF93DF93EC010E9453038C0164E472E031
:100FE000CE010E949107800F911FDF91CF911F9139
:100FF0000F9108950F931F93CF93DF93EC01888196
:101000009981009759F02A813B812617370730F0E4
:1010100081E0DF91CF911F910F9108958B016F5F58
:101020007F4F0E94E115009759F0998388831B83B5
:101030000A832C813D81232B59F7FC011082E8CFD4
:1010400080E0E7CFEF92FF920F931F93CF93DF9350
:101050006115710541F480E0DF91CF911F910F91EF
:10106000FF90EF90089541155105B1F07B01EC011F
:101070000C811D81040F151FB8010E94FA078823F7
:1010800051F3288139818C819D81B701820F931F93
:101090000E94CB161D830C8381E0DECFCF93DF93BC
:1010A000EC0188819981009711F00E9458151982EE
:1010B00018821D821C821B821A82DF91CF910895B3
:1010C000CF93DF93EC01FB0101900020E9F731970A
:1010D000AF01461B570B0E942208811103C0CE01AD
:1010E0000E944E08CE01DF91CF910895CF93DF93F8
:1010F000EC01FB0144815581608171810E942208CD
:10110000811103C0CE010E944E08CE01DF91CF9124
:101110000895EF92FF920F931F93CF93DF93EC010B
:101120007B018A01BA010E94FA0781110BC0CE012E
:101130000E944E08CE01DF91CF911F910F91FF9039
:10114000EF9008951D830C83B701888199810E94D7
:10115000CB16F0CFFB0101900020E9F73197AF01EA
:10116000461B570B0C948908EF92FF920F931F9325
:10117000CF93DF93CDB7DEB7A1970FB6F894DEBF5C
:101180000FBECDBF7C01CB01BA01F70111821082E5
:1011900013821282158214828E010F5F1F4F22E08C
:1011A00044E00E942E0F009789F0BC01C7010E9405
:1011B000AA08A1960FB6F894DEBF0FBECDBFDF918F
:1011C000CF911F910F91FF90EF900895C7010E945A
:1011D0004E08EFCF0F931F93CF93DF93CDB7DEB7BA
:1011E00062970FB6F894DEBF0FBECDBF8C01CB0166
:1011F000F8011182108213821282158214824AE051
:10120000BE016F5F7F4F0E944C0FBE016F5F7F4F2B
:10121000C8010E94AA0862960FB6F894DEBF0FBEFE
:10122000CDBFDF91CF911F910F910895CF93DF93A1
:10123000EC01FB018617970749F060817181611508
:10124000710541F0448155810E948908CE01DF91EA
:10125000CF9108950E944E08F9CFFC0111821082AF
:101260001382128215821482FB0101900020E9F79B
:101270003197AF01461B570B0C948908FC01808104
:101280009181009711F00C94581508951F920F92B8
:101290000FB60F9211242F933F938F939F93AF9389
:1012A000BF938091350390913603A0913703B0919D
:1012B00038033091340323E0230F2D3758F501967E
:1012C000A11DB11D20933403809335039093360301
:1012D000A0933703B09338038091390390913A0378
:1012E000A0913B03B0913C030196A11DB11D8093D9
:1012F000390390933A03A0933B03B0933C03BF910F
:10130000AF919F918F913F912F910F900FBE0F90B2
:101310001F90189526E8230F0296A11DB11DD2CF6C
:101320001F920F920FB60F9211240BB60F922F93AC
:101330003F934F935F936F937F938F939F93AF935D
:10134000BF93EF93FF9383E493E00E94DF03FF9149
:10135000EF91BF91AF919F918F917F916F915F912D
:101360004F913F912F910F900BBE0F900FBE0F909A
:101370001F9018951F920F920FB60F9211240BB663
:101380000F922F938F939F93EF93FF93E0915303CB
:10139000F09154038081E0915903F0915A0382FD4A
:1013A0001DC0908180915C038F5F8F7320915D03DE
:1013B000821741F0E0915C03F0E0ED5BFC4F958F0C
:1013C00080935C03FF91EF919F918F912F910F90EC
:1013D0000BBE0F900FBE0F901F9018958081F2CF1B
:1013E0001F920F920FB60F9211240BB60F922F93EC
:1013F0003F934F935F936F937F938F939F93AF939D
:10140000BF93EF93FF9380EE93E00E94DF03FF9181
:10141000EF91BF91AF919F918F917F916F915F916C
:101420004F913F912F910F900BBE0F900FBE0F90D9
:101430001F9018951F920F920FB60F9211240BB6A2
:101440000F922F938F939F93EF93FF93E091F0036D
:10145000F091F1038081E091F603F091F70382FDB2
:101460001DC090818091F9038F5F8F732091FA03E3
:10147000821741F0E091F903F0E0E052FC4F958FC4
:101480008093F903FF91EF919F918F912F910F908E
:101490000BBE0F900FBE0F901F9018958081F2CF5A
:1014A000E3E4F3E01382128248EE53E060E070E080
:1014B00044835583668377838AE292E091838083B5
:1014C0002DEC30E0358724872CEC30E037872687F9
:1014D00028EC30E0318B208B29EC30E0338B228BF1
:1014E0002AEC30E0358B248B2EEC30E0378B268BCA
:1014F000118E128E138E148EE0EEF3E013821282A0
:1015000044835583668377839183808385EC90E061
:101510009587848784EC90E09787868780EC90E0BD
:10152000918B808B81EC90E0938B828B82EC90E0AE
:10153000958B848B86EC90E0978B868B118E128E28
:10154000138E148EEFEAF4E0138212828CE392E0A1
:101550009183808386E084838FEF858387E0868311
:1015600088E0878389E080878AE081878BE08287B3
:101570001386148615861686178681E00E94BD069E
:1015800083E393E3A3E3BFE380938B0490938C0402
:10159000A0938D04B0938E040895CF93DF93CDB7BD
:1015A000DEB7E9970FB6F894DEBF0FBECDBF7894D3
:1015B00084B5826084BD84B5816084BD85B5826058
:1015C00085BD85B5816085BD80916E008160809309
:1015D0006E00109281008091810082608093810072
:1015E0008091810081608093810080918000816082
:1015F000809380008091B10084608093B1008091DD
:10160000B00081608093B0008091910082608093EF
:101610009100809191008160809391008091900071
:101620008160809390008091A10082608093A100EE
:101630008091A10081608093A1008091A0008160D1
:101640008093A0008091210182608093210180918C
:10165000210181608093210180912001816080932C
:10166000200180917A00846080937A0080917A00D2
:10167000826080937A0080917A00816080937A0002
:1016800080917A00806880937A001092C10080EE89
:1016900093E00E94EF0183E493E00E94EF0182E077
:1016A0000E94BD0660E08CE00E94AB0261E08FE129
:1016B0000E94AB0261E081E20E94AB0261E083E242
:1016C0000E94AB0261E085E20E94AB022FB7F89462
:1016D0008091350390913603A0913703B091380380
:1016E0002FBF4091300350913103609132037091CC
:1016F0003303841B950BA60BB70B4197A105B105CE
:1017000070F167E472E0CE0101960E942D096CE44D
:1017100072E0CE0182960E942D09BE016F5F7F4F5D
:10172000CE0182960E946D07CE0182960E943E09EC
:10173000CE0101960E943E092FB7F894809135039F
:1017400090913603A0913703B09138032FBF809357
:10175000300390933103A0933203B0933303ECE34F
:10176000F3E08491E6EFF2E01491E0EBF2E0049113
:10177000002309F4F9C281110E941602E02FF0E063
:10178000EE0FFF1FEA5AFD4FA591B4918C911823DB
:1017900009F4EAC210922F0310922E0366E572E05C
:1017A000CE0182960E942D096EE572E0CE0101966F
:1017B0000E942D09BE016E5D7F4FCE0101960E94F1
:1017C0006D07CE0101960E943E09CE0182960E94CD
:1017D0003E090E94180346E1242E42E0342E109266
:1017E0002D0310922C03E0912E03F0912F03EE5E57
:1017F000FD4F80811BA21AA21DA21CA21FA21EA225
:1018000089831A82BE016F5F7F4FCE0182960E944C
:10181000AA0866E672E0CE0188960E942D09BE01F4
:101820006E5D7F4FCE0188960E9476081A821982DB
:101830001C821B821E821D82BC01CE0101960E9469
:101840001609BE016F5F7F4F83E493E00E94E607B5
:10185000CE0101960E943E09CE0188960E943E0963
:10186000CE0182960E943E090E9418030E94B5068E
:10187000E0912E03F0912F03EE5EFD4F80811A82DE
:1018800019821C821B821E821D828AA31BA2BE019A
:101890006E5D7F4FCE0101960E94AA086CE772E050
:1018A000CE0182960E942D09BE016F5F7F4FCE014F
:1018B00082960E94760867E872E00E946008BC0188
:1018C0008FEA94E00E94E607CE0182960E943E09CC
:1018D000CE0101960E943E09F101608185E20E94DD
:1018E0007D02F101628183E20E947D020E94F30287
:1018F0002B013C0106E012E0F801608181E20E94C8
:101900007D02F80162818FE10E947D0260E070E853
:101910008DE094E40E94DD058DE493E00E949F0435
:101920008111FACF20919704309198044091990445
:1019300050919A046091AB047091AC048091AD0415
:101940009091AE040E945A1260939B0470939C0481
:1019500080939D0490939E040E9438144B015C0177
:1019600080927F0490928004A0928104B0928204BD
:101970001092860480912C0390912D0320912E03C8
:1019800030912F0346E0429FF001439FF00D112458
:10199000E80FF91FEE0FFF1FEE0FFF1FE453FD4F7F
:1019A00080829182A282B382019690932D038093CC
:1019B0002C0360E070EC80E394E40E94DD0580E598
:1019C00093E00E949F048111FACF209197043091F7
:1019D00098044091990450919A046091AB047091DD
:1019E000AC048091AD049091AE040E945A126093B1
:1019F0009B0470939C0480939D0490939E040E948A
:101A000038146B017C01C0927F04D0928004E09274
:101A10008104F09282041092860480912C039091AC
:101A20002D0320912E0330912F0346E0429FF001B9
:101A3000439FF00D1124E80FF91FEE0FFF1FEE0F6B
:101A4000FF1FE453FD4FC082D182E282F3820196F0
:101A500090932D0380932C030E94B506B701A60135
:101A6000CE0182960E94B408B501A401CE018896E9
:101A70000E94B40860912C0370912D03CE018E96C4
:101A80000E94EA086DE872E0CE01C4960E942D091A
:101A9000BE01625D7F4FCE01C4960E94760864E964
:101AA00072E00E946008BE01685D7F4F0E94760868
:101AB0006AE972E00E946008BE016E5D7F4F0E947D
:101AC00076081A8219821C821B821E821D82BC012A
:101AD000CE0101960E941609BE016F5F7F4F83E41D
:101AE00093E00E94E607CE0101960E943E09CE01D6
:101AF000C4960E943E09CE018E960E943E09CE01F8
:101B000088960E943E09CE0182960E943E0960910D
:101B10002C0370912D03CE0101960E94EA0861EA20
:101B200072E0CE0182960E942D09BE016F5F7F4F49
:101B3000CE0182960E9476086BE872E00E946008EF
:101B4000BC018FEA94E00E945303CE0182960E946A
:101B50003E09CE0101960E943E0960E087E00E94A6
:101B60005E07B501A401CE0101960E94B40866E9A2
:101B700072E0CE0182960E942D09BE016F5F7F4FF9
:101B8000CE0182960E947608BC018FEA94E00E9402
:101B90005303CE0182960E943E09CE0101960E9417
:101BA0003E0961E087E00E945E07B701A601CE0111
:101BB00001960E94B40867EA72E0CE0182960E9404
:101BC0002D09BE016F5F7F4FCE0182960E9476087D
:101BD000BC018FEA94E00E945303CE0182960E94DA
:101BE0003E09CE0101960E943E090E9418030C5F37
:101BF0001F4F82E00231180709F07ECE0E94F302E7
:101C00001BA21AA21DA21CA21FA21EA26419750962
:101C1000860997092AE0AE014F5F5F4F0E94570F78
:101C2000BE016F5F7F4FCE0182960E94AA086BEAC9
:101C300072E0CE0188960E942D09BE016E5D7F4F35
:101C4000CE0188960E9476081A8219821C821B8215
:101C50001E821D82BC01CE0101960E941609BE01A2
:101C60006F5F7F4F83E493E00E94E607CE01019609
:101C70000E943E09CE0188960E943E09CE018296BE
:101C80000E943E0980912E0390912F03019690931C
:101C90002F0380932E0394E0290E311CE6E22E16CA
:101CA000E2E03E0609F09BCD02E112E08CECA82EAA
:101CB00082E0B82EF80161918F0180EE93E00E94DE
:101CC00001046BEB72E080EE93E00E949107150136
:101CD000912C812CF101C190D190E190F1901F01E4
:101CE000A7019601C701B6010E9478146EEB72E05D
:101CF00081111AC026013701E89477F82FEF3FEFE2
:101D00004FE75FE7C301B2010E94781481112FC031
:101D10002FEF3FEF4FE75FE7C301B2010E94F411DD
:101D200018162CF562EC72E080EE93E00E949107A9
:101D30006AEC72E080EE93E00E949107FFEF8F1A49
:101D40009F0A46E08416910429F664E472E080EE6E
:101D500093E00E94910788E1A80EB11CE6E1F2E051
:101D6000E017F10709F0A6CF0E946E04AFCC2FEF69
:101D70003FEF4FE75FE4C701B6010E942D1418162C
:101D80001CF466EC72E0D0CF2FEF3FEF4FE75FEC33
:101D9000C701B6010E94F41187FDF3CF20E030E0C7
:101DA000A901C701B6010E94F41187FF09C06DE2C5
:101DB00080EE93E00E940104F7FAF094F7F8F094B3
:101DC0002AE037ED43EA5BE3C701B6010E9419132D
:101DD0002B013C010E94FE136B017C010E94F91152
:101DE0009B01AC01C301B2010E9418132B013C01FD
:101DF0004AE0C701B6010E94A0076EE280EE93E0C0
:101E00000E94010420E030E040E251E4C301B2014D
:101E10000E945A122B013C010E94FE136B01F12C0F
:101E2000E12C4AE0C701B6010E94A007C701B60134
:101E30000E94F9119B01AC01C301B2010E94181369
:101E400020E030E040E251E40E945A120E94FE136A
:101E500090E080E04AE00E94A0076ACFEF920F93E3
:101E60001F93CF93DF93E80134E047FD34E1042E64
:101E7000000C550B57FF03C0519541955109E32EB6
:101E8000022F242FAE010E94930FCE01DF91CF913C
:101E90001F910F91EF900895BB274A3031F4992399
:101EA00022F4BDE2909581959F4F0C947A0FBB2749
:101EB000FA01A62F6217710581059105330B30FBDE
:101EC00066F0AA27660F771F881F991FAA1FA217FF
:101ED00010F0A21B63953850A9F7A05DAA3308F053
:101EE000A95DA19336F7B111B1931082CA010C9488
:101EF000E411BB27FB015527AA27880F991FAA1FAA
:101F0000A41710F0A41B83955051B9F7A05DAA3314
:101F100008F0A95DA193009779F7B111B1931192DF
:101F2000CB010C94E4118F929F92AF92BF92CF920B
:101F3000DF92EF92FF920F931F93CF93DF9300D026
:101F400000D000D0CDB7DEB76A01F22EB02E102F30
:101F5000FBE3AF2EA01608F41BE31F5F012F27E061
:101F6000AE014F5F5F4F0E940C11BC018981982F19
:101F70009970913009F44EC09BE2E1FC04C09E2DA3
:101F80009170E0FC49C05E2D5071E82FE87083FF2E
:101F900055C084E0911101C083E0EF2DE81B8F153F
:101FA00008F0E0E0D6018E2F20E25523C9F19923F5
:101FB00029F0D6019C93C60101966C0196012D5F14
:101FC0003F4FE2FE33C08EE4D6018C9391E411962C
:101FD0009C93119712968C93D9018E2F90E28111C8
:101FE0002AC0E20FF32FF11D10828EEF9FEF29968A
:101FF0000FB6F894DEBF0FBECDBFDF91CF911F911A
:102000000F91FF90EF90DF90CF90BF90AF909F9097
:102010008F9008959DE2B7CF90E2B5CF2D93815078
:102020008111FCCFCE0ED11CE0E0C1CF8EE6D601EF
:102030008C9391E6CCCF9D938150D1CF482F4470A3
:1020400082FF3DC084E0911101C083E08F1510F440
:10205000EF2DE81BD6018E2F20E2552309F199239D
:1020600029F0D6019C93C60101966C0196012D5F63
:102070003F4FE2FE1BC089E4D6018C938EE411969B
:102080008C93119786E412968C93D9018E2F90E24F
:10209000882309F4A6CF9D938150FACF2D938150C8
:1020A0008111FCCFCE0ED11CE0E0D9CF89E6D6015C
:1020B0008C938EE611968C93119786E6E4CF9B0164
:1020C00077FF02C030E020E0A1E0B0E0911102C053
:1020D000B0E0A0E0F9013196AE0FBF1F8B2C912C20
:1020E000BB2009F461C05401EFEFAE1ABE0AAA0D7D
:1020F000BB1DFA161B0619F014F04F2D4A1B511187
:1021000088C0E3FC59C07601A42FB0E2A1114FC0F2
:10211000C40ED11C992309F45BC040E0D60111968E
:10212000F60190836D01552309F448C0012F060F75
:102130009A81582F507184FF03C0913309F40150E4
:1021400010160CF047C0093008F008E0EEE2FE2E51
:102150005B01A01AB10885019194819491082F3FE9
:10216000320729F4D601FC92F60131966F0162170D
:10217000730794F1021713077CF5DB01A21BB30B65
:10218000AA24A394B12CAC0EBD1EAA0DBB1D1196A2
:102190008C9121503109D601119628153905F4F09A
:1021A000F60180836D01DBCFB12CA12CA0CFF7010C
:1021B000B1937F01A150AACF9111B0CFD601942F36
:1021C00050E302C05D9391509111FCCFC40ED11C1D
:1021D00040E0ACCF01E0BACF80E3DBCF62177307FA
:1021E00031F4963388F4953311F4552369F0F601F0
:1021F0008083FD01842F90E2811108C0A40FB11DDE
:102200001C9290E080E0F3CE81E3F1CF9193815076
:10221000F3CF911183CF8ACF283008F027E03327FE
:10222000DA01990F311D87FD9160009661057105F6
:1022300039F432602E5F3D9330E32A95E1F708953B
:102240009F3F30F080387105610509F03C5F3C5FCD
:102250003D93913008F08068911DDF93CF931F93D9
:102260000F93FF92EF92192F987F9695E92F9695ED
:102270009695E90FFF27EA54FE4F99273327EE245E
:10228000FF24A701E70105900894079428F4360F6E
:10229000E71EF81E491F511D660F771F881F991FE3
:1022A0000694A1F70590079428F4E70EF81E491F3D
:1022B000561FC11D770F881F991F661F0694A1F72F
:1022C0000590079428F4F80E491F561FC71FD11D0B
:1022D000880F991F661F771F0694A1F70590079432
:1022E00020F4490F561FC71FD81F990F661F771F6D
:1022F000881F0694A9F784911095177041F0D69520
:10230000C79557954795F794E7941A95C1F7ECE56B
:10231000F1E068941590159135916591959105902E
:102320007FE27395E118F10A430B560BC90BD009F4
:10233000C0F7E10CF11E431F561FC91FD01D7EF4CC
:10234000703311F48A95E6CFE894015030F0080F0D
:102350000AF40027021708F4202F2395022F7A335E
:1023600028F079E37D932A95E9F710C07D932A95AB
:1023700089F6069497956795379517951794E11800
:10238000F10A430B560BC90BD00998F023957E91A7
:1023900073957A3308F070E37C932013B8F77E913D
:1023A00070617D9330F0839571E37D9370E32A959E
:1023B000E1F71124EF90FF900F911F91CF91DF91E2
:1023C000992787FD90950895DC01FC01672F719195
:1023D0007723E1F7329704C07C916D93708362910B
:1023E000AE17BF07C8F308950E94361208F481E0C3
:1023F0000895E89409C097FB3EF4909580957095F8
:1024000061957F4F8F4F9F4F9923A9F0F92F96E940
:10241000BB279395F695879577956795B795F111B5
:10242000F8CFFAF4BB0F11F460FF1BC06F5F7F4F52
:102430008F4F9F4F16C0882311F096E911C0772364
:1024400021F09EE8872F762F05C0662371F096E86D
:10245000862F70E060E02AF09A95660F771F881F3C
:10246000DAF7880F9695879597F90895990F0008E0
:10247000550FAA0BE0E8FEEF16161706E807F90756
:10248000C0F012161306E407F50798F0621B730BF1
:10249000840B950B39F40A2661F0232B242B252B72
:1024A00021F408950A2609F4A140A6958FEF811D15
:1024B000811D08950E946D120C94DE120E94D012AC
:1024C00038F00E94D71220F0952311F00C94C71217
:1024D0000C94CD1211240C9412130E94EF1270F37D
:1024E000959FC1F3950F50E0551F629FF001729FB9
:1024F000BB27F00DB11D639FAA27F00DB11DAA1FC8
:10250000649F6627B00DA11D661F829F2227B00D14
:10251000A11D621F739FB00DA11D621F839FA00D9F
:10252000611D221F749F3327A00D611D231F849FEF
:10253000600D211D822F762F6A2F11249F57504046
:102540009AF0F1F088234AF0EE0FFF1FBB1F661FC1
:10255000771F881F91505040A9F79E3F510580F08A
:102560000C94C7120C9412135F3FE4F3983ED4F31B
:10257000869577956795B795F795E7959F5FC1F72E
:10258000FE2B880F911D9695879597F9089597F9D9
:102590009F6780E870E060E008959FEF80EC089509
:1025A00000240A9416161706180609060895002432
:1025B0000A9412161306140605060895092E0394AC
:1025C000000C11F4882352F0BB0F40F4BF2B11F420
:1025D00060FF04C06F5F7F4F8F4F9F4F089557FD7F
:1025E0009058440F551F59F05F3F71F04795880F81
:1025F00097FB991F61F09F3F79F087950895121618
:1026000013061406551FF2CF4695F1DF08C01616C3
:1026100017061806991FF1CF869571056105089474
:102620000895E894BB2766277727CB0197F908958B
:102630005058BB27AA270E9430130C94DE120E9428
:10264000D01238F00E94D71220F039F49F3F19F4CD
:1026500026F40C94CD120EF4E095E7FB0C94C7120F
:10266000E92F0E94EF1258F3BA1762077307840725
:10267000950720F079F4A6F50C9411130EF4E0956B
:102680000B2EBA2FA02D0B01B90190010C01CA012C
:10269000A0011124FF27591B99F0593F50F4503ED7
:1026A00068F11A16F040A22F232F342F4427585FC9
:1026B000F3CF469537952795A795F0405395C9F7E1
:1026C0007EF41F16BA0B620B730B840BBAF0915099
:1026D000A1F0FF0FBB1F661F771F881FC2F70EC038
:1026E000BA0F621F731F841F48F48795779567950B
:1026F000B795F7959E3F08F0B0CF9395880F08F0F7
:102700009927EE0F9795879508950E9499130C9439
:10271000DE120E94D71258F00E94D01240F029F425
:102720005F3F29F00C94C71251110C9412130C94B2
:10273000CD120E94EF1268F39923B1F3552391F360
:10274000951B550BBB27AA2762177307840738F020
:102750009F5F5F4F220F331F441FAA1FA9F335D07D
:102760000E2E3AF0E0E832D091505040E695001C31
:10277000CAF72BD0FE2F29D0660F771F881FBB1FEB
:10278000261737074807AB07B0E809F0BB0B802DC9
:10279000BF01FF2793585F4F3AF09E3F510578F0F5
:1027A0000C94C7120C9412135F3FE4F3983ED4F3D9
:1027B000869577956795B795F7959F5FC9F7880FC9
:1027C000911D9695879597F90895E1E0660F771F1B
:1027D000881FBB1F621773078407BA0720F0621BAC
:1027E000730B840BBA0BEE1F88F7E09508950E94D7
:1027F000FE136894B1110C94121308950E94F712FD
:1028000088F09F5798F0B92F9927B751B0F0E1F0B1
:10281000660F771F881F991F1AF0BA95C9F714C061
:10282000B13091F00E941113B1E008950C9411138E
:10283000672F782F8827B85F39F0B93FCCF386959A
:1028400077956795B395D9F73EF4909580957095F7
:1028500061957F4F8F4F9F4F08950E94361208F465
:102860008FEF089519F416F40C94CD120C947D1486
:102870000E94F712B8F39923C9F3B6F39F57550B8B
:1028800087FF0E948B140024A0E640EA9001805844
:102890005695979528F4805C660F771F881F20F067
:1028A00026173707480730F4621B730B840B202967
:1028B00031294A2BA69517940794202531254A27BC
:1028C00058F7660F771F881F20F02617370748072D
:1028D00030F4620B730B840B200D311D411DA0954C
:1028E00081F7B901842F9158880F9695879508959F
:1028F0000E943612880B990B08959F3F31F091503A
:1029000020F4879577956795B795880F911D9695D3
:10291000879597F9089591505040660F771F881F4B
:10292000D2F70895A1E21A2EAA1BBB1BFD010DC010
:10293000AA1FBB1FEE1FFF1FA217B307E407F5076F
:1029400020F0A21BB30BE40BF50B661F771F881F4B
:10295000991F1A9469F760957095809590959B01E1
:10296000AC01BD01CF010895EE0FFF1F881F8BBF83
:102970000790F691E02D19940F931F93CF93DF9357
:102980008230910510F482E090E0E091C904F0916A
:10299000CA0430E020E0B0E0A0E0309799F42115BF
:1029A000310509F44AC0281B390B24303105D8F50C
:1029B0008A819B816115710589F1FB019383828373
:1029C000FE0111C0408151810281138148175907CE
:1029D000E0F04817590799F4109761F012960C939C
:1029E000129713961C933296CF01DF91CF911F91CE
:1029F0000F9108950093C9041093CA04F4CF2115D0
:102A0000310551F04217530738F0A901DB019A0153
:102A1000BD01DF01F801C1CFEF01F9CF9093CA04E6
:102A20008093C904CDCFFE01E20FF31F81939193F0
:102A30002250310939832883D7CF2091C7043091A0
:102A4000C804232B41F420910202309103023093F9
:102A5000C8042093C704209100023091010221157F
:102A6000310541F42DB73EB7409104025091050263
:102A7000241B350BE091C704F091C804E217F3075B
:102A8000A0F42E1B3F0B2817390778F0AC014E5FDE
:102A90005F4F2417350748F04E0F5F1F5093C8044F
:102AA0004093C704819391939FCFF0E0E0E09CCFE7
:102AB000CF93DF930097E9F0FC01329713821282E3
:102AC000A091C904B091CA04ED0130E020E0109754
:102AD000A1F420813181820F931F2091C70430918E
:102AE000C8042817390709F061C0F093C804E093BF
:102AF000C704DF91CF910895EA01CE17DF07E8F50B
:102B00004A815B819E0141155105B1F7E901FB83C3
:102B1000EA8349915991C40FD51FEC17FD0761F461
:102B2000808191810296840F951FE90199838883A2
:102B3000828193819B838A83F0E0E0E012968D91FD
:102B40009C9113970097B9F52D913C911197CD0168
:102B50000296820F931F2091C7043091C804281752
:102B6000390739F6309751F51092CA041092C9040A
:102B7000B093C804A093C704BCCFD383C283408161
:102B80005181840F951FC817D90761F44E5F5F4FBD
:102B900088819981480F591F518340838A819B8185
:102BA000938382832115310509F0B0CFF093CA04D5
:102BB000E093C9049ECFFD01DC01C0CF13821282D5
:102BC000D7CF4F925F926F927F928F929F92AF92E8
:102BD000BF92CF92DF92EF92FF920F931F93CF930A
:102BE000DF938C01009799F4CB01DF91CF911F9176
:102BF0000F91FF90EF90DF90CF90BF90AF909F909C
:102C00008F907F906F905F904F900C94BC14FC015C
:102C1000E60FF71F9C0122503109E217F30708F471
:102C2000AEC0D901CD91DC911197C617D70720F11D
:102C3000C530D10578F0CE0104978617970750F07C
:102C4000C61BD70B2297C193D1936D937C93CF0171
:102C50000E945815C801DF91CF911F910F91FF90ED
:102C6000EF90DF90CF90BF90AF909F908F907F902C
:102C70006F905F904F9008955B01AC1ABD0A4C01B4
:102C80008C0E9D1EA091C904B091CA04512C412CF8
:102C9000F12CE12C109731F58091C7049091C80474
:102CA0008815990509F05CC04616570608F058C00B
:102CB0008091000290910102009741F48DB79EB778
:102CC0004091040250910502841B950BE817F90707
:102CD00008F055C0F093C804E093C704F90171836C
:102CE0006083B8CF8D919C91119712966C9012973A
:102CF00013967C901397A815B90559F56C0142E01D
:102D0000C40ED11CCA14DB0420F1AC014A195B09C2
:102D1000DA011296159780F06282738251834083A4
:102D2000D9016D937C93E114F10471F0D7011396EE
:102D3000FC93EE9312978ECF22968C0F9D1FF90174
:102D400091838083F301EFCFF093CA04E093C90429
:102D500081CF4816590608F42C017D01D3019ACF82
:102D6000CB010E94BC147C01009749F0AE01B80170
:102D70000E94C216C8010E94581587016BCF10E04F
:102D800000E068CFFB01DC0102C001900D924150D0
:102D90005040D8F70895FB01DC0101900D9200200E
:082DA000E1F70895F894FFCF5C
:102DA8000000CB04800001000100010000000000C9
:102DB80000004142434401000100010000000000FE
:102DC80001000000000000000000010461038E0300
:102DD8004E04BF039D03B103000000008B0761038D
:102DE8009C049B040D0A002E2E2E2E00656E636532
:102DF8006E6469646F005052554542415300494E14
:102E08004943494F2000496E6963696F20636F6EBB
:102E180066696775726163696F6E200053656375D3
:102E2800656E6369612000202020202000546573AE
:102E3800743A20002C2056313A002C2056323A2081
:102E480000546573743A0056323A004C612070722F
:102E580075656261206475726F20002C20006E61B8
:0C2E68006E00696E66006F7666002C003C
:00000001FF
