:100000000C94B8010C94E9010C94E9010C94E901F9
:100010000C94E9010C94E9010C94E9010C94E901B8
:100020000C94E9010C94E9010C94E9010C94E901A8
:100030000C94E9010C94E9010C94E9010C94E90198
:100040000C94E9010C94E9010C94E9010C94E90188
:100050000C94E9010C94E9010C94E9010C94E90772
:100060000C94E9010C94BD080C9493080C94E901DC
:100070000C94E9010C94E9010C94E9010C94E90158
:100080000C94E9010C94E9010C94E9010C94E90148
:100090000C945D080C9433080C94E9010C94E9016C
:1000A0000C94E9010C94E9010C94E9010C94E90128
:1000B0000C94E9010C94E9010C94E9010C94E90118
:1000C0000C94E9010C94E9010C94E9010C94E90108
:1000D0000C94E9010C94E9010C94E9010C94E901F8
:1000E0000C94E9010C9455020C946B020C9463027D
:1000F0000C94B6040C9442020C9445020C944F02EA
:100100000C9459020C9470020C944B020C94F3085A
:100110000C9467020C9430020C947B030C9436020E
:100120000C94A8030C943E020C9468040C945D0299
:100130000C94B7030C94CB030C942B060C94B504CD
:100140000C94D9030C9471020C943A020C9475022D
:100150000C941B0400407A10F35A00A0724E180948
:100160000010A5D4E80000E87648170000E40B541E
:10017000020000CA9A3B000000E1F50500008096ED
:100180009800000040420F000000A086010000001F
:10019000102700000000E8030000000064000000D9
:1001A00000000A00000000000100000000002C76A2
:1001B000D888DC674F0823DFC1DFAE59E1B1B796BD
:1001C000E5E3E453C63AE651997696E8E6C284261A
:1001D000EB898C9B62ED407C6FFCEFBC9C9F40F2F6
:1001E000BAA56FA5F490055A2AF75C936B6CF96772
:1001F0006DC11BFCE0E40D47FEF520E6B500D0ED37
:10020000902E0300943577050080841E080000209E
:100210004E0A000000C80C333333330F986E12833C
:100220001141EF8D2114893BE65516CFFEE6DB1810
:10023000D1844B381BF77C1D901DA4BBE4242032D5
:1002400084725E228100C9F124ECA1E53D27000003
:100250002100240027002A002D0030003300010176
:100260000000040107010A01000022002500280007
:100270002B002E00310034000201000005010801AE
:100280000B01000020002300260029002C002F0075
:100290003200000100000301060109010505050502
:1002A000070508080808020202020A0A08080404EE
:1002B000040401010101010101010303030303031C
:1002C0000303040707070C0C0C0C0C0C0C0C0202AB
:1002D000020206060606060606060B0B0B0B0B0BA8
:1002E0000B0B010210202008081020401020408035
:1002F00002010201080402010102040810204080EA
:100300008040201008040201800402018040201077
:1003100008040201080402010102040810204080C0
:10032000010204081020408000000A0B02090C0D95
:100330000E08070304010000000000000000000098
:1003400000000000000000000000000000000000AD
:10035000000000001211100000000000000000006A
:100360000000000000000000000000000000F30892
:1003700011241FBECFEFD1E2DEBFCDBF00E00CBF26
:1003800024E0A6EEB2E001C01D92AD3AB207E1F75B
:1003900012E0A0E0B2E0EEECF8E200E00BBF02C039
:1003A00007900D92A63EB107D9F711E0C8EBD1E056
:1003B00000E006C021970109802FFE010E9447122C
:1003C000C73BD10780E00807A9F70E9463090C9496
:1003D00065140C940000FC01A089B18982E08C9323
:1003E000A485B5851C92A685B7858FEC8C93108E5D
:1003F000A489B58986E08C93A289B3898C918061A8
:100400008C93A289B3898C9188608C93A289B389DB
:100410008C9180688C930288F389E02D80818F7D98
:10042000808308958150823108F05AC0E82FF0E0AF
:100430008827E25EFD4F8F4F0C9447123E02420226
:10044000300236023A02700245024B024F02550258
:1004500059025D026302670270026B02710275024B
:10046000809180008F778093800008958091800034
:100470008F7DF9CF80918000877FF5CF84B58F770E
:1004800084BD089584B58F7DFBCF8091B0008F77B8
:100490008093B00008958091B0008F7DF9CF809156
:1004A00090008F77809390000895809190008F7DC9
:1004B000F9CF80919000877FF5CF8091A0008F7752
:1004C0008093A00008958091A0008F7DF9CF809146
:1004D000A000877FF5CF809120018F778093200146
:1004E0000895809120018F7DF9CF80912001877F31
:1004F000F5CFCF93DF93E4E3F3E08491EEEEF2E007
:10050000D491E8EAF2E0C491CC23A1F081110E94D9
:100510001202EC2FF0E0EE0FFF1FEE57FD4FA591FA
:10052000B491EC91ED2381E090E009F480E0DF915B
:10053000CF91089580E090E0FACF1F93CF93DF939F
:10054000282F30E0F901E85DFC4F8491F901EE516C
:10055000FD4FD491F901E456FD4FC491CC23A9F08D
:10056000162F81110E941202EC2FF0E0EE0FFF1FF8
:10057000E859FD4FA591B4918FB7F894EC91111102
:1005800008C0D095DE23DC938FBFDF91CF911F9100
:100590000895DE2BF8CFCF93DF9390E0FC01EE516E
:1005A000FD4F249184569D4FFC0184918823D1F006
:1005B00090E0880F991FFC01E25BFD4FA591B4917B
:1005C000FC01E859FD4FC591D49161110EC09FB750
:1005D000F8948C91E22FE0958E238C932881E2236E
:1005E000E8839FBFDF91CF9108958FB7F894EC9186
:1005F000E22BEC938FBFF6CF90917B00977F909387
:100600007B008653806480937C0080917A008064B4
:1006100080937A0080917A0086FDFCCF80917800EB
:100620009091790008953FB7F89480915303909189
:100630005403A0915503B091560326B5A89B05C05D
:100640002F3F19F00196A11DB11D3FBFBA2FA92F51
:10065000982F8827BC01CD01620F711D811D911D4E
:1006600042E0660F771F881F991F4A95D1F70895BA
:100670008F929F92AF92BF92CF92DF92EF92FF92B2
:100680000E9413034B015C0188ECC82ED12CE12C95
:10069000F12C0E941303681979098A099B09683EA5
:1006A000734081059105A8F321E0C21AD108E10841
:1006B000F10888EE880E83E0981EA11CB11CC114BD
:1006C000D104E104F10429F7FF90EF90DF90CF907F
:1006D000BF90AF909F908F900895DB0114964D913D
:1006E0005C9115976D917C91DC01ED91FC910280FC
:1006F000F381E02D1994AF92BF92CF92DF92EF92E7
:10070000FF920F931F93CF93DF936C017B018B01BB
:10071000040F151FEB015E01AE18BF08C017D1070B
:1007200059F06991D601ED91FC910190F081E02D95
:10073000C6011995892B79F7C501DF91CF911F91DA
:100740000F91FF90EF90DF90CF90BF90AF90089502
:10075000FC01538D448D252F30E0842F90E0821BC7
:10076000930B541710F0CF96089501970895FC014C
:10077000918D828D981761F0A28DAE0FBF2FB11DA4
:100780005D968C91928D9F5F9F73928F90E00895FC
:100790008FEF9FEF0895FC01918D828D981731F0B6
:1007A000828DE80FF11D858D90E008958FEF9FEF0A
:1007B0000895FC01918D228D892F90E0805C9F4FE0
:1007C000821B91098F739927089587E593E00E9412
:1007D000D90321E0892B09F420E0822F089584EFCA
:1007E00093E00E94D90321E0892B09F420E0822FB5
:1007F0000895FC01A48DA80FB92FB11DA35ABF4FB6
:100800002C91848D90E001968F739927848FA6890F
:10081000B7892C93A089B1898C91837080648C9363
:10082000938D848D981306C00288F389E02D808112
:100830008F7D80830895EF92FF920F931F93CF9344
:10084000DF93EC0181E0888F9B8D8C8D98131AC00B
:10085000E889F989808185FF15C09FB7F894EE89F2
:10086000FF896083E889F98980818370806480834F
:100870009FBF81E090E0DF91CF911F910F91FF909A
:10088000EF900895F62E0B8D10E00F5F1F4F0F7342
:100890001127E02E8C8D8E110CC00FB607FCFACFFD
:1008A000E889F989808185FFF5CFCE010E94F9039F
:1008B000F1CFEB8DEC0FFD2FF11DE35AFF4FF082CE
:1008C0009FB7F8940B8FEA89FB8980818062CFCF34
:1008D000CF93DF93EC01888D8823B9F0AA89BB8977
:1008E000E889F9898C9185FD03C0808186FD0DC062
:1008F0000FB607FCF7CF8C9185FFF2CF808185FF83
:10090000EDCFCE010E94F903E9CFDF91CF91089599
:1009100080E090E0892B29F00E94EF0381110E9472
:10092000000080E090E0892B29F00E94E50381110E
:100930000E94000080E090E0892B49F080E090E088
:10094000892B29F00E94000081110E94000080E0A4
:1009500090E0892B49F080E090E0892B29F00E94FB
:10096000000081110C9400000895089590E080E04B
:100970000895CF93DF93EC0160E08E810E949D0289
:1009800061E08E810E949D0260E08E810E949D0246
:100990008BE891E00197F1F7DF91CF910895CF9225
:1009A000DF92EF92FF920F931F93CF93DF936C012F
:1009B0007C0187E0E80EF11CD0E0C0E0062F10E0DB
:1009C000B8010C2E02C0759567950A94E2F7617024
:1009D000F70181917F010E949D022196C430D105CB
:1009E00079F7C601DF91CF911F910F91FF90EF90A2
:1009F000DF90CF900C94B904CF92DF92EF92FF92E8
:100A00000F931F93CF93DF93EC01F62E642F8C810D
:100A10000E949D028D818F3F19F060E00E949D022F
:100A20000F2D10E08F8584FF25C06E0187E0C80E72
:100A3000D11CF12CE12CB8010E2C02C075956795E4
:100A40000A94E2F76170F60181916F010E949D02A4
:100A5000FFEFEF1AFF0A88E0E816F10461F7CE0114
:100A6000DF91CF911F910F91FF90EF90DF90CF908A
:100A70000C94B904B80184E0759567958A95E1F7FF
:100A8000CE010E94CF046F2DCE01DF91CF911F9137
:100A90000F91FF90EF90DF90CF900C94CF0440E047
:100AA000682F81E994E00C94FC0481E00E944F05DA
:100AB0008BE39FE10197F1F70895CF93DF938230A5
:100AC00029F49091A00498609093A0048093A404CA
:100AD0001092A50480E48093A60480E18093A7048B
:100AE00080E58093A80461E0809195040E94CB0288
:100AF000809196048F3F19F061E00E94CB0261E083
:100B0000809197040E94CB02C1E9D4E09E01215953
:100B100034408091A00484FD0BC084E090E02196D5
:100B20002817390744F461E08E810E94CB02EECF92
:100B300088E090E0F4CF8BE39DE00197F1F760E06F
:100B4000809195040E949D0260E0809197040E942C
:100B50009D02809196048F3F19F060E00E949D02F3
:100B60008091A00484FD34C063E081E994E00E9498
:100B7000CF04CBE4D6E4CE010197F1F763E081E93D
:100B800094E00E94CF042197F1F763E081E994E0BB
:100B90000E94CF0483E592E00197F1F762E081E9DA
:100BA00094E00E94CF048091A00480620E944F05CF
:100BB00084E08093A1048CE00E944F050E945505BB
:100BC00082E08093A20486E0DF91CF910C944F05E0
:100BD00080620E944F058BE496E40197F1F78091C3
:100BE000A00480620E944F0583E592E00197F1F72F
:100BF0008091A00480620E944F05D5CF9091A404FB
:100C0000691710F06FEF690FE62FF0E0EF56FB4F1A
:100C10009489890F80680C944F050F931F93CF938D
:100C2000DF938C01EB010E94550560E080E00E949B
:100C3000FE05B80181E994E00E946D0361E080E067
:100C40000E94FE05BE0181E994E0DF91CF911F91E2
:100C50000F910C946D0341E00E94FC0481E090E050
:100C60000895FB0101900020E9F73197AF01461B81
:100C7000570BDC01ED91FC910280F381E02D19947A
:100C80008F929F92AF92BF920F931F93CF93DF9358
:100C9000CDB7DEB7A1970FB6F894DEBF0FBECDBFBC
:100CA00019A2423008F44AE08E010F5D1F4F842ED6
:100CB000912CB12CA12CA50194010E942512E62FA4
:100CC000B901CA01EA3004F5E05DD801EE938D0167
:100CD000232B242B252B79F790E080E0109729F027
:100CE000BD0184EF93E00E943106A1960FB6F894FF
:100CF000DEBF0FBECDBFDF91CF911F910F91BF908F
:100D0000AF909F908F900895E95CDFCF0F931F9372
:100D1000CF93DF93EC010E946D038C0164E472E0D9
:100D2000CE010E943106800F911FDF91CF911F915C
:100D30000F9108950F931F93CF93DF93EC01888158
:100D40009981009759F02A813B812617370730F0A7
:100D500081E0DF91CF911F910F9108958B016F5F1B
:100D60007F4F0E947413009759F0998388831B83E7
:100D70000A832C813D81232B59F7FC011082E8CF97
:100D800080E0E7CFEF92FF920F931F93CF93DF9313
:100D90006115710541F480E0DF91CF911F910F91B2
:100DA000FF90EF90089541155105B1F07B01EC01E2
:100DB0000C811D81040F151FB8010E949A0688231B
:100DC00051F3288139818C819D81B701820F931F56
:100DD0000E945E141D830C8381E0DECFCF93DF93EE
:100DE000EC0188819981009711F00E94EB12198221
:100DF00018821D821C821B821A82DF91CF91089576
:100E0000CF93DF93EC01FB0101900020E9F73197CC
:100E1000AF01461B570B0E94C206811103C0CE01D1
:100E20000E94EE06CE01DF91CF910895CF93DF931C
:100E3000EC01FB0144815581608171810E94C206F1
:100E4000811103C0CE010E94EE06CE01DF91CF9149
:100E50000895EF92FF920F931F93CF93DF93EC01CE
:100E60007B018A01BA010E949A0681110BC0CE0152
:100E70000E94EE06CE01DF91CF911F910F91FF905E
:100E8000EF9008951D830C83B701888199810E949A
:100E90005E14F0CFFB0101900020E9F73197AF011C
:100EA000461B570B0C942907EF92FF920F931F9349
:100EB000CF93DF93CDB7DEB7A1970FB6F894DEBF1F
:100EC0000FBECDBF7C01CB01BA01F70111821082A8
:100ED00013821282158214828E010F5F1F4F22E04F
:100EE00044E00E94950D009789F0BC01C7010E9463
:100EF0004A07A1960FB6F894DEBF0FBECDBFDF91B3
:100F0000CF911F910F91FF90EF900895C7010E941C
:100F1000EE06EFCF0F931F93CF93DF93CDB7DEB7DE
:100F200062970FB6F894DEBF0FBECDBF8C01CB0128
:100F3000F8011182108213821282158214824AE013
:100F4000BE016F5F7F4F0E94B30DBE016F5F7F4F89
:100F5000C8010E944A0762960FB6F894DEBF0FBE22
:100F6000CDBFDF91CF911F910F910895FB01DC015F
:100F700011961C921E9213961C921E921297159611
:100F80001C921E9214978617970749F06081718111
:100F90006115710521F0448155810C94290708954C
:100FA000FC01118210821382128215821482FB01CD
:100FB00001900020E9F73197AF01461B570B0C94C5
:100FC0002907FC0180819181009711F00C94EB12AC
:100FD00008951F920F920FB60F9211242F933F93F3
:100FE0008F939F93AF93BF9380914F039091500342
:100FF000A0915103B091520330914E0323E0230F8F
:101000002D3758F50196A11DB11D20934E038093F5
:101010004F0390935003A0935103B09352038091D8
:10102000530390915403A0915503B0915603019638
:10103000A11DB11D8093530390935403A0935503B6
:10104000B0935603BF91AF919F918F913F912F9194
:101050000F900FBE0F901F90189526E8230F029651
:10106000A11DB11DD2CF1F920F920FB60F92112466
:101070000BB60F922F933F934F935F936F937F9392
:101080008F939F93AF93BF93EF93FF9387E593E085
:101090000E94F903FF91EF91BF91AF919F918F91C2
:1010A0007F916F915F914F913F912F910F900BBE68
:1010B0000F900FBE0F901F9018951F920F920FB6B2
:1010C0000F9211240BB60F922F938F939F93EF9350
:1010D000FF93E0916703F09168038081E0916D03D5
:1010E000F0916E0382FD1DC09081809170038F5F2F
:1010F0008F7320917103821741F0E0917003F0E04B
:10110000E95AFC4F958F80937003FF91EF919F9167
:101110008F912F910F900BBE0F900FBE0F901F90CD
:1011200018958081F2CF1F920F920FB60F92112463
:101130000BB60F922F933F934F935F936F937F93D1
:101140008F939F93AF93BF93EF93FF9384EF93E0BD
:101150000E94F903FF91EF91BF91AF919F918F9101
:101160007F916F915F914F913F912F910F900BBEA7
:101170000F900FBE0F901F9018951F920F920FB6F1
:101180000F9211240BB60F922F938F939F93EF938F
:10119000FF93E0910404F09105048081E0910A043A
:1011A000F0910B0482FD1DC0908180910D048F5F32
:1011B0008F7320910E04821741F0E0910D04F0E04E
:1011C000EC50FC4F958F80930D04FF91EF919F9110
:1011D0008F912F910F900BBE0F900FBE0F901F900D
:1011E00018958081F2CFE7E5F3E01382128248EE92
:1011F00053E060E070E044835583668377838AE23E
:1012000092E0918380832DEC30E0358724872CECAD
:1012100030E03787268728EC30E0318B208B29ECB3
:1012200030E0338B228B2AEC30E0358B248B2EEC94
:1012300030E0378B268B118E128E138E148EE4EFD6
:10124000F3E013821282448355836683778391830C
:10125000808385EC90E09587848784EC90E0978785
:10126000868780EC90E0918B808B81EC90E0938B73
:10127000828B82EC90E0958B848B86EC90E0978B50
:10128000868B118E128E138E148EE1E9F4E0138298
:1012900012828CE392E09183808386E084838FEFD7
:1012A000858387E0868388E0878389E080878AE07A
:1012B00081878BE0828713861486158616861786AB
:1012C00081E00C945D05CF93DF93CDB7DEB7ED974A
:1012D0000FB6F894DEBF0FBECDBF789484B58260A0
:1012E00084BD84B5816084BD85B5826085BD85B5CA
:1012F000816085BD80916E00816080936E00109248
:1013000081008091810082608093810080918100C2
:101310008160809381008091800081608093800053
:101320008091B10084608093B1008091B0008160B1
:101330008093B000809191008260809391008091B1
:1013400091008160809391008091900081608093F2
:1013500090008091A10082608093A1008091A10003
:1013600081608093A1008091A00081608093A000A3
:10137000809121018260809321018091210181600F
:1013800080932101809120018160809320018091D0
:101390007A00846080937A0080917A0082608093E2
:1013A0007A0080917A00816080937A0080917A003F
:1013B000806880937A001092C10084EF93E00E94CD
:1013C000EB0187E593E00E94EB0182E00E945D055E
:1013D00060E08CE00E94CB0261E08FE10E94CB02D2
:1013E00061E081E20E94CB0261E083E20E94CB02D5
:1013F00061E085E20E94CB022FB7F89480914F0301
:1014000090915003A0915103B09152032FBF40918E
:101410004A0350914B0360914C0370914D03841B20
:10142000950BA60BB70B4197A105B10570F167E4C9
:1014300072E0CE0101960E94D0076CE472E0CE010A
:1014400082960E94D007BE016F5F7F4FCE018296C9
:101450000E940D06CE0182960E94E107CE01019600
:101460000E94E1072FB7F89480914F0390915003A9
:10147000A0915103B09152032FBF80934A039093E0
:101480004B03A0934C03B0934D030E947902019744
:1014900009F0D1C2109249031092480366E572E048
:1014A000CE0182960E94D0076EE572E0CE010196D1
:1014B0000E94D007BE016E5D7F4FCE0101960E9453
:1014C0000D06CE0101960E94E107CE0182960E9490
:1014D000E1070E94380336E1232E32E0332E1092CA
:1014E000470310924603E0914803F0914903EE5EF2
:1014F000FD4F80811BA21AA21DA21CA21FA21EA228
:1015000089831A82BE016F5F7F4FCE0182960E944F
:101510004A0766E672E0CE0188960E94D007BE01B7
:101520006E5D7F4FCE0188960E941607BC01CE01EA
:1015300001960E94B607BE016F5F7F4F87E593E07B
:101540000E948606CE0101960E94E107CE01889690
:101550000E94E107CE0182960E94E1070E943803B3
:101560000E945505E0914803F0914903EE5EFD4F5E
:1015700080811A8219821C821B821E821D828AA38C
:101580001BA2BE016E5D7F4FCE0101960E944A07ED
:101590006CE772E0CE0182960E94D007BE016F5FB9
:1015A0007F4FCE0182960E94160767E872E00E9484
:1015B0000007BC0181E994E00E948606CE01829674
:1015C0000E94E107CE0101960E94E107F1016081CE
:1015D00085E20E949D02F101628183E20E949D02E8
:1015E0000E9413032B013C0106E012E0F801608128
:1015F00081E20E949D02F80162818FE10E949D02BA
:1016000087E30E94FC02BC01990F880B990B0E9492
:1016100062104B015C018091480390914903209135
:101620004603309147033BAF2AAF26E0289FF001E5
:10163000299FF00D1124FDAFECAF8AAD9BADE80FF3
:10164000F91FEE0FFF1FEE0FFF1FEA51FD4F8082C3
:101650009182A282B38288E30E94FC02BC01990FAE
:10166000880B990B0E9462106B017C01EAADFBAD07
:1016700031962CAD3DADE20FF31FEE0FFF1FEE0FC5
:10168000FF1FEA51FD4FC082D182E282F3828AAD10
:101690009BAD029690934703809346030E945505A5
:1016A000B701A601CE0182960E945407B501A4019C
:1016B000CE0188960E9454076091460370914703BB
:1016C000CE018E960E948A076DE872E0CE01C49624
:1016D0000E94D007BE01625D7F4FCE01C4960E947A
:1016E000160764E972E00E940007BE01685D7F4F43
:1016F0000E9416076AE972E00E940007BE016E5D53
:101700007F4F0E941607BC01CE0101960E94B607CA
:10171000BE016F5F7F4F87E593E00E948606CE0192
:1017200001960E94E107CE01C4960E94E107CE0116
:101730008E960E94E107CE0188960E94E107CE01B5
:1017400082960E94E1076091460370914703CE01A3
:1017500001960E948A0761EA72E0CE0182960E9499
:10176000D007BE016F5F7F4FCE0182960E941607A1
:101770006BE872E00E940007BC0181E994E00E94DE
:101780006D03CE0182960E94E107CE0101960E9470
:10179000E10760E087E00E94FE05B501A401CE01EB
:1017A00001960E94540766E972E0CE0182960E947B
:1017B000D007BE016F5F7F4FCE0182960E94160751
:1017C000BC0181E994E00E946D03CE0182960E94E3
:1017D000E107CE0101960E94E10761E087E00E94E7
:1017E000FE05B701A601CE0101960E94540767EAE3
:1017F00072E0CE0182960E94D007BE016F5F7F4FDC
:10180000CE0182960E941607BC0181E994E00E94F5
:101810006D03CE0182960E94E107CE0101960E94DF
:10182000E1070E9438030C5F1F4F32E002311307BB
:1018300009F0DCCE0E9413031BA21AA21DA21CA257
:101840001FA21EA264197509860997092AE0AE0134
:101850004F5F5F4F0E94BE0DBE016F5F7F4FCE0195
:1018600082960E944A076BEA72E0CE0188960E9437
:10187000D007BE016E5D7F4FCE0188960E9416078D
:10188000BC01CE0101960E94B607BE016F5F7F4F7B
:1018900087E593E00E948606CE0101960E94E1074B
:1018A000CE0188960E94E107CE0182960E94E10750
:1018B0008091480390914903019690934903809346
:1018C000480344E0240E311C86E2281682E03806E4
:1018D00009F005CE0E947902892B09F04AC02FB782
:1018E000F89480914F0390915003A0915103B091CF
:1018F00052032FBF40914A0350914B0360914C0318
:1019000070914D03841B950BA60BB70B4197A10556
:10191000B10500F36BEB72E0CE0182960E94D00716
:1019200067EC72E0CE0101960E94D007BE016E5DA9
:101930007F4FCE0101960E940D06CE0101960E94B6
:10194000E107CE0182960E94E1072FB7F8948091BB
:101950004F0390915003A0915103B09152032FBFB8
:1019600080934A0390934B03A0934C03B0934D0391
:10197000B1CF02E112E086EEA82E82E0B82EF80187
:1019800061918F0184EF93E00E941B0464ED72E08B
:1019900084EF93E00E9431061501912C812CF10116
:1019A000C190D190E190F1901F01A7019601C7016C
:1019B000B6010E94201267ED72E081111AC0260163
:1019C0003701E89477F82FEF3FEF4FE75FE7C30168
:1019D000B2010E942012811131C02FEF3FEF4FE77B
:1019E0005FE7C301B2010E945B1018163CF56BED76
:1019F00072E084EF93E00E94310663EE72E084EFC0
:101A000093E00E943106FFEF8F1A9F0A26E08216AC
:101A1000910429F664E472E084EF93E00E943106B9
:101A200038E1A30EB11C86E192E08017910709F01E
:101A3000A6CF0E9438030E948804DECC2FEF3FEF30
:101A40004FE75FE4C701B6010E941B1218161CF491
:101A50006FED72E0CECF2FEF3FEF4FE75FECC701A6
:101A6000B6010E945B1087FDF3CF20E030E0A901B2
:101A7000C701B6010E945B1087FF09C06DE284EFC9
:101A800093E00E941B04F7FAF094F7F8F0942AE030
:101A900037ED43EA5BE3C701B6010E9480112B01D9
:101AA0003C010E94EC116B017C010E9460109B01C3
:101AB000AC01C301B2010E947F112B013C014AE03D
:101AC000C701B6010E9440066EE284EF93E00E94D7
:101AD0001B0420E030E040E251E4C301B2010E9467
:101AE000C1102B013C010E94EC116B01F12CE12C87
:101AF0004AE0C701B6010E944006C701B6010E9434
:101B000060109B01AC01C301B2010E947F1120E073
:101B100030E040E251E40E94C1100E94EC1190E0DC
:101B200080E04AE00E94400668CFEF920F931F9337
:101B3000CF93DF93E80134E047FD34E1042E000C3D
:101B4000550B57FF03C0519541955109E32E022FC4
:101B5000242FAE010E94FA0DCE01DF91CF911F918B
:101B60000F91EF900895BB274A3031F4992322F466
:101B7000BDE2909581959F4F0C94E10DBB27FA0132
:101B8000A62F6217710581059105330B30FB66F0B6
:101B9000AA27660F771F881F991FAA1FA21710F088
:101BA000A21B63953850A9F7A05DAA3308F0A95D80
:101BB000A19336F7B111B1931082CA010C944B1066
:101BC000BB27FB015527AA27880F991FAA1FA41717
:101BD00010F0A41B83955051B9F7A05DAA3308F00B
:101BE000A95DA193009779F7B111B1931192CB013F
:101BF0000C944B108F929F92AF92BF92CF92DF9234
:101C0000EF92FF920F931F93CF93DF9300D000D0FA
:101C100000D0CDB7DEB76A01F22EB02E102FFBE355
:101C2000AF2EA01608F41BE31F5F012F27E0AE01C3
:101C30004F5F5F4F0E94730FBC018981982F99708D
:101C4000913009F44EC09BE2E1FC04C09E2D9170DE
:101C5000E0FC49C05E2D5071E82FE87083FF55C04D
:101C600084E0911101C083E0EF2DE81B8F1508F08F
:101C7000E0E0D6018E2F20E25523C9F1992329F007
:101C8000D6019C93C60101966C0196012D5F3F4FD2
:101C9000E2FE33C08EE4D6018C9391E411969C93BE
:101CA000119712968C93D9018E2F90E281112AC040
:101CB000E20FF32FF11D10828EEF9FEF29960FB6E2
:101CC000F894DEBF0FBECDBFDF91CF911F910F9172
:101CD000FF90EF90DF90CF90BF90AF909F908F904C
:101CE00008959DE2B7CF90E2B5CF2D938150811139
:101CF000FCCFCE0ED11CE0E0C1CF8EE6D6018C9396
:101D000091E6CCCF9D938150D1CF482F447082FF74
:101D10003DC084E0911101C083E08F1510F4EF2DD8
:101D2000E81BD6018E2F20E2552309F1992329F0D3
:101D3000D6019C93C60101966C0196012D5F3F4F21
:101D4000E2FE1BC089E4D6018C938EE411968C933D
:101D5000119786E412968C93D9018E2F90E28823F6
:101D600009F4A6CF9D938150FACF2D938150811114
:101D7000FCCFCE0ED11CE0E0D9CF89E6D6018C9302
:101D80008EE611968C93119786E6E4CF9B0177FF40
:101D900002C030E020E0A1E0B0E0911102C0B0E06C
:101DA000A0E0F9013196AE0FBF1F8B2C912CBB2008
:101DB00009F461C05401EFEFAE1ABE0AAA0DBB1DB3
:101DC000FA161B0619F014F04F2D4A1B511188C04A
:101DD000E3FC59C07601A42FB0E2A1114FC0C40E9C
:101DE000D11C992309F45BC040E0D6011196F6019D
:101DF00090836D01552309F448C0012F060F9A8185
:101E0000582F507184FF03C0913309F4015010160C
:101E10000CF047C0093008F008E0EEE2FE2E5B014E
:101E2000A01AB10885019194819491082F3F32073F
:101E300029F4D601FC92F60131966F0162177307FF
:101E400094F1021713077CF5DB01A21BB30BAA2444
:101E5000A394B12CAC0EBD1EAA0DBB1D11968C9186
:101E600021503109D601119628153905F4F0F601F3
:101E700080836D01DBCFB12CA12CA0CFF701B193F2
:101E80007F01A150AACF9111B0CFD601942F50E37A
:101E900002C05D9391509111FCCFC40ED11C40E063
:101EA000ACCF01E0BACF80E3DBCF6217730731F428
:101EB000963388F4953311F4552369F0F601808345
:101EC000FD01842F90E2811108C0A40FB11D1C9266
:101ED00090E080E0F3CE81E3F1CF91938150F3CF96
:101EE000911183CF8ACF283008F027E03327DA0119
:101EF000990F311D87FD916000966105710539F4D8
:101F000032602E5F3D9330E32A95E1F708959F3FBD
:101F100030F080387105610509F03C5F3C5F3D930E
:101F2000913008F08068911DDF93CF931F930F933A
:101F3000FF92EF92192F987F9695E92F9695969597
:101F4000E90FFF27E255FE4F99273327EE24FF24A0
:101F5000A701E70105900894079428F4360FE71EBF
:101F6000F81E491F511D660F771F881F991F069481
:101F7000A1F70590079428F4E70EF81E491F561F95
:101F8000C11D770F881F991F661F0694A1F7059042
:101F9000079428F4F80E491F561FC71FD11D880F3C
:101FA000991F661F771F0694A1F70590079420F4E8
:101FB000490F561FC71FD81F990F661F771F881F0D
:101FC0000694A9F784911095177041F0D695C7959E
:101FD00057954795F794E7941A95C1F7E4E5F1E032
:101FE00068941590159135916591959105907FE2D2
:101FF0007395E118F10A430B560BC90BD009C0F7D2
:10200000E10CF11E431F561FC91FD01D7EF4703313
:1020100011F48A95E6CFE894015030F0080F0AF4E5
:102020000027021708F4202F2395022F7A3328F077
:1020300079E37D932A95E9F710C07D932A9589F677
:10204000069497956795379517951794E118F10AB7
:10205000430B560BC90BD00998F023957E917395CD
:102060007A3308F070E37C932013B8F77E917061A7
:102070007D9330F0839571E37D9370E32A95E1F7CA
:102080001124EF90FF900F911F91CF91DF9199272D
:1020900087FD90950895DC01FC01672F71917723EE
:1020A000E1F7329704C07C916D9370836291AE1713
:1020B000BF07C8F308950E949D1008F481E00895B9
:1020C000E89409C097FB3EF49095809570956195D2
:1020D0007F4F8F4F9F4F9923A9F0F92F96E9BB2788
:1020E0009395F695879577956795B795F111F8CF04
:1020F000FAF4BB0F11F460FF1BC06F5F7F4F8F4F6F
:102100009F4F16C0882311F096E911C0772321F064
:102110009EE8872F762F05C0662371F096E8862FFC
:1021200070E060E02AF09A95660F771F881FDAF753
:10213000880F9695879597F90895990F0008550F80
:10214000AA0BE0E8FEEF16161706E807F907C0F03D
:1021500012161306E407F50798F0621B730B840B45
:10216000950B39F40A2661F0232B242B252B21F41F
:1021700008950A2609F4A140A6958FEF811D811DBF
:1021800008950E94D4100C9445110E94371138F024
:102190000E943E1120F0952311F00C942E110C9406
:1021A000341111240C9479110E94561170F3959FEB
:1021B000C1F3950F50E0551F629FF001729FBB273E
:1021C000F00DB11D639FAA27F00DB11DAA1F649FDA
:1021D0006627B00DA11D661F829F2227B00DA11D8D
:1021E000621F739FB00DA11D621F839FA00D611D13
:1021F000221F749F3327A00D611D231F849F600D34
:10220000211D822F762F6A2F11249F5750409AF05C
:10221000F1F088234AF0EE0FFF1FBB1F661F771FE8
:10222000881F91505040A9F79E3F510580F00C94B3
:102230002E110C9479115F3FE4F3983ED4F3869508
:1022400077956795B795F795E7959F5FC1F7FE2B53
:10225000880F911D9695879597F9089597F99F672F
:1022600080E870E060E008959FEF80EC089500241E
:102270000A941616170618060906089500240A94EB
:1022800012161306140605060895092E0394000C71
:1022900011F4882352F0BB0F40F4BF2B11F460FF00
:1022A00004C06F5F7F4F8F4F9F4F089557FD905829
:1022B000440F551F59F05F3F71F04795880F97FB0A
:1022C000991F61F09F3F79F08795089512161306C4
:1022D0001406551FF2CF4695F1DF08C016161706F3
:1022E0001806991FF1CF8695710561050894089528
:1022F000E894BB2766277727CB0197F908955058B4
:10230000BB27AA270E9497110C9445110E943711F0
:1023100038F00E943E1120F039F49F3F19F426F462
:102320000C9434110EF4E095E7FB0C942E11E92F78
:102330000E94561158F3BA1762077307840795076E
:1023400020F079F4A6F50C9478110EF4E0950B2E9C
:10235000BA2FA02D0B01B90190010C01CA01A001F7
:102360001124FF27591B99F0593F50F4503E68F152
:102370001A16F040A22F232F342F4427585FF3CF93
:10238000469537952795A795F0405395C9F77EF464
:102390001F16BA0B620B730B840BBAF09150A1F0AD
:1023A000FF0FBB1F661F771F881FC2F70EC0BA0F33
:1023B000621F731F841F48F4879577956795B795BB
:1023C000F7959E3F08F0B0CF9395880F08F09927B6
:1023D000EE0F9795879508950E945E1188F09F579C
:1023E00098F0B92F9927B751B0F0E1F0660F771F39
:1023F000881F991F1AF0BA95C9F714C0B13091F02F
:102400000E947811B1E008950C947811672F782F0D
:102410008827B85F39F0B93FCCF3869577956795F3
:10242000B395D9F73EF490958095709561957F4F5F
:102430008F4F9F4F08950E949D1008F48FEF0895CD
:102440000E949D10880B990B0895A1E21A2EAA1BD9
:10245000BB1BFD010DC0AA1FBB1FEE1FFF1FA21754
:10246000B307E407F50720F0A21BB30BE40BF50B51
:10247000661F771F881F991F1A9469F760957095DA
:10248000809590959B01AC01BD01CF010895EE0FA1
:10249000FF1F881F8BBF0790F691E02D19940F93B3
:1024A0001F93CF93DF938230910510F482E090E088
:1024B000E091AB04F091AC0430E020E0B0E0A0E0AB
:1024C000309799F42115310509F44AC0281B390BBE
:1024D00024303105D8F58A819B816115710589F118
:1024E000FB0193838283FE0111C0408151810281EF
:1024F000138148175907E0F04817590799F41097C6
:1025000061F012960C93129713961C933296CF019A
:10251000DF91CF911F910F9108950093AB04109319
:10252000AC04F4CF2115310551F04217530738F0B0
:10253000A901DB019A01BD01DF01F801C1CFEF0163
:10254000F9CF9093AC048093AB04CDCFFE01E20FA2
:10255000F31F819391932250310939832883D7CF78
:102560002091A9043091AA04232B41F42091020266
:10257000309103023093AA042093A9042091000211
:10258000309101022115310541F42DB73EB740913C
:10259000040250910502241B350BE091A904F0912F
:1025A000AA04E217F307A0F42E1B3F0B28173907E4
:1025B00078F0AC014E5F5F4F2417350748F04E0F9F
:1025C0005F1F5093AA044093A904819391939FCFD6
:1025D000F0E0E0E09CCFCF93DF930097E9F0FC01BF
:1025E000329713821282A091AB04B091AC04ED013A
:1025F00030E020E01097A1F420813181820F931FF9
:102600002091A9043091AA042817390709F061C064
:10261000F093AA04E093A904DF91CF910895EA0111
:10262000CE17DF07E8F54A815B819E014115510510
:10263000B1F7E901FB83EA8349915991C40FD51F92
:10264000EC17FD0761F4808191810296840F951F3C
:10265000E90199838883828193819B838A83F0E057
:10266000E0E012968D919C9113970097B9F52D910A
:102670003C911197CD010296820F931F2091A904DE
:102680003091AA042817390739F6309751F510927E
:10269000AC041092AB04B093AA04A093A904BCCFDD
:1026A000D383C28340815181840F951FC817D907F6
:1026B00061F44E5F5F4F88819981480F591F5183A4
:1026C00040838A819B81938382832115310509F0A0
:1026D000B0CFF093AC04E093AB049ECFFD01DC01DE
:1026E000C0CF13821282D7CF4F925F926F927F92A8
:1026F0008F929F92AF92BF92CF92DF92EF92FF9212
:102700000F931F93CF93DF938C01009799F4CB0124
:10271000DF91CF911F910F91FF90EF90DF90CF90BD
:10272000BF90AF909F908F907F906F905F904F90F1
:102730000C944F12FC01E60FF71F9C012250310947
:10274000E217F30708F4AEC0D901CD91DC911197DF
:10275000C617D70720F1C530D10578F0CE01049710
:102760008617970750F0C61BD70B2297C193D193BA
:102770006D937C93CF010E94EB12C801DF91CF9142
:102780001F910F91FF90EF90DF90CF90BF90AF908F
:102790009F908F907F906F905F904F9008955B0116
:1027A000AC1ABD0A4C018C0E9D1EA091AB04B091D9
:1027B000AC04512C412CF12CE12C109731F5809177
:1027C000A9049091AA048815990509F05CC04616E1
:1027D000570608F058C080910002909101020097BE
:1027E00041F48DB79EB74091040250910502841BBD
:1027F000950BE817F90708F055C0F093AA04E09389
:10280000A904F90171836083B8CF8D919C911197D0
:1028100012966C90129713967C901397A815B90591
:1028200059F56C0142E0C40ED11CCA14DB0420F13E
:10283000AC014A195B09DA011296159780F06282A1
:10284000738251834083D9016D937C93E114F10429
:1028500071F0D7011396FC93EE9312978ECF2296C8
:102860008C0F9D1FF90191838083F301EFCFF093CB
:10287000AC04E093AB0481CF4816590608F42C0150
:102880007D01D3019ACFCB010E944F127C010097AA
:1028900049F0AE01B8010E945514C8010E94EB1224
:1028A00087016BCF10E000E068CFFB01DC0102C0C4
:1028B00001900D9241505040D8F70895FB01DC0182
:0E28C00001900D920020E1F70895F894FFCFEB
:1028CE000000AD04800001000100010000000000C6
:1028DE0000004142434401000100010000000000DD
:1028EE00010000000000000000001B047B03A80391
:1028FE006804D903B703CB03000000002B067B034B
:10290E00B604B5040D0A002E2E2E2E00656E6365DC
:10291E006E6469646F005052554542415300494EF2
:10292E004943494F2000496E6963696F20636F6E9A
:10293E0066696775726163696F6E200053656375B2
:10294E00656E63696120002020202020005465738D
:10295E00743A20002C2056313A002C2056323A2060
:10296E0000546573743A0056323A004C612070720E
:10297E0075656261206475726F20004361726761D4
:10298E0072206461746100507265696F6E652070AB
:10299E00617261002C20006E616E00696E66006FC0
:0629AE007666002C00001B
:00000001FF
